:020000022000DC
:106000000000042061630200C1630200C363020058
:10601000C5630200C7630200C963020000000000FC
:10602000000000000000000000000000D1FF03009D
:10603000CD63020000000000EDFF0300D163020009
:1060400041D90400D363020031DA0400A1D904006D
:10605000C5D90400D363020029D30400D36302002E
:10606000D363020015F804002DF80400D363020086
:10607000D3630200D3630200D3630200D363020040
:10608000990905004DFD0300D36302000DDA0400F9
:10609000D3630200D36302007D3E0500D363020098
:1060A000D3630200D363020045F804005DF80400E6
:1060B000C9260500D36302000000000000000000B4
:1060C000D3630200DD260500D3630200E9D9040092
:1060D00085090500D36302002B830300A9AF0400E8
:1060E000D363020001050500D36302000000000035
:1060F00000000000D363020000000000A1E30400E0
:10610000000000000000000000000000000000008F
:10611000000000000000000000000000000000007F
:10612000000000000000000000000000000000006F
:10613000000000000000000000000000000000005F
:10614000000000000000000000000000000000004F
:10615000000000000000000000000000000000003F
:10616000000000000000000000000000000000002F
:10617000000000000000000000000000000000001F
:10618000000000000000000000000000000000000F
:1061900000000000000000000000000000000000FF
:1061A00000000000000000000000000000000000EF
:1061B00000000000000000000000000000000000DF
:1061C00000000000000000000000000000000000CF
:1061D00000000000000000000000000000000000BF
:1061E00000000000000000000000000000000000AF
:1061F000000000000000000000000000000000009F
:10620000364937480A1A02D0072291438D4635494C
:1062100035480A1A06D00722914381F309880222E1
:1062200082F3148831483249324A00F045F8324846
:106230003249334A00F040F832483349334A00F0DB
:106240003BF833483349344A00F036F83348344990
:10625000344A00F031F834483449354A00F02CF81B
:1062600034483549354A00F027F835483549002289
:1062700000F02DF834483549002200F028F8344861
:106280003449091A082903DB002202600430016046
:10629000314A90471F482049884205D0026804309F
:1062A00003B4904703BCF7E700208646EC46002085
:1062B00000212A4A9047FEE7884207D0521A05D0AB
:1062C000037801300B700131013AF9D170478842EF
:1062D00002D002700130FAE770470000000004208D
:1062E00000D003200000042000000420502D0D00E9
:1062F000E45A002070700020D8630200D8630200C6
:1063000064A00A00502D0D00E45A0020E45A002039
:106310008CA20A008CA20A008CA20A008CA20A009D
:106320008CA20A008CA20A008CA20A008CA20A008D
:10633000502D0D00DC420D007070002070700020A8
:10634000707000207052032070520320B45203205A
:10635000B4520320B4AE03208963020041830300DA
:106360001048804710484FF00701884385460F4882
:1063700080470F48016841F470010160BFF34F8FFF
:10638000BFF36F8FFFF73CBF0A480B490B4A8842A7
:1063900007D0521A05D0037801300B700131013A51
:1063A000F9D17047D5630200000004209140050038
:1063B00088ED00E078A20A00D05A0020E45A0020BC
:1063C000FEE7FEE7FEE7FEE7FEE7FEE7FEE7FEE7A5
:0863D000FEE7FEE7704700BF85
:1063D800014B00221A70704770700020F0B4044618
:1063E800A0F577562F3E85000544AF00154B3B447A
:1063F8005E85154D285C83F824004B1EDBB20B2B01
:106408001DD88B180C2B1ADC00230AE004EB84003F
:1064180085000C4828441844FF2580F82C50013387
:10642800DBB20B2B0BD88B42F0D29D1804EB840007
:10643800860004483044184480F82C50EFE7F0BC3C
:10644800704700BF70700020E45A0020054B0022FE
:10645800A3F81821A3F8162183F82021C3F81C21DA
:10646800704700BF7070002010B504460D2011F071
:10647800C5FD0346D8B1A27A0E4981F83821B4F88F
:106488000B000D4A90800022C1F83C210B490A609C
:106498000B490A70618819802188598083211972F3
:1064A8005A72A27A9A72B4F80B20A3F80B201846F5
:1064B80010BD00BF70700020E45A002034EA0020AC
:1064C800B91B022010B504460C2011F097FD0346B5
:1064D80078B1094A012182F8401162890749CA80C6
:1064E8004281002242727F220272228842806288A0
:1064F8000280184610BD00BF70700020E45A0020CA
:1065080010B50446162011F079FD0346F8B10022B3
:1065180042726FF0770181727721C17202736FF056
:1065280066014173562181733421C17312210174AC
:1065380042744E2181746121C1746FF04301017569
:10654800427565220272628802802288428018465B
:1065580010BD10B50446162011F050FD034618B3BF
:10656800002242726FF0770181727721C172662131
:10657800017355214173122181736FF01001C173AA
:106588006FF0320101746FF0540141744E2181742F
:106598006121C1746FF04301017542756322027273
:1065A8006288028022884280184610BD10B50446D1
:1065B8000D2011F023FD034678B1227A292A0ED046
:1065C8002B2A0FD000225A720B4A127A1A73628948
:1065D8005A8122885A8062881A80184610BD2A2259
:1065E8000272EFE7227B04490A7212B90A460121B6
:1065F80011722C221A72E5E7E45A002038B50446D5
:10660800807A40000B3011F0F9FC0546002800F0B4
:10661800A88077230372A37A83720023A27A9A420E
:1066280009D95A00A118C87A2A44D072097B117373
:106638000133DBB2F2E7002315E004EB4302D27A20
:1066480032B3494A2021C2F844114021C2F8481106
:106658008021C2F84C114FF48071C2F85011002209
:106668006A720133DBB2A27A9A4260D904EB430220
:10667800127B042A58D801A151F822F0436602007F
:10668800AF660200CF660200EF6602000F670200E5
:10669800354A0021C2F84411C2F84811C2F84C1119
:1066A800C2F85011DBE704EB4302D27A32B12E4A2A
:1066B8002021C2F8441100226A72D2E72A4A002136
:1066C800C2F84411F7E704EB4302D27A32B1264A02
:1066D8004021C2F8481100226A72C2E7224A00210A
:1066E800C2F84811F7E704EB4302D27A32B11E4AE6
:1066F8008021C2F84C1100226A72B2E71A4A0021BE
:10670800C2F84C11F7E704EB4302D27A3AB1164AC1
:106718004FF48071C2F8501100226A72A1E7124A40
:106728000021C2F85011F7E701226A7299E70E4A70
:10673800D2F84431D2F848110B43D2F84C110B432C
:10674800D2F850110B43C2F85431003318BF01235B
:1067580082F85831002382F8593163882B802388C6
:106768006B80284638BD00BF7070002010B5044605
:106778000E2011F043FC0346D0B11122027201220F
:1067880042720E4AB2F86821A2B9032242726189A4
:10679800CAB2113A5981094951FA82F292F85C2138
:1067A8001A73B1F868215A7362881A8022885A804D
:1067B800184610BD02224272E9E700BF707000203F
:1067C80008B5D0F812100E3014F031F8002008BDCA
:1067D80038B50546F22011F011FC044608B32DF037
:1067E800DBFF38B1982363729C2323720023A372C2
:1067F800E37210E02DF0DEFF0B4B012283F88221BB
:106808009723F0E704EB830200219173D17311748D
:10681800517401339BB2382BF4D96B8823802B88B1
:106828006380204638BD00BF7070002070B50546F3
:10683800F22011F0E3FB044600285ED0AB89013B4F
:106848009BB2032B40D82E4AB2F884310133A2F808
:10685800843100230EE02A49B1F88621501CA1F8A2
:10686800860105EB8301D1F80E00264941F8220084
:1068780001339BB26A899A42EDD82348234BC01A48
:10688800C00800041E4EB6F88631214940F00300C6
:106898002CF016FCAA89B6F884319A4201D09723C5
:1068A80013E0B6F8861117482DF06AFF38B198231F
:1068B800134A0021A2F88411A2F8861105E00120EC
:1068C8002DF078FF9723F3E7982363729A232372B6
:1068D8000023A372E372AA89A28108E004EB830271
:1068E80000219173D1731174517401339BB2382B09
:1068F800F4D96B8823802B886380204670BD00BF45
:1069080070700020E4950020F0A10A0010A10A0090
:10691800B4A20A00F8B505460E4617461C461122D1
:10692800002103F1080073F0F2FF282323720022EC
:106938006272C4F80A7008E0012B04D115F8013B13
:1069480003F00F03A3730132D2B2082A5CD80123E3
:1069580093403340102B48D00BDC022B3BD0EBDDAF
:10696800042B3DD0082BEED115F8013BA4F81130CB
:10697800E9E7402B3ED018DD802B40D0B3F5807F6F
:10698800E1D12B781B0203F47063B4F815100B43A4
:10699800A4F815302B781B0203F470431BB2B4F82B
:1069A80017100B43A4F81730CDE7202BCBD12B7849
:1069B8001B0203F47063B4F811100B43A4F81130F0
:1069C8002B78190905F8011BB4F8133043EA0123A1
:1069D800A4F81330B7E715F8013BA4F80F30B2E775
:1069E80015F8013BA4F80F30ADE715F8013BA4F802
:1069F8001330A8E715F8013BA4F81530A3E715F8FC
:106A0800013BA4F817309EE7174BB3F89111B4F87F
:106A1800112093B2994210D0134BA3F89121B4F8E6
:106A28001320A3F89321B4F81520A3F89521B4F8FE
:106A38001720A3F897210120F8BD0B4BB3F8931149
:106A4800B4F813309942E7D1074BB3F89511B4F86D
:106A580015309942E0D1044BB3F89711B4F81730C8
:106A68009942D9D10020E7E7707000202DE9F04362
:106A780083B08046F22011F0C1FA0546002800F0E4
:106A88008B80E42200210E3073F041FF454C042234
:106A98000021204673F03BFF02A9E42321F8023DC0
:106AA80020462DF061FE002867D1BDF806303E4F24
:106AB800A7FB0327DA1B07EB52077F09C7EBC702BF
:106AC80007EBC2029B1A9BB2003318BF012313FACB
:106AD80087F7BFB20026344623E0BDF806C0324B24
:106AE800A3FB0C23ACEB030203EB52035B09C3EBE0
:106AF800C30203EBC203ACEB030C1FFA8CFC19E0D6
:106B0800621C284951F8240005EB8301C1F80E00E6
:106B180001339BB294B26345F2D3F1450FD10136EC
:106B2800B6B2BE4227D2B14607F1FF3E7645D4D071
:106B38004FF0390CA5F80AC0AF810023EBE7B8F88D
:106B480002302B80B8F800306B8097236B72982343
:106B58002B720DF10501284611F060FB3C2056F020
:106B68002FF9F22011F04AFAD0B1E42200210E30B8
:106B780073F0CDFED3E7972305E00023AB72EB72E9
:106B88002B736B7398236B7298232B72B8F80230AF
:106B98002B80B8F800306B80284603B0BDE8F0833E
:106BA8000546F9E7E4950020DD47701F08B556F063
:106BB80007F908BD00B5ADF5037D0023ADF8063231
:106BC800364B1B78C3B9354B01221A7093F89931AB
:106BD8007BBB33491E202DF0BBFF324BB3F81A3A6A
:106BE800B3F5FA7F04D32D4B93F89C31002B36D0A4
:106BF8002B491E202DF0ACFF284BB3F89A31002BFF
:106C080036D10DF2062058F07DFA00283BD101A9B3
:106C1800BDF806022EF09AF8002839D11F4B03F56B
:106C2800D072D3F8AC1101A857F094FC58F090FC3E
:106C38002EE01A4B002283F899210FF0CDFD50B1B8
:106C4800184BB3F8042B184B1B6803FB02F3013BEA
:106C5800164A1360BDE7154B00221A60B9E70721F1
:106C680000201DF083FB0D4B012283F89C21BFE718
:106C78004FF6FF7102202EF052F94FF6FF710320F4
:106C88002EF04DF9BDE74FF4004100202EF047F9F2
:106C980000200DF5037D5DF804FB00BF7070002037
:106CA8000A720020D83D03204CB10020F8B2002021
:106CB80010B50446D0F80A30032B31D0042B35D058
:106CC800022B2AD0162011F099F9034618B3002296
:106CD8004272442181723321C17222210173112130
:106CE80041736FF0220181736FF03301C1736FF04C
:106CF800440101746FF0550141744E218174612182
:106D0800C1746FF043010175427561220272628895
:106D1800028022884280184610BDFFF74BFFD1E75A
:106D28004FF4004100202EF0FAF8CBE74FF4004171
:106D380001202EF0F4F8C5E72DE9F043ADF5677DA5
:106D48008046F02011F05AF90546002800F08980A5
:106D58004FF46472002101A873F0D9FDE4220021E8
:106D680005F10C0073F0D3FD0DF2963101A82DF05A
:106D78002BFB002868D1BDF896333D4FA7FB0327AE
:106D8800DA1B07EB52077F09C7EBC70207EBC20202
:106D98009B1A9BB2003318BF012313FA87F7BFB2BF
:106DA8000026344624E0BDF896C3314BA3FB0C23E0
:106DB800ACEB030203EB52035B09C3EBC30203EB27
:106DC800C203ACEB03035FFA83FC1AE0621C01A95F
:106DD80051F8240005EB8301C86001339BB294B2DB
:106DE8001FFA8CF29A42F1D8F1450FD10136B6B2AA
:106DF800BE4227D2B14607F1FF3E7645D3D04FF0C9
:106E0800390C85F80AC0EF720023E9E7B8F80230B8
:106E18002B80B8F800306B8000236B7226232B720E
:106E28000DF10301284611F0F9F93C2055F0C8FF8F
:106E3800F02011F0E3F8C8B1E42200210C3073F01F
:106E480066FDD3E7002303E00023AB72EB72012356
:106E58006B7226232B72B8F802302B80B8F80030FA
:106E68006B8028460DF5677DBDE8F0830546F8E799
:106E7800DD47701F38B505460C2011F0BFF80446F1
:106E880068B168892DF0F8FD58B900237322227281
:106E98006A8962812A8862806A88228063722046B1
:106EA80038BD0123F2E770B582B00446807A00EB62
:106EB80040000B3011F0A2F8064690B30023ADF85D
:106EC8000630237A162B20D0182B45D0012221E03A
:106ED800012205EB4503E118C97A3344D972BDF89C
:106EE800061099810023ADF806300135A37AAB422C
:106EF8000EDD05EB450323440DF10601D87A2DF08C
:106F0800F7FD0028E4D10022E3E700250122EDE7A0
:106F1800172333722388738063883380A37AB3720C
:106F28007272304602B070BD012205EB4503E118CC
:106F3800C87A3344D872898999810135A37AAB42DA
:106F48000DDD05EB450323449989D87A2DF0B6FD6C
:106F58000028E9D10022E8E700250122EEE71923FD
:106F68003372D7E738B50546612011F047F8044673
:106F780060B1AB7A8372083012F03AFE6B882380D6
:106F88002B8863807B23237200236372204638BDDD
:106F980070B50546807A80000B3011F02FF8064650
:106FA80060B30024AB7AA3420CD905EB84002246D7
:106FB800B0F80D10B0F80B002DF008FB10B9013433
:106FC800E4B2EFE7AB7AB37200230CE09A00A91899
:106FD800B1F80B003244A2F80B00B1F80D10A2F87A
:106FE8000D100133DBB2AA7A9A42EFD800237372EC
:106FF800712333726B8833802B887380304670BD61
:1070080070B50646422010F0F9FF0446E0B10123AE
:107018000372002545728572C57203230373457395
:1070280001238373C57309220849103073F063FA8A
:107038001D22074904F11A0073F05DFA7388238052
:1070480033886380A571E571204670BDD4A20A001B
:107058008CA20A0030B583B005460C2010F0CEFF94
:10706800044650B16B8803802B8843802B7A6A2BA7
:1070780006D06C2B18D001236372204603B030BDB4
:107088006B230372A87A0138C0B20B2802D90123F6
:107098006372F2E7E97A57F0F9FFE0B9AB7AA372C5
:1070A800EB7AE3720023E7E76D230372A97A0139CB
:1070B800C9B20B2902D901234372DEE70DF106029A
:1070C800072057F097F940B9AB7AA372BDF806309C
:1070D800E3720023D0E70123CEE70123CCE738B5DC
:1070E80005460B2010F08AFF0446B0B10123437215
:1070F800104BB3F8683193B10F482DF0FFFDAB7A10
:10710800A3724523237200230B2222716371A3719A
:10711800E3716B8823802B886380204638BDA87A6A
:1071280037F077FC10B900236372E5E70123637237
:10713800E2E700BF707000204571020038B534F0F6
:1071480031FA094D2860094CC4F8AC01D4F8B031C3
:10715800C01AC4F8B401D4F8B8011DF06DF82B6852
:10716800C4F8B03138BD00BFB83F022070700020AD
:1071780030B583B005460B2010F040FF0446A0B19F
:107188000DF1060108202DF0E3FCBDF8063003F0F0
:10719800C003C02B0CD00023A372002363726923A1
:1071A80023726B8823802B886380204603B030BD10
:1071B8002DF09EFD0130A072EFE770B50546152051
:1071C80010F01CFF044670B101234372AE7AB0B2CE
:1071D8000C4BB3F8683143B1A672432323726B8812
:1071E80023802B886380204670BD2DF0F7FB30B9D3
:1071F80000236372034B012283F8BC21ECE70123CF
:107208006372E9E77070002030B583B005460F203F
:1072180010F0F4FE044690B16B8803802B884380FD
:10722800AB7A013BDBB20B2B07D82B7A462B09D064
:10723800482B34D00123637201E0012343722046B6
:1072480003B030BDEB7A03BBADF806304723237299
:10725800A87A0138C0B20B281BD8AB7B012B1BD0F6
:107268000323ADF804309DF80430AA89E97A57F071
:107278006FFE00284DD1AB7AA372EB7AE372AB892B
:10728800A381AB7BA3730023D5E7AB89ADF80630A8
:10729800DCE701236372D2E7ADF80430E3E7492362
:1072A8000372A97A0139C9B20B2902D901234372A1
:1072B800C5E70DF10602042057F09CF808B1012338
:1072C800B9E7A97A013901AAC9B20A2057F092F898
:1072D80008B10123AFE7A97A01390DF10202C9B259
:1072E800092057F087F8B0B9AB7A013BBDF8022006
:1072F80093420BDC0123E372AB7AA372BDF806302C
:10730800A3819DF80430A373002394E70023E3725C
:10731800F2E701238FE701238DE770B582B00446B9
:10732800807A80000B3010F069FE054690B3002388
:10733800ADF80630237A212B20D0232B4FD0012300
:10734800437223E00121B300E218B2F80B202B446A
:10735800A3F80B20BDF80620A3F80D200136A37A68
:10736800B3420EDD04EB86030DF10601B3F80B0002
:107378002DF0EEFB0028E5D10021E4E700260121ED
:10738800EDE722232B72A37AAB72697223886B8094
:1073980063882B80284602B070BD04EB8603B3F8DF
:1073A8000B0014F084FB0021B300E218B2F80B00C4
:1073B8002B44A3F80B00B2F80D20A3F80D200136DA
:1073C800A37AB3420EDD04EB8603B3F80D10B3F8CD
:1073D8000B002DF0A4FD0028DFD00121E4E70026F2
:1073E8000121EDE724232B72CDE72DE9F04182B08E
:1073F8000446002702AD25F8027D1E4E96F820317E
:10740800038288464801A6F8BE01294600F2051005
:107418002DF09EFBBDF806306382B6F8BE0100F57C
:107428008370294680B22DF093FBBDF80630A38205
:10743800B6F8BE0100F20710294680B22DF088FB8D
:10744800BDF80630E382B6F8BE0100F58270294621
:1074580080B22DF07DFBBDF8063023831DF025FAA0
:107468006083A4F81C804FF6FF73A380678402B082
:10747800BDE8F0817070002070B53C4B93F8CC31BA
:10748800002B38D0394BB3F8D031A3B33749D1F8F2
:10749800C8210132C1F8C8219A4200D070BD344BCE
:1074A8001B88D3B1002416E06001304DA5F8BE0159
:1074B80005EB8406B6F8D81100F205102DF02FFD63
:1074C800B5F8BE0100F58370B6F8DA1180B22DF078
:1074D80026FD0134E4B20B2CE6D914F09BFB57F0DF
:1074E800A9F9224B002283F8CC21C3F8C821012234
:1074F80083F8CE21D2E71D4B93F8CE31CBB11B4A8E
:10750800B2F8D221AAB11949D1F8C0310133C1F872
:10751800C0319342C2D1B1F8683133B9134B00225C
:1075280083F8CE21C3F8C021B8E7002058F0B8F995
:10753800F4E7002BB2D10D4BB3F8D421002AADD01B
:107548001946D3F8C4310133C1F8C4319342A5D1E7
:10755800B1F868313BB9054B012283F8CE210022EE
:10756800C3F8C4219AE757F065F9F4E77070002072
:107578000CB1002008B51DF075F91DF096F980B220
:10758800044B188012F066FF002058F089F980B289
:1075980008BD00BFB01B022008B507484FF024FD06
:1075A80020B9064B002283F8CD2108BD044A40F2D9
:1075B800C11154F05DFDF4E778720020707000206E
:1075C800E0A20A0008B500224FF4806107484FF096
:1075D800ADFC20B9064B012283F8CD2108BD054A30
:1075E8004FF4D97154F044FDF4E700BF78720020DD
:1075F80070700020E0A20A0008B5064A012106487A
:107608004FF064FC00B908BD044A4FF4D27154F03D
:107618002FFDF8E781740200ACA20A00E0A20A007C
:1076280070B58CB00023ADF80630444BB3F8143174
:10763800002B7BD0414BB3F81831272B76D93F4B21
:10764800D3F81C3123B93D4B0022C3F81C2173E049
:107658000DF106020021092056F0CCFE00243CE082
:107668000CAA02EB43011A1D05EB420231F8241C57
:1076780011810133052BF3DD002209E002F1080333
:107688005B000CA919442B4431F8281C998101325C
:10769800092AF3DD294ED6F8243110221A706FF02A
:1076A8003E025A70D6F824316FF04E029A706FF08D
:1076B8003902DA70B6F816315A1CA6F816216B8111
:1076C8000DF12F01D6F8240110F0A8FD0023C6F80B
:1076D80024311CF04FFB0134E4B2A3B2BDF80620FC
:1076E8009342B0D8154BD3F81C210123A3401A426A
:1076F800F1D02422002102A873F009F9214602A83A
:10770800FFF773FE1CF01DFB302010F077FC0546D8
:107718000A4BC3F824010028DBD028230372432333
:10772800437233F03FFFE8600023A3E7034AB2F84F
:1077380018310133A2F818310CB070BD70700020F8
:1077480008B5044BB3F8D23103B908BDFFF73AFFC7
:10775800FBE700BF7070002030B583B0694B002292
:1077680083F828221DF048FE002851D1654B93F874
:107778003831002B50D12DF03FF818B9614B93F8F0
:10778800823123B15F4B93F8BC31002B79D05D4B2C
:10779800002283F8822183F8BC21042200210846B4
:1077A80056F0C0FF58482DF0A9FA564B0024012284
:1077B80083F8912183F8924183F8932183F89441C7
:1077C80083F8952183F8964183F8972183F89841A7
:1077D80014F020FA14F06CFA1DF067F84B4D28806D
:1077E8001DF01FF8288812F0CDFD494D95F8140AB0
:1077F80014F050F9A5F8164A14F032FF002860D0AA
:10780800404B93F8CC31002B75D0002003B030BD2D
:1078180028201DF013FEA9E701A904201DF06EFC25
:10782800019BC3F340233B4A137023BB0022354915
:10783800C1F8442153B1384B9A88013A012303FA1D
:1078480002F2D1F854311343C1F854312D4BD3F817
:107858005421003218BF012283F85821002483F8EC
:1078680059412E4B1C701DF0B7FC204658F018F8F3
:107878001DF0AAF87FE7284A9288511E01228A4003
:10788800D5E728202DF0AAF878B91E4B002283F8F6
:10789800822193F829325BB1022037F0BAF8002828
:1078A8003FF47BAF10F038FD77E710F035FDECE7DB
:1078B800062037F0AEF800283FF46FAF10F02CFD2B
:1078C8006BE7104C04F5EA7204F5E97104F5E87009
:1078D80014F022FFB4F8D03113B1012284F8CC217E
:1078E80014F006FF00288BD10EF076FF002887D110
:1078F800FFF726FF84E756F09DFF024B012283F82D
:10790800CE2183E77070002045710200B01B022071
:10791800D83D0320B8A60020E45A0020B9A60020CC
:1079280038B50024324BA3F86841324B01221A7251
:107938000EE02F4B221D03EB42020021A2F8621138
:10794800234483F85C11204614F0DEF90134E4B2D4
:107958000B2CEED9264C0025A4F81451FEF776FD21
:10796800254BC4F82C320623C4F8303204F51273C0
:10797800C4F834324FF4C063C4F83832C4F83C5207
:107988001E4BC4F8403204F64803C4F844321922A6
:10799800294604F6A8001CF0DDFAF8B110F0BCFC8A
:1079A800134800F50B7100F6AC001CF08EFCE0B932
:1079B8000F4C002104F5DC701CF0F4FB002104F5E9
:1079C8000B601CF0EFFB002104F6B4001CF0EAFB8E
:1079D800002104F6B8001CF0E5FB38BD044BD3F8D1
:1079E800A818072010F096FADAE710F095FCDFE700
:1079F80070700020E45A00208D7E020040A30A0027
:107A080010B504460146084BD3F8A8081CF0CDFA77
:107A180028B9054BD3F8B8011CF00EFC10BD204660
:107A280010F014FBF5E700BF7070002000B583B0BC
:107A380002A9002321F8023D08202DF089F8BDF89D
:107A4800060003B05DF804FB084B0022C3F844218C
:107A5800C3F84821C3F84C21C3F85021C3F8542176
:107A680083F8592183F85821704700BF70700020AF
:107A78002DE9F04105460C2010F0C0FA0446002814
:107A880000F073812B7A043B0A2B00F2E881DFE8CF
:107A980013F00B00E6016900E601E601E601E601E4
:107AA800E6010601E6018301FEF792FCB54BB3F847
:107AB800683143B3B44A12880AB1934249D0B14EEF
:107AC800B6F868310133A6F8683106F5EA7206F5AA
:107AD800E97106F5E87014F01FFEB6F8D03113B15D
:107AE800012286F8CC2114F003FEA0B3A54B93F82D
:107AF800CC31002B40F0BA81A24B012283F8CE2171
:107B08000523042729E1FFF727FE002840F0AB8171
:107B18009C4B0122A3F86821052302271DE170016F
:107B2800984FA7F8BE0107EB8608B8F8D81100F2FD
:107B380005102DF0F4F9B7F8BE0100F58370B8F818
:107B4800DA1180B22DF0EBF90136F6B20B2EE6D938
:107B5800B5E70026FAE70EF03FFE0028C6D1FFF78A
:107B6800EFFDC3E7874B00221A7093F89C31DBB214
:107B7800012B19D0834B0022C3F8BC28B3F8683115
:107B8800002B00F07681012B17D0013B9BB27D4A78
:107B9800A2F86831002B00F06F817B4A128893426B
:107BA80078D007230627D8E0062110461CF0DEFB14
:107BB800744B002283F89C21DCE7FFF7DBFC48B11B
:107BC8000127704BA3F868716E4B93F83831FBB9F5
:107BD8000723C2E06B4E0023A6F8683186F8BC3153
:107BE800FFF732FF14F016F814F062F896F8CD316A
:107BF8000BB90327E8E7FFF7CFFC0022C6F8C0213E
:107C0800C6F8C421C6F8C82186F8CC210327DBE7CB
:107C180000235E4A13705E4A13701DF025FA5D4B0F
:107C280006229A80072398E0564BB3F8BE0100F26B
:107C38000510002180B22DF072F912E00136F6B27B
:107C48000B2E29D870014F49A1F8BE01374601F51E
:107C5800EC7101EB860100F205102CF079FF002889
:107C6800E2D0484B03F5EC7101EB8701B3F8BE0194
:107C780000F58370023180B22CF06AFF0028DDD154
:107C8800404BB3F8BE0100F58370002180B22DF09F
:107C980046F9D3E70026D3E7072306275DE069897D
:107CA8008BB24CF2B162934227D04CF21D22934220
:107CB80034D0DEB2113EF6B2324A331D02EB430332
:107CC800A3F86211324492F85C310133DBB282F8D6
:107CD8005C31012B4CD0304657F0CEFE294B0022A8
:107CE80083F8C1280B2F2FD8264B3B4493F85C31DF
:107CF800002B41D10137FFB2F4E70126214BA3F84D
:107D08001461FEF7A3FB33462A884CF2B1614CF2AA
:107D1800101010F0C3FA0D2309271EE0194B012299
:107D280083F8C0280022012183F8911183F8922159
:107D380083F8931183F8942183F8951183F8962199
:107D480083F8971183F8982101232A8869894CF2CE
:107D5800101010F0A3FA0D230927237267726B899C
:107D680063816B8823802B8863802046BDE8F0817F
:107D7800304613F0C9FFAEE7024B012283F8C12851
:107D8800E2E700BF707000200CB10020B8A6002008
:107D9800B9A60020E45A00206B894CF2B1629342E4
:107DA80027D04CF21D2293423FD0DBB2113BDBB20D
:107DB800334A1A4492F85C21012A3CD930490B44D1
:107DC800013A83F85C210B2700232A8869894CF241
:107DD800101010F063FA2A4B002283F8C1280B2EEA
:107DE8003BD8274B334493F85C3183BB0136F6B25A
:107DF800F5E7234BB3F81431012B0ED9013B204A88
:107E0800A2F814310B2700232A884CF2B1614CF2F6
:107E1800101010F043FA0F239FE7194B0022A3F824
:107E28001421FEF713FB0A27EDE7154B002283F810
:107E3800C0280A27C8E7124A191D02EB4101002091
:107E4800A1F86201134483F85C010A27BCE70C4BD4
:107E5800012283F8C1280F237FE70F237DE710F065
:107E6800F5F8002481E70523072776E7052304278B
:107E780073E70723032770E7072306276DE700BF8B
:107E88007070002030B583B0002409E0A4F5775164
:107E98002F3989B24CF2101010F0D0F90134E4B245
:107EA8000B2CF3D94CF2B1614CF2101010F0C6F95A
:107EB800544BC02283F8062354F0E6FE2DF0E2FA74
:107EC8002DF0CDF808B110F027FA4F4C4F4BA360B6
:107ED8004F4BE3604F4B23624F4BE3614F4B2361A2
:107EE8002CF01EFFE080F022002104F1240072F043
:107EF8000EFD00220C211046FEF770FA201D56F0E8
:107F08004FFA608D13F02CFD45482CF0F7FE012048
:107F180013F096FD4FF0FF31D4F8B8011CF072F958
:107F2800E388C02B27D03F483F4BC01AC008000445
:107F38003E4940F003002AF0FDFE012284F8292280
:107F480028202CF04BFD08B110F0E6F957F000FCA2
:107F580056F00AFC364B93F8140A13F09BFD0422E2
:107F68000021084656F0DEFBFFF76EFD1CF0BAFE56
:107F7800FFF742FB14E02B482B4BC01AC008000443
:107F88002C4940F003002AF0D5FE1F4B002283F84D
:107F98002922D5E71C4BB3F86831DBB9FFF740FB62
:107FA8004FF0FF31184BD3F8B8011CF02BF907211B
:107FB800002010F013F804460028EBD00023202BF3
:107FC8001DD81D4A02EBC302117B227A914204D0CC
:107FD8000133F4E7FEF7EEFDE0E7174A02EBC303CF
:107FE8001B69204698470546204610F02FF8002DBB
:107FF800D6D00DF10701284610F010F9D0E700257A
:10800800F2E700BF00E100E070700020594B050066
:10801800274F0500B56B0200E54D0500594C0500DA
:1080280045710200F0A10A0010A10A004CA30A0041
:10803800D83D032078A30A00E45A00201C4B93F88B
:10804800C0381BB11A4BB3F89A3103B9704730B531
:1080580083B00D46044619200FF0D0FF144BC3F827
:10806800C408E8B1102303706FF03E0343701D236A
:1080780083706FF03D03C37003462A460C49B1F87C
:108088009A112046FEF746FC60B10DF10701084B36
:10809800D3F8C40810F0C2F8054B0022C3F8C4286E
:1080A80003B030BD024BD3F8C4080FF0CFFFF3E79D
:1080B800707000200023052B0BD8074A32F82320C4
:1080C800824201D00133F6E7034A02EB8303987832
:1080D80070470420704700BFA4A30A0030B583B0DE
:1080E80003293AD8DFE801F0573B0227754C0223F1
:1080F80023700023637060681CF09EF84FF0FF3116
:10810800A0681BF0F2FF98B96E4CF42204F10C0140
:108118006D4852F01DF86D4B01221A700023A4F827
:108128000031A0681BF0FBFFB8B110F0F5F814E0BF
:1081380010F0F2F8E8E76648664BC01AC008000479
:10814800654940F003002AF0F5FD5E4B03221A70E2
:1081580001225A7058681CF06FF803B030BD594CB2
:10816800D4F804210132C4F804215948594BC01AE3
:10817800C0080004594940F003002AF007FF002313
:1081880084F80831D4F80C011CF056F80028E4D023
:1081980010F0C2F8E1E751F031FF4A4BD3F8102153
:1081A8000244C3F810214A4C4A49641AE4082404DA
:1081B80044F003040C334A4920462AF081FF434B1C
:1081C8001B784BB13F4A118A0B0A43EA01239BB241
:1081D800A2F80031F42B0AD83A4BB3F80001D3F8CF
:1081E8001031984211D0394B00221A7049E03D49AC
:1081F80020462AF09FFD334B0022A3F80021334983
:1082080001200870C3F81021A7E7304B01221A702B
:108218002C4B0022C3F810210FF0F0FE0446002872
:108228009BD0284DB5F8002105F10C0172F063F9D7
:108238002288130A43EA02239BB2238061880A0A30
:1082480042EA01226280A1880A0A42EA0122A28047
:10825800E1880A0A42EA0122E280B5F814210AB943
:10826800A5F814310DF1070120460FF0D7FF08E0FB
:1082780010F052F80DE010F04FF81AE0002D7FF4DE
:108288006CAF4FF0FF310F4B98681BF02EFF0028A2
:10829800EED10C4C04F10C01D4F81031F42219443D
:1082A800094851F055FF0546A0681BF038FF002823
:1082B800E1D1002DE2D0034AD2F818310133C2F8D7
:1082C8001831DBE75C790020BCA30A00F85B0020CA
:1082D800F0A10A0010A10A00ECA30A0000A40A00F9
:1082E80010A40A0028A40A0008B515484EF04DFF4E
:1082F80020B1144A40F2924153F0BAFE12484FF0AE
:1083080055F820B10F4A40F2964153F0B1FE4FF0B4
:1083180013F820B10B4A4FF4936153F0A9FE1AF0F9
:10832800CDFC0023022219461AF08CFE4FF0FF31D3
:1083380001201AF0FDFD50F09BFC0028FBD1F5E769
:10834800E0A30A0048A40A00BCA30A0010B5083834
:10835800062807D8DFE800F00731460606060400BD
:108368004FF00AF810BD2848284BC01AC00800046E
:10837800274940F003002AF0DDFC21F051FCC8B188
:10838800244B01221A700EF01BFA0028EAD006F0DE
:10839800ABFD0028E6D0204B1B78002BE2D006F07E
:1083A800A9FD1C4B012283F81C211C4B18681BF0EB
:1083B80043FFD7E74EF0DCFFE2E71348134BC01A40
:1083C800C0080004164940F003002AF0B3FC114C21
:1083D80000232370012363704FF012FB60681BF0C9
:1083E8002BFFBFE70848094BC01AC00800040D4915
:1083F80040F003002AF09EFC064B01221A7000226E
:108408005A704FF0E3FCADE7F0A10A0010A10A0092
:10841800A4A40A005C790020EB8E00203809012012
:10842800B8A40A00CCA40A0000B583B000230193C5
:108438000E4BD3F820319BB101A90C4BD3F8200186
:108448001AF0EAFE019B43B1094B4FF080525A6083
:1084580040BFBFF34F8FBFF36F8F03B05DF804FBCE
:10846800044940F27B4016F05FFFE5E75C790020A5
:1084780000ED00E048A40A0010B535F0FFFB10B984
:1084880033F0F4F910BD04460848094BC01AC00877
:108498000004084940F003002AF04CFC064A40F268
:1084A8000911204653F0E4FDEAE700BFF0A10A00F5
:1084B80010A10A00D8A40A0048A40A0010B504466E
:1084C8000146074BD3F824011BF06FFD20B9044B7C
:1084D80058681BF0B1FE10BD20460FF0B7FDF6E757
:1084E8005C79002008B53848384BC0F82831062395
:1084F800C0F82C3100F5A273C0F830314FF4006396
:10850800C0F834310021C0F83811314BC0F83C3183
:1085180000F64413C0F84031FA2200F592701BF0BF
:1085280019FD00283AD00FF0F7FE274800F594719E
:1085380000F6A4101BF0C9FEB8BB52F0A1FB2248FC
:10854800244BC0F8A8390823C0F8AC3900F6C41386
:10855800C0F8B0394FF40073C0F8B4390023C0F83C
:10856800B8391D4BC0F8BC3900F6C433C0F8C0395F
:1085780000F6A81100F590701BF0A7FEC0B91748C7
:108588001BF066FDB8B9002115481BF00BFEA8B911
:10859800002114481BF006FE98B908BD0A4BD3F811
:1085A800241105200FF0B6FCBFE70FF0B5FEC4E7B5
:1085B8000FF0B2FEE3E70FF0AFFEE4E70FF0ACFE1A
:1085C800E6E70FF0A9FEE8E75C790020658602007F
:1085D800ECA40A00F1820200F4A40A0064790020E5
:1085E800687A002060790020014B93F808017047F1
:1085F8005C790020044B83F8240C10B9002283F81E
:10860800252C0020704700BF5C790020014B93F8AF
:10861800250C70475C79002008B50DF0F1FD0EF0CF
:1086280025FE2CF0F5F93EF0E9F933F059FE1CF07F
:108638004FFF0FF034FC0CF0AEFE15F042FD35F0A4
:10864800B3F913F011FE08BD08B50021024BD3F8A9
:10865800240117F0BCFF08BD5C7900202DE9F0412A
:1086680082B0FFF709FFFFF7D7FF9B4B18681BF095
:10867800E3FD9A4B18681BF0DFFD994B18681BF057
:10868800DBFD984B18681BF0D7FD974B18681BF05B
:10869800D3FD964B18681BF0CFFD954B18681BF05F
:1086A800CBFD944B18681BF0C7FD934B18681BF063
:1086B800C3FDD1E0002800F0CF8087883E460588BA
:1086C800B0F802804046FFF7F5FC042803D02046A6
:1086D8000FF0BCFCC0E02B0A43EA052323804FEAD5
:1086E800182343EA0828A4F802803B0A43EA072330
:1086F800A380E288130A43EA0223E380DFF80482B6
:108708003A46214608F6284071F0F5FE7B4AD2F831
:1087180040330133C2F84033A288130A43EA0223E4
:10872800A38020460FF092FC012388F8083198F8BE
:10873800243C5BB198F8253C0133DBB288F8253C32
:108748006E4A92F84433013382F844336B4B00226B
:1087580083F8452383F846233CE00FF0DDFD41E034
:10876800664B93F84633002B55D1644BD3F8482316
:108778003244C3F84823012283F846234BE00FF024
:10878800CBFD4EE05D4BD3F84C230132C3F84C23AC
:108798005B4920462AF0FAFB4FF0FF31594BD3F8DA
:1087A8000C011BF02FFD002846D10122534B83F802
:1087B8004723554920462AF0E9FB504A92F84533A9
:1087C8000133DBB282F84533504A5278934236D2AD
:1087D800002F34D04FF0FF314A4B98681BF085FCCE
:1087E8000028BAD10022454B83F84723484C494B0F
:1087F800E41AE408240444F00304474920462AF014
:10880800C5FB32464549464851F0ACFB07464CF299
:1088180001639D42A4D03B4B98681BF080FC002864
:10882800ADD1002FAED03D4A3E4920462AF0AEFBDE
:10883800042054F0C5FAC0E70FF06EFDB5E75FB14C
:108848002E4B012283F8502306E02E4B5B78EBB9C0
:1088580014B120460FF0FAFB2A4D4FF0FF3168683B
:108868001BF0D0FC052100200FF0B8FB04462B7844
:10887800DBB2022B3FF41EAF224B1B78DBB2032B7B
:10888800E3D0204B1B78002BE6D1DEE7FFF7DCFEB8
:108898000A200FF0B3FB05460028D9D0194EB6F8C8
:1088A80014310380002787706FF03A03C3708E235A
:1088B80003721748174BC01AC00800041A4940F041
:1088C80003002AF037FA0DF1070128460FF0A6FC3D
:1088D8007770A6F81471BBE7380901200C6F0120E6
:1088E800287200200CEA0020508401201413012073
:1088F8009CF1002098A6002060C90020548A00201E
:108908004CA50A005C7900206CA50A00F85B0020E1
:10891800F0A10A0010A10A0000A50A008485002021
:10892800BCA30A0024A50A0090A50A00014B93F8ED
:108938001C0170475C790020024B002283F81C213F
:10894800704700BF5C7900206DDF7047014B1878D5
:10895800704700BF348E0020114B9B8803B97047C5
:1089680010B582B004460A200FF048FB0346A8B1B0
:10897800002202706FF03A014170094988885880D6
:108988000A2018715A719A71DA718A7901321A7249
:108998005C720DF1070118460FF040FC02B010BDE3
:1089A800348E002000B583B00A200FF027FBA8B151
:1089B8000346002202706FF03A014170012098705E
:1089C800D9700A2119715A719A71DA716C21197268
:1089D8005A720DF1070118460FF020FC03B05DF83C
:1089E80004FB114B9B8803B9704700B583B00A207C
:1089F8000FF004FBA0B1002202706FF03A01417041
:108A08000949898841800A21017142718271C271C4
:108A18005B220272492242720DF107010FF0FEFB40
:108A280003B05DF804FB00BF348E0020104B9B8917
:108A380003B9704710B582B004460A200FF0DEFA79
:108A480098B1002202706FF03A0141700849898993
:108A580041800A21017142718271C2719E220272A3
:108A680044720DF107010FF0D9FB02B010BD00BF31
:108A7800348E002008B5062006F059FC0DF0FAFFE8
:108A880008BD10B582B00A200FF0B8FAC8B1044684
:108A9800002303706FF03A02427001218170C270A6
:108AA8001A22027143718371C3717A2303721022EF
:108AB80005490A3071F01FFD0DF1070120460FF03E
:108AC800ADFB002002B010BDFC5B002008B5002201
:108AD800142105484EF02AFA00B908BD034A40F6A9
:108AE8007E5153F0C5FAF8E7448E0020BCA50A0071
:108AF80030B587B0054620200FF080FA044608B349
:108B08001349052321F8303F01A80EF021FBE0B1FD
:108B18000023A372E37298230DE0930006A9194479
:108B280051F8141C2344D9600132094B1B8E93421F
:108B3800F3DC638197236372982323726B88238005
:108B48002B886380204607B030BD0022EDE700BFC8
:108B5800348E002030B587B0044620200FF04EFA3E
:108B6800054670B3002207E09300E118C96806A81B
:108B7800034443F8141C013261899142F4DC01A8D2
:108B88000EF01EFB38B198236B729A232B720023C8
:108B9800AB72EB720FE001200EF028FB0DF0B0FF76
:108BA8009723F1E705EB8302002111735173917349
:108BB800D17301339BB2042BF4D963882B802388AB
:108BC8006B80284607B030BD38B5054620200FF029
:108BD80015FA0446F8B10EF0FFFA38B1982363721B
:108BE8009C2323720023A372E3720EE00EF0FEFAB8
:108BF8000DF06CFF9723F2E704EB83020021117359
:108C080051739173D17301339BB2042BF4D96B88E0
:108C180023802B886380204638BD10B574293DD049
:108C28000DD8062977D072291FD0042952D05C4A62
:108C380092F83330013382F8333001245DE078292B
:108C480000F09580A02901D07629F0D14CF201538B
:108C5800984200F08180524890F83330013380F810
:108C68003330B2FA82F4640947E04CF20153984277
:108C780009D04B4890F83330013380F83330B2FADA
:108C880082F4640939E0464890F83230013380F8BC
:108C98003230092A14BF002401242EE04CF201537B
:108CA800984209D03E4890F83330013380F8333089
:108CB800B2FA82F4640920E0394890F8323001337E
:108CC80080F83230A2F10A04E4B2012C8CBF0024EF
:108CD800012412E0324890F83430013380F83430FF
:108CE800022A06D03AB1042A01D0002404E0012463
:108CF80002E0012400E00124E4B22A4B2A48C01A09
:108D0800C008000423460A46284940F003002AF018
:108D1800D7F9204610BD224890F83430013380F846
:108D28003430042A08D0032A0FD0062A10D08AB17A
:108D3800072A08D0002409E090F83530013380F87C
:108D480035300124D9E7012400E00124E4B2D4E756
:108D58000124FBE70124F9E7114890F83630013384
:108D680080F83630412A14BF00240124C5E74CF2AC
:108D78000153984209D00A4890F83330013380F8FB
:108D88003330B2FA82F46409B7E7054890F8363010
:108D9800013380F836304D2A14BF00240124ACE793
:108DA800348E002010A10A00C0A10A0018A60A00EB
:108DB800214A536C926C93423CD230B583B01E4A20
:108DC8009363002119706FF03A0159705888010AAD
:108DD80041EA002159809988080A40EA012080B2B6
:108DE8009880DC88210A41EA0421D98090870833D9
:108DF80013640FF003F9044628B90F4A536C926CB8
:108E08009342DCD314E00C4DA96B8A8871F073FB94
:108E18000A4B0B48C01AC0080004A96B8A8840F0A6
:108E280003002AF00FF80DF1070120460FF0F6F9BC
:108E380003B030BD704700BF348E002010A10A0077
:108E4800C0A10A0008B5064A012106484EF03EF8BE
:108E580000B908BD044A40F6715153F009F9F8E722
:108E6800958E0200B8A50A00BCA50A0008B50548F9
:108E78004EF0BAF800B908BD034A40F68A5153F0DB
:108E8800F7F8F8E7448E0020BCA50A0010B582B0B8
:108E98001E4B1F48C01AC00800041E4C237C1E4AE3
:108EA800B2F84C201D4940F003002AF009F9207C53
:108EB8000FF0A4F800B303461749B1F84E204280DA
:108EC800002202706FF03A005870207C98801B20B6
:108ED80018725A72B1F84C20013292B2A1F84C20A3
:108EE800C3F80A200DF1070118460FF097F9638AB5
:108EF800013B9BB263820BB102B010BD064B00224E
:108F0800A3F84C20FFF7B2FFF6E700BF10A10A0054
:108F1800C0A10A00FC5B0020348E00203CA60A0099
:108F28000E4B9B8903B9704710B582B004460A20DE
:108F38000FF064F880B1002202706FF03A014170BE
:108F48000649898941808271C2711C220272447269
:108F58000DF107010FF062F902B010BD348E002048
:108F680070B584B002A82CF059FE0646002840F0DF
:108F780092809DF80830062B00F28B80DFE803F022
:108F8800041E061C9A9A8700002585E09DF8093082
:108F9800622B40F291806F4B9B7B032B01D1022502
:108FA8007AE06C4B03229A735620FFF73FFD0220AC
:108FB800FFF7B6FF02256FE003256DE09DF8093045
:108FC800012B0AD99DF80930624A527A93422ED869
:108FD800604B9B7B03BB01255EE05E4B01229A72CE
:108FE80037F00EFA0128EDD15A4B012283F85020B0
:108FF8000A200FF003F80028E4D05A220272002257
:1090080002706FF03A02427001218170C2700DF156
:109018000F010FF003F9D5E74E4B00229A73552044
:10902800FFF704FD0120FFF77BFF012534E0494AE3
:10903800127A93420FD8474B9B7B012B01D1012514
:109048002AE00125434B9D735420FFF7EFFC0020D5
:10905800FFF766FF20E0622B08D83E4B9B7B022B74
:109068002CD03C4B02229A73012515E0394B9B7B8F
:10907800032B01D101250FE0364B03229A735620AA
:10908800FFF7D4FC0220FFF74BFF012504E006257B
:1090980002E0072500E007252E4BB3F852307BB9D4
:1090A80016F014FA012844D02A4B002283F85820DD
:1090B80004B070BD0225EFE70225EDE70125EBE7D7
:1090C8001AF03FFE12200EF099FF044658B32823E9
:1090D80003725EB301234372A573BDF80A3023827D
:1090E8009DF80930E3730DF1020101A832F0BAFAD4
:1090F800BDF90230019A1344C4F80A30154A536D79
:10910800591C5165E380002323706FF03A036370A4
:109118006FF06E03A3706FF03903E3700DF10F0168
:1091280020460FF07BF81AF025FEB9E700234372BA
:10913800D2E7084A92F858300133DBB282F8583047
:10914800022BB5D11346002283F8582016F008F9EF
:10915800AEE700BF348E0020014B93F850007047F3
:10916800348E0020024B002283F85020704700BF45
:10917800348E0020174B184ADA65F8B9154A0123CE
:1091880082F86130002382F8603014494B89143327
:109198000B445366CB8993660E4B0022DA6683F83C
:1091A800342083F8322083F8362083F833205A6E2F
:1091B8005A64996E01390A449A647047012283F807
:1091C8006020002283F86120054A5A6632F80A2C8A
:1091D8009A66E1E7348E0020EC950020E4950020A3
:1091E800F895002000B583B00A200EF007FF98B16B
:1091F8000B4A92880280002282706FF03A01C17097
:109208000A21017142718271C27162210172427236
:109218000DF107010FF002F803B05DF804FB00BF81
:10922800348E002000B583B00A200EF0E7FE68B146
:109238005A220272002202706FF03A024270012133
:109248008170C2700DF107010EF0E8FF03B05DF800
:1092580004FB024B83F87000704700BF348E002077
:10926800014B93F870007047348E0020014B187042
:10927800704700BF348E002008B50CF0A1FF024BE8
:1092880083F8710008BD00BF348E002000B583B09C
:109298000A200EF0B3FE68B14E220272002202705C
:1092A8006FF03A02427001218170C2700DF107011E
:1092B8000EF0B4FF03B05DF804FB00B583B00A20DC
:1092C8000EF09CFE68B170220272002202706FF0EC
:1092D8003A02427001218170C2700DF107010EF04F
:1092E8009DFF03B05DF804FB08B5082006F01FF8E1
:1092F8000DF0C0FB08BD2DE9F04184B000252946DA
:1093080040E0D14BD14CE41AE408240444F00306AD
:10931800CF4B93F872300091CE49304629F06CFF5C
:109328000A200EF06BFE0746002849D1C8498B6F0A
:1093380091F87C2003EBC200407A91F87D108842B6
:10934800DFD803EBC203187AC14B93F87230984206
:10935800D7D8002D40F0BF80BB4BBC48C01AC0080E
:109368000004BD4940F0030029F0E4FCB84B93F831
:109378007C20013283F87C20002283F87D2083F84A
:1093880072200121B24B93F87C209B6F5B889A4234
:10939800CCD3002900F0A980AD4B002283F87C20B3
:1093A80083F87D2083F8722093F87330002B40F007
:1093B8009C804920FFF7D0FA0520FFF7B1FD94E023
:1093C800A34B93F87330002B69D0A449304629F099
:1093D800B1FC9F4A936F92F87C2003EBC2035B8930
:1093E800012B00F089809E49304629F0A3FC984B58
:1093F8009A6F93F87C3002EBC30191F80880B8F1BA
:10940800000F40F0CE80924A936F92F87C2003EBD5
:10941800C201497A002900F0458103EBC2039A880A
:109428004CF202139A4200F0F4804CF210139A4264
:1094380000F02E814CF210139A4200F02E814CF26B
:1094480010139A4204D1874B1B78002B40F0E6801A
:109458007F4B002183F87E10834944F0040029F0F3
:1094680095FD0A200EF0CAFD002800F028817849F1
:10947800012581F87450062202720022427202709D
:109488006FF03A0242708A6F91F87C1002EBC102C9
:10949800928842800DF10F010EF0C0FE03E173497E
:1094A800304629F047FC6A4A012382F874300623C3
:1094B8003B7200237B723B706FF03A037B70936FB3
:1094C80092F87C2003EBC2039B887B800DF10F018F
:1094D80038460EF0A3FE5C4B5C48C01AC008000476
:1094E800634940F0030029F025FC594B002283F81A
:1094F800732004B0BDE8F0815E49304629F01AFCBB
:10950800534B9A6F93F87C3002EBC301097A012917
:1095180007D85949304629F00DFC38460EF096FD1B
:1095280017E74B4D95F87210013185F8721095F8D0
:109538007D10013185F87D1002EBC30292884F49F6
:1095480044F0040029F022FD012285F874200E233E
:109558003B7200237B72A96F95F87C0001EBC00178
:10956800C88878813B706FF03A0078708888788076
:1095780085F87E20B5F88020C9880EF08FFE78889F
:10958800B0F5434F05D00DF10F0138460EF046FEF9
:10959800A1E70023B5F880204CF205410EF07EFECD
:1095A800F1E72B4D4FF0010885F87E808A88344911
:1095B80044F0040029F0EAFC85F874800E233B721D
:1095C80000237B72A96F95F87C2001EBC201CA8841
:1095D8007A813B706FF03A027A7088887880B5F8A3
:1095E8008020C9880EF05AFE7888B0F5434F08D01D
:1095F8000DF10F0138460EF011FE4FF001084546F7
:1096080001E70023B5F880204CF205410EF046FE34
:10961800EEE71C4B1B78002B7FF407AF1A49304646
:1096280029F0B4FC0A4A92F87D30013382F87D3083
:10963800002D7FF48EAE154944F0040029F07AFB22
:1096480038460EF003FD84E610A10A00C0A10A0006
:10965800348E002068A60A0024A80A00C0A60A00C2
:1096680038A70A0031790020B8A70A00A4A60A0082
:1096780018A80A00D8A60A0028A70A00E8A60A001F
:1096880048A70A00325C002070A70A00A8A70A00B1
:109698000C4B1B78002BC1D0CCE60B4B1B78002B56
:1096A800BCD0CCE61DB1B8F1000F7FF452AE07492B
:1096B800304629F03FFB38460EF0C8FC49E6012544
:1096C800F1E700BF315C0020D45C0020E8A70A0065
:1096D80000B583B00A200EF091FC68B184220272B2
:1096E8000022427202706FF03A0141708270C170BC
:1096F8000DF107010EF092FD03B05DF804FB08B50B
:10970800034B012283F87320FFF7E2FF08BD00BF77
:10971800348E00202DE9F04186B00D200EF06EFC4D
:10972800B8B1002202706FF03A01417082706FF098
:109738003F01C1700D21017142716FF06E024272DA
:109748006FF039028272012202720DF117010EF0D8
:1097580065FDCA4BCA4DED1AED082D0445F0040607
:10976800C849304629F0E6FAFFF786FD01F083B8CC
:10977800C54C94F8832004F18401D4F8AC0038F087
:1097880093FB002384F8823001F07BB842200EF06E
:1097980035FC074680B36388038023884380012310
:1097A8000372002305228272C37204220273437378
:1097B8008373C3730922B549103070F09CFEB44B13
:1097C80093F80080B8F1270F24D9B24B1A7802EB2E
:1097D8000803272B27D9002387F84130AE4945F0E5
:1097E800030029F0A7FAAD49304629F0A3FA0DF194
:1097F800170138460EF012FD228802F564539BB219
:10980800B3F5847F01D8A04B9A8120460EF01EFC48
:1098180001F031B87C23BB764246A14907F11B0011
:1098280070F069FED1E707EB08037C21997607F110
:10983800080308F1110898449A4908F1020070F0E9
:109848005AFEC8E70A200EF0D9FB90B1A17A8E4AD9
:109858001172E17A51720221917362880280228822
:10986800428047220272412242720DF117010EF026
:10987800D5FC20460EF0EAFB00F0FDBF837A023BE0
:10988800DBB2012B1ED90B200EF0B8FB0746B8B38C
:1098980063880380238843804923037241234372EA
:1098A800A37A83720DF117010EF0B8FCFA2018F0B4
:1098B80095FEA37A022B21D0032B26D003B3422393
:1098C8007B721DE036F09CFD0128DCD16E4B022234
:1098D80083F850200A200EF091FB0028D3D05A229A
:1098E8000272002202706FF03A0242700121817008
:1098F800C2700DF117010EF091FCC4E735F0BCFA07
:1099080020460EF0A3FB00F0B6BF2CF064F9F7E791
:109918000A200EF073FB0746B0B1012036F078FE3E
:1099280035F074FE012814D14F237B728B233B72D0
:1099380063883B8023887B800DF1170138460EF041
:109948006DFC002036F064FE20460EF07FFB00F030
:1099580092BF03F07DFB41237B72E7E70A200EF0FC
:109968004DFB20B920460EF071FB00F084BF6288E1
:1099780002802288428077220272412242720DF1CF
:1099880017010EF04BFC142053F01AFA09F024FCCE
:10999800A8B1454945F0030029F0CCF94FF4A0706F
:1099A80031F0A6FEBFF34F8F4049CA6802F4E06267
:1099B8003F4B1343CB60BFF34F8F00BFFDE73D49DB
:1099C80045F0030029F0B6F9E8E70A200EF016FB87
:1099D800E8B162880280228842808D220272412288
:1099E80042720DF117010EF019FC142053F0E8F93A
:1099F80009F0F2FB80B12C4945F0030029F09AF9EF
:109A08000DF05AFC2C4945F0030029F093F9204643
:109A18000EF01CFB00F02FBF264945F0030029F08B
:109A280089F9EDE72BF075FF18B10DF117010EF06C
:109A3800F5FB20460EF00AFB00F01DBF0EF006FBFA
:109A480000F019BF12200EF0D9FA0746002850D0AE
:109A580002A82CF0E3F888B342237B7263883B802A
:109A680023887B8045233B729DF80830062B57D806
:109A7800DFE803F0274A444750534D0010A10A007D
:109A8800C0A10A0040A80A00348E002064A80A0079
:109A980002D40B0000D40B0070A80A008CA80A009E
:109AA80008D40B0004D40B00ACA80A0000ED00E0B9
:109AB8000400FA05C0A80A00D4A80A0041237B7252
:109AC800CCE70023BB730DF1060103A831F0CAFDF2
:109AD800BDF90630039A1344C7F80A30BDF80A30B6
:109AE8003B829DF80930FB730DF1170138460EF0E3
:109AF80095FB20460EF0AAFA00F0BDBE0223BB7308
:109B0800E1E70323BB73DEE70123BB73DBE706232F
:109B1800BB73D8E70423BB73D5E70523BB73D2E730
:109B28000723BB73CFE724200EF068FA074688B1F5
:109B3800CE49052381F82F301C221431083070F0EB
:109B4800DAFC63883B8023887B800DF11701384657
:109B58000EF064FB20460EF079FA00F08CBEFEF79A
:109B6800B5FFD4F80A20C14B5A82A2881A742288F9
:109B7800BF4BA3F84E2020460EF068FA00F07BBEDB
:109B8800BB4AB2F852300133A2F852300D200EF021
:109B980035FAA8B1032202722288A0F80B206FF0D0
:109BA8006E0242726FF0390282726288028000226D
:109BB80082706FF03F02C2700DF117010EF02EFB9C
:109BC8000C200EF01BFA88B10D2202720922427293
:109BD8006FF06E0282726FF03902C2726288028080
:109BE800228842800DF117010EF018FB20460EF076
:109BF8002DFA00F040BE0D200EF000FAA8B10422A4
:109C080002722288A0F80B206FF06E0242726FF089
:109C18003902827262880280002282706FF03F02ED
:109C2800C2700DF117010EF0F9FA0C200EF0E6F9EA
:109C38000346D8B10F2202728D4AB2F85220012A87
:109C480019D9013A8A49A1F852200B2242726FF0C1
:109C58006E029A726FF03902DA7262881A8022886C
:109C68005A800DF1170118460EF0D8FA20460EF06A
:109C7800EDF900F000BE7E4A0021A2F852100A2237
:109C88004272E4E715200EF0B9F9074630B302A98D
:109C980003A831F0E7FCBDF90800039B184431F034
:109CA800B3FF03887B8183783B73C3787B73037925
:109CB800BB734379FB7383793B74BDF90830C7F8EC
:109CC800113063883B8023887B8053233B720023B9
:109CD8007B720DF1170138460EF0A0FA20460EF0FF
:109CE800B5F900F0C8BD4389ADF80C30037B8DF899
:109CF8000E30437B8DF80F30837B8DF81030C37B9B
:109D08008DF81130037C8DF8123003A831F0CEFFA6
:109D1800D4F81170C01B31F035FC384631F0C6FC60
:109D2800002005F00AFBFFF71BF90A200EF066F980
:109D380058B162880280228842804322027200223F
:109D480042720DF117010EF069FA20460EF07EF905
:109D580000F091BD4389ADF80C30037B8DF80E30CF
:109D6800437B8DF80F3003A83BF0FEF8B8B9002705
:109D7800002005F0E2FA0A200EF040F950B162889E
:109D88000280228842809722027247720DF11701E1
:109D98000EF044FA20460EF059F900F06CBD012788
:109DA800E6E70E200EF02AF9074680B10A303BF0AC
:109DB800FFF888B9002362883A8022887A8099223D
:109DC8003A727B720DF1170138460EF027FA2046D9
:109DD8000EF03CF900F04FBD0123ECE70B200EF02C
:109DE8000DF968B162880280228842805922027285
:109DF80041224272022282720DF117010EF00EFA10
:109E080020460EF023F900F036BD16200EF0F6F8C5
:109E18000746C0B163880380238843809123037277
:109E28000023437231F002F8C7F80A002AF088FFCD
:109E3800C7F80E0032F038FBC7F812000DF1170111
:109E480038460EF0EBF920460EF000F900F013BD8D
:109E58000C200EF0D3F8074618B3A37A012B2FD0A5
:109E680043B1022B3FD0422343720BE0FC5B00203E
:109E7800348E0020BC4B1B7813B9BC4B1B78ABB19C
:109E880042237B7263883B8023887B8079233B72E3
:109E9800A37ABB72E37AFB720DF1170138460EF014
:109EA800BDF920460EF0D2F800F0E5BC01210320F0
:109EB80034F097FFE07A0DF0FFFC41237B72E1E775
:109EC800A94B1B7813B9A94B1B7813B142237B729A
:109ED800D8E70121032034F084FFE07A0DF0D8FCA4
:109EE80041237B72CEE7E37A012B05D0E07A2AF092
:109EF800B7FD41237B72C5E70121032034F071FFD0
:109F0800F4E70C200EF07AF80746A0B1A07A431EB9
:109F1800022B15D942237B7263883B8023887B8080
:109F28007B233B72A37ABB72E37AFB720DF11701B4
:109F380038460EF073F920460EF088F800F09BBC06
:109F4800E17A003118BF012134F04BFF41237B72C5
:109F5800E2E70D200EF052F80746D8B1A37A013B8C
:109F6800052B52D8DFE803F0031B222C3D4832F0C2
:109F78004DFCA7F80B0041237B7263883B80238844
:109F88007B807D233B72A37ABB720DF117013846A3
:109F98000EF044F920460EF059F800F06CBCFDF7BD
:109FA80045FDA7F80B0041237B72E6E702A82BF0DA
:109FB80073FA9DF80830A7F80B3041237B72DCE771
:109FC8000121032034F00DFF2FF0D6FAA7F80B007B
:109FD8002DF00BFD0021032034F003FF41237B7299
:109FE800CBE702A903A82BF087FF9DF80830A7F854
:109FF8000B3041237B72C0E733F05EFB8DF808001D
:10A00800A7F80B0041237B72B7E742234372B4E7FA
:10A018000BF01EFA00F02FBC0A200DF0EFFF0746E8
:10A0280078B163880380238843808123037215F005
:10A03800F5FC58B142237B720DF1170138460EF03A
:10A04800EDF820460EF002F800F015BC41237B72B3
:10A05800F2E70C200DF0D2FF0346F0B14449D1F8E5
:10A06800B02091F8B400218802EBC0029180217BD6
:10A078001172617B51726189D18001229A706FF0EF
:10A088003A02DA70002119705A7062895A81522294
:10A098001A7203A918460EF0C1F820460DF0D6FF33
:10A0A800E9E30A200DF0AAFF034610B33049D1F8BE
:10A0B800B00091F8B420277B00EBC200478100274D
:10A0C8009F706FF03A00D8701F7058708420187213
:10A0D80091F8B51029B9264890F8B610013180F8E2
:10A0E800B6100132224981F8B42003A918460EF0AF
:10A0F80095F820460DF0AAFFBDE30B200DF07EFF7A
:10A10800074678B1638803802388438093230372CA
:10A118004123437215F01EF9B8720DF11701384644
:10A128000EF07CF820460DF091FFA4E30B200DF013
:10A1380065FF074690B1A07A15F000F963883B8067
:10A1480023887B8095233B7260B941237B72A37A75
:10A15800BB720DF1170138460EF060F820460DF07D
:10A1680075FF88E34223F1E79CFA00206C1F012069
:10A17800348E0020BA4A128862B1BA498A80B94A34
:10A18800937192F8B73063B9FFF780F820460DF065
:10A198005DFF70E3B44A1288002AF0D0B1498A8082
:10A1A800EDE74320FEF7D8FB0B20FEF7B9FEEDE7FD
:10A1B800437A412B14D1D0F80E20AC4B9A4206D8E2
:10A1C800A84B012283F8B820FFF777F80AE04E2061
:10A1D800FEF7C2FB0E20FEF7A3FEFEF74BFC01E0E4
:10A1E800FFF782F820460DF031FF44E3437A012B54
:10A1F8003AD043893D2B2BD8FFF73EF8994B93F87B
:10A20800713013B3974F0020A7F8BA00FFF72EF864
:10A21800394631F8BA3F964818440BF05BFF0128DD
:10A228000AD0904AB2F8BA30143B93660120FEF780
:10A23800A1FFFEF7BDFD13E04420FEF78DFB0C20C7
:10A24800FEF76EFEFFF750F80AE0FEF7ABFB07E0FB
:10A258004D20FEF781FB0F20FEF762FEFEF70AFC99
:10A2680020460DF0F3FE06E3FFF73EF8F8E77D4AD7
:10A2780092F8B72072B17A4A12887AB179498A80FD
:10A28800784A9371012382F8B8300020FEF772FFF4
:10A29800FEF78EFD20460DF0D9FEECE2724A1288D8
:10A2A800002AEDD06F498A80EAE7437A482B08D024
:10A2B8006C4B9B7A73B9FFF70BFA20460DF0C6FE7C
:10A2C800D9E24E20FEF748FB0E20FEF729FEFFF7E5
:10A2D8000BF8F0E7634B00229A72FEF782FBEAE77D
:10A2E8000A200DF08BFE074678B920460DF0AEFE29
:10A2F800C1E25C4B93F8B6000DF050FE08BB594A1A
:10A3080092F8B630013382F8B630564B93F8B6302F
:10A31800584A92F83020934235D2002BE9D156485A
:10A328000DF004FE4FF445400DF048FE4D4B013052
:10A3380083F8B600002283F8B4202288A3F8BC2052
:10A34800D7E778800022BA71FA713A706FF03A0252
:10A358007A7010223A724CF2101290420FD1414991
:10A36800012381F8B53091F8BE305A1CD2B281F879
:10A37800BE20A3F577532F3B7B810B2A3BD003A943
:10A3880038460DF04BFF374B93F8B620394B93F80E
:10A3980030309A42A9D33349D1F8C0200023137032
:10A3A8006FF03A005070B1F8BC0050806FF04B006D
:10A3B800107153719371D371D1F8B020852010704A
:10A3C800537091F8B400508081F8B63081F8B430F9
:10A3D800B4200DF013FE804648B1224BD3F8C010CC
:10A3E8008A8870F088F803A940460DF017FF3846B0
:10A3F8000DF02CFE79E7002281F8BE2081F8B52007
:10A40800BDE7184B93F873301BB9164B002283F83D
:10A41800B720144FAC2204F10801B86F70F06BF844
:10A42800002387F87D3087F8723087F87C30FEF794
:10A4380062FF20460DF00AFE1DE2437A4B2B1DD128
:10A44800FEF784FA28B10120FEF794FEFEF7B0FC6F
:10A458001CE0044B0022A3F8BA20FEF712FB15E01B
:10A46800707A0020348E00202C8B0120FFF7FF1F0C
:10A47800E4950020FC5B00202C5C00204420FEF7C3
:10A488006BFA0C20FEF74CFDFEF72EFF20460DF070
:10A49800DDFDF0E1437A412B01D0432B21D1BE4FA2
:10A4A800B7F8BA30B4F80D2004F10F01BB481844CE
:10A4B80070F021F8B4F80D30B7F8BA2013449BB205
:10A4C800A7F8BA30627A432A03D020460DF0BEFDC1
:10A4D800D1E1143BBB660120FEF74CFEFEF768FC99
:10A4E800F3E74520FEF738FA0D20FEF719FDFEF7D1
:10A4F800FBFEEAE70A200DF081FD034698B1628869
:10A5080002802288428000228271C2716722027210
:10A51800A14A92F8B72052B14B2242720DF11701AD
:10A5280018460DF07BFE20460DF090FDA3E14C226D
:10A538004272F3E70BF044FE18B9974B93F870306A
:10A54800D3B101200CF050FCC7B20A200DF056FD23
:10A55800034668B12288428062880280872202729C
:10A5680067B941225A720DF1170118460DF056FECF
:10A5780020460DF06BFD7EE10127E6E74222F1E778
:10A5880000200CF031FCC7B20A200DF037FD03465D
:10A5980068B122884280628802808922027257B993
:10A5A80041225A720DF1170118460DF037FE204668
:10A5B8000DF04CFD5FE14222F3E70288764BA3F8E9
:10A5C8008020FFF79CF820460DF040FD53E11B204A
:10A5D8000DF014FD074690B3112200210A3070F0E7
:10A5E80096F90BF0EDFDB8720CF020FE38752AF0E4
:10A5F80003F9387331F0D2FD78731AF0FDFEB873A1
:10A608000DF0EBFBF8730AF066FE387413F0E7FC04
:10A61800B87633F05FF9787411F004FEB8753CF041
:10A62800A3F9F87423887B8063883B809E233B7260
:10A6380041237B720DF1170138460DF0EFFD2046DE
:10A648000DF004FD17E1FEF753FA18B10DF11701EB
:10A658000DF0E4FD20460DF0F9FC0CE1FEF77AFA66
:10A6680018B10DF117010DF0D9FD20460DF0EEFCE3
:10A6780001E1FEF7A9FA18B10DF117010DF0CEFDB1
:10A6880020460DF0E3FCF6E0437A482B1CD0424B01
:10A6980093F87D20013283F87D2093F87430B3B9A4
:10A6A8003D4B93F87220013283F8722093F874308E
:10A6B8001BB3394B012283F8732093F87E309BB982
:10A6C80020460DF0C3FCD6E0FEF7D4F9DFE7324BA5
:10A6D800012283F87320002283F87420FEF70BFE12
:10A6E80020460DF0B3FCC6E02B4B002283F87E20F9
:10A6F80083F87420FEF7FFFDE2E7227A264B1B6CF5
:10A7080019784B1C9A4203D020460DF09FFCB2E00A
:10A71800627A2088FEF781FA002841D11E4A92F811
:10A72800C4300133DBB282F8C430042B43D913465A
:10A73800918F526C0A445A64002283F8C42093F81B
:10A748006030B3B1144B93F871305BB15020FEF711
:10A7580003F90820FEF7E4FBFEF7C6FD20460DF0DE
:10A7680075FC88E04620FEF7F7F80420FEF7D8FBD2
:10A77800F2E7094B93F8713033B15220FEF7ECF849
:10A788000A20FEF7CDFBE7E74820FEF7E5F80620AC
:10A79800FEF7C6FBE0E700BF348E0020E4950020FA
:10A7A800DE4B002283F8C420DA6E0132DA66998F14
:10A7B8005A6C0A445A64D94B93F860308BB3D74B20
:10A7C800DA6D9288DB6E9A422BD1D44B002283F843
:10A7D8006020012283F8B72093F87130D3B947205D
:10A7E800FEF7BAF80320FEF79BFB0BF0E9FF002801
:10A7F8008AD10BF0F1FF002886D1C94B1B78002BBA
:10A8080082D1FEF7B7FCFEF7D3FAC44B002283F8D7
:10A81800B72079E75120FEF79FF80720FEF780FB65
:10A82800E3E7BE4B93F861302BB1BC4BDA6D12896C
:10A83800DB6E9A4202D0FEF7BBFA65E7B74F4FF0DE
:10A84800000887F861800120FEF710FD87F8B780BF
:10A8580097F8713033B94920FEF77EF80520FEF7E6
:10A868005FFB51E75320FEF777F80920FEF758FB06
:10A878004AE7FEF775FBA94B93F88230002B7EF46C
:10A8880077AF022141F288300DF0A8FB044600287A
:10A89800EFD0037A9E2B3FF630AF01A252F823F097
:10A8A8009597020003A7020003A7020003A702006E
:10A8B80003A7020003A7020003A7020097A602004D
:10A8C80003A7020003A7020003A7020003A70200D0
:10A8D800899B020003A70200FF9B0200A9A60200B1
:10A8E80003A702005BA0020003A7020003A702005F
:10A8F80003A7020003A7020003A7020003A70200A0
:10A9080003A7020003A70200679B020003A7020037
:10A9180003A7020003A7020003A7020003A702007F
:10A9280003A702002D9A020003A702002D9A020035
:10A9380003A7020003A7020003A7020003A702005F
:10A9480003A7020003A7020003A7020003A702004F
:10A9580003A7020003A7020003A7020003A702003F
:10A9680003A7020003A7020003A7020003A702002F
:10A9780003A7020003A7020003A7020003A702001F
:10A9880003A7020003A7020003A7020003A702000F
:10A9980003A7020003A7020003A7020003A70200FF
:10A9A80003A7020003A70200EF9C020003A702000E
:10A9B8004D9A020003A702004D98020003A7020067
:10A9C8008598020003A702002F9B020003A702003C
:10A9D80003A7020003A7020003A70200B9A102000F
:10A9E80003A7020003A702008D9C0200ABA002008F
:10A9F80003A7020003A7020003A7020003A702009F
:10AA0800E59D020003A7020003A70200B3A202000B
:10AA180003A7020003A7020003A7020003A702007E
:10AA28007DA1020003A7020077A2020003A702008B
:10AA380003A7020003A70200FDA4020003A7020067
:10AA480003A7020003A7020003A7020003A702004E
:10AA580003A7020043A4020003A7020003A7020001
:10AA680003A70200F5A1020003A7020003A7020042
:10AA780003A7020003A702006599020003A70200CA
:10AA8800599E020091A602000B9F02009DA402009D
:10AA98005B9F020003A7020019A0020003A702009F
:10AAA80021A0020003A7020003A7020003A70200D7
:10AAB800E9A202000BA402003DA5020003A70200C0
:10AAC80089A5020003A702001999020003A7020042
:10AAD800D399020003A70200C3A5020003A702003E
:10AAE800139E020003A7020003A1020003A70200AD
:10AAF80035A1020003A702005D9D02004FA60200D7
:10AB0800AB9D020065A6020003A702007BA6020017
:10AB180003A70200D7A50200459A0200348E002040
:10AB28009709012000B583B06846FDF70DFF0023A3
:10AB380009E0C3F1050202A90A4412F8071C044AF5
:10AB48001A4411760133052BF3DD03B05DF804FBDD
:10AB5800FC5B0020014BD884704700BFFC5B0020E1
:10AB680008B52548254BC0F8C8300423C0F8CC30B8
:10AB780000F1E403C0F8D0304FF4A063C0F8D4303B
:10AB88000021C0F8D8101E4BC0F8DC3000F2E453A6
:10AB9800C0F8E030092200F2446019F0DBF908B38C
:10ABA8000DF0BAFB144800F1C80100F5C96019F0AE
:10ABB8008CFBF0B9104B03F24C62C3F8C02003F2CF
:10ABC8005462C3F8B02003F5E0629A6700229A81C4
:10ABD8000521197201215972022199739A72FEF79F
:10ABE80031F908BD044BD3F8441602200DF092F950
:10ABF800D8E70DF091FBDDE7348E00201D970200A9
:10AC0800F0A80A0010B504460146084BD3F84406DC
:10AC180019F0CBF930B9054AD2F8AC370133C2F88C
:10AC2800AC3710BD20460DF011FAFAE7348E00203B
:10AC3800024B00229A715A72704700BFECA500209F
:10AC480010B504460E200DF0D9F90346A8B111221B
:10AC58000272012242720B4A528882B90321417260
:10AC6800002199726FF03B01D9720649098819735E
:10AC78005A7362881A8022885A80184610BD0221A9
:10AC88004172EDE7ECA5002038B50546EC200DF043
:10AC9800B5F90446F8B11AF01FFB012807D098232C
:10ACA80063729C2323720023A372E3720DE00020D9
:10ACB8001AF080FB9723F3E704EB8302002111735A
:10ACC80051739173D17301339BB2372BF4D96B88CD
:10ACD80023802B886380204638BD30B5B9B005463F
:10ACE800EC200DF08BF9044660B3002207E09300D6
:10ACF800E918C96838A8034443F8E01C0132698997
:10AD08009142F4DC68461AF0DBFA012807D0982350
:10AD180063729A2323720023A372E3720CE01AF081
:10AD280049FB9723F4E704EB830200211173517365
:10AD38009173D17301339BB2372BF4D96B8823807D
:10AD48002B886380204639B030BD30B5B9B0054690
:10AD5800EC200DF053F9044698B11449382321F832
:10AD6800103F68461AF0A0FA01281CD00023A372ED
:10AD7800E37298236372982323726B8823802B884D
:10AD88006380204639B030BD930038A9194451F882
:10AD9800E01C2344D9600132044B1B8A9342F3DC44
:10ADA80063819723E6E70022F6E700BFECA50020C1
:10ADB80030B5BBB0054600238DF80730EB200DF009
:10ADC8001DF9044630B3132303720DF1070102A8DD
:10ADD8001AF0A0F9C0B19DF8071099B90123637260
:10ADE80014E09A003AA8104450F8E00C2244C2F843
:10ADF8000B0001339BB28AB29A42F2D8A1720023A7
:10AE0800637203E00023F6E7012363726B882380F3
:10AE18002B88638020463BB030BD38B505460A20F4
:10AE28000DF0ECF8044670B1152303720023437249
:10AE3800A87A1AF003FB012807D0012363726B88F4
:10AE480023802B886380204638BD00236372F6E791
:10AE580038B505461F200DF0D1F8044670B14523DA
:10AE680003720023437200F10B01A87A1AF01CF94F
:10AE7800AB7AA3726B8823802B886380204638BD09
:10AE880030B585B0054610200DF0B8F8044698B1E5
:10AE98004F2303720023437201A81AF077F9BDF813
:10AEA80004306381BDF80630A381BDF80830E38122
:10AEB8006B8823802B886380204605B030BD30B571
:10AEC80083B005460C200DF099F8044670B14D2367
:10AED8000372002343720DF106001AF05BF9BDF806
:10AEE800063063816B8823802B886380204603B0FB
:10AEF80030BD70B5064614200DF080F8044698B1B0
:10AF0800432303720123437200F10A050A22002138
:10AF180028466FF0FCFC28461AF0B2F8012805D044
:10AF28007388238033886380204670BD0023637252
:10AF3800F6E770B582B00446807A00EB80000B30EB
:10AF48000DF05CF8064660B300230193237A162BB4
:10AF580005D0182B28D00DF079F8002621E000251F
:10AF68000123A27AAA4213DD05EB8503234401A934
:10AF7800D87A1AF0C3F850B105EB8503E218D27AF3
:10AF88003344DA72019ADA6001350023E9E70123D4
:10AF9800172232722288728062883280A27AB27254
:10AFA8007372304602B070BD00250123A27AAA420E
:10AFB80013DD05EB85032344D968D87A1AF092F893
:10AFC80050B105EB8503E218D17A3344D972D268BF
:10AFD800DA6001350023E9E7012319223272D9E743
:10AFE80070B58CB0054642200DF008F8044660B1F3
:10AFF800012343722B7A5BB1462B21D06B882380C7
:10B008002B8863800023A371E37120460CB070BDC8
:10B0180001230372002603238372C6720523037378
:10B0280046738673C6730822144910306FF063FAAA
:10B038001C22134904F11A006FF05DFA6672DDE70D
:10B0480068461AF08BF847232372BDF828306381CD
:10B05800BDF82A30A381BDF82C30E38104220949C8
:10B0680004F110006FF047FA2822694604F11A002B
:10B078006FF041FA00236372C0E700BF2CA90A00F1
:10B0880008A90A0034A90A0008B500224FF4806113
:10B0980007484BF04BFF20B9064B012283F83420B8
:10B0A80008BD054A40F2551150F0E2FFF4E700BF31
:10B0B80000A60020ECA5002038A90A0008B507481A
:10B0C8004BF092FF20B9064B002283F8342008BDCC
:10B0D800044A4FF4B27150F0CBFFF4E700A6002009
:10B0E800ECA5002038A90A0008B5064A012106483F
:10B0F8004BF0ECFE00B908BD044A40F2471150F08D
:10B10800B7FFF8E719B1020024A90A0038A90A0014
:10B1180010B5144B1B787BB1134A936B01339363BF
:10B12800D26B93420FD1104C236C00209847002318
:10B138000C4A1370A36306E00B4A536C0133536443
:10B14800926C934200D010BD19F066FB064C236C3C
:10B158000320984753F008FB024B01221A70002382
:10B168006364F0E7305C0020ECA5002038B50546A4
:10B17800054B1B6C98470446032D01D0204638BD6B
:10B1880019F04AFBFAE700BFECA500202DE9F041D1
:10B1980082B06E4C0025A56594F85D400F2C40F2F6
:10B1A800CE806A4CB4F84C40002C00F0CC80674C40
:10B1B80094F85C4024BB654DEA662B670068C5F8C7
:10B1C8008000B1F90000A5F89000B1F90200A5F8D7
:10B1D8009800B1F90410A5F8A0100121A5F85210A3
:10B1E8001E4615460134E4B2584B83F85C4093F888
:10B1F8005030B4EB830F70DA544B1D665E66A2E0E4
:10B20800524D95F85060B4FBF6F506FB154515F060
:10B21800FF0FE5D14D4D2D6E954241D94B4EB6F8F5
:10B228005270551BA5F50045033706EB4706A6F8EF
:10B238006C50464D6D6E9D423CD9444EB6F85270E6
:10B248005D1BA5F50045033706EB4706A6F87250C7
:10B258003F4D2D78C5BB3D48B0F85250043500EB42
:10B268008500002505673948B0F85250B1F90070DB
:10B2780005F1100600EB4606A6F87070B1F90270E9
:10B2880005F1140600EB4606A6F8707089886E1C56
:10B29800A0F85260183500EB4500A0F870109FE741
:10B2A8002A4EB6F85270551B033706EB4706A6F828
:10B2B8006C50BEE7254EB6F852705D1B033706EB9F
:10B2C8004706A6F87250C3E7204DB5F852600768E4
:10B2D800301D05EB80052F67C5E71C4F002387F855
:10B2E8005C3018F02EFD48200CF088FE0446B86546
:10B2F80010B34FF0000880F800806FF03C034370F3
:10B30800052383706FF03B03C370402207F1680187
:10B3180008306FF0F0F82823237284F80980B7F812
:10B3280054305A1CA7F8542063810DF10701B86DF9
:10B338000CF074FFC7F8588018F01CFD5CE7013466
:10B34800024B83F85D4002B0BDE8F081ECA5002017
:10B35800305C002010B504460146084BD3F8A8001D
:10B3680018F023FE28B9054BD3F8AC0018F064FF99
:10B3780010BD20460CF06AFEF5E700BFECA50020E2
:10B38800024B002283F85C20704700BFECA5002028
:10B39800024B002283F8BC20704700BFECA50020B8
:10B3A8002DE9F04182B005460C200CF027FE04463A
:10B3B800002800F0C6812B7A043B0A2B00F2938206
:10B3C800DFE813F00B009102B6009102B30191027D
:10B3D800C3019102C80191022802A24B5B88002B8D
:10B3E80040F08A80A04B1B881BB1A04A92899342E7
:10B3F8007AD09C4E06F1C801012019F07FFE01A900
:10B40800042019F07BFE019BC3F3402386F8CC305F
:10B41800002B6BD1002296490A6096490A60964A29
:10B4280013700023954A13708E4A82F8CD30944ADF
:10B43800137019F0D1FE002840F05982894E336C00
:10B44800984719F0C1FA336C0320984753F08CF9E8
:10B4580001278C4B9F73022030F0FDFF8A4B9F73AE
:10B468008A4B1F7006F1D001062019F047FED6F866
:10B47800D0309AB2B2641B0CF3630BB1002A38D1F6
:10B48800784B0022DA711A725A7201215980A3F896
:10B498004E10A3F8B21075498B8901338B817B4913
:10B4A8004A707B484388013343808A70052302260B
:10B4B8003FE17001DFF8AC81A8F8C400754F37F898
:10B4C800261000F2051029F02AFD07EB8607B8F8C8
:10B4D800C40000F58370798880B229F020FD013618
:10B4E800F6B20B2EE5D984E70026FAE7D6F8C8208D
:10B4F80091E7FFF7C9FDC3E75A4A01335380B2F811
:10B508004E300133A2F84E30B2F8B2300133A2F80F
:10B51800B230564A9389013393815C4A00215170B5
:10B528005B4843880133438091700523042600E17A
:10B538004C4B5B880BB3012B26D04A4A013B538006
:10B54800B2F84E30013BA2F84E30B2F8B230013BAF
:10B55800A2F8B230454B9B89002B00F0DC80013B00
:10B56800424A93814A4B5B88002B00F0D880013B0C
:10B57800474A538007230626DBE03A4B0022C3F8EC
:10B58800C82007230326D4E019F06EFD06460028DC
:10B5980040F0B080354B9B89012B08D10027384BF0
:10B5A8001F70304B1B6C38469847364B9F73384B8F
:10B5B8005B88012B35D02B4B93F83430002B37D1D7
:10B5C80000232B4A13602B4A13602B4A13702B4A13
:10B5D8001370244A82F8CC3082F8CD30C2F8C830D3
:10B5E8005380A2F84E30A2F8B230204B9B8933B377
:10B5F800013B1E4A9381254B01225A70244B5B88DC
:10B608000BB3013B224A5380204B01229A70174BFF
:10B618009B89002B7DD0144A128893423ED0032682
:10B6280069E0002030F017FF174B00229A73C2E739
:10B63800FFF744FD0B4B00229A635A64C0E70B4B9B
:10B6480000229A81D7E7124B00225A80DCE7054B8B
:10B65800B3F8C40000F20510002180B229F05FFCA5
:10B668002EE000BFECA500200CB10020CC7100201A
:10B67800B4710020C4710020C8710020C971002075
:10B688007070002030720020E8E90020305C002053
:10B69800C8E90020487200200136F6B20B2E27D8E0
:10B6A800700180B2944BA3F8C400374600F205102D
:10B6B800924901EB860180B229F04AFA0028C6D0E7
:10B6C8008E4901EB87018C4BB3F8C40000F58370F9
:10B6D800023180B229F03CFA0028DDD1864BB3F85C
:10B6E800C40000F58370002180B229F018FCD3E76C
:10B6F800032600E00126FFF79BFA7F4BD868002855
:10B7080000F0F8800CF0A2FC7B4B0022DA600723E3
:10B718000FE00326EFE77A4B00229A8122E7794B64
:10B7280000225A800723062603E00126724B9E71E9
:10B738000023237266726B8963816B8823802B8850
:10B748006380204602B0BDE8F08100236A4A937105
:10B758000126EEE76B894CF2C062934222D04CF28C
:10B76800B062934237D0644A138801339BB2138086
:10B77800B2F84C100131A2F84C10012B44D001232F
:10B788002A884FF444414FF443400CF087FD0123CD
:10B798002A884CF205414FF443400CF07FFD0D23FD
:10B7A8000926C6E7544AB2F8B03001339BB2A2F872
:10B7B800B030012B0AD001232A884CF2C0614FF423
:10B7C80043400CF06BFD0D230926B2E71346002217
:10B7D800A3F8B420EFE7484AB2F8D43001339BB25B
:10B7E800A2F8D430012B0AD001232A884CF2B06188
:10B7F8004FF443400CF052FD0D23092699E71346F8
:10B808000022A3F8D620EFE7134600229A80A3F877
:10B818005420B4E76B894CF2C062934222D04CF2B8
:10B82800B06293423AD0344B1B88012B50D9324A2C
:10B83800013B1380B2F84C30013BA2F84C300B2688
:10B8480000232A884FF444414FF443400CF026FD6E
:10B8580000232A884CF205414FF443400CF01EFDAA
:10B868000F2366E7244BB3F8B030012B0ED9013B08
:10B87800214AA2F8B0300B2600232A884CF2C06176
:10B888004FF443400CF00AFD0F2352E71A4B0022F5
:10B89800A3F8B020FFF77CFD0A26EDE7164BB3F8B6
:10B8A800D430012B0ED9013B134AA2F8D4300B2611
:10B8B80000232A884CF2B0614FF443400CF0EEFCB0
:10B8C8000F2336E70C4B0022A3F8D4200A26EFE713
:10B8D800094B00221A80A3F84C20FFF7A9F9FFF7BB
:10B8E8004FFD0A26ACE70CF0B1FB002429E705233D
:10B8F80001261EE707231CE7ECA50020487200205C
:10B90800CC710020C8E9002038B52B4C00252580D3
:10B918006580A580FFF78CF9A4F84C50A4F84E5028
:10B92800012384F85030A4F85250A4F85450FFF77B
:10B9380027FDA4F8D450A4F8D650A4F8B050A4F821
:10B94800B250A4F8B450FFF723FD1C4BC4F8F830EC
:10B958000623C4F8FC3004F58A73C4F800314FF4A8
:10B968008063C4F80431C4F80851154BC4F80C318D
:10B9780004F21453C4F810310522294604F1A80032
:10B9880018F0E8FA70B10CF0C7FC0B4800F1F801A8
:10B9980000F2745018F099FC58B90021094818F0C1
:10B9A80001FC38BD044BD3F8A81009200CF0B2FAFA
:10B9B800EBE70CF0B1FCF0E7ECA5002035BD020088
:10B9C800A4A90A0098A6002008B502483FF06AFF1B
:10B9D800002008BD75B10200014B1864704700BF14
:10B9E800ECA5002070B58AB06C4684E80F009DF97C
:10B9F800385018F0A6F92E200CF000FB0F9B1860A9
:10BA080000284AD0044628230372432343722FF0A8
:10BA1800C9FDE060BDF800306382BDF80230A38242
:10BA2800BDF80430E382BDF80A30238314220021D4
:10BA380004A86EF06CFF1D4E04A9F07919F09EFB66
:10BA4800F379238200230BE00AAA02EB430103F1F6
:10BA5800080204EB420231F8181C51810133DBB2B1
:10BA6800092BF1D905F10F03DBB2012B19D90F4DC1
:10BA7800EB6800261E706FF03C025A70EB689E70EF
:10BA88006FF03B02DA70AB885A1CAA8063810DF113
:10BA98002701E8680CF0C2FBEE6018F06BF90AB0F9
:10BAA80070BD284668F01CFDA085E0E7ECA50020E5
:10BAB80082B070B582B006AC84E80C0058B1054677
:10BAC80049B10C46274E1022002106F5AF606EF0F2
