:020000022000DC
:106000000000042061630200C1630200C363020058
:10601000C5630200C7630200C963020000000000FC
:106020000000000000000000000000003DE403004C
:10603000CD6302000000000059E40300D1630200B8
:10604000A1BD0400D363020091BE040001BE0400A0
:1060500025BE0400D363020089B70400D3630200A5
:10606000D363020075DC04008DDC0400D3630200FE
:10607000D3630200D3630200D3630200D363020040
:10608000F9ED0400B9E10300D36302006DBE040022
:10609000D3630200D3630200DD220500D363020054
:1060A000D3630200D3630200A5DC0400BDDC04005E
:1060B000290B0500D363020000000000000000006F
:1060C000D36302003D0B0500D363020049BE040008
:1060D000E5ED0400D3630200677E03000994040029
:1060E000D363020061E90400D363020000000000F2
:1060F00000000000D36302000000000001C804009B
:10610000000000000000000000000000000000008F
:10611000000000000000000000000000000000007F
:10612000000000000000000000000000000000006F
:10613000000000000000000000000000000000005F
:10614000000000000000000000000000000000004F
:10615000000000000000000000000000000000003F
:10616000000000000000000000000000000000002F
:10617000000000000000000000000000000000001F
:10618000000000000000000000000000000000000F
:1061900000000000000000000000000000000000FF
:1061A00000000000000000000000000000000000EF
:1061B00000000000000000000000000000000000DF
:1061C00000000000000000000000000000000000CF
:1061D00000000000000000000000000000000000BF
:1061E00000000000000000000000000000000000AF
:1061F000000000000000000000000000000000009F
:10620000364937480A1A02D0072291438D4635494C
:1062100035480A1A06D00722914381F309880222E1
:1062200082F3148831483249324A00F045F8324846
:106230003249334A00F040F832483349334A00F0DB
:106240003BF833483349344A00F036F83348344990
:10625000344A00F031F834483449354A00F02CF81B
:1062600034483549354A00F027F835483549002289
:1062700000F02DF834483549002200F028F8344861
:106280003449091A082903DB002202600430016046
:10629000314A90471F482049884205D0026804309F
:1062A00003B4904703BCF7E700208646EC46002085
:1062B00000212A4A9047FEE7884207D0521A05D0AB
:1062C000037801300B700131013AF9D170478842EF
:1062D00002D002700130FAE770470000000004208D
:1062E00000D00320000004200000042050070D000F
:1062F000E45A0020446A0020D8630200D8630200F8
:10630000B4740A0050070D00E45A0020E45A00203B
:10631000DC760A00DC760A00DC760A00DC760A000D
:10632000DC760A00DC760A00DC760A00DC760A00FD
:1063300050070D00B0160D00446A0020446A00208A
:10634000446A00201C3603201C36032060360320DC
:106350006036032060920320896302007D7E030083
:106360001048804710484FF00701884385460F4882
:1063700080470F48016841F470010160BFF34F8FFF
:10638000BFF36F8FFFF73CBF0A480B490B4A8842A7
:1063900007D0521A05D0037801300B700131013A51
:1063A000F9D17047D563020000000420F1240500F4
:1063B00088ED00E0C8760A00D05A0020E45A002098
:1063C000FEE7FEE7FEE7FEE7FEE7FEE7FEE7FEE7A5
:0863D000FEE7FEE7704700BF85
:1063D80000220B2A20D830B4104C900081188B0072
:1063E80023441825A3F850500021A3F85210A3F80D
:1063F8005C10A3F84051A3F84211A3F84C11A3F87C
:106408005410831898000444A4F844110132D2B2FD
:106418000B2AE1D930BC7047704700BF446A00209E
:1064280010B504460D2011F089FB0346D8B1A27AB5
:106438000E4981F82C22B4F80B000D4A1080002276
:10644800C1F830220B490A600B490A70618819802B
:1064580021885980832119725A72A27A9A72B4F8E3
:106468000B20A3F80B20184610BD00BF446A00207B
:10647800E45A0020D4E50020290A022038B5044651
:10648800807A40000B3011F059FB0546002800F0D7
:10649800A58077230372A37A83720023A27A9A4293
:1064A80009D95A00A118C87A2A44D072097B1173F5
:1064B8000133DBB2F2E7002315E004EB4302D27AA2
:1064C80032B3474A2021C2F834124021C2F83812A8
:1064D8008021C2F83C124FF48071C2F840120022A9
:1064E8006A720133DBB2A27A9A4260D904EB4302A2
:1064F800127B042A58D801A151F822F0C364020083
:106508002F6502004F6502006F6502008F6502006B
:10651800334A0021C2F83412C2F83812C2F83C12C9
:10652800C2F84012DBE704EB4302D27A32B12C4ABC
:106538002021C2F8341200226A72D2E7284A0021C8
:10654800C2F83412F7E704EB4302D27A32B1244A94
:106558004021C2F8381200226A72C2E7204A00219C
:10656800C2F83812F7E704EB4302D27A32B11C4A78
:106578008021C2F83C1200226A72B2E7184A002150
:10658800C2F83C12F7E704EB4302D27A3AB1144A54
:106598004FF48071C2F8401200226A72A1E7104AD3
:1065A8000021C2F84012F7E701226A7299E70C4A03
:1065B800D2F83432D2F838120B43D2F83C120B43DB
:1065C800D2F840120B43C2F84432003318BF0123FB
:1065D80082F8483263882B8023886B80284638BD30
:1065E800446A002010B504460C2011F0A7FA0346AF
:1065F80078B1094A012182F84912628907494A801B
:106608004281002242727F2202722288428062887E
:106618000280184610BD00BF446A0020E45A0020DA
:1066280010B50446162011F089FA0346F8B1002285
:1066380042726FF0770181727721C17202736FF035
:1066480066014173562181733421C173122101748B
:1066580042744E2181746121C1746FF04301017548
:10666800427565220272628802802288428018463A
:1066780010BD10B50446162011F060FA034618B391
:10668800002242726FF0770181727721C172662110
:10669800017355214173122181736FF01001C17389
:1066A8006FF0320101746FF0540141744E2181740E
:1066B8006121C1746FF04301017542756322027252
:1066C8006288028022884280184610BD10B50446B0
:1066D8000D2011F033FA034678B1227A292A0ED018
:1066E8002B2A0FD000225A720B4A927E1A736289A3
:1066F8005A8122885A8062881A80184610BD2A2238
:106708000272EFE7227B04498A7612B90A46012110
:1067180091762C221A72E5E7446A002010B50446E7
:106728000E2011F00BFA0346B8B1112202720122B1
:1067380042720C4A128B92B9032242726189CAB220
:10674800113AD2B25981074931F812201A730A8BCB
:106758005A7362881A8022885A80184610BD02220D
:106768004272EBE7446A002038B50546F22011F082
:10677800E5F9044608B32CF0DBFB38B198236372C3
:106788009C2323720023A372E37210E02CF0DEFB3B
:106798000B4B012283F84A229723F0E704EB83028C
:1067A80000219173D1731174517401339BB2382B4A
:1067B800F4D96B8823802B886380204638BD00BFBE
:1067C800446A002070B50546F22011F0B7F9044676
:1067D80000285ED0AB89013B9BB2032B40D82E4AE0
:1067E800B2F84C320133A2F84C3200230EE02A49A9
:1067F800B1F84E22501CA1F84E0205EB8301D1F8E6
:106808000E00264941F8220001339BB26A899A4258
:10681800EDD82348234BC01AC00800041E4EB6F812
:106828004E32214940F003002AF07AFEAA89B6F8D0
:106838004C329A4201D0972313E0B6F84E1217480B
:106848002CF06AFB38B19823134A0021A2F84C12A5
:10685800A2F84E1205E001202CF078FB9723F3E70D
:10686800982363729A2323720023A372E372AA897E
:10687800A28108E004EB830200219173D1731174A3
:10688800517401339BB2382BF4D96B8823802B8841
:106898006380204670BD00BF446A00200894002031
:1068A80040760A0060750A001C770A00F8B50546AC
:1068B8000E4617461C461122002103F1080071F00C
:1068C8004EFA2823237200226272C4F80A7008E084
:1068D800012B04D115F8013B03F00F03A373013218
:1068E800D2B2082A5CD8012393403340102B48D0F9
:1068F8000BDC022B3BD0EBDD042B3DD0082BEED17B
:1069080015F8013BA4F81130E9E7402B3ED018DD1B
:10691800802B40D0B3F5807FE1D12B781B0203F4A4
:106928007063B4F815100B43A4F815302B781B02CC
:1069380003F470431BB2B4F817100B43A4F81730D4
:10694800CDE7202BCBD12B781B0203F47063B4F86E
:1069580011100B43A4F811302B78190905F8011B05
:10696800B4F8133043EA0123A4F81330B7E715F855
:10697800013BA4F80F30B2E715F8013BA4F80F303B
:10698800ADE715F8013BA4F81330A8E715F8013B6B
:10699800A4F81530A3E715F8013BA4F817309EE7D3
:1069A800174BB3F85912B4F8112093B2994210D08A
:1069B800134BA3F85922B4F81320A3F85B22B4F8B8
:1069C8001520A3F85D22B4F81720A3F85F22012050
:1069D800F8BD0B4BB3F85B12B4F813309942E7D10A
:1069E800074BB3F85D12B4F815309942E0D1044B67
:1069F800B3F85F12B4F817309942D9D10020E7E70D
:106A0800446A00202DE9F04383B08046F22011F05B
:106A180095F80546002800F08B80E42200210E300E
:106A280071F09DF9454C04220021204671F097F938
:106A380002A9E42321F8023D20462CF061FA00283F
:106A480067D1BDF806303E4FA7FB0327DA1B07EBDB
:106A580052077F09C7EBC70207EBC2029B1A9BB21A
:106A6800003318BF012313FA87F7BFB20026344654
:106A780023E0BDF806C0324BA3FB0C23ACEB0302AA
:106A880003EB52035B09C3EBC30203EBC203ACEB9A
:106A9800030C1FFA8CFC19E0621C284951F82400E9
:106AA80005EB8301C1F80E0001339BB294B2634534
:106AB800F2D3F1450FD10136B6B2BE4227D2B14664
:106AC80007F1FF3E7645D4D04FF0390CA5F80AC03F
:106AD800AF810023EBE7B8F802302B80B8F800301C
:106AE8006B8097236B7298232B720DF10501284652
:106AF80011F038F93C2054F0F3FFF22011F01EF8A1
:106B0800D0B1E42200210E3071F029F9D3E79723A0
:106B180005E00023AB72EB722B736B7398236B72D7
:106B280098232B72B8F802302B80B8F800306B80AD
:106B3800284603B0BDE8F0830546F9E7089400202D
:106B4800DD47701F38B50546612010F0F7FF044691
:106B580060B1AB7A8372083012F0D6FD6B8823805F
:106B68002B8863807B23237200236372204638BD01
:106B780008B5D0F812100E3013F0E6FB002008BD5F
:106B8800F8B50546807A80000B3010F0D7FF06462E
:106B980070B300240127AB7AA3420ED905EB840019
:106BA8002246B0F80D10B0F80B002CF0DBF818B93D
:106BB8000134E4B20027EEE70127AB7AB372002371
:106BC8000CE09A00A918B1F80B003244A2F80B00A7
:106BD800B1F80D10A2F80D100133DBB2AA7A9A426F
:106BE800EFD87772712333726B8833802B88738068
:106BF8003046F8BD70B50646422010F09FFF0446A7
:106C0800E0B101230372002545728572C572032322
:106C18000373457301238373C57309220849103030
:106C280070F091FE1D22074904F11A0070F08BFEE6
:106C38007388238033886380A571E571204670BD11
:106C48003C770A00DC760A0070B53B4B93F870324B
:106C5800BBB3394BB3F874329BB33749D1F86C22C4
:106C68000132C1F86C229A4200D070BD334B1B88A8
:106C7800D3B1002416E060012F4DA5F87C0205EB86
:106C88008406B6F8801200F205102CF00DFFB5F856
:106C98007C0200F58370B6F8821280B22CF004FFF3
:106CA8000134E4B20B2CE6D903202CF0ABFF224BC5
:106CB800002283F87022C3F86C22012283F8722222
:106CC800D3E71D4B93F87232C3B11B4AB2F8762250
:106CD800A2B11949D1F864320133C1F86432934240
:106CE800C3D10B8B33B9144B002283F87222C3F83B
:106CF8006422BAE700202CF085FFF4E7002BB4D11A
:106D08000D4BB3F87822002AAFD01946D3F8683271
:106D18000133C1F868329342A7D10B8B3BB9064BBC
:106D2800012283F872220022C3F868229DE703201B
:106D38002CF068FFF3E700BF446A00208EAE002005
:106D480070B582B00446807A80000B3010F0F6FEF1
:106D5800054698B30023ADF80630237A212B21D0BD
:106D6800232B4AD010F012FF002527E00121B300A1
:106D7800E218B2F80B202B44A3F80B20BDF806202C
:106D8800A3F80D200136A37AB3420EDD04EB860387
:106D98000DF10601B3F80B002CF08EFA0028E5D1AE
:106DA8000021E4E700260121EDE722232B72238846
:106DB8006B8063882B80A37AAB726972284602B015
:106DC80070BD0121B300E218B2F80B002B44A3F800
:106DD8000B00B2F80D20A3F80D200136A37AB342B8
:106DE8000EDD04EB8603B3F80D10B3F80B002CF09E
:106DF8005BFE0028E5D10021E4E700260121EDE74C
:106E080024232B72D3E770B584B00025ADF80A505F
:106E1800ADF808503B4B1B68588856F02EFA62F0C4
:106E2800F3FA0022384B56F033FE56F0B8FB374BD6
:106E3800A3F87C0203A920201CF092FB039CC4F356
:106E48000726E4B228462CF0DDFE002E3BD12F4E5B
:106E5800B6F87C0200F5807002A980B22CF02CFAFA
:106E6800BDF80850C5F38035B6F87C0200F582708D
:106E78000DF10A0180B22CF01FFA04F00703042B6D
:106E880006D8BDF80A2022F007021343ADF80A30ED
:106E980055B104F03804202C06D8BDF80A3023F088
:106EA80038031C43ADF80A40184BB3F87C0200F5D0
:106EB8008270BDF80A1080B22CF0F6FD03202CF089
:106EC800A1FE04B070BD304643F0FCFD06460F4DF0
:106ED800B5F87C0200F205100DF1060180B22CF025
:106EE800EBF9BDF8061021F07F01314389B2ADF806
:106EF8000610B5F87C0200F2051080B22CF0D4FD23
:106F0800A5E700BF3CCC022000004040446A0020B6
:106F18002DE9F04FDFB000235C935A935B935893AD
:106F28005993569357934FF480730D938F4B93F85F
:106F3800B032CBB98D4B012283F8B02293F8B1322D
:106F48002BB18A4B002283F8B122C3F8B4228849B6
:106F58001E202CF0B1F9874B1B88B3F5FA7F03D3B9
:106F6800824B93F8BA32A3B1804BB3F8B832CBB99D
:106F78004FF48072002114A870F0F1FE06AA0DF1FA
:106F880032010EA82BF084FCB8B901205FB0BDE82F
:106F9800F08F072100201BF01FFC744B012283F89F
:106FA800BA22E1E74FF6FF7102202CF07DFD4FF683
:106FB800FF7103202CF078FDDAE70DAA5CA914A86C
:106FC8002BF04CFC00F0F2BC5FFA83FB022617E0C2
:106FD8002E44F5B20137FFB2BBB2BDF8322093425E
:106FE80000F2D2843C460EAB33F8173013F4807F9E
:106FF800EAD1C3F3031606EB133603F00F031E445E
:107008005A4B234493F8BC32302BE1D05A4B13F837
:107018003430002BDED0594B1B681BB10122A24033
:10702800934227D0564B1B681BB10122A2409342C2
:1070380045D0544B1B683BB14C4A92F848221AB9C8
:107048000122A240934253D0484B93F82C32002B94
:1070580000F047814B4B1B68002B40F038824A4BAD
:107068001B88013B9C4276D04FF00008C146CDF802
:107078000C803BE13D4AD2F8B4320133C2F8B43255
:107088003D4A02EBC40292889342CBD1374B00228F
:10709800C3F8B422324614AB591958A870F053FCFF
:1070A800589B5A937119324614AB194458A870F07A
:1070B8004AFC589B5B935AA806F04CF8B2E7334A4F
:1070C8001278012AB5D1294A32F814201AB92D4A62
:1070D80012689342ADD1324614AB591958A870F0D2
:1070E80032FC589B5A935C995AA813F02DF9A0E7E3
:1070F800274B1B7813B9274B1B78ABB1324614AB1F
:10710800591958A870F01FFC589B5A9300235B9399
:1071180006AB33F81430032B0DD000231A465C99C4
:107128005AA805F0F7FA8FE73846FFF76CFE194BB7
:1071380001221A70E2E7184B1B7903F00F03032BA7
:10714800EBD07119324614AB194459A870F0FBFB07
:10715800599B5B93E1E7054B93F84832F3B14FF045
:107168000008C146CDF80C80C0E000BF446A00208A
:10717800FC6C0020343B0220CC3A0220D0AE002028
:10718800DC620020D8A40020E45A00205C5B0120C7
:10719800DCA40020DDA40020B410022055A90220A0
:1071A8001CF0DEF9559A02F00F03D91E012951D9B6
:1071B800012B4FD04FF00008C146CDF80C8054A9E0
:1071C8000C201CF0CDF9549981B1C44BD3F8CC22D2
:1071D8000132C3F8CC22C24B03EBC4039B8803FBE8
:1071E80001F3C3EB031399008A4247D2BD4B1B78C6
:1071F8001BB9BD4B1B78002B5AD0B84AD2F8303295
:107208000133C2F83032B64A02EBC4029288B74959
:10721800098AB2FBF1F2934268D14FF0000AAF4BF2
:10722800C3F830A204950596324614AB591958A8EC
:1072380070F089FB589B5A93CDF86CA106AB33F8D4
:107248001430032B3BD000231A465C995AA805F04A
:1072580061FA4BE0012B09D0C2F302190123039311
:1072680012F0800F07D14FF00008A8E74FF000098F
:10727800CDF80C90F4E74FF00108A0E7DFF85CA226
:107288000023CAF8CC3218462CF0BCFC964B4FF0C1
:1072980000021A700123934A13702022CAF834227C
:1072A800CAF844228AF8483203202CF0ABFC9DE748
:1072B8003846FFF7A8FD8C4B01221A709DE78B4BCF
:1072C8001B7903F00F03032BBDD0049B33441946ED
:1072D800059A14AB194459A870F035FB599B5B9378
:1072E800B1E74FF00008C146CDF80C807B4B93F80E
:1072F8004832EBB1794BD3F84432CBB10122A240EA
:10730800134215D04FFA87FA744B93F8D032002BFA
:1073180000F0EE80714B03EB8A03D3F8D432092BCB
:1073280000F2ED806D4A02EB8A0A0133CAF8D432C2
:10733800002E00F09781A30023449900674A0A446D
:10734800B2F85C3001339BB2A2F85C30012B00F03C
:1073580095810EAB33F8143013F4807F40F004822B
:10736800039B002B00F0F48114AB5B595693002269
:10737800579206AA32F81420032A00F0DC81559AA5
:1073880002F00F02042A00F0DB8123FA09F3569376
:1073980004EB84039A00514B1344324656A9986D66
:1073A80070F0D1FAA200224491004C4B0B449A6D24
:1073B80032449A653544EDB2A20022449100474B0D
:1073C8000B44B3F85420013292B2A3F85420B3F816
:1073D8005C10B3F8503099421FD3404991F8B41467
:1073E800D9B93E49897E03FB01F39A4215DB3B4933
:1073F800A200224493000B440022A3F85420A3F8CF
:107408005C2031F81430002B40F0DA8104EB84035F
:107418009A00324B13440022DA6406AB33F8143076
:10742800032B7FF4D7ADB8F1000F7FF4D3ADA300E1
:1074380023449900294A0A44B2F84C3101339BB2DB
:10744800A2F84C31012B00F03582A30023449A00A6
:10745800224B03EB0208324614AB5919D8F84801FD
:1074680070F071FAD8F848313344C8F848312E44DE
:10747800F5B2B8F8443101339BB2A8F84431B8F8F2
:107488004C11B8F840219142FFF4A4AD134991F88A
:10749800B41400297FF49EAD1049897E02FB01F2E5
:1074A8009342FFF697AD0D490022A8F84421A8F8A9
:1074B8004C2131F81430002B40F0108204EB840486
:1074C800A200064B13440022C3F83C2182E54FF08A
:1074D8000008C146CDF80C8008E700BF446A0020C8
:1074E800CC3A0220DCA40020DDA40020B410022045
:1074F80010F07CFFA94B012283F8D0220AE7132B56
:107508007BD804950596324614AB591958A870F0E3
:107518001AFA58985A904FEA8A03A04A1A44D2F89D
:10752800D4120A3953449A000A449D4B43F8220066
:107538009C4B1B88013B9A4525D0012303FA0AF38B
:10754800994A1268934223D000235B9306AB33F821
:107558001430032B45D04FEA8A02904B1344D3F8DA
:10756800D4120A39524493000B440A335B998C4A6B
:1075780042F82310894B03EB8A0ADAF8D432013334
:10758800CAF8D432D4E6854B93F82C32002BD4D0E9
:1075980000235B9306AB33F81430032B0FD04FEA6C
:1075A8008A027E4B1344D3F8D4120A39524493000A
:1075B8000B440A335B997A4A42F82310DAE77B4B8B
:1075C8001B7903F00F03032BE9D0049B33441946BE
:1075D800059A14AB194459A870F0B5F9599B5B93F7
:1075E800DDE7049B33441946059A14AB194459A89E
:1075F80070F0A9F9599B5B93ADE712F061F800238D
:1076080001E00133DBB29AB2BDF832108A420DD8DC
:1076180001229A406149D1F844120A42F1D05F4AE6
:1076280002EB83020021C2F8D412EAE7604B1B7810
:107638005BB1604B1B788BB95E4B01221A70072037
:1076480040F016FD5C4B01221A7011F0A9F8534B5B
:10765800002283F8D02283F8482269E6082040F007
:1076680007FDEFE7F3B21D44EDB206AA32F8142085
:10767800032A7FF4AFAC5E19F5B2ABE431461823A8
:1076880093FBF6F304EB84029000444A0244A2F808
:107698005030062B04D9414B03440622A3F850204E
:1076A800464B03EBC4039B88182B1CD804EB8403BC
:1076B8009A003A4B13440122A3F850200EAB33F83A
:1076C800143013F4807F1FD1344A02F5417304EB60
:1076D800C400810008310B44043304EB84008100AA
:1076E8000A44936535E64A2BE8D804EB84039A00EC
:1076F8002A4B1344B3F85030022BDFD9274B1344DD
:107708000222A3F85020D9E701FB0BF14FF4807354
:1077180093FBF1F1214BA000204482001A44A2F807
:10772800501003F5417304EBC400810008310B4489
:10773800043393650DE6721914A98A5857921EE608
:1077480023FA09F3579A22FA09F2134456931FE6CB
:1077580004EB84039A00114B1344324614A92944BC
:10776800986D70F0F0F81DE6A30023449A000B4BC7
:1077780003EB02090BFB06FA524614AB5919D9F868
:10778800580070F0E0F8D9F858305344C9F8583028
:1077980016FB0BF31D44EDB20EE600BF446A002051
:1077A800FC360120E45A0020D8A40020B41002209E
:1077B800DCA40020F0A40020DDA40020CC3A0220A4
:1077C8001AF0F5FC0EAB33F8143013F4807F5DD15A
:1077D8002C2010F0B3F904EB84039A00A64B134451
:1077E800D86404EB84039A00A34B1344D3F84C9059
:1077F800B9F1000F47D0102389F800306FF03E032D
:1078080089F80130DFF870A20AEB02030393DA6CFF
:107818009A4B03EB44031B8C53800AF5417104EB2C
:10782800C40293002422194409F1080070F08BF86F
:10783800282389F80830002389F80930A31D0AEBAA
:1078480083039A88511C9980A9F80A200EAB33F853
:107858001430A9F80C305C9BC9F80F30039AB2F8C1
:10786800503089F81330012389F80E309AF87232B3
:10787800BBB104EB84039A00534613440DF277110D
:10788800D86C10F06FFA1AF0ABFCBFE54FF48A70B1
:1078980010F054F904EB84039A00774B1344D8642E
:1078A8009FE704EB84039A00734B1344D86C10F0E1
:1078B8006DF9E8E7704BA10021448A001A44B2F838
:1078C8005010A2F8401103F5976304EBC40081003F
:1078D80008310B440433C2F84831B6E51AF067FCA6
:1078E8002C2010F02BF9064604EB84039A0043463B
:1078F800C3F83C01D8B3102303706FF03E03437004
:10790800DFF874A14FEA84099046D044D8F83C21A6
:107918005A4B03EB44031B8C53800AF5976104EB25
:10792800C402930024221944083070F00CF828236C
:10793800337200237372D144B9F81E305A1CA9F867
:107948001E2073810EAB33F81430B3815C9BC6F8EC
:107958000F30B8F84031F3740223B3739AF87232D7
:1079680043B10DF27711D8F83C0110F0FBF91AF089
:1079780037FCA3E504EB84039A003F4B1344D3F888
:107988003C0110F003F9F2E73B4B93F8BD32302B82
:1079980007D0394B93F868361BB1374BB3F8B83278
:1079A800A3B90DAA5CA914A82AF058FF00283BD156
:1079B8009DF83230324A12683249009132493348D0
:1079C8002CF0B3FB00252F46FFF706BB192010F05B
:1079D800B5F8294BC3F86C060028E2D010230370D1
:1079E8006FF03E0343701D2383706FF03D03C37037
:1079F80003465C9A2049B1F8B81214A82844FEF747
:107A080055FF58B10DF277111B4BD3F86C0610F0E7
:107A1800A9F9194B0022C3F86C26C2E7164BD3F814
:107A28006C0610F0B3F8F4E7194A184B1B6813609A
:107A3800184B1878124B1B68BDF832100091124988
:107A48002CF0D7FB0346A0B1134A127813449BB21B
:107A5800094A92F870264AB9FF21013B1BB2194026
:107A680006202CF021F80020FFF790BA40F2FF1111
:107A7800F3E70020FFF78ABA446A0020DC760A00A0
:107A8800303B0220006D0020CC3A022054660020D2
:107A980058660020606600202C3B022010B5044682
:107AA800D0F80A30032B31D0042B35D0022B2AD042
:107AB800162010F043F8034618B3002242724421FE
:107AC80081723321C17222210173112141736FF038
:107AD800220181736FF03301C1736FF044010174A7
:107AE8006FF0550141744E2181746121C1746FF0AA
:107AF8004301017542756122027262880280228800
:107B08004280184610BDFFF703FAD1E74FF4004151
:107B180000202BF0C9FFCBE74FF4004101202BF0E8
:107B2800C3FFC5E730B583B005460B2010F006F853
:107B38000446A0B10DF1060108202BF0BDFBBDF8ED
:107B4800063003F0C003C02B0CD00023A37200231F
:107B58006372692323726B8823802B886380204695
:107B680003B030BD2BF0A2FB0130A072EFE72DE986
:107B7800F043ADF5677D8046F0200FF0DFFF054646
:107B8800002800F089804FF46472002101A870F089
:107B9800E6F8E422002105F10C0070F0E0F80DF29F
:107BA800963101A82BF086F8002868D1BDF89633E5
:107BB8003D4FA7FB0327DA1B07EB52077F09C7EBEB
:107BC800C70207EBC2029B1A9BB2003318BF0123FE
:107BD80013FA87F7BFB20026344624E0BDF896C3EF
:107BE800314BA3FB0C23ACEB030203EB52035B0901
:107BF800C3EBC30203EBC203ACEB03035FFA83FCE2
:107C08001AE0621C01A951F8240005EB8301C86041
:107C180001339BB294B21FFA8CF29A42F1D8F14523
:107C28000FD10136B6B2BE4227D2B14607F1FF3EA8
:107C38007645D3D04FF0390C85F80AC0EF7200238F
:107C4800E9E7B8F802302B80B8F800306B800023E1
:107C58006B7226232B720DF10301284610F082F86F
:107C68003C2053F03DFFF0200FF068FFC8B1E4223C
:107C780000210C3070F073F8D3E7002303E00023F1
:107C8800AB72EB7201236B7226232B72B8F80230A9
:107C98002B80B8F800306B8028460DF5677DBDE86D
:107CA800F0830546F8E700BFDD47701F38B5054685
:107CB80015200FF043FF044698B30D220021083029
:107CC80070F04DF82C23A37201236372B5F80B30C2
:107CD800012B11D0BBB91A4B1B8BA3B1184B93F8CE
:107CE800B43483B101202BF0E1FF60B90023637243
:107CF800134A82F8B43406E0114B1B8B1BB1104BAE
:107D080093F8B4347BB1B5F80B30A4F80B30672383
:107D180023726B8823802B886380094B002283F8A9
:107D2800B022204638BD00202BF0C0FF0028EAD141
:107D380000236372024B012283F8B424E3E700BFF7
:107D4800446A002030B583B005460C200FF0F6FEDB
:107D5800044650B16B8803802B8843802B7A6A2BAA
:107D680006D06C2B1CD001236372204603B030BDB3
:107D78006B230372A87A0138C0B20B2802D90123F9
:107D88006372F2E7E97A2CF0CFF808B10123EBE748
:107D9800AB7AA372EB7AE372FEF71AFB0023E3E7F0
:107DA8006D230372A97A0139C9B20B2902D90123BB
:107DB8004372DAE70DF1060207202BF0DFFC30B939
:107DC800AB7AA372BDF80630E3720023CCE7012337
:107DD800CAE730B583B005460F200FF0AFFE044662
:107DE80050B16B8803802B8843802B7A462B06D0B2
:107DF800482B34D001236372204603B030BDEB7AA0
:107E0800BBB9ADF8063047232372A87A0138C0B24F
:107E18000B2812D8AB7B012B12D00323ADF804300A
:107E28009DF80430AA89E97A2BF0ACFF58B10123F8
:107E3800E1E7AB89ADF80630E5E701236372DBE7DC
:107E4800ADF80430ECE7AB7AA372EB7AE372AB8956
:107E5800A381AB7BA373FEF7BBFA0023CBE74923CF
:107E68000372A97A0139C9B20B2902D901234372D5
:107E7800C2E70DF1060204202BF080FC08B10123B3
:107E8800B9E7A97A013901AAC9B20A202BF076FC10
:107E980008B10123AFE7A97A01390DF10202C9B28D
:107EA80009202BF06BFCA0B9AB7A013BBDF802208E
:107EB80093420BDC0123E372AB7AA372BDF8063060
:107EC800A3819DF80430A373002394E70023E37291
:107ED800F2E701238FE738B505460B200FF02EFE99
:107EE800044678B1012343720C4B1B8B63B10C48D9
:107EF8002BF024FCAB7AA372452323726B88238072
:107F08002B886380204638BDA87A35F0DCFC10B990
:107F180000236372EBE701236372E8E7446A0020F9
:107F28002D7F020038B532F0A5FA0A4D28600A4CB8
:107F3800D4F87436C01AC4F87806D4F87C360133FD
:107F4800C4F87C36D4F880061AF0ACFB2B68C4F869
:107F5800743638BD202E0220446A002070B50546CC
:107F680015200FF0EBFD044668B101234372AE7A89
:107F7800B0B20C4B1B8B43B1A672432323726B88A0
:107F880023802B886380204670BD2BF0F3F830B92E
:107F980000236372034B012283F88426ECE7012354
:107FA8006372E9E7446A002038B505460C200FF0F3
:107FB800C5FD044668B168892BF02AF958B9002331
:107FC800732222726A8962812A8862806A88228082
:107FD8006372204638BD0123F2E770B582B00446CB
:107FE800807A00EB40000B300FF0A8FD064690B3F6
:107FF8000023ADF80630237A162B20D0182B45D055
:10800800012221E0012205EB4503E118C97A334436
:10801800D972BDF8061099810023ADF806300135F4
:10802800A37AAB420EDD05EB450323440DF10601AF
:10803800D87A2BF029F90028E4D10022E3E70025BB
:108048000122EDE717233372238873806388338016
:10805800A37AB3727272304602B070BD012205EB8A
:108068004503E118C87A3344D87289899981013562
:10807800A37AAB420DDD05EB450323449989D87AF1
:108088002BF0E8F80028E9D10022E8E700250122D2
:10809800EEE719233372D7E708B507484DF034FEE9
:1080A80020B9064B002283F8712208BD044A4FF418
:1080B800E97152F06DFEF4E7CC700020446A0020AC
:1080C80048770A0008B500224FF4806107484DF050
:1080D800BDFD20B9064B012283F8712208BD054A6F
:1080E80040F2C31152F054FEF4E700BFCC700020F8
:1080F800446A002048770A0008B5064A0121064864
:108108004DF074FD00B908BD044A40F2B51152F0B3
:108118003FFEF8E7516C020014770A0048770A001E
:1081280008B5044BB3F8763203B908BDFFF7CAFFA8
:10813800FBE700BF446A002010B5324A00231383CE
:10814800012191760CE02F4A002122F81310981D86
:1081580002EB8000818002EB8302D1830133DBB222
:108168000B2BF0D92748284BC0F8A8360623C0F8AF
:10817800AC3600F2C463C0F8B0364FF4C063C0F840
:10818800B4360021C0F8B816204BC0F8BC3600F64B
:10819800C443C0F8C036192200F624501AF010F96A
:1081A80028B30FF057FE174800F5D56100F62850A0
:1081B8001AF0C1FA10BB134C002104F5D0601AF074
:1081C80027FA002104F62C501AF022FA002104F5AF
:1081D80053601AF01DFA002104F634501AF018FA08
:1081E8004CF2A0614FF445400FF0CCFD10BD054B9B
:1081F800D3F8241D07200FF02DFCD4E70FF02AFE3A
:10820800D9E700BF446A002041880200C4770A0009
:1082180010B504460146084BD3F8240D1AF0FBF8B4
:1082280028B9054BD3F880061AF03CFA10BD204651
:108238000FF0ACFCF5E700BF446A002000B583B03E
:1082480002A9002321F8023D08202BF035F8BDF8DB
:10825800060003B05DF804FB074B0022C3F8342284
:10826800C3F83822C3F83C22C3F84022C3F844229A
:1082780083F84822704700BF446A00202DE9F04186
:1082880082B006460C200FF059FC0546002800F085
:108298006682337A043B0A2B00F2B782DFE813F0D8
:1082A8000B00B5024601B502B502B502B502B5022A
:1082B8002202B5027B02B34B002283F8B0221B8B4B
:1082C8004BB3B14A128812B1934200F02581AD4CEC
:1082D800238B0133238304F51E7204F2762104F5FF
:1082E8001D7013F01FF8B4F8743213B1012284F82A
:1082F800702213F003F8002800F01081A14B93F8C6
:108308007032002B40F085829E4B012283F8722246
:10831800052304241BE21BF0A1FA78BB994B93F8C0
:108328002C327BBB2AF034FE18B9964B93F84A32AC
:1083380023B1944B93F88436002B56D0914F0024E8
:1083480087F884460422214620462BF01DFE8F48DC
:108358002BF0F4F9FEF73CF8012387F8593287F837
:108368005A4287F85B3287F85C4287F85D3287F8B3
:108378005E4287F85F3287F8604255E028201BF09C
:108388008FFACBE701A904201BF0EAF8019BC3F39D
:1083980040237F4A137013BB00227A49C1F8342264
:1083A80053B17C4B1A88013A012303FA02F2D1F83F
:1083B80044321343C1F84432724AD2F8443200338B
:1083C80018BF012382F848320024734B1C701BF03D
:1083D80035F920462BF016FC1AF02AFDA2E76D4A63
:1083E8001288511E01228A40D7E728202AF0C2FEAF
:1083F80088B9644B93F8703683B1022035F063FA7C
:1084080070B9604B93F84A32002B97D05D4B00222D
:1084180083F84A2292E70FF01DFDEAE70620EDE710
:108428000FF018FDEDE701340B2C23DC04EB84037B
:108438009A00544B1344D86C40B10FF0A7FB04EBDF
:1084480084039A004F4B13440022DA6404EB84033C
:108458009A004C4B1344D3F83C010028E3D00FF0AA
:1084680095FB04EB84039A00464B13440022C3F89F
:108478003C21D8E71AF04DFC484C20801AF005FC46
:10848800208811F00BFD3F4C04F51E7204F2762192
:1084980004F51D7012F046FFB4F8743213B10122CE
:1084A80084F8702212F02AFF48B1364B93F87032E4
:1084B80063B1344B01221A830523022447E10DF0EE
:1084C8003FFF0028F1D1FFF72BFEEEE703202BF04A
:1084D80099FB2C4B012283F872220028E9D005234E
:1084E800072434E16001274FA7F87C0207EB8408D2
:1084F800B8F8801200F205102BF0D6FAB7F87C0213
:1085080000F58370B8F8821280B22BF0CDFA0134EE
:10851800E4B20B2CE6D9DAE60024FAE70DF010FFF6
:1085280000287FF4EBAEFFF7FBFDE7E6154B0022D2
:1085380083F8B02293F8BA32DBB2012B18D0114B72
:108548000022C3F8CC221B8B002B00F06581012B85
:1085580026D0013B9BB20B4A1383002B00F05F81AE
:10856800094A1288934200F0B88007230624EEE0F7
:10857800062110461AF030F9024B002283F8BA227D
:10858800DDE700BF446A00208EAE00202D7F020088
:10859800DCA40020E45A0020DDA40020200A0220E8
:1085A8001AF094FB1AF0B5FB9E4B188011F0DEFC14
:1085B80000202BF027FB48B101249B4B1C839A4BCE
:1085C80093F82C32002B46D10723C0E0964B0024A9
:1085D8001C8383F88446FFF73FFEFDF7F9FE00E0B1
:1085E80001340B2C23DC04EB84039A008E4B1344D8
:1085F800D86C40B10FF0CAFA04EB84039A008A4B96
:1086080013440022DA6404EB84039A00864B134473
:10861800D3F83C010028E3D00FF0B8FA04EB840348
:108628009A00814B13440022C3F83C21D8E77E4BC3
:1086380093F871320BB90324C1E7FFF72DFD7A4B8C
:108648000022C3F86422C3F86822C3F86C2283F8B6
:1086580070220324B3E70023744A1370744A13701A
:108668001AF034FF734B06221A8007236FE06E4B13
:10867800B3F87C0200F20510002180B22BF014FA46
:1086880012E00134E4B20B2C29D860016649A1F844
:108698007C02274601F5207101EB840100F20510E8
:1086A8002AF00AFE0028E2D05F4B03F5207101EBA7
:1086B8008701B3F87C0200F58370023180B22AF09A
:1086C800FBFD0028DDD1584BB3F87C0200F5837020
:1086D800002180B22BF0E8F9D3E70024D3E7072381
:1086E800062434E073894CF21D22934210D0DBB289
:1086F800113BDBB24C4931F81320013292B221F818
:108708001320012A2FD00023474A82F8383D36E04B
:10871800454B012283F868260022012183F859126B
:1087280083F85A2283F85B1283F85C2283F85D127F
:1087380083F85E2283F85F1283F86022012332886F
:1087480071894CF210100FF04BFB0D2309242B728A
:108758006C7273896B8173882B8033886B80284691
:1087680002B0BDE8F0810A46991D02EB81010020A4
:10877800888002EB8303D883C5E70133DBB20B2B78
:10878800DCD8294A32F81320002AF6D0264B0122D9
:1087980083F8382DD2E773894CF21D22934220D0FA
:1087A800DBB2113BDBB2204A32F81320012A1ED972
:1087B800013A1D4921F813200B24002332887189BE
:1087C8004CF210100FF00CFB0023174A82F8383DCA
:1087D8000B2B18D8144A32F8132072B90133DBB2C4
:1087E800F6E7114B002283F868260A24E5E70E4ACB
:1087F800002122F813100A24DFE70B4B012283F82B
:10880800382D0F23A3E70F23A1E70FF0BFF90025A9
:10881800A5E7052304249AE70723032497E70723FA
:10882800062494E7200A0220446A0020DCA40020E1
:10883800DDA40020E45A002030B583B00024ADF850
:10884800044009E0A4F577512F3989B24CF2101091
:108858000FF098FA0134E4B20B2CF3D94B4BC02239
:1088680083F8062353F0A0F82BF0BCFD082029F06C
:10887800C5FF2BF08EF908B10FF0ECFA44482AF046
:108888005DFF444841F0E6FE434841F0ABFE4348F3
:1088980041F026FF424841F0FFFE424803F0C0FC89
:1088A80041481AF021FF41481AF024FF40481AF0C5
:1088B80027FF4FF0FF313F4BD3F8800619F0D8FE61
:1088C80001A908202AF0F8FCBDF80430C02B1FD0FD
:1088D80039483A4BC01AC0080004394940F003002F
:1088E80028F058FC334B012283F8702628202AF000
:1088F80041FC08B10FF0AEFA0422002108462BF023
:1089080043FBFFF7A9FC1AF01FFCFFF7F5FB21E07A
:1089180029482A4BC01AC00800042A4940F003001D
:1089280028F038FC234B002283F87026DEE7FEF798
:10893800EFFA0FE0244A02EBC3039B6820469847EE
:10894800054620460FF022F925B10DF1070128460A
:108958000FF008FA4FF0FF31164BD3F8800619F0E4
:1089680087FE072100200FF0D9F804460028DED042
:108978000023212B08D8144A02EBC3021179227A6A
:108988009142D7D00133F4E70025DAE700E100E0AF
:108998002D7F020065290400372904006929040095
:1089A8001D2A04000D3C0500B53C0400C13B040031
:1089B800C93A0400446A002040760A0060750A003B
:1089C800D4770A0000780A00E45A00200023052B17
:1089D8000BD8074A32F82320824201D00133F6E748
:1089E800034A02EB8303987870470420704700BF5E
:1089F8002C780A0030B583B003293AD8DFE801F0B3
:108A0800573B0227754C022323700023637060686C
:108A180019F048FE4FF0FF31A06819F09CFD98B995
:108A28006E4CF42204F10C016D4850F021FA6D4BA4
:108A380001221A700023A4F80031A06819F0A5FDDE
:108A4800B8B10FF007FA14E00FF004FAE8E7664847
:108A5800664BC01AC0080004654940F0030028F0BE
:108A680099FB5E4B03221A7001225A70586819F05C
:108A780019FE03B030BD594CD4F804210132C4F8B2
:108A880004215948594BC01AC0080004594940F0FC
:108A9800030028F0ABFC002384F80831D4F80C015B
:108AA80019F000FE0028E4D00FF0D4F9E1E750F007
:108AB80035F94A4BD3F810210244C3F810214A4C27
:108AC8004A49641AE408240444F003040C334A496C
:108AD800204628F025FD434B1B784BB13F4A118AAD
:108AE8000B0A43EA01239BB2A2F80031F42B0AD8FF
:108AF8003A4BB3F80001D3F81031984211D0394BF2
:108B080000221A7049E03D49204628F043FB334BC8
:108B18000022A3F80021334901200870C3F810216E
:108B2800A7E7304B01221A702C4B0022C3F8102102
:108B38000FF004F8044600289BD0284DB5F8002112
:108B480005F10C016EF0FFFE2288130A43EA0223A6
:108B58009BB2238061880A0A42EA01226280A188C6
:108B68000A0A42EA0122A280E1880A0A42EA0122AC
:108B7800E280B5F814210AB9A5F814310DF10701FE
:108B880020460FF0EFF808E00FF064F90DE00FF061
:108B980061F91AE0002D7FF46CAF4FF0FF310F4BF5
:108BA800986819F0D8FC0028EED10C4C04F10C019F
:108BB800D4F81031F4221944094850F059F90546FF
:108BC800A06819F0E2FC0028E1D1002DE2D0034AA8
:108BD800D2F818310133C2F81831DBE7807700206A
:108BE80044780A00105C002040760A0060750A008C
:108BF80074780A0088780A0098780A00B0780A0021
:108C080008B515484DF051F920B1144A40F25D41BC
:108C180052F0BEF812484DF059FA20B10F4A40F20E
:108C2800614152F0B5F84DF017FA20B10B4A40F205
:108C3800634152F0ADF818F077FA00230222194682
:108C480018F036FC4FF0FF31012018F0A7FB4EF06A
:108C58009FFE0028FBD1F5E768780A00D0780A0063
:108C680044780A0010B50838062807D8DFE800F06D
:108C780007314606060604004DF00EFA10BD2848D6
:108C8800284BC01AC0080004274940F0030028F008
:108C980081FA1FF0F5F9C8B1244B01221A700DF0C2
:108CA80043FB0028EAD006F0B5FB0028E6D0204BAD
:108CB8001B78002BE2D006F0B3FB1C4B012283F893
:108CC8001C211C4B186819F0EDFCD7E74DF0E0F9B2
:108CD800E2E71348134BC01AC0080004164940F0D5
:108CE800030028F057FA114C002323700123637006
:108CF8004DF016FD606819F0D5FCBFE70848094B30
:108D0800C01AC00800040D4940F0030028F042FAD8
:108D1800064B01221A7000225A704DF0E7FEADE7AB
:108D280040760A0060750A0044790A0080770020BE
:108D38000F8D0020B4FF002058790A006C790A00D2
:108D480000B583B0002301930E4BD3F820319BB1BB
:108D580001A90C4BD3F8200118F094FC019B43B1F6
:108D6800094B4FF080525A6040BFBFF34F8FBFF39B
:108D78006F8F03B05DF804FB044940F2464014F0DD
:108D88001DFDE5E78077002000ED00E0D0780A00BF
:108D980010B533F0CDFE10B931F0C0FC10BD04465B
:108DA8000848094BC01AC0080004084940F00300ED
:108DB80028F0F0F9064A40F20111204651F0E8FF88
:108DC800EAE700BF40760A0060750A0078790A0071
:108DD800D0780A0010B504460146074BD3F82401A1
:108DE80019F019FB20B9044B586819F05BFC10BD49
:108DF80020460EF0CBFEF6E78077002008B538480D
:108E0800384BC0F828310623C0F82C3100F5A2737E
:108E1800C0F830314FF40063C0F834310021C0F895
:108E28003811314BC0F83C3100F64413C0F84031DA
:108E3800FA2200F5927019F0C3FA00283AD00FF020
:108E480009F8274800F5947100F6A41019F073FC8E
:108E5800B8BB50F0A5FD2248244BC0F8A839082318
:108E6800C0F8AC3900F6C413C0F8B0394FF4007339
:108E7800C0F8B4390023C0F8B8391D4BC0F8BC3964
:108E880000F6C433C0F8C03900F6A81100F5907098
:108E980019F051FCC0B9174819F010FBB8B90021F6
:108EA800154819F0B5FBA8B90021144819F0B0FB12
:108EB80098B908BD0A4BD3F8241105200EF0CAFD55
:108EC800BFE70EF0C7FFC4E70EF0C4FFE3E70EF0FC
:108ED800C1FFE4E70EF0BEFFE6E70EF0BBFFE8E7F0
:108EE80080770020798F02008C790A00098C0200B3
:108EF80094790A00887700208C78002084770020F5
:108F0800014B93F80801704780770020044B83F8E1
:108F1800240C10B9002283F8252C0020704700BFCC
:108F280080770020014B93F8250C7047807700204C
:108F380008B50CF019FF0DF03DFF2AF035F932F0B5
:108F480027F91AF0F7FC0EF04AFD0BF0DAFF13F0E0
:108F580069FB33F083FC12F02DFD08BD08B5002134
:108F6800024BD3F8240115F068FD08BD8077002076
:108F7800F0B583B0FFF70CFFFFF7DAFF9B4B1868DB
:108F880019F090FB9A4B186819F08CFB994B1868EC
:108F980019F088FB984B186819F084FB974B1868F0
:108FA80019F080FB964B186819F07CFB954B1868F4
:108FB80019F078FB944B186819F074FB934B1868F8
:108FC80019F070FBD1E0002800F0CF808488264695
:108FD80047883846FFF7FAFC042803D028460EF0E5
:108FE800D5FDC2E02A88130A43EA02232B803B0AF4
:108FF80043EA07276F80230A43EA0423AB80EA8801
:10900800130A43EA0223EB80814F2246294607F6DA
:1090180028406EF098FC7F4AD2F840330133C2F8FA
:109028004033AA88130A43EA0223AB80012387F856
:10903800083197F8243C5BB197F8253C0133DBB243
:1090480087F8253C734A92F84433013382F8443355
:10905800704B002283F8452383F846233CE00EF04A
:10906800F9FE41E06B4B93F84633002B59D1694B1D
:10907800D3F848233244C3F84823012283F846230F
:109088004FE00EF0E7FE52E0624BD3F84C2301327A
:10909800C3F84C236049204628F0A8F94FF0FF3167
:1090A8005B4BD3F80C0119F0E3FA00284AD10122EE
:1090B800584B83F847235949204628F097F9554AD1
:1090C80092F845330133DBB282F84533544A52787B
:1090D80093423AD2002F38D04FF0FF314C4B98686A
:1090E80019F039FA0028BAD100224A4B83F84723ED
:1090F8004C4C4D4BE41AE408240444F003044B4957
:10910800204628F073F9324649494A484FF0BAFDDB
:1091180007462A88130A43EA02231BB2464A9342A7
:10912800A0D03B4B986819F030FA0028A9D1002F3D
:10913800AAD03F4A4149204628F058F9042052F065
:10914800CFFCBCE70EF086FEB1E71FB1314B012220
:1091580083F8502328460EF019FD06E02C4B5B7867
:10916800EBB915B128460EF011FD294C4FF0FF312F
:10917800606819F07DFA052100200EF0CFFC054645
:109188002378DBB2022B3FF41EAF214B1B78DBB2F6
:10919800032BE3D01E4B1B78002BE6D1DEE7FFF74D
:1091A800DDFE0A200EF0CAFC04460028D9D0184E6D
:1091B800B6F814310380002787706FF03A03C37044
:1091C8008E2303721748184BC01AC00800041C49A4
:1091D80040F0030027F0DEFF0DF1070120460EF0F6
:1091E800C1FD7770A6F81471BBE700BFB4FF00207B
:1091F800B8680120C4700020ACE50020C4750120C7
:109208009009012038ED0020BCA4002004C50020EE
:109218008077002078880020F0790A00107A0A0008
:10922800105C002040760A0060750A00A4790A00E4
:10923800A883002044780A0001C6FFFFC8790A0005
:10924800347A0A00014B93F81C017047807700209C
:10925800024B002283F81C21704700BF8077002052
:109268006DDF7047014B1878704700BF588C00209D
:10927800114B9B8803B9704710B582B004460A2089
:109288000EF05CFC0346A8B1002202706FF03A01B0
:1092980041700949888858800A2018715A719A7152
:1092A800DA718A7901321A725C720DF10701184677
:1092B8000EF058FD02B010BD588C002000B583B0E8
:1092C8000A200EF03BFCA8B10346002202706FF0A2
:1092D8003A01417001209870D9700A2119715A71A8
:1092E8009A71DA716C2119725A720DF107011846D8
:1092F8000EF038FD03B05DF804FB114B9B8803B9F1
:10930800704700B583B00A200EF018FCA0B1002207
:1093180002706FF03A0141700949898841800A2139
:10932800017142718271C2715B22027249224272DA
:109338000DF107010EF016FD03B05DF804FB00BF48
:10934800588C0020104B9B8903B9704710B582B028
:1093580004460A200EF0F2FB98B1002202706FF06A
:109368003A0141700849898941800A210171427195
:109378008271C2719E22027244720DF107010EF0D1
:10938800F1FC02B010BD00BF588C002008B50620C3
:1093980006F057FA0DF060F908BD10B582B00A2042
:1093A8000EF0CCFBC8B10446002303706FF03A02FC
:1093B800427001218170C2701A2202714371837157
:1093C800C3717A230372102205490A306EF0BBFA82
:1093D8000DF1070120460EF0C5FC002002B010BDBB
:1093E800145C002008B50022142105484CF02EFC1E
:1093F80000B908BD034A40F6934151F0C9FCF8E7AB
:10940800688C0020607A0A0030B587B005462020B5
:109418000EF094FB04461349052321F8303F01A8B8
:109428000DF03AFCE0B10023A372E37298230DE03B
:10943800930006A9194451F8141C2344D960013239
:10944800084B1B8E9342F3DC638197236372982346
:1094580023726B8823802B886380204607B030BD39
:109468000022EDE7588C002030B587B00446202054
:109478000EF064FB0546002207E09300E118C96876
:1094880006A8034443F8141C013261899142F4DCB4
:1094980001A80DF039FC38B198236B729A232B720E
:1094A8000023AB72EB720FE001200DF043FC0DF0CE
:1094B80017F99723F1E705EB830200211173517324
:1094C8009173D17301339BB2042BF4D963882B8039
:1094D80023886B80284607B030BD38B50546202064
:1094E8000EF02CFB04460DF01BFC38B19823637278
:1094F8009C2323720023A372E3720EE00DF01AFC82
:109508000DF0D6F89723F2E704EB830200211173DC
:1095180051739173D17301339BB2042BF4D96B88C7
:1095280023802B886380204638BD10B574293DD030
:109538000DD8062977D072291FD0042952D05C4A49
:1095480092F83330013382F8333001245DE0782912
:1095580000F09580A02901D07629F0D14CF2015372
:10956800984200F08180524890F83330013380F8F7
:109578003330B2FA82F4640947E04CF2015398425E
:1095880009D04B4890F83330013380F83330B2FAC1
:1095980082F4640939E0464890F83230013380F8A3
:1095A8003230092A14BF002401242EE04CF2015362
:1095B800984209D03E4890F83330013380F8333070
:1095C800B2FA82F4640920E0394890F83230013365
:1095D80080F83230A2F10A04E4B2012C8CBF0024D6
:1095E800012412E0324890F83430013380F83430E6
:1095F800022A06D03AB1042A01D0002404E001244A
:1096080002E0012400E00124E4B22A4B2A48C01AEF
:10961800C008000423460A46284940F0030027F002
:109628007FFF204610BD224890F83430013380F87F
:109638003430042A08D0032A0FD0062A10D08AB161
:10964800072A08D0002409E090F83530013380F863
:1096580035300124D9E7012400E00124E4B2D4E73D
:109668000124FBE70124F9E7114890F8363001336B
:1096780080F83630412A14BF00240124C5E74CF293
:109688000153984209D00A4890F83330013380F8E2
:109698003330B2FA82F46409B7E7054890F83630F7
:1096A800013380F836304D2A14BF00240124ACE77A
:1096B800588C002060750A0010760A00D87A0A00D3
:1096C800214A536C926C93423CD230B583B01E4A07
:1096D8009363002119706FF03A0159705888010A94
:1096E80041EA002159809988080A40EA012080B29D
:1096F8009880DC88210A41EA0421D98090870833C0
:1097080013640EF01BFA044628B90F4A536C926C86
:109718009342DCD314E00C4DA96B8A886EF013F9E0
:109728000A4B0B48C01AC0080004A96B8A8840F08D
:10973800030027F0B7FD0DF1070120460EF012FBDC
:1097480003B030BD704700BF588C002060750A0018
:1097580010760A0070B584B002A82BF00FFA0646FE
:10976800002840F081809DF80830062B7AD8DFE881
:1097780003F0041B06198A8A7700002575E09DF816
:109788000930622B40F28180654B9B7B032B01D112
:1097980002256AE0624B03229A735620FFF7D2FD36
:1097A800022562E0032560E09DF80930012B0AD903
:1097B8009DF809305A4A527A934227D8584B9B7BD6
:1097C800E3B9012551E0564B01229A7235F062FD4A
:1097D8000128EDD10A200EF0B1F90028E8D05A226C
:1097E8000272002202706FF03A0242700121817009
:1097F800C2700DF10F010EF0B5FAD9E7484B0022FF
:109808009A735520FFF79EFD01252EE0444A127AEF
:1098180093420CD8424B9B7B012B01D1012524E0BC
:1098280001253F4B9D735420FFF78CFD1DE0622BF3
:1098380008D83B4B9B7B022B29D0394B02229A73C9
:10984800012512E0364B9B7B032B01D101250CE04F
:10985800334B03229A735620FFF774FD012504E069
:10986800062502E0072500E007252D4BB3F84C300C
:109878007BB914F075F8012841D0294B002283F8F0
:10988800542004B070BD0225EFE70225EDE701255D
:10989800EBE712200EF052F904460028E9D02823FD
:1098A80003724EB301234372A573BDF80A302382B5
:1098B8009DF80930E3730DF1020101A830F02AFE8A
:1098C800BDF90230019A1344C4F80A30144A136DE2
:1098D800591C1165E380002323706FF03A0363700D
:1098E8006FF06E03A3706FF03903E3700DF10F0191
:1098F80020460EF037FABCE700234372D4E7084A43
:1099080092F854300133DBB282F85430022BB8D1CC
:109918001346002283F8542013F06CFFB1E700BF10
:10992800588C002008B5064A012106484CF05EF91B
:1099380000B908BD044A40F6864151F029FAF8E713
:10994800759902005C7A0A00607A0A0008B5054831
:109958004CF0DAF900B908BD034A40F69F4151F0CE
:1099680017FAF8E7688C0020607A0A0010B582B010
:109978001E4B1F48C01AC00800041E4C237C1E4AF8
:10998800B2F856201D4940F0030027F0C9FD207C9D
:109998000EF0D4F800B303461749B1F858204280B6
:1099A800002202706FF03A005870207C98801B20CB
:1099B80018725A72B1F85620013292B2A1F85620A4
:1099C800C3F80A200DF1070118460EF0CBF9638A97
:1099D800013B9BB263820BB102B010BD064B002263
:1099E800A3F85620FFF7B2FFF6E700BF60750A003C
:1099F80010760A00145C0020588C0020FC7A0A00BB
:109A0800174B184ADA65F8B9154A012382F861300C
:109A1800002382F8603014494B8914330B44536691
:109A2800CB8993660E4B0022DA6683F8342083F8DC
:109A3800322083F8362083F833205A6E5A64996EA0
:109A480001390A449A647047012283F86020002291
:109A580083F86120054A5A6632F80A2C9A66E1E7CB
:109A6800588C002010940020089400201C9400209A
:109A780000B583B00A200EF061F898B10B4A9288BD
:109A88000280002282706FF03A01C1700A210171D0
:109A980042718271C2716221017242720DF1070135
:109AA8000EF060F903B05DF804FB00BF588C00208D
:109AB80000B583B00A200EF041F868B15A2202724C
:109AC800002202706FF03A02427001218170C27068
:109AD8000DF107010EF046F903B05DF804FB024BE7
:109AE80083F87000704700BF588C0020014B93F832
:109AF80070007047588C0020014B1870704700BFE9
:109B0800588C002008B50CF00FF9024B83F871004F
:109B180008BD00BF588C002000B583B00A200EF0A5
:109B28000DF868B14E220272002202706FF03A02FC
:109B3800427001218170C2700DF107010EF012F917
:109B480003B05DF804FB00B583B00A200DF0F6FF02
:109B580068B170220272002202706FF03A024270FD
:109B680001218170C2700DF107010EF0FBF803B0FE
:109B78005DF804FB08B5082005F063FE0CF06CFDE9
:109B880008BD2DE9F04385B00025294640E0D24BB9
:109B9800D24CE41AE408240444F00306D04B93F8AA
:109BA80072300091CF49304627F056FD0A200DF05B
:109BB800C5FF0746002846D1C9498B6F91F87C201C
:109BC80003EBC200407A91F87D108842DFD803EB9E
:109BD800C203187AC24B93F872309842D7D8002D36
:109BE80040F0BB80BC4BBD48C01AC0080004BE4949
:109BF80040F0030027F0CEFAB94B93F87C200132ED
:109C080083F87C20002283F87D2083F872200121CC
:109C1800B34B93F87C209B6F5B889A42CCD3002986
:109C280000F0A580AE4B002283F87C2083F87D20CD
:109C380083F8722093F87330002B40F09880492005
:109C4800FFF716FB93E0A64B93F87330002B68D010
:109C5800A649304627F09EFAA14A936F92F87C20D5
:109C680003EBC2035B89012B00F08880A0493046D2
:109C780027F090FA9A4B9A6F93F87C3002EBC30165
:109C880091F80880B8F1000F40F0CD80944A936FA6
:109C980092F87C2003EBC201497A002900F0478141
:109CA80003EBC2039A884CF202139A4200F0F38045
:109CB8004CF210139A4200F009814CF210139A42A8
:109CC80000F030814CF210139A4204D1894B1B7872
:109CD800002B40F0E580824D4FF0000985F87E901A
:109CE800854944F0040027F081FB0A200DF026FF87
:109CF800012485F874400622027280F8099080F8E1
:109D080000906FF03A024270AA6F95F87C1002EB4F
:109D1800C102928842800DF10F010EF023F825460A
:109D280006E17649304627F035FA6D4A012382F874
:109D3800743006233B7200237B723B706FF03A034A
:109D48007B70936F92F87C2003EBC2039B887B8027
:109D58000DF10F0138460EF005F85F4B5F48C01A49
:109D6800C0080004664940F0030027F013FA5C4B72
:109D7800002283F8732005B0BDE8F08361493046BE
:109D880027F008FA564B9A6F93F87C3002EBC30120
:109D9800097A012907D85C49304627F0FBF938468B
:109DA8000DF0F4FE1BE74E4D95F87210013185F861
:109DB800721095F87D10013185F87D1002EBC30211
:109DC8009288524944F0040027F010FB012285F8DC
:109DD80074200E233B7200237B72A96F95F87C00D8
:109DE80001EBC001C88878813B706FF03A00787049
:109DF8008888788085F87E20B5F88020C9880DF09D
:109E0800EFFF7888B0F5434F05D00DF10F013846C4
:109E18000DF0A8FFA1E70023B5F880204CF205411A
:109E28000DF0DEFFF1E72E4D4FF0010885F87E803A
:109E38008A88374944F0040027F0D8FA85F87480F6
:109E48000E233B7200237B72A96F95F87C2001EBEF
:109E5800C201CA887A813B706FF03A027A708888AA
:109E68007880B5F88020C9880DF0BAFF7888B0F5F9
:109E7800434F08D00DF10F0138460DF073FF4FF036
:109E88000108454602E70023B5F880204CF2054159
:109E98000DF0A6FFEEE71F4B1B78002B7FF408AFF1
:109EA8001D49304627F0A2FA0D4A92F87D30013359
:109EB80082F87D30002D7FF492AE184944F00400FA
:109EC80027F068F938460DF061FE88E6144B1B78D8
:109ED800002BE5D0F1E600BF60750A0010760A0095
:109EE800588C0020287B0A00E47C0A00807B0A004A
:109EF800F87B0A007C770020787C0A00647B0A00E3
:109F0800D87C0A00987B0A00E87B0A00A87B0A0034
:109F1800087C0A004A5C0020307C0A00687C0A0041
:109F2800495C0020084B1B78002BB9D0CAE61DB14C
:109F3800B8F1000F7FF453AE0449304627F02AF9F0
:109F480038460DF023FE4AE6EC5C0020A87C0A00A7
:109F580000B583B00A200DF0F1FD68B184220272C9
:109F68000022427202706FF03A0141708270C17033
:109F78000DF107010DF0F6FE03B05DF804FB08B51E
:109F8800034B012283F87320FFF7E2FF08BD00BFEF
:109F9800588C00202DE9F04387B00D200DF0CEFD40
:109FA800B8B1002202706FF03A01417082706FF010
:109FB8003F01C1700D21017142716FF06E02427252
:109FC8006FF039028272012202720DF117010DF051
:109FD800C9FEC54BC54DED1AED082D0445F0040624
:109FE800C349304627F0D6F8FFF78CFD01F07BB85F
:109FF800C04C94F8832004F18401D4F8AC0036F006
:10A008009DFE002384F8823001F073B842200DF0E1
:10A0180095FD074600283DD0638803802388438048
:10A0280001230372002305228272C3720222027383
:10A0380043738373C3730A22AF4910306DF083FCF6
:10A04800AE4B93F80080B8F1270F31D92722AC49DD
:10A0580007F11A006DF077FCAA4B1A7802EB080991
:10A06800B9F1270F26D9A84B1A7802EB0903272B39
:10A0780030D9002387F84130A44945F0030027F080
:10A0880089F8A349304627F085F80DF117013846BD
:10A098000DF068FE228802F564539BB2B3F5847F05
:10A0A80001D8944B9A8120460DF070FD01F01BB841
:10A0B8004246CCE708F1FF333B447C21997607F10F
:10A0C800080308F110089844924908F102006DF05D
:10A0D8003AFCC8E709F1FF333B447C21997607F144
:10A0E800080309F1100999448B4909F102006DF040
:10A0F8002AFCBEE70A200DF021FD90B1A17A7D4A25
:10A108001172E17A51720221917362880280228869
:10A11800428047220272412242720DF117010DF06E
:10A1280021FE20460DF032FD00F0DDBF837A023BB0
:10A13800DBB2012B1BD90B200DF000FD074680B3C5
:10A148006388038023884380492303724123437231
:10A15800A37A83720DF117010DF004FEA37A022B86
:10A168001DD0032B22D0E3B142237B7219E035F0D6
:10A1780091F80128DFD10A200DF0E0FC0028DAD0A0
:10A188005A220272002202706FF03A0242700121D4
:10A198008170C2700DF117010DF0E4FDCBE733F0CB
:10A1A800B5FD20460DF0F2FC00F09DBF2AF0C3FC7F
:10A1B800F7E70A200DF0C2FC0746B0B1012035F0E0
:10A1C80071F934F06DF9012814D14F237B728B2378
:10A1D8003B7263883B8023887B800DF117013846EA
:10A1E8000DF0C0FD002035F05DF920460DF0CEFCE5
:10A1F80000F079BF03F0CEF941237B72E7E70A202C
:10A208000DF09CFC20B920460DF0C0FC00F06BBF9F
:10A21800628802802288428077220272412242723A
:10A228000DF117010DF09EFD142051F059FC09F0B5
:10A23800DDF8A8B1394945F0030026F0ABFF4FF42B
:10A24800A07030F0ADF9BFF34F8F3549CA6802F4FA
:10A25800E062344B1343CB60BFF34F8F00BFFDE781
:10A26800314945F0030026F095FFE8E70A200DF094
:10A2780065FCE8B162880280228842808D220272E1
:10A28800412242720DF117010DF06CFD142051F0BE
:10A2980027FC09F0ABF880B1204945F0030026F00F
:10A2A80079FF0CF0ADFD214945F0030026F072FF5F
:10A2B80020460DF06BFC00F016BF1B4945F003006B
:10A2C80026F068FFEDE72AF0D4FA18B10DF117016E
:10A2D8000DF048FD20460DF059FC00F004BF0DF0CC
:10A2E80055FC00F000BF00BF60750A0010760A0038
:10A2F800007D0A00588C0020247D0A001FAA0B004C
:10A308002CAA0B001EAA0B001CAA0B00307D0A0009
:10A318004C7D0A0024AA0B0020AA0B006C7D0A00C1
:10A3280000ED00E00400FA05807D0A00947D0A0033
:10A3380012200DF003FC074680B302A82AF01EFC89
:10A3480088B142237B7263883B8023887B804523C6
:10A358003B729DF80830062B37D8DFE803F0072A50
:10A36800242730332D0041237B72ECE70023BB7395
:10A378000DF1060103A830F0CDF8BDF90630039AB7
:10A388001344C7F80A30BDF80A303B829DF80930FB
:10A39800FB730DF1170138460DF0E4FC20460DF073
:10A3A800F5FB00F0A0BE0223BB73E1E70323BB73F8
:10A3B800DEE70123BB73DBE70623BB73D8E704237F
:10A3C800BB73D5E70523BB73D2E70723BB73CFE77E
:10A3D80024200DF0B3FB074668B11C22CC49083095
:10A3E8006DF0B1FA63883B8023887B800DF11701FB
:10A3F80038460DF0B7FC20460DF0C8FB00F073BEE0
:10A40800FEF7F0FFD4F80A20C24B5A82A2881A74C9
:10A418002288C14BA3F8582020460DF0B7FB00F066
:10A4280062BEBD4AB2F84C300133A2F84C300D2060
:10A438000DF084FBA8B1032202722288A0F80B2039
:10A448006FF06E0242726FF0390282726288028087
:10A45800002282706FF03F02C2700DF117010DF0FB
:10A4680081FC0C200DF06AFB88B10D2202720922D2
:10A4780042726FF06E0282726FF03902C2726288A5
:10A488000280228842800DF117010DF06BFC2046F6
:10A498000DF07CFB00F027BE0D200DF04FFBA8B19E
:10A4A800042202722288A0F80B206FF06E0242721A
:10A4B8006FF03902827262880280002282706FF027
:10A4C8003F02C2700DF117010DF04CFC0C200DF08D
:10A4D80035FB0346D8B10F2202728F4AB2F84C20DE
:10A4E800012A19D9013A8C49A1F84C200B22427251
:10A4F8006FF06E029A726FF03902DA7262881A800F
:10A5080022885A800DF1170118460DF02BFC2046C1
:10A518000DF03CFB00F0E7BD7F4A0021A2F84C108B
:10A528000A224272E4E715200DF008FB074630B313
:10A5380002A903A82FF0EEFFBDF90800039B1844F9
:10A5480030F0BAFA03887B8183783B73C3787B73D6
:10A558000379BB734379FB7383793B74BDF9083086
:10A56800C7F8113063883B8023887B8053233B7274
:10A5780000237B720DF1170138460DF0F3FB2046DE
:10A588000DF004FB00F0AFBD4389ADF80C30037B40
:10A598008DF80E30437B8DF80F30837B8DF81030AB
:10A5A800C37B8DF81130037C8DF8123003A830F08E
:10A5B800D5FAD4F81170C01B2FF04CFF38462FF095
:10A5C800CDFF002005F043F9FFF7C4F80A200DF08D
:10A5D800B5FA58B16288028022884280432202720A
:10A5E800002242720DF117010DF0BCFB20460DF060
:10A5F800CDFA00F078BD4389ADF80C30037B8DF8B7
:10A608000E30437B8DF80F3003A839F0E1FBB8B961
:10A618000027002005F01BF90A200DF08FFA50B131
:10A6280062880280228842809722027247720DF166
:10A6380017010DF097FB20460DF0A8FA00F053BD66
:10A648000127E6E70E200DF079FA074680B10A30B7
:10A6580039F0E2FB88B9002362883A8022887A8040
:10A6680099223A727B720DF1170138460DF07AFB88
:10A6780020460DF08BFA00F036BD0123ECE70B20E5
:10A688000DF05CFA68B16288028022884280592203
:10A69800027241224272022282720DF117010DF0FC
:10A6A80061FB20460DF072FA00F01DBD16200DF07A
:10A6B80045FA0746C0B16388038023884380912305
:10A6C8000372002343722FF019FBC7F80A0029F020
:10A6D8004FF8C7F80E0030F03FFEC7F812000DF132
:10A6E800170138460DF03EFB20460DF04FFA00F0FA
:10A6F800FABC0C200DF022FA074630B3A37A012BDE
:10A7080039D05BB1022B50D0422343720EE000BF18
:10A71800285C0020145C0020588C0020C14B1B785A
:10A7280013B9C14B1B78ABB142237B7263883B8062
:10A7380023887B8079233B72A37ABB72E37AFB720E
:10A748000DF1170138460DF00DFB20460DF01EFAED
:10A7580000F0C9BC0121032033F09DFAE07A0CF027
:10A7680054FE41237B72E37A002BDFD100210320C2
:10A7780033F091FADAE7AB4B1B7813B9AA4B1B7885
:10A7880013B142237B72D1E70121032033F083FA0E
:10A79800E07A0CF021FE41237B72E37A002BC5D1CD
:10A7A8000021032033F077FAC0E7E07A28F024FD8F
:10A7B80041237B72BAE70C200DF0C0F90746A0B11F
:10A7C800A07A431E022B15D942237B7263883B80F3
:10A7D80023887B807B233B72A37ABB72E37AFB726C
:10A7E8000DF1170138460DF0BDFA20460DF0CEF9EF
:10A7F80000F079BCE17A003118BF012133F04BFA3F
:10A8080041237B72E2E70D200DF098F90746D8B195
:10A81800A37A013B052B56D8DFE803F0031B222C53
:10A82800414C30F04BFFA7F80B0041237B72638843
:10A838003B8023887B807D233B72A37ABB720DF11A
:10A84800170138460DF08EFA20460DF09FF900F0FA
:10A858004ABCFDF7F3FCA7F80B0041237B72E6E73F
:10A8680002A829F0C9FD9DF80830A7F80B3041234C
:10A878007B72DCE70121032033F00DFA2CF0D2F8CB
:10A888002DF0B4FE2DF0F8FDA7F80B002CF02EF8F3
:10A898000021032033F0FFF941237B72C7E702A9A7
:10A8A80003A82AF0D9FA9DF80830A7F80B304123FD
:10A8B8007B72BCE731F05AFE8DF80800A7F80B0050
:10A8C80041237B72B3E742234372B0E70AF076FB79
:10A8D80000F009BC0A200DF031F9074678B1638809
:10A8E8000380238843808123037213F0CDFA50B18B
:10A8F80042237B720DF1170138460DF033FA2046DA
:10A908000DF044F9EFE341237B72F3E70C200DF0DF
:10A9180015F90346F0B14549D1F8B02091F8B400D3
:10A92800218802EBC0029180217B1172617B5172F8
:10A938006189D18001229A706FF03A02DA700021A1
:10A9480019705A7062895A8152221A7203A91846DC
:10A958000DF008FA20460DF019F9C4E30A200DF0AD
:10A96800EDF8034610B33149D1F8B00091F8B4209E
:10A97800277B00EBC200478100279F706FF03A00E9
:10A98800D8701F7058708420187291F8B51029B9C2
:10A99800264890F8B610013180F8B61001322349E4
:10A9A80081F8B42003A918460DF0DCF920460DF013
:10A9B800EDF898E30B200DF0C1F8074678B16388ED
:10A9C800038023884380932303724123437212F048
:10A9D8000BFFB8720DF1170138460DF0C3F9204688
:10A9E8000DF0D4F87FE30B200DF0A8F8074690B1DE
:10A9F800A07A12F0EDFE63883B8023887B80952344
:10AA08003B7260B941237B72A37ABB720DF11701C7
:10AA180038460DF0A7F920460DF0B8F863E3422355
:10AA2800F1E700BF38F60020E8150120588C002017
:10AA3800B74A128862B1B7498A80B64A937192F8C8
:10AA4800B73063B9FFF768F820460DF09FF84AE37E
:10AA5800B14A1288002AF0D0AE498A80EDE7432037
:10AA6800FEF706FCF0E7437A412B11D1D0F80E200F
:10AA7800AA4B9A4206D8A74B012283F8B820FFF7C1
:10AA880062F807E04E20FEF7F3FBFEF77FFC01E0DB
:10AA9800FFF770F820460DF079F824E3437A012B8C
:10AAA80034D043893D2B28D8FFF72CF8994B93F8DD
:10AAB8007130FBB1974F0020A7F8BA00FFF71CF8D8
:10AAC800394631F8BA3F964818440BF0B7F80128D0
:10AAD8000AD0904AB2F8BA30143B93660120FEF7C8
:10AAE8008FFFFEF7EDFD0DE04420FEF7C1FBFFF7F9
:10AAF80041F807E0FEF7E2FB04E04D20FEF7B8FB63
:10AB0800FEF744FC20460DF041F8ECE2FFF732F87E
:10AB1800F8E7804A92F8B72072B17D4A12887AB174
:10AB28007C498A807B4A9371012382F8B8300020DF
:10AB3800FEF766FFFEF7C4FD20460DF027F8D2E2C7
:10AB4800754A1288002AEDD072498A80EAE7437A6A
:10AB5800482B08D06F4B9B7A5BB9FFF7F9F9204671
:10AB68000DF014F8BFE24E20FEF782FBFFF702F863
:10AB7800F3E7684B00229A72FEF7BFFBEDE70A2065
:10AB88000CF0DCFF074678B920460CF0FFFFAAE27C
:10AB9800604B93F8B6000CF0A1FF08BB5D4A92F831
:10ABA800B630013382F8B6305A4B93F8B6305D4A66
:10ABB80092F83020934235D2002BE9D15A480CF054
:10ABC80055FF4FF445400CF099FF524B013083F884
:10ABD800B600002283F8B4202288A3F8BC20D7E767
:10ABE80078800022BA71FA713A706FF03A027A707E
:10ABF80010223A724CF2101290420FD145490123AB
:10AC080081F8B53091F8BE305A1CD2B281F8BE2016
:10AC1800A3F577532F3B7B810B2A3AD003A93846FB
:10AC28000DF0A0F83B4B93F8B6203E4B93F830302C
:10AC38009A42A9D3DFF8DC80D8F8C020002313702B
:10AC48006FF03A015170B8F8BC1051806FF04B01A9
:10AC5800117153719371D371D8F8B0208521117097
:10AC6800537098F8B410518088F8B63088F8B4302A
:10AC7800B4200CF063FF8146D8F8C0108A886CF0C5
:10AC880062FE03A948460DF06DF838460CF07EFFC9
:10AC98007AE7002281F8BE2081F8B520BEE71D4B77
:10ACA80093F873301BB91B4B002283F8B720194F58
:10ACB800AC2204F10801B86F6CF045FE002387F858
:10ACC8007D3087F8723087F87C30FEF75AFF2046CF
:10ACD8000CF05CFF07E2437A4B2B0FD1FEF7C2FA68
:10ACE80028B10120FEF78CFEFEF7EAFC0BE0094BC9
:10ACF8000022A3F8BA20FEF750FB04E04420FEF738
:10AD0800B7FAFEF737FF20460CF040FFEBE100BF33
:10AD180094780020588C0020A4790120FFF7FF1FA9
:10AD280008940020145C0020445C0020437A412BE6
:10AD380001D0432B21D1B44FB7F8BA30B4F80D2065
:10AD480004F10F01B14818446CF0FDFDB4F80D3062
:10AD5800B7F8BA2013449BB2A7F8BA30627A432AEC
:10AD680003D020460CF012FFBDE1143BBB66012066
:10AD7800FEF746FEFEF7A4FCF3E74520FEF778FA57
:10AD8800FEF7F8FEEDE70A200CF0D8FE034698B16E
:10AD9800628802802288428000228271C271672202
:10ADA8000272994A92F8B72052B14B2242720DF1C1
:10ADB800170118460CF0D6FF20460CF0E7FE92E18A
:10ADC8004C224272F3E70AF0AFFF18B98E4B93F8A2
:10ADD8007030D3B101200BF0B5FDC7B20A200CF0DA
:10ADE800ADFE034668B122884280628802808722CD
:10ADF800027267B941225A720DF1170118460CF018
:10AE0800B1FF20460CF0C2FE6DE10127E6E74222C1
:10AE1800F1E700200BF096FDC7B20A200CF08EFE79
:10AE2800034668B1228842806288028089220272C1
:10AE380057B941225A720DF1170118460CF092FFCA
:10AE480020460CF0A3FE4EE14222F3E702886E4B47
:10AE5800A3F88020FFF793F820460CF097FE42E114
:10AE68001B200CF06BFE074678B3112200210A3034
:10AE78006CF075FF0AF058FFB8720BF07BFF38755D
:10AE880028F086F8387330F0E1F8787318F0E6FCAB
:10AE9800B8730CF042FDF87309F0D3FF387411F061
:10AEA80052FBB87631F070FC787410F061FDB8751B
:10AEB80023887B8063883B809E233B7241237B727F
:10AEC8000DF1170138460CF04DFF20460CF05EFEE0
:10AED80009E1FEF799FA18B10DF117010CF042FFDC
:10AEE80020460CF053FEFEE0FEF7BEFA18B10DF155
:10AEF80017010CF037FF20460CF048FEF3E0FEF790
:10AF0800ECFA18B10DF117010CF02CFF20460CF0EB
:10AF18003DFEE8E0437A482B1CD03B4B93F87D205C
:10AF2800013283F87D2093F87430B3B9364B93F827
:10AF38007220013283F8722093F874301BB3324BBD
:10AF4800012283F8732093F87E309BB920460CF0D9
:10AF58001DFEC8E0FEF71AFADFE72B4B012283F843
:10AF68007320002283F87420FEF70BFE20460CF0B5
:10AF78000DFEB8E0244B002283F87E2083F874206D
:10AF8800FEF7FFFDE2E7227A1F4B1B6C19784B1C7A
:10AF98009A4203D020460CF0F9FDA4E0627A20889A
:10AFA800FEF7C3FAA0BB184A92F8C4300133DBB2EB
:10AFB80082F8C430042B36D91346918F526C0A4458
:10AFC8005A64002283F8C42093F8603083B10E4B92
:10AFD80093F8713043B15020FEF74AF9FEF7CAFDE5
:10AFE80020460CF0D3FD7EE04620FEF741F9F5E758
:10AFF800054B93F871301BB15220FEF739F9EDE794
:10B008004820FEF735F9E9E7588C0020089400201D
:10B01800DE4B002283F8C420DA6E0132DA66998F9B
:10B028005A6C0A445A64D94B93F86030002B36D0D6
:10B03800D64BDA6D9288DB6E9A4230D1D34B002220
:10B0480083F86020012283F8B72093F87130ABB9F8
:10B058004720FEF70DF90BF067F998B90BF070F976
:10B0680080B9CB4B1B78002B94D1FEF7C9FCFEF7B7
:10B0780027FBC64B002283F8B7208BE75120FEF749
:10B08800F7F8E8E70BF05CF9002883D009F040F9FD
:10B0980008F0B8FD01F060FDFDF742F87AE7BB4B18
:10B0A80093F861302BB1B94BDA6D1289DB6E9A4295
:10B0B80002D0FEF705FB6DE7B44F4FF0000887F8A4
:10B0C80061800120FEF718FD87F8B78097F8713086
:10B0D8001BB94920FEF7CCF85CE75320FEF7C8F807
:10B0E80058E7FEF737FBA94B93F88230002B7EF424
:10B0F8007FAF022141F288300CF010FD0446002891
:10B10800EFD0037A9E2B3FF63EAF01A252F823F010
:10B1180015A002008FAF02008FAF02008FAF0200B0
:10B128008FAF02008FAF02008FAF020023AF020083
:10B138008FAF02008FAF02008FAF02008FAF020007
:10B148002BA402008FAF0200A1A4020035AF0200B9
:10B158008FAF020015A902008FAF02008FAF020067
:10B168008FAF02008FAF02008FAF02008FAF0200D7
:10B178008FAF02008FAF020009A402008FAF020058
:10B188008FAF02008FAF02008FAF02008FAF0200B7
:10B198008FAF0200CFA202008FAF0200CFA2020041
:10B1A8008FAF02008FAF02008FAF02008FAF020097
:10B1B8008FAF02008FAF02008FAF02008FAF020087
:10B1C8008FAF02008FAF02008FAF02008FAF020077
:10B1D8008FAF02008FAF02008FAF02008FAF020067
:10B1E8008FAF02008FAF02008FAF02008FAF020057
:10B1F8008FAF02008FAF02008FAF02008FAF020047
:10B208008FAF02008FAF02008FAF02008FAF020036
:10B218008FAF02008FAF020091A502008FAF02002E
:10B2280039A302008FAF0200FDA002008FAF020019
:10B2380035A102008FAF0200D9A302008FAF020030
:10B248008FAF02008FAF02008FAF02006FAA02001B
:10B258008FAF02008FAF02002FA5020065A9020080
:10B268008FAF02008FAF02008FAF02008FAF0200D6
:10B2780087A602008FAF02008FAF020057AB020013
:10B288008FAF02008FAF02008FAF02008FAF0200B6
:10B2980039AA02008FAF02001BAB02008FAF020079
:10B2A8008FAF02008FAF02008FAD02008FAF020098
:10B2B8008FAF02008FAF02008FAF02008FAF020086
:10B2C8008FAF0200DFAC02008FAF02008FAF020029
:10B2D8008FAF0200A5AA02008FAF02008FAF020055
:10B2E8008FAF02008FAF020007A202008FAF0200EB
:10B2F800FBA602001DAF0200BFA7020035AD020089
:10B308000FA802008FAF0200D5A802008FAF02007D
:10B31800DDA802008FAF02008FAF02008FAF0200DE
:10B3280087AB0200A7AC0200CFAD02008FAF0200CE
:10B338001BAE02008FAF0200BBA102008FAF02005C
:10B3480075A202008FAF020055AE02008FAF020057
:10B35800B5A602008FAF0200BDA902008FAF0200A0
:10B36800EFA902008FAF0200FFA50200DBAE0200CA
:10B378004DA60200F1AE02008FAF020007AF020037
:10B388008FAF020069AE0200E7A20200588C0020CD
:10B398001300012000B583B06846FDF761FF002364
:10B3A80009E0C3F1050202A90A4412F8071C044A7D
:10B3B8001A4411760133052BF3DD03B05DF804FB65
:10B3C800145C0020014BD884704700BF145C002037
:10B3D80008B52548254BC0F8C8300423C0F8CC3040
:10B3E80000F1E403C0F8D0304FF4A063C0F8D430C3
:10B3F8000021C0F8D8101E4BC0F8DC3000F2E4532E
:10B40800C0F8E030092200F2446016F0D9FF08B312
:10B418000CF020FD144800F1C80100F5C96017F0D0
:10B428008AF9F0B9104B03F24C62C3F8C02003F25A
:10B438005462C3F8B02003F5E0629A6700229A814B
:10B448000521197201215972022199739A72FEF726
:10B4580069FA08BD044BD3F8441602200CF0FAFA36
:10B46800D8E70CF0F7FCDDE7588C00209D9F020020
:10B47800B07D0A0010B504460146084BD3F84406CF
:10B4880016F0C9FF30B9054AD2F8AC370133C2F813
:10B49800AC3710BD20460CF079FBFAE7588C002039
:10B4A800024B00229A715A72704700BF10A4002004
:10B4B80010B504460E200CF041FB0346A8B111223A
:10B4C8000272012242720B4A528882B903214172E8
:10B4D800002199726FF03B01D972064909881973E6
:10B4E8005A7362881A8022885A80184610BD022131
:10B4F8004172EDE710A4002038B50546EC200CF0A9
:10B508001DFB0446F8B118F019F9012807D0982353
:10B5180063729C2323720023A372E3720DE0002060
:10B5280018F07AF99723F3E704EB830200211173EB
:10B5380051739173D17301339BB2372BF4D96B8854
:10B5480023802B886380204638BD30B5B9B00546C6
:10B55800EC200CF0F3FA044660B3002207E09300F5
:10B56800E918C96838A8034443F8E01C013269891E
:10B578009142F4DC684618F0D5F8012807D09823E2
:10B5880063729A2323720023A372E3720CE018F00B
:10B5980043F99723F4E704EB8302002111735173F5
:10B5A8009173D17301339BB2372BF4D96B88238005
:10B5B8002B886380204639B030BD30B5B9B0054618
:10B5C800EC200CF0BBFA044698B11449382321F852
:10B5D800103F684618F09AF801281CD00023A3727F
:10B5E800E37298236372982323726B8823802B88D5
:10B5F8006380204639B030BD930038A9194451F80A
:10B60800E01C2344D9600132044B1B8A9342F3DCCB
:10B6180063819723E6E70022F6E700BF10A4002025
:10B6280030B5BBB0054600238DF80730EB200CF091
:10B6380085FA044630B3132303720DF1070102A8FB
:10B6480017F09AFFC0B19DF8071099B901236372EA
:10B6580014E09A003AA8104450F8E00C2244C2F8CA
:10B668000B0001339BB28AB29A42F2D8A17200232E
:10B67800637203E00023F6E7012363726B8823807B
:10B688002B88638020463BB030BD38B505460A207C
:10B698000CF054FA044670B1152303720023437268
:10B6A800A87A18F0FDF8012807D0012363726B8887
:10B6B80023802B886380204638BD00236372F6E719
:10B6C80038B505461F200CF039FA044670B14523F9
:10B6D80003720023437200F10B01A87A17F016FFDA
:10B6E800AB7AA3726B8823802B886380204638BD91
:10B6F80030B585B0054610200CF020FA044698B104
:10B708004F2303720023437201A817F071FFBDF89D
:10B7180004306381BDF80630A381BDF80830E381A9
:10B728006B8823802B886380204605B030BD30B5F8
:10B7380083B005460C200CF001FA044670B14D2385
:10B748000372002343720DF1060017F055FFBDF890
:10B75800063063816B8823802B886380204603B082
:10B7680030BD70B5064614200CF0E8F9044698B1CF
:10B77800432303720123437200F10A050A220021C0
:10B7880028466CF0ECFA284617F0ACFE012805D0E4
:10B798007388238033886380204670BD00236372DA
:10B7A800F6E770B582B00446807A00EB80000B3073
:10B7B8000CF0C4F9064660B300230193237A162BD4
:10B7C80005D0182B28D00CF0E1F9002621E000253F
:10B7D8000123A27AAA4213DD05EB8503234401A9BC
:10B7E800D87A17F0BDFE50B105EB8503E218D27A7E
:10B7F8003344DA72019ADA6001350023E9E701235C
:10B80800172232722288728062883280A27AB272DB
:10B818007372304602B070BD00250123A27AAA4295
:10B8280013DD05EB85032344D968D87A17F08CFE1D
:10B8380050B105EB8503E218D17A3344D972D26846
:10B84800DA6001350023E9E7012319223272D9E7CA
:10B8580070B58CB0054642200CF070F9044660B112
:10B86800012343722B7A5BB1462B21D06B8823804E
:10B878002B8863800023A371E37120460CB070BD50
:10B8880001230372002603238372C6720523037300
:10B8980046738673C6730822144910306CF053F847
:10B8A8001C22134904F11A006CF04DF86672DDE7AA
:10B8B800684617F085FE47232372BDF82830638158
:10B8C800BDF82A30A381BDF82C30E3810422094950
:10B8D80004F110006CF037F82822694604F11A00C8
:10B8E8006CF031F800236372C0E700BFEC7D0A00FA
:10B8F800C87D0A00F47D0A0008B500224FF4806173
:10B9080007484AF0A3F920B9064B012283F83420EE
:10B9180008BD054A40F255114FF03AFAF4E700BF66
:10B9280024A4002010A40020F87D0A0008B50748C8
:10B938004AF0EAF920B9064B002283F8342008BD02
:10B94800044A4FF4B2714FF023FAF4E724A400201C
:10B9580010A40020F87D0A0008B5064A012106480F
:10B968004AF044F900B908BD044A40F247114FF0C3
:10B978000FFAF8E789B90200E47D0A00F87D0A00A9
:10B9880010B5134B1B787BB1124A936B0133936349
:10B99800D26B93420FD10F4C236C002098470023A1
:10B9A8000B4A1370A36306E00A4A536C01335364CD
:10B9B800926C934200D010BD17F062F9054C236CCD
:10B9C80003209847024B01221A7000236364F2E7B0
:10B9D800485C002010A4002038B50546054B1B6CB8
:10B9E80098470446032D01D0204638BD17F048F982
:10B9F800FAE700BF10A400202DE9F04182B06E4C98
:10BA08000025A56594F85D400F2C40F2CE806A4C65
:10BA1800B4F84C40002C00F0CC80674C94F85C40A3
:10BA280024BB654DEA662B670068C5F88000B1F94C
:10BA38000000A5F89000B1F90200A5F89800B1F946
:10BA48000410A5F8A0100121A5F852101E461546AD
:10BA58000134E4B2584B83F85C4093F85030B4EBAF
:10BA6800830F70DA544B1D665E66A2E0524D95F85E
:10BA78005060B4FBF6F506FB154515F0FF0FE5D150
:10BA88004D4D2D6E954241D94B4EB6F85270551B0F
:10BA9800A5F50045033706EB4706A6F86C50464D5A
:10BAA8006D6E9D423CD9444EB6F852705D1BA5F5AB
:10BAB8000045033706EB4706A6F872503F4D2D7830
:10BAC800C5BB3D48B0F85250043500EB8500002551
