:020000022000DC
:106000000000042061630200C1630200C363020058
:10601000C5630200C7630200C963020000000000FC
:1060200000000000000000000000000025F3030055
:10603000CD6302000000000041F30300D1630200C1
:1060400089CC0400D363020079CD0400E9CC0400BC
:106050000DCD0400D363020071C60400D3630200B7
:10606000D36302005DEB040075EB0400D363020010
:10607000D3630200D3630200D3630200D363020040
:10608000E1FC0400A1F00300D363020055CD04003D
:10609000D3630200D3630200C5310500D36302005D
:1060A000D3630200D36302008DEB0400A5EB040070
:1060B000111A0500D3630200000000000000000078
:1060C000D3630200251A0500D363020031CD04001A
:1060D000CDFC0400D363020067880300F1A2040032
:1060E000D363020049F80400D363020000000000FB
:1060F00000000000D363020000000000E9D60400A5
:10610000000000000000000000000000000000008F
:10611000000000000000000000000000000000007F
:10612000000000000000000000000000000000006F
:10613000000000000000000000000000000000005F
:10614000000000000000000000000000000000004F
:10615000000000000000000000000000000000003F
:10616000000000000000000000000000000000002F
:10617000000000000000000000000000000000001F
:10618000000000000000000000000000000000000F
:1061900000000000000000000000000000000000FF
:1061A00000000000000000000000000000000000EF
:1061B00000000000000000000000000000000000DF
:1061C00000000000000000000000000000000000CF
:1061D00000000000000000000000000000000000BF
:1061E00000000000000000000000000000000000AF
:1061F000000000000000000000000000000000009F
:10620000364937480A1A02D0072291438D4635494C
:1062100035480A1A06D00722914381F309880222E1
:1062200082F3148831483249324A00F045F8324846
:106230003249334A00F040F832483349334A00F0DB
:106240003BF833483349344A00F036F83348344990
:10625000344A00F031F834483449354A00F02CF81B
:1062600034483549354A00F027F835483549002289
:1062700000F02DF834483549002200F028F8344861
:106280003449091A082903DB002202600430016046
:10629000314A90471F482049884205D0026804309F
:1062A00003B4904703BCF7E700208646EC46002085
:1062B00000212A4A9047FEE7884207D0521A05D0AB
:1062C000037801300B700131013AF9D170478842EF
:1062D00002D002700130FAE770470000000004208D
:1062E00000D00320000004200000042060180D00EE
:1062F000E45A002048700020D8630200D8630200EE
:1063000004840A0060180D00E45A0020E45A0020BA
:106310002C860A002C860A002C860A002C860A008D
:106320002C860A002C860A002C860A002C860A007D
:1063300060180D00C42D0D0048700020487000202A
:1063400048700020D4460320D44603201847032079
:106350001847032018A30320896302007D880300E7
:106360001048804710484FF00701884385460F4882
:1063700080470F48016841F470010160BFF34F8FFF
:10638000BFF36F8FFFF73CBF0A480B490B4A8842A7
:1063900007D0521A05D0037801300B700131013A51
:1063A000F9D17047D563020000000420D9330500FD
:1063B00088ED00E018860A00D05A0020E45A002038
:1063C000FEE7FEE7FEE7FEE7FEE7FEE7FEE7FEE7A5
:0863D000FEE7FEE7704700BF85
:1063D80000220B2A20D830B4104C900081188B0072
:1063E80023441825A3F850500021A3F85210A3F80D
:1063F8005C10A3F84051A3F84211A3F84C11A3F87C
:106408005410831898000444A4F844110132D2B2FD
:106418000B2AE1D930BC7047704700BF4870002094
:10642800054B0022A3F83022A3F82E2283F8382245
:10643800C3F83422704700BF4870002010B50446E6
:106448000D2012F07BF80346D8B1A27A0E4981F8E4
:106458005022B4F80B000D4A10800022C1F85422D3
:106468000B490A600B490A70618819802188598094
:10647800832119725A72A27A9A72B4F80B20A3F87F
:106488000B20184610BD00BF48700020E45A0020B9
:1064980078EE0020D91A022038B50446807A4000E8
:1064A8000B3012F04BF80546002800F0A580772342
:1064B8000372A37A83720023A27A9A4209D95A00F6
:1064C800A118C87A2A44D072097B11730133DBB250
:1064D800F2E7002315E004EB4302D27A32B3474ACD
:1064E8002021C2F858124021C2F85C128021C2F85B
:1064F80060124FF48071C2F8641200226A7201338C
:10650800DBB2A27A9A4260D904EB4302127B042AD6
:1065180058D801A151F822F0DF6402004B6502004F
:106528006B6502008B650200AB650200334A0021EF
:10653800C2F85812C2F85C12C2F86012C2F86412AB
:10654800DBE704EB4302D27A32B12C4A2021C2F8AD
:10655800581200226A72D2E7284A0021C2F858125B
:10656800F7E704EB4302D27A32B1244A4021C2F859
:106578005C1200226A72C2E7204A0021C2F85C124B
:10658800F7E704EB4302D27A32B11C4A8021C2F801
:10659800601200226A72B2E7184A0021C2F860123B
:1065A800F7E704EB4302D27A3AB1144A4FF4807108
:1065B800C2F8641200226A72A1E7104A0021C2F8E8
:1065C8006412F7E701226A7299E70C4AD2F8583246
:1065D800D2F85C120B43D2F860120B43D2F8641263
:1065E8000B43C2F86832003318BF012382F86C32BB
:1065F80063882B8023886B80284638BD487000202C
:1066080010B504460C2011F099FF034678B1094AE9
:10661800012182F86D12628907494A80428100226D
:1066280042727F2202722288428062880280184663
:1066380010BD00BF48700020E45A002010B5044681
:10664800162011F07BFF0346F8B1002242726FF06A
:10665800770181727721C17202736FF0660141730D
:10666800562181733421C1731221017442744E2161
:1066780081746121C1746FF043010175427565220F
:1066880002726288028022884280184610BD10B5C6
:106698000446162011F052FF034618B30022427236
:1066A8006FF0770181727721C172662101735521DC
:1066B8004173122181736FF01001C1736FF03201C1
:1066C80001746FF0540141744E2181746121C174C9
:1066D8006FF043010175427563220272628802807D
:1066E80022884280184610BD10B504460D2011F0CE
:1066F80025FF034678B1227A292A0ED02B2A0FD0FB
:1067080000225A720B4A927E1A7362895A81228831
:106718005A8062881A80184610BD2A220272EFE752
:10672800227B04498A7612B90A46012191762C22E5
:106738001A72E5E74870002010B504460E2011F0E3
:10674800FDFE0346B8B111220272012242720C4AC0
:10675800128B92B9032242726189CAB2113AD2B23B
:106768005981074931F812201A730A8B5A736288C3
:106778001A8022885A80184610BD02224272EBE71E
:106788004870002038B50546F22011F0D7FE0446BF
:1067980008B32DF047FB38B1982363729C2323720A
:1067A8000023A372E37210E02DF04AFB0B4B012289
:1067B80083F86E229723F0E704EB8302002191739C
:1067C800D1731174517401339BB2382BF4D96B888F
:1067D80023802B886380204638BD00BF4870002086
:1067E80070B50546F22011F0A9FE044600285ED0D7
:1067F800AB89013B9BB2032B40D82E4AB2F87032CA
:106808000133A2F8703200230EE02A49B1F872224F
:10681800501CA1F8720205EB8301D1F80E0026493D
:1068280041F8220001339BB26A899A42EDD8234885
:10683800234BC01AC00800041E4EB6F87232214914
:1068480040F003002BF0E0FDAA89B6F870329A42B6
:1068580001D0972313E0B6F8721217482DF0D6FA34
:1068680038B19823134A0021A2F87012A2F87212C4
:1068780005E001202DF0E4FA9723F3E798236372EB
:106888009A2323720023A372E372AA89A28108E0E3
:1068980004EB830200219173D17311745174013395
:1068A8009BB2382BF4D96B8823802B8863802046D1
:1068B80070BD00BF48700020309A002090850A0003
:1068C800B0840A006C860A00F8B505460E461746DD
:1068D8001C461122002103F1080072F0E8F9282370
:1068E800237200226272C4F80A7008E0012B04D1F6
:1068F80015F8013B03F00F03A3730132D2B2082A43
:106908005CD8012393403340102B48D00BDC022B7A
:106918003BD0EBDD042B3DD0082BEED115F8013B25
:10692800A4F81130E9E7402B3ED018DD802B40D089
:10693800B3F5807FE1D12B781B0203F47063B4F8C0
:1069480015100B43A4F815302B781B0203F4704381
:106958001BB2B4F817100B43A4F81730CDE7202B5F
:10696800CBD12B781B0203F47063B4F811100B43DE
:10697800A4F811302B78190905F8011BB4F8133065
:1069880043EA0123A4F81330B7E715F8013BA4F84C
:106998000F30B2E715F8013BA4F80F30ADE715F852
:1069A800013BA4F81330A8E715F8013BA4F815300B
:1069B800A3E715F8013BA4F817309EE7174BB3F887
:1069C8007D12B4F8112093B2994210D0134BA3F85A
:1069D8007D22B4F81320A3F87F22B4F81520A3F879
:1069E8008122B4F81720A3F883220120F8BD0B4BAD
:1069F800B3F87F12B4F813309942E7D1074BB3F8D4
:106A08008112B4F815309942E0D1044BB3F88312DF
:106A1800B4F817309942D9D10020E7E74870002030
:106A28002DE9F04383B08046F22011F087FD05463A
:106A3800002800F08B80E42200210E3072F037F934
:106A4800454C04220021204672F031F902A9E423C2
:106A580021F8023D20462DF0CDF9002867D1BDF878
:106A680006303E4FA7FB0327DA1B07EB52077F09C7
:106A7800C7EBC70207EBC2029B1A9BB2003318BFD1
:106A8800012313FA87F7BFB20026344623E0BDF886
:106A980006C0324BA3FB0C23ACEB030203EB5203FF
:106AA8005B09C3EBC30203EBC203ACEB030C1FFA95
:106AB8008CFC19E0621C284951F8240005EB83017D
:106AC800C1F80E0001339BB294B26345F2D3F1458D
:106AD8000FD10136B6B2BE4227D2B14607F1FF3E0A
:106AE8007645D4D04FF0390CA5F80AC0AF81002301
:106AF800EBE7B8F802302B80B8F800306B809723AA
:106B08006B7298232B720DF10501284611F02AFEAD
:106B18003C2055F08DFFF22011F010FDD0B1E42299
:106B280000210E3072F0C3F8D3E7972305E0002365
:106B3800AB72EB722B736B7398236B7298232B7267
:106B4800B8F802302B80B8F800306B80284603B0C4
:106B5800BDE8F0830546F9E7309A0020DD47701F4D
:106B680038B50546612011F0E9FC044660B1AB7AFE
:106B78008372083013F050FA6B8823802B88638067
:106B88007B23237200236372204638BD08B5D0F8F2
:106B980012100E3014F060F8002008BDF8B5054654
:106BA800807A80000B3011F0C9FC064670B30024CF
:106BB8000127AB7AA3420ED905EB84002246B0F830
:106BC8000D10B0F80B002DF047F818B90134E4B2F5
:106BD8000027EEE70127AB7AB37200230CE09A0096
:106BE800A918B1F80B003244A2F80B00B1F80D1047
:106BF800A2F80D100133DBB2AA7A9A42EFD8777265
:106C0800712333726B8833802B8873803046F8BDCC
:106C180070B50646422011F091FC0446E0B101230C
:106C28000372002545728572C57203230373457389
:106C380001238373C57309220849103071F02BFEB4
:106C48001D22074904F11A0071F025FE738823807C
:106C580033886380A571E571204670BD8C860A0073
:106C68002C860A0070B53C4B93F89432002B39D02F
:106C7800394BB3F89832ABB33749D1F89022013287
:106C8800C1F890229A4200D070BD344B1B88D3B112
:106C9800002416E06001304DA5F8A00205EB84063B
:106CA800B6F8A41200F205102DF078FEB5F8A0028F
:106CB80000F58370B6F8A61280B22DF06FFE01348D
:106CC800E4B20B2CE6D9FFF783FB03202DF014FF69
:106CD800214B002283F89422C3F89022012283F8E2
:106CE8009622D1E71C4B93F89632C3B11A4AB2F8F0
:106CF8009A22A2B11849D1F888320133C1F88832F2
:106D08009342C1D10B8B33B9134B002283F89622DF
:106D1800C3F88822B8E700202DF0EEFEF4E7002B38
:106D2800B2D10D4BB3F89C22002AADD01946D3F846
:106D38008C320133C1F88C329342A5D10B8B3BB90D
:106D4800054B012283F896220022C3F88C229BE788
:106D580003202DF0D1FEF3E74870002058B500203D
:106D680070B582B00446807A80000B3011F0E6FBE3
:106D7800054698B30023ADF80630237A212B21D09D
:106D8800232B4AD011F002FC002527E00121B30093
:106D9800E218B2F80B202B44A3F80B20BDF806200C
:106DA800A3F80D200136A37AB3420EDD04EB860367
:106DB8000DF10601B3F80B002DF0F8F90028E5D124
:106DC8000021E4E700260121EDE722232B72238826
:106DD8006B8063882B80A37AAB726972284602B0F5
:106DE80070BD0121B300E218B2F80B002B44A3F8E0
:106DF8000B00B2F80D20A3F80D200136A37AB34298
:106E08000EDD04EB8603B3F80D10B3F80B002DF07C
:106E1800C5FD0028E5D10021E4E700260121EDE7C2
:106E280024232B72D3E770B584B00025ADF80A503F
:106E3800ADF808503B4B1B68588857F0C6F963F00B
:106E48008BFA0022384B57F0CBFD57F050FB374BED
:106E5800A3F8A00203A920201DF0F6FA039CC4F3AE
:106E68000726E4B228462DF047FE002E3BD12F4ED0
:106E7800B6F8A00200F5807002A980B22DF096F94C
:106E8800BDF80850C5F38035B6F8A00200F5827049
:106E98000DF10A0180B22DF089F904F00703042BE3
:106EA80006D8BDF80A2022F007021343ADF80A30CD
:106EB80055B104F03804202C06D8BDF80A3023F068
:106EC80038031C43ADF80A40184BB3F8A00200F58C
:106ED8008270BDF80A1080B22DF060FD03202DF0FD
:106EE8000BFE04B070BD304644F094FD06460F4DCD
:106EF800B5F8A00200F205100DF1060180B22DF0E0
:106F080055F9BDF8061021F07F01314389B2ADF87B
:106F18000610B5F8A00200F2051080B22DF03EFD73
:106F2800A5E700BFF4DC02200000404048700020C4
:106F38002DE9F04FDFB000235C935A935B9358938D
:106F48005993569357934FF480730D93854B93F849
:106F5800D432CBB9834B012283F8D42293F8D532AB
:106F68002BB1804B002283F8D522C3F8D8227E4962
:106F78001E202DF01BF97D4B1B88B3F5FA7F03D338
:106F8800784B93F8DE32A3B1764BB3F8DC32CBB949
:106F98004FF48072002114A871F089FE06AA0DF141
:106FA80032010EA82CF0E8FBB8B901205FB0BDE8AB
:106FB800F08F072100201CF083FB6A4B012283F825
:106FC800DE22E1E74FF6FF7102202DF0E7FC4FF6D5
:106FD800FF7103202DF0E2FCDAE70DAA5CA914A8E2
:106FE8002CF0B0FB00F0EEBC5FFA83FA022617E043
:106FF8002E44F5B20137FFB2BBB2BDF8322093423E
:1070080000F2CE843C460EAB33F8173013F4807F81
:10701800EAD1C3F3031606EB133603F00F031E443D
:10702800504B234493F8E032302BE1D0504B13F807
:107038003430002BDED04F4B9B7B33B14E4B1B685B
:107048001BB10122A240134230D1464B93F896322D
:1070580033B14A4B1B681BB10122A24093422BD08B
:10706800474B1B683BB13F4A92F86C221AB9012280
:10707800A240934239D03B4B93F89632002B00F054
:107088003581384B93F85032002B00F029823C4B65
:107098001B68002B40F029823A4B1B88013B9C421D
:1070A80056D04FF00008C346C14623E1394614AB19
:1070B800581906F091FAC8E7334A1278012ACFD155
:1070C800284A32F814201AB92D4A12689342C7D1B7
:1070D800324614AB591958A871F0DDFB589B5A93E6
:1070E8005C995AA813F0B8FDBAE7284B1B7813B976
:1070F800274B1B78ABB1324614AB591958A871F01D
:10710800CAFB589B5A9300235B9306AB33F81430A1
:10711800032B0DD000231A465C995AA805F026FCCB
:10712800A9E73846FFF77FFE194B01221A70E2E7FC
:10713800184B1B7903F00F03032BEBD07119324660
:1071480014AB194459A871F0A6FB599B5B93E1E76E
:10715800044B93F86C32FBB14FF00008C346C146AC
:10716800C8E000BF4870002024730020E44B0220D0
:107178007C4B02205CB500204CB700205C660020E8
:1071880000AB0020E45A00201C69012004AB002059
:1071980005AB00206421022055A902201DF054F9F6
:1071A800559A02F00F03D91E01294FD9012B4DD052
:1071B8004FF00008C346C14654A90C201DF044F9FD
:1071C800549981B1444BD3F8F0220132C3F8F0222C
:1071D800424B03EBC4039B8803FB01F3C3EB03138C
:1071E80099008A4245D23E4B1B781BB93D4B1B7810
:1071F800002B58D0384AD2F854320133C2F85432EE
:10720800364A02EBC40292883749098AB2FBF1F286
:1072180093426FD1304B0022C3F854220395049651
:10722800324614AB591958A871F035FB589B5A933C
:1072380000235B9306AB33F81430032B3AD00023BA
:107248001A465C995AA805F091FB53E0012B09D026
:10725800C2F3021B4FF0010912F0800F06D14FF064
:107268000008A9E74FF0000BD946F5E74FF00108F1
:10727800A2E7194B0022C3F8F02210462DF03CFC7F
:10728800184B4FF000021A700123154A1370202280
:107298001149C1F85822C1F8682281F86C320320DC
:1072A8002DF02AFC9FE73846FFF7BDFD0D4B012264
:1072B8001A709FE70C4B1B7903F00F03032BBED00A
:1072C800039B33441946049A14AB194459A871F026
:1072D800E2FA599B5B93B2E7487000207C4B02208E
:1072E80004AB002005AB0020642102204FF0000809
:1072F800C346C146BE4B93F86C3213B3BC4B93F8EC
:107308009632F3B1BA4BD3F86832D3B10122A24016
:10731800134216D07BB20393B54B93F8F432002B8B
:1073280000F0E880B24B039903EB8103D3F8F832FD
:10733800092B00F2E680AE4A02EB81020133C2F863
:10734800F832002E00F0A381A30023449900A84A34
:107358000A44B2F85C3001339BB2A2F85C30012BCE
:1073680000F0A1810EAB33F8143013F4807F40F0A5
:107378001082B9F1000F00F0008214AB5B595693EC
:107388000022579206AA32F81420032A00F0E88156
:10739800559A02F00F02042A00F0E78123FA0BF352
:1073A800569304EB84039A00914B1344324656A932
:1073B800986D71F070FAA200224491008C4B0B4436
:1073C8009A6D32449A653544EDB2A2002244910088
:1073D800874B0B44B3F85420013292B2A3F85420DF
:1073E800B3F85C10B3F8503099421FD3804991F834
:1073F800D814D9B97E49897E03FB01F39A4215DB7B
:107408007B49A200224493000B440022A3F8542095
:10741800A3F85C2031F81430002B40F0D38104EB42
:1074280084039A00724B13440022DA6406AB33F8E3
:107438001430032B7FF4DEADB8F1000F7FF4DAAD22
:10744800A300234499006A4A0A44B2F84C31013334
:107458009BB2A2F84C31012B00F02E82A3002344EA
:107468009A00634B03EB0208324614AB5919D8F85B
:10747800480171F010FAD8F848313344C8F8483157
:107488002E44F5B2B8F8443101339BB2A8F8443120
:10749800B8F84C11B8F840219142FFF4ABAD54490B
:1074A80091F8D81400297FF4A5AD5149897E02FBD3
:1074B80001F29342FFF69EAD4D490022A8F84421FF
:1074C800A8F84C2131F81430002B40F0138204EB5B
:1074D8008404A200464B13440022C3F83C2189E5EA
:1074E8004FF00008C346C14604E74FF00008C34602
:1074F800C146FFE611F00AFC3D4B012283F8F42255
:1075080010E7132B00F28A8004950596324614ABD7
:10751800591958A871F0BFF958985A90039B9B00C5
:10752800334A1A44D2F8F8120A39039A13449A00D3
:107538000A44304B43F822002F4B1B88013B039A27
:107548009A4226D00123039A93402C4A1268934208
:1075580024D000235B9306AB33F81430032B51D0AF
:1075680003988200224B1344D3F8F8120A390244D4
:1075780093000B440A335B991E4A42F823101C4BB4
:10758800039A03EB8203D3F8F8220132C3F8F822F6
:10759800D7E6174B93F85032002BD3D000235B93D8
:1075A80006AB33F81430032B0FD003988200104B2E
:1075B8001344D3F8F8120A39024493000B440A33EF
:1075C8005B990C4A42F82310D9E70D4B1B7903F05D
:1075D8000F03032BE9D0049B33441946059A14ABD7
:1075E800194459A871F057F9599B5B93DDE700BF1F
:1075F80048700020C0440120E45A002000AB00205D
:1076080064210220049B33441946059A14AB19449B
:1076180059A871F040F9599B5B93A1E712F0D8FC87
:10762800002301E00133DBB29AB2BDF832108A427E
:107638000DD801229A40AA49D1F868120A42F1D01D
:10764800A74A02EB83020021C2F8F812EAE7A54B29
:107658001B7813B1A44B01221A70A14BD3F86822EE
:10766800C3F8342293F8383263B99D4B072283F864
:10767800382211F01DFD9A4B002283F8F42283F87A
:107688006C225EE6964B082283F83822F1E7F3B2C3
:107698001D44EDB206AA32F81420032A7FF4AAACDE
:1076A8005E19F5B2A6E43146182393FBF6F304EB12
:1076B800840290008A4A0244A2F85030062B04D96A
:1076C800874B03440622A3F85020884B03EBC403DE
:1076D8009B88182B1CD804EB84039A00804B134416
:1076E8000122A3F850200EAB33F8143013F4807F36
:1076F8001FD17B4A02F54A7304EBC40081000831AC
:107708000B44043304EB840081000A44936529E6A2
:107718004A2BE8D804EB84039A00714B1344B3F85E
:107728005030022BDFD96E4B13440222A3F85020AD
:10773800D9E701FB0AF14FF4807393FBF1F1684B31
:10774800A000204482001A44A2F8501003F54A739E
:1077580004EBC400810008310B440433936501E64F
:10776800721914A98A58579212E623FA0BF3579AFA
:1077780022FA0BFB5B44569313E604EB84039A004E
:10778800574B1344324614A92944986D71F083F875
:1077980011E6A30023449A00514B03EB02090AFBAC
:1077A80006FB5A4614AB5919D9F8580071F073F80A
:1077B800D9F858305B44C9F8583016FB0AF31D4411
:1077C800EDB202E61BF067FC0EAB33F8143013F48D
:1077D800807F5DD12C2010F0B1FE04EB84039A0069
:1077E8003F4B1344D86404EB84039A003C4B134486
:1077F800D3F84C90B9F1000F47D0102389F8003026
:107808006FF03E0389F80130DFF8D4B00BEB0203C8
:107818000393DA6C364B03EB44031B8C53800BF554
:107828004A7104EBC40293002422194409F10800A8
:1078380071F031F8282389F80830002389F80930D5
:10784800A31D0BEB83039A88511C9980A9F80A2081
:107858000EAB33F81430A9F80C305C9BC9F80F3024
:10786800039AB2F8503089F81330012389F80E30A2
:107878009BF89632BBB104EB84039A005B46134431
:107888000DF27711D86C10F06DFF1BF01DFCC6E5EA
:107898004FF48A7010F052FE04EB84039A00104BE8
:1078A8001344D8649FE704EB84039A000C4B1344F9
:1078B800D86C10F06BFEE8E7094BA10021448A0060
:1078C8001A44B2F85010A2F8401103F2DC4304EB5A
:1078D800C400810008310B440433C2F84831BDE5C7
:1078E8004870002004AB002005AB00207C4B022030
:1078F8002C860A001BF0CFFB2C2010F01FFE06463A
:1079080004EB84039A004346C3F83C01D8B3102320
:1079180003706FF03E034370DFF878B14FEA8409D3
:107928009046D844D8F83C21594B03EB44031B8CB0
:1079380053800BF2DC4104EBC40293002422194467
:10794800083070F0A8FF2823337200237372D944DB
:10795800B9F81E305A1CA9F81E2073810EAB33F8F3
:107968001430B3815C9BC6F80F30B8F84031F3741B
:107978000223B3739BF8963243B10DF27711D8F80E
:107988003C0110F0EFFE1BF09FFBA0E504EB840325
:107998009A00404B1344D3F83C0110F0F7FDF2E78E
:1079A8003C4B93F8E132302B07D03A4B93F88C36A6
:1079B8001BB1384BB3F8DC32A3B90DAA5CA914A8E3
:1079C8002BF0C0FE00283BD19DF83230324A1268B5
:1079D80032490091324933482DF021FB00252F46CA
:1079E800FFF70ABB192010F0A9FD2A4BC3F890062F
:1079F8000028E2D0102303706FF03E0343701D236C
:107A080083706FF03D03C37003465C9A2149B1F857
:107A1800DC1214A82844FEF757FF58B10DF277116D
:107A28001C4BD3F8900610F09DFE1A4B0022C3F8A9
:107A38009026C2E7174BD3F8900610F0A7FDF4E79D
:107A4800194A184B1B681360184B1878124B1B689F
:107A5800BDF83210009112492DF045FB0346A0B144
:107A6800134A127813449BB20A4A92F894264AB9E8
:107A7800FF21013B1BB2194006202CF08FFF00208C
:107A8800FFF794BA40F2FF11F3E70020FFF78EBA30
:107A98002C860A0048700020E04B02202873002042
:107AA8007C4B0220586C00205C6C0020646C002029
:107AB800DC4B022010B50446D0F80A30032B31D035
:107AC800042B35D0022B2AD0162010F037FD0346A0
:107AD80018B300224272442181723321C1722221DB
:107AE8000173112141736FF0220181736FF033012B
:107AF800C1736FF0440101746FF0550141744E2158
:107B080081746121C1746FF043010175427561226E
:107B180002726288028022884280184610BDFFF7F0
:107B280007FAD1E74FF4004100202CF037FFCBE7EC
:107B38004FF4004101202CF031FFC5E730B583B088
:107B480005460B2010F0FAFC0446A0B10DF1060121
:107B580008202CF02BFBBDF8063003F0C003C02B27
:107B68000CD00023A37200236372692323726B88ED
:107B780023802B886380204603B030BD2CF010FB97
:107B88000130A072EFE72DE9F043ADF5677D80463F
:107B9800F02010F0D3FC0546002800F089804FF44F
:107BA8006472002101A871F082F8E422002105F135
:107BB8000C0071F07CF80DF2963101A82BF0F4FF5F
:107BC800002868D1BDF896333D4FA7FB0327DA1B81
:107BD80007EB52077F09C7EBC70207EBC2029B1AE4
:107BE8009BB2003318BF012313FA87F7BFB20026F0
:107BF800344624E0BDF896C3314BA3FB0C23ACEB11
:107C0800030203EB52035B09C3EBC30203EBC2039A
:107C1800ACEB03035FFA83FC1AE0621C01A951F87C
:107C2800240005EB8301C86001339BB294B21FFAAC
:107C38008CF29A42F1D8F1450FD10136B6B2BE4264
:107C480027D2B14607F1FF3E7645D3D04FF0390C25
:107C580085F80AC0EF720023E9E7B8F802302B80F4
:107C6800B8F800306B8000236B7226232B720DF15D
:107C78000301284610F076FD3C2054F0D9FEF02090
:107C880010F05CFCC8B1E42200210C3071F00FF850
:107C9800D3E7002303E00023AB72EB7201236B727E
:107CA80026232B72B8F802302B80B8F800306B808E
:107CB80028460DF5677DBDE8F0830546F8E700BF67
:107CC800DD47701F38B50546152010F037FC04460F
:107CD80098B30D220021083070F0E9FF2C23A3721D
:107CE80001236372B5F80B30012B11D0BBB91A4BC5
:107CF8001B8BA3B1184B93F8D83483B101202CF017
:107D08004FFF60B900236372134A82F8D83406E043
:107D1800114B1B8B1BB1104B93F8D8347BB1B5F8C2
:107D28000B30A4F80B30672323726B8823802B88D1
:107D38006380094B002283F8D422204638BD0020F6
:107D48002CF02EFF0028EAD100236372024B012297
:107D580083F8D824E3E700BF4870002030B583B02B
:107D680005460C2010F0EAFB044650B16B880380EE
:107D78002B8843802B7A6A2B06D06C2B1CD00123CE
:107D88006372204603B030BD6B230372A87A0138B2
:107D9800C0B20B2802D901236372F2E7E97A2DF009
:107DA8003DF808B10123EBE7AB7AA372EB7AE372F3
:107DB800FEF70EFB0023E3E76D230372A97A01396E
:107DC800C9B20B2902D901234372DAE70DF1060281
:107DD80007202CF04DFC30B9AB7AA372BDF8063001
:107DE800E3720023CCE70123CAE730B583B0054628
:107DF8000F2010F0A3FB044650B16B8803802B883A
:107E080043802B7A462B06D0482B34D0012363724B
:107E1800204603B030BDEB7ABBB9ADF80630472336
:107E28002372A87A0138C0B20B2812D8AB7B012B79
:107E380012D00323ADF804309DF80430AA89E97AFA
:107E48002CF01AFF58B10123E1E7AB89ADF80630F1
:107E5800E5E701236372DBE7ADF80430ECE7AB7AC2
:107E6800A372EB7AE372AB89A381AB7BA373FEF7B2
:107E7800AFFA0023CBE749230372A97A0139C9B2C3
:107E88000B2902D901234372C2E70DF1060204202F
:107E98002CF0EEFB08B10123B9E7A97A013901AA50
:107EA800C9B20A202CF0E4FB08B10123AFE7A97A94
:107EB80001390DF10202C9B209202CF0D9FBA0B991
:107EC800AB7A013BBDF8022093420BDC0123E3723D
:107ED800AB7AA372BDF80630A3819DF80430A37372
:107EE800002394E70023E372F2E701238FE738B514
:107EF80005460B2010F022FB044678B1012343729B
:107F08000C4B1B8B63B10C482CF092FBAB7AA37221
:107F1800452323726B8823802B886380204638BDD5
:107F2800A87A36F05AFC10B900236372EBE70123F4
:107F38006372E8E748700020457F020038B533F0E7
:107F480013FA0A4D28600A4CD4F89836C01AC4F8B7
:107F58009C06D4F8A0360133C4F8A036D4F8A40699
:107F68001BF014FB2B68C4F8983638BDD03E0220AD
:107F78004870002070B50546152010F0DFFA044659
:107F880068B101234372AE7AB0B20C4B1B8B43B17C
:107F9800A672432323726B8823802B886380204634
:107FA80070BD2CF061F830B900236372034B0122D5
:107FB80083F8A826ECE701236372E9E748700020FC
:107FC80038B505460C2010F0B9FA044668B168893E
:107FD8002CF098F858B90023732222726A896281BA
:107FE8002A8862806A8822806372204638BD01230D
:107FF800F2E770B582B00446807A00EB40000B309F
:1080080010F09CFA064690B30023ADF80630237AA8
:10801800162B20D0182B45D0012221E0012205EB98
:108028004503E118C97A3344D972BDF8061099811D
:108038000023ADF806300135A37AAB420EDD05EB1F
:10804800450323440DF10601D87A2CF097F800284F
:10805800E4D10022E3E700250122EDE7172333727C
:108068002388738063883380A37AB3727272304630
:1080780002B070BD012205EB4503E118C87A33440C
:10808800D872898999810135A37AAB420DDD05EB58
:10809800450323449989D87A2CF056F80028E9D169
:1080A8000022E8E700250122EEE719233372D7E71B
:1080B8002DE9F04182B00446002702AD25F8027D83
:1080C8001E4E96F83832038288464801A6F8A00268
:1080D800294600F205102CF069F8BDF806306382D5
:1080E800B6F8A00200F58370294680B22CF05EF83D
:1080F800BDF80630A382B6F8A00200F207102946A0
:1081080080B22CF053F8BDF80630E382B6F8A0022E
:1081180000F58270294680B22CF048F8BDF8063088
:1081280023831BF06AFD6083A4F81C804FF6FF735D
:10813800A380678402B0BDE8F08100BF48700020CA
:1081480070B58CB00023ADF80630444BB3F82C3230
:10815800002B7BD0414BB3F83032272B76D93F4BDD
:10816800D3F8343223B93D4B0022C3F8342273E0EC
:108178000DF10602002109202CF07AFA00243CE0D7
:108188000CAA02EB43011A1D05EB420231F8241C2C
:1081980011810133052BF3DD002209E002F1080308
:1081A8005B000CA919442B4431F8281C9981013231
:1081B800092AF3DD294ED6F83C3210221A706FF0E6
:1081C8003E025A70D6F83C326FF04E029A706FF049
:1081D8003902DA70B6F82E325A1CA6F82E226B81B4
:1081E8000DF12F01D6F83C0210F0BCFA0023C6F8B6
:1081F8003C321AF069FF0134E4B2A3B2BDF806209C
:108208009342B0D8154BD3F834220123A3401A4225
:10821800F1D02422002102A870F049FD214602A8CD
:10822800FFF746FF1AF037FF302010F087F90546B0
:108238000A4BC3F83C020028DBD0282303724323EF
:10824800437233F091F8E8600023A3E7034AB2F8D9
:1082580030320133A2F830320CB070BD48700020C3
:1082680008B507484EF0F8FC20B9064B002283F801
:10827800952208BD044A4FF4F57153F031FDF4E737
:10828800F47600204870002098860A0008B500227D
:108298004FF4806107484EF081FC20B9064B01225B
:1082A80083F8952208BD054A40F2DB1153F018FD0A
:1082B800F4E700BFF47600204870002098860A0092
:1082C80008B5064A012106484EF038FC00B908BD39
:1082D800044A40F2CD1153F003FDF8E76D6C02003B
:1082E80064860A0098860A0008B5044BB3F89A32E7
:1082F80003B908BDFFF7CAFFFBE700BF48700020BD
:1083080038B5314A00231383012191760CE02E4AB7
:10831800002122F81310981D02EB8000818002EBE7
:108328008302D1830133DBB20B2BF0D9264C002515
:10833800A4F82C52FEF774F8244BC4F8CC36062364
:10834800C4F8D03604F5DD63C4F8D4364FF4C063FE
:10835800C4F8D836C4F8DC561D4BC4F8E03604F629
:10836800E843C4F8E4361922294604F648501AF0BE
:108378009BFFF8B110F06EFA134800F2CC6100F6DA
:108388004C501BF04CF9E0B90F4C002104F2A460EA
:108398001BF0B2F8002104F555601BF0ADF8002180
:1083A80004F654501BF0A8F8002104F658501BF0AE
:1083B800A3F838BD044BD3F8481D072010F04AF83D
:1083C800DAE710F047FADFE7487000207D8A0200FC
:1083D80014870A0010B504460146084BD3F8480D27
:1083E8001AF08DFF28B9054BD3F8A4061BF0CEF878
:1083F80010BD204610F0CAF8F5E700BF487000200D
:1084080000B583B002A9002321F8023D08202BF013
:10841800CDFEBDF8060003B05DF804FB074B002253
:10842800C3F85822C3F85C22C3F86022C3F8642258
:10843800C3F8682283F86C22704700BF4870002098
:108448002DE9F04182B006460C2010F077F8054679
:10845800002800F08A82337A043B0A2B00F2F28269
:10846800DFE813F00B00F0024601F002F002F00220
:10847800F002F0022202F0029602B34B002283F8C7
:10848800D4221B8B4BB3B14A128812B1934200F02D
:108498002581AD4C238B0133238304F5277204F225
:1084A8009A2104F5267013F0C1FBB4F8983213B181
:1084B800012284F8942213F0A5FB002800F0108113
:1084C800A14B93F89432002B40F0C0829E4B0122BE
:1084D80083F89622052304243FE21CF033F978BB85
:1084E800994B93F850327BBB2BF0CCFC18B9964BC8
:1084F80093F86E3223B1944B93F8A836002B56D0DC
:10850800914F002487F8A8460422214620462CF0E3
:10851800B5FC8F482CF08CF8FDF75AFF012387F83B
:108528007D3287F87E4287F87F3287F8804287F865
:10853800813287F8824287F8833287F8844255E08F
:1085480028201CF021F9CBE701A904201BF07CFFAF
:10855800019BC3F340237F4A137013BB00227A495F
:10856800C1F8582253B17C4B1A88013A012303FA07
:1085780002F2D1F868321343C1F86832724AD2F86D
:108588006832003318BF012382F86C320024734B21
:108598001C701BF0C7FF20462CF0AEFA1BF0BCFB8A
:1085A800A2E76D4A1288511E01228A40D7E7282087
:1085B8002BF05AFD88B9644B93F8943683B10220A6
:1085C80036F00BF970B9604B93F86E32002B97D0E8
:1085D8005D4B002283F86E2292E710F03BF9EAE740
:1085E8000620EDE710F036F9EDE701340B2C23DC1B
:1085F80004EB84039A00544B1344D86C40B10FF039
:10860800C5FF04EB84039A004F4B13440022DA643D
:1086180004EB84039A004C4B1344D3F83C01002824
:10862800E3D00FF0B3FF04EB84039A00464B1344E6
:108638000022C3F83C21D8E71BF0DFFA484C208021
:108648001BF097FA208812F0B1F83F4C04F5277216
:1086580004F29A2104F5267013F0E8FAB4F8983277
:1086680013B1012284F8942213F0CCFA48B1364BA6
:1086780093F8943263B1344B01221A830523022400
:108688006BE10EF05DFB0028F1D1FFF72DFEEEE760
:1086980003202CF031FA2C4B012283F89622002873
:1086A800E9D00523072458E16001274FA7F8A00265
:1086B80007EB8408B8F8A41200F205102CF06EF944
:1086C800B7F8A00200F58370B8F8A61280B22CF0B3
:1086D80065F90134E4B20B2CE6D9DAE60024FAE7AE
:1086E8000EF02EFB00287FF4EBAEFFF7FDFDE7E66A
:1086F800154B002283F8D42293F8DE32DBB2012B2B
:1087080018D0114B0022C3F8F0221B8B002B00F06D
:10871800A081012B26D0013B9BB20B4A1383002B6F
:1087280000F09A81094A1288934200F0B880072322
:10873800062412E1062110461AF0C2FF024B00225D
:1087480083F8DE22DDE700BF4870002058B500201E
:10875800457F020004AB0020E45A002005AB00204E
:10876800D01A02201BF026FA1BF047FABC4B1880DF
:1087780012F084F800202CF0BFF948B10124B94B5D
:108788001C83B84B93F85032002B46D10723E4E002
:10879800B44B00241C8383F8A846FFF73FFEFDF77F
:1087A80017FE00E001340B2C23DC04EB84039A0051
:1087B800AC4B1344D86C40B10FF0E8FE04EB8403D3
:1087C8009A00A84B13440022DA6404EB84039A004D
:1087D800A44B1344D3F83C010028E3D00FF0D6FE95
:1087E80004EB84039A009F4B13440022C3F83C21F6
:1087F800D8E79C4B93F895320BB90324C1E7FFF7F0
:108808002FFD984B0022C3F88822C3F88C22C3F8A6
:10881800902283F894220324B3E70023924A13702A
:10882800924A13701BF0C6FD914B06221A8007234B
:1088380093E08C4BB3F8A00200F20510002180B23F
:108848002CF0ACF812E00134E4B20B2C29D860010A
:108858008449A1F8A002274601F5297101EB84019A
:1088680000F205102BF0A2FC0028E2D07D4B03F5A6
:10887800297101EB8701B3F8A00200F5837002317A
:1088880080B22BF093FC0028DDD1764BB3F8A00220
:1088980000F58370002180B22CF080F8D3E7002423
:1088A800D3E70723062458E073894CF2B162934258
:1088B8001DD04CF21D22934230D0DBB2113BDBB20B
:1088C800684931F81320013292B221F81320012AA5
:1088D8004FD00023634A82F85C3D0B2B34D8614AA1
:1088E80032F81320002A4ED10133DBB2F5E75D4A96
:1088F800B2F82C3201339BB2A2F82C32012B0AD0E9
:10890800012332884CF2B1614CF210100FF068FF6D
:108918000D23092421E0FDF783FDF1E7514B0122E6
:1089280083F88C260022012183F87D1283F87E22A9
:1089380083F87F1283F8802283F8811283F88222D9
:1089480083F8831283F884220123328871894CF2D8
:1089580010100FF045FF0D2309242B726C727389D8
:108968006B8173882B8033886B80284602B0BDE802
:10897800F0810A46991D02EB81010020888002EBF4
:108988008303D883A5E7374B012283F85C2DDBE707
:1089980073894CF2B162934224D04CF21D22934267
:1089A8003CD0DBB2113BDBB22E4A32F81320012A4D
:1089B8003AD9013A2B4921F813200B240023328895
:1089C80071894CF210100FF00BFF0023254A82F832
:1089D8005C3D0B2B34D8234A32F8132052BB0133A9
:1089E800DBB2F6E71F4BB3F82C32012B0ED9013B53
:1089F8001C4AA2F82C320B24002332884CF2B161B5
:108A08004CF210100FF0ECFE0F23A6E7154B0022D6
:108A1800A3F82C22FDF704FD0A24EDE7114B0022F0
:108A280083F88C260A24C9E70E4A002122F813107D
:108A38000A24C3E70B4B012283F85C2D0F238CE734
:108A48000F238AE70FF0A2FD00258EE705230424F3
:108A580083E70723032480E7072306247DE700BF75
:108A6800D01A02204870002004AB002005AB00207B
:108A7800E45A002030B583B00024ADF8044009E082
:108A8800A4F577512F3989B24CF210100FF07AFE05
:108A98000134E4B20B2CF3D94CF2B1614CF2101052
:108AA8000FF070FE4C4BC02283F8062353F024FFCE
:108AB8002CF012FC08202AF015FE2BF0E4FF08B178
:108AC8000FF0C8FE45482BF0B3FD454842F06AFD5B
:108AD800444842F02FFD444842F0AAFD434842F082
:108AE80083FD434803F0CEFC42481BF071FD424829
:108AF8001BF074FD41481BF077FD4FF0FF31404BF0
:108B0800D3F8A4061AF028FD01A908202BF04EFB83
:108B1800BDF80430C02B1FD03A483B4BC01AC008E0
:108B280000043A4940F0030029F0A8FA344B012226
:108B380083F8942628202BF097FA08B10FF08AFEC4
:108B48000422002108462CF099F9FFF767FC1BF076
:108B58006FFAFFF7B5FB23E02A482B4BC01AC00871
:108B680000042B4940F0030029F088FA244B002226
:108B780083F89426DEE7FEF7DBF9FFF7E1FA0FE06A
:108B8800244A02EBC3039B682046984705462046C3
:108B98000FF0FCFC25B10DF1070128460FF0E2FDAE
:108BA8004FF0FF31164BD3F8A4061AF0D5FC072175
:108BB80000200FF0B3FC04460028DCD00023212B52
:108BC80008D8144A02EBC3021179227A9142D7D00D
:108BD8000133F4E70025DAE700E100E0457F020011
:108BE8004D3804001F3804005138040005390400CA
:108BF800014B05009D4B0400A94A0400B14904003B
:108C08004870002090850A00B0840A0024870A0072
:108C180050870A00E45A00200023052B0BD8074A86
:108C280032F82320824201D00133F6E7034A02EBEF
:108C38008303987870470420704700BF7C870A0038
:108C480030B583B003293AD8DFE801F0573B022753
:108C5800754C022323700023637060681AF096FC39
:108C68004FF0FF31A0681AF0EAFB98B96E4CF42275
:108C780004F10C016D4851F0A3F86D4B01221A70F4
:108C88000023A4F80031A0681AF0F3FBB8B10FF084
:108C9800E1FD14E00FF0DEFDE8E76648664BC01A18
:108CA800C0080004654940F0030029F0E7F95E4B6D
:108CB80003221A7001225A7058681AF067FC03B030
:108CC80030BD594CD4F804210132C4F80421594864
:108CD800594BC01AC0080004594940F0030029F054
:108CE800F9FA002384F80831D4F80C011AF04EFC84
:108CF8000028E4D00FF0AEFDE1E750F0B7FF4A4B93
:108D0800D3F810210244C3F810214A4C4A49641A86
:108D1800E408240444F003040C334A49204629F0AB
:108D280073FB434B1B784BB13F4A118A0B0A43EA4A
:108D380001239BB2A2F80031F42B0AD83A4BB3F8BE
:108D48000001D3F81031984211D0394B00221A7023
:108D580049E03D49204629F091F9334B0022A3F818
:108D68000021334901200870C3F81021A7E7304BD0
:108D780001221A702C4B0022C3F810210FF0DEFBE1
:108D8800044600289BD0284DB5F8002105F10C01B8
:108D98006FF081FD2288130A43EA02239BB22380E5
:108DA80061880A0A42EA01226280A1880A0A42EA24
:108DB8000122A280E1880A0A42EA0122E280B5F88B
:108DC80014210AB9A5F814310DF1070120460FF056
:108DD800C9FC08E00FF03EFD0DE00FF03BFD1AE086
:108DE800002D7FF46CAF4FF0FF310F4B98681AF0ED
:108DF80026FB0028EED10C4C04F10C01D4F81031FC
:108E0800F4221944094850F0DBFF0546A0681AF01F
:108E180030FB0028E1D1002DE2D0034AD2F8183106
:108E28000133C2F81831DBE7A87D002094870A00D7
:108E3800105C002090850A00B0840A00C4870A00EC
:108E4800D8870A00E8870A0000880A0008B515488C
:108E58004DF0D3FF20B1144A40F26B4152F040FF6D
:108E680012484EF0DBF820B10F4A40F26F4152F041
:108E780037FF4EF099F820B10B4A40F2714152F099
:108E88002FFF19F0C5F800230222194619F084FAB9
:108E98004FF0FF31012019F0F5F94FF021FD0028BE
:108EA800FBD1F5E7B8870A0020880A0094870A00F2
:108EB80010B50838062807D8DFE800F0073146065D
:108EC800060604004EF090F810BD2848284BC01A3A
:108ED800C0080004274940F0030029F0CFF820F02B
:108EE80043F8C8B1244B01221A700DF01DFF002869
:108EF800EAD006F0F3FC0028E6D0204B1B78002BC4
:108F0800E2D006F0F1FC1C4B012283F81C211C4B1B
:108F180018681AF03BFBD7E74EF062F8E2E713480F
:108F2800134BC01AC0080004164940F0030029F08A
:108F3800A5F8114C00232370012363704EF098FBB1
:108F480060681AF023FBBFE70848094BC01AC0083D
:108F580000040D4940F0030029F090F8064B012267
:108F68001A7000225A704EF069FDADE790850A002C
:108F7800B0840A0094880A00A87D00203793002056
:108F8800780D0120A8880A00BC880A0000B583B0C3
:108F9800002301930E4BD3F820319BB101A90C4B50
:108FA800D3F8200119F0E2FA019B43B1094B4FF0C5
:108FB80080525A6040BFBFF34F8FBFF36F8F03B02B
:108FC8005DF804FB044940F2544015F06BFBE5E7FB
:108FD800A87D002000ED00E020880A0010B534F0DC
:108FE80031FD10B932F024FB10BD04460848094B86
:108FF800C01AC0080004084940F0030029F03EF8F0
:10900800064A4FF48171204652F06AFEEAE700BF33
:1090180090850A00B0840A00C8880A0020880A00DF
:1090280010B504460146074BD3F824011AF067F936
:1090380020B9044B58681AF0A9FA10BD20460FF061
:10904800A5FAF6E7A87D002008B53848384BC0F8DF
:1090580028310623C0F82C3100F5A273C0F830314E
:109068004FF40063C0F834310021C0F83811314B97
:10907800C0F83C3100F64413C0F84031FA2200F53C
:1090880092701AF011F900283AD00FF0E3FB274844
:1090980000F5947100F6A4101AF0C1FAB8BB51F0AB
:1090A80027FC2248244BC0F8A8390823C0F8AC395B
:1090B80000F6C413C0F8B0394FF40073C0F8B439DF
:1090C8000023C0F8B8391D4BC0F8BC3900F6C433CA
:1090D800C0F8C03900F6A81100F590701AF09FFA90
:1090E800C0B917481AF05EF9B8B9002115481AF046
:1090F80003FAA8B9002114481AF0FEF998B908BD76
:109108000A4BD3F8241105200FF0A4F9BFE70FF09C
:10911800A1FBC4E70FF09EFBE3E70FF09BFBE4E73E
:109128000FF098FBE6E70FF095FBE8E7A87D002035
:10913800C9910200DC880A00558E0200E4880A0002
:10914800B07D0020B47E0020AC7D0020014B93F858
:1091580008017047A87D0020044B83F8240C10B93F
:10916800002283F8252C0020704700BFA87D00202E
:10917800014B93F8250C7047A87D002008B50DF029
:10918800F3FA0EF017FB2AF089FF3DF0CBFA32F024
:1091980089FF1BF043FB0FF022F90CF0B2FB14F02F
:1091A8008BF934F0E5FA13F091F808BD08B5002101
:1091B800024BD3F8240116F0B4FB08BDA87D0020AB
:1091C800F0B583B0FFF70AFFFFF7D8FF9B4B18688D
:1091D8001AF0DCF99A4B18681AF0D8F9994B186804
:1091E8001AF0D4F9984B18681AF0D0F9974B186808
:1091F8001AF0CCF9964B18681AF0C8F9954B18680C
:109208001AF0C4F9944B18681AF0C0F9934B18680F
:109218001AF0BCF9D1E0002800F0CF8084882646F7
:1092280047883846FFF7F8FC042803D028460FF093
:10923800ADF9C2E02A88130A43EA02232B803B0ACD
:1092480043EA07276F80230A43EA0423AB80EA88AE
:10925800130A43EA0223EB80814F2246294607F688
:1092680028406FF018FB7F4AD2F840330133C2F828
:109278004033AA88130A43EA0223AB80012387F804
:10928800083197F8243C5BB197F8253C0133DBB2F1
:1092980087F8253C734A92F84433013382F8443303
:1092A800704B002283F8452383F846233CE00FF0F7
:1092B800D1FA41E06B4B93F84633002B59D1694BF7
:1092C800D3F848233244C3F84823012283F84623BD
:1092D8004FE00FF0BFFA52E0624BD3F84C23013253
:1092E800C3F84C236049204628F0F4FF4FF0FF31C3
:1092F8005B4BD3F80C011AF02FF900284AD1012250
:10930800584B83F847235949204628F0E3FF554A2C
:1093180092F845330133DBB282F84533544A527828
:1093280093423AD2002F38D04FF0FF314C4B986817
:109338001AF085F80028BAD100224A4B83F847234F
:109348004C4C4D4BE41AE408240444F003044B4904
:10935800204628F0BFFF324649494A4850F03AFCB7
:1093680007462A88130A43EA02231BB2464A934255
:10937800A0D03B4B98681AF07CF80028A9D1002FA0
:10938800AAD03F4A4149204628F0A4FF042053F0C0
:109398004FFBBCE70FF05EFAB1E71FB1314B01227A
:1093A80083F8502328460FF0F1F806E02C4B5B7841
:1093B800EBB915B128460FF0E9F8294C4FF0FF3109
:1093C80060681AF0C9F8052100200FF0A7F80546D3
:1093D8002378DBB2022B3FF41EAF214B1B78DBB2A4
:1093E800032BE3D01E4B1B78002BE6D1DEE7FFF7FB
:1093F800DDFE0A200FF0A2F804460028D9D0184E46
:10940800B6F814310380002787706FF03A03C370F1
:109418008E2303721748184BC01AC00800041C4951
:1094280040F0030028F02AFE0DF1070120460FF056
:1094380099F97770A6F81471BBE700BF780D012081
:1094480078760120EC76002050EE002084830120FD
:1094580054170120E0F50020E4AA0020A8CD002040
:10946800A87D0020A08E002040890A0060890A009B
:10947800105C002090850A00B0840A00F4880A0075
:10948800D089002094870A0001C6FFFF18890A00C6
:1094980084890A00014B93F81C017047A87D0020BD
:1094A800024B002283F81C21704700BFA87D0020D2
:1094B8006DDF7047014B1878704700BF809200201D
:1094C800114B9B8803B9704710B582B004460A2037
:1094D8000FF034F80346A8B1002202706FF03A0189
:1094E80041700949888858800A2018715A719A7100
:1094F800DA718A7901321A725C720DF10701184625
:109508000FF030F902B010BD8092002000B583B092
:109518000A200FF013F8A8B10346002202706FF07A
:109528003A01417001209870D9700A2119715A7155
:109538009A71DA716C2119725A720DF10701184685
:109548000FF010F903B05DF804FB114B9B8803B9C9
:10955800704700B583B00A200EF0F0FFA0B10022DA
:1095680002706FF03A0141700949898841800A21E7
:10957800017142718271C2715B2202724922427288
:109588000DF107010FF0EEF803B05DF804FB00BF22
:1095980080920020104B9B8903B9704710B582B0A8
:1095A80004460A200EF0CAFF98B1002202706FF03C
:1095B8003A0141700849898941800A210171427143
:1095C8008271C2719E22027244720DF107010FF07E
:1095D800C9F802B010BD00BF8092002008B506206F
:1095E80006F093FB0DF0FAFC08BD10B582B00A2016
:1095F8000EF0A4FFC8B10446002303706FF03A02CE
:10960800427001218170C2701A2202714371837104
:10961800C3717A230372102205490A306FF03BF9AF
:109628000DF1070120460FF09DF8002002B010BD93
:10963800145C002008B50022142105484DF0AEFA4C
:1096480000B908BD034A40F6CD4152F049FBF8E79E
:1096580090920020B0890A0030B587B005462020D6
:109668000EF06CFF04461349052321F8303F01A88A
:109678000EF012F8E0B10023A372E37298230DE014
:10968800930006A9194451F8141C2344D9600132E7
:10969800084B1B8E9342F3DC6381972363729823F4
:1096A80023726B8823802B886380204607B030BDE7
:1096B8000022EDE78092002030B587B004462020D4
:1096C8000EF03CFF0546002207E09300E118C96848
:1096D80006A8034443F8141C013261899142F4DC62
:1096E80001A80EF011F838B198236B729A232B72E7
:1096F8000023AB72EB720FE001200EF01BF80DF0A7
:10970800B1FC9723F1E705EB830200211173517334
:109718009173D17301339BB2042BF4D963882B80E6
:1097280023886B80284607B030BD38B50546202011
:109738000EF004FF04460DF0F3FF38B1982363726E
:109748009C2323720023A372E3720EE00DF0F2FF54
:109758000DF070FC9723F2E704EB830200211173EC
:1097680051739173D17301339BB2042BF4D96B8875
:1097780023802B886380204638BD10B574293DD0DE
:109788000DD8062977D072291FD0042952D05C4AF7
:1097980092F83330013382F8333001245DE07829C0
:1097A80000F09580A02901D07629F0D14CF2015320
:1097B800984200F08180524890F83330013380F8A5
:1097C8003330B2FA82F4640947E04CF2015398420C
:1097D80009D04B4890F83330013380F83330B2FA6F
:1097E80082F4640939E0464890F83230013380F851
:1097F8003230092A14BF002401242EE04CF2015310
:10980800984209D03E4890F83330013380F833301D
:10981800B2FA82F4640920E0394890F83230013312
:1098280080F83230A2F10A04E4B2012C8CBF002483
:10983800012412E0324890F83430013380F8343093
:10984800022A06D03AB1042A01D0002404E00124F7
:1098580002E0012400E00124E4B22A4B2A48C01A9D
:10986800C008000423460A46284940F0030028F0AF
:10987800CBFD204610BD224890F83430013380F8E3
:109888003430042A08D0032A0FD0062A10D08AB10F
:10989800072A08D0002409E090F83530013380F811
:1098A80035300124D9E7012400E00124E4B2D4E7EB
:1098B8000124FBE70124F9E7114890F83630013319
:1098C80080F83630412A14BF00240124C5E74CF241
:1098D8000153984209D00A4890F83330013380F890
:1098E8003330B2FA82F46409B7E7054890F83630A5
:1098F800013380F836304D2A14BF00240124ACE728
:1099080080920020B0840A0060850A00288A0A0034
:10991800214A536C926C93423CD230B583B01E4AB4
:109928009363002119706FF03A0159705888010A41
:1099380041EA002159809988080A40EA012080B24A
:109948009880DC88210A41EA0421D980908708336D
:1099580013640EF0F3FD044628B90F4A536C926C59
:109968009342DCD314E00C4DA96B8A886EF093FF08
:109978000A4B0B48C01AC0080004A96B8A8840F03B
:10998800030028F003FC0DF1070120460EF0EAFE63
:1099980003B030BD704700BF80920020B0840A0039
:1099A80060850A0070B584B002A82CF061F80646FC
:1099B800002840F081809DF80830062B7AD8DFE82F
:1099C80003F0041B06198A8A7700002575E09DF8C4
:1099D8000930622B40F28180654B9B7B032B01D1C0
:1099E80002256AE0624B03229A735620FFF7D2FDE4
:1099F800022562E0032560E09DF80930012B0AD9B1
:109A08009DF809305A4A527A934227D8584B9B7B83
:109A1800E3B9012551E0564B01229A7236F0C4FB96
:109A28000128EDD10A200EF089FD0028E8D05A223D
:109A38000272002202706FF03A02427001218170B6
:109A4800C2700DF10F010EF08DFED9E7484B0022D0
:109A58009A735520FFF79EFD01252EE0444A127A9D
:109A680093420CD8424B9B7B012B01D1012524E06A
:109A780001253F4B9D735420FFF78CFD1DE0622BA1
:109A880008D83B4B9B7B022B29D0394B02229A7377
:109A9800012512E0364B9B7B032B01D101250CE0FD
:109AA800334B03229A735620FFF774FD012504E017
:109AB800062502E0072500E007252D4BB3F84C30BA
:109AC8007BB914F0C1FE012841D0294B002283F84C
:109AD800542004B070BD0225EFE70225EDE701250B
:109AE800EBE712200EF02AFD04460028E9D02823CF
:109AF80003724EB301234372A573BDF80A30238263
:109B08009DF80930E3730DF1020101A831F08CFCD6
:109B1800BDF90230019A1344C4F80A30144A136D8F
:109B2800591C1165E380002323706FF03A036370BA
:109B38006FF06E03A3706FF03903E3700DF10F013E
:109B480020460EF00FFEBCE700234372D4E7084A14
:109B580092F854300133DBB282F85430022BB8D17A
:109B68001346002283F8542014F0B8FDB1E700BF73
:109B78008092002008B5064A012106484CF0DEFF15
:109B880000B908BD044A4FF44C6152F0A9F8F8E74F
:109B9800C59B0200AC890A00B0890A0008B50548CF
:109BA8004DF05AF800B908BD034A40F6D94152F0C1
:109BB80097F8F8E790920020B0890A0010B582B0B3
:109BC8001E4B1F48C01AC00800041E4C237C1E4AA6
:109BD800B2F856201D4940F0030028F015FC207CFF
:109BE8000EF0ACFC00B303461749B1F85820428088
:109BF800002202706FF03A005870207C98801B2079
:109C080018725A72B1F85620013292B2A1F8562051
:109C1800C3F80A200DF1070118460EF0A3FD638A68
:109C2800013B9BB263820BB102B010BD064B002210
:109C3800A3F85620FFF7B2FFF6E700BFB0840A008A
:109C480060850A00145C0020809200204C8A0A007B
:109C5800174B184ADA65F8B9154A012382F86130BA
:109C6800002382F8603014494B8914330B4453663F
:109C7800CB8993660E4B0022DA6683F8342083F88A
:109C8800322083F8362083F833205A6E5A64996E4E
:109C980001390A449A647047012283F8602000223F
:109CA80083F86120054A5A6632F80A2C9A66E1E779
:109CB80080920020389A0020309A0020449A002090
:109CC80000B583B00A200EF039FC98B10B4A92888F
:109CD8000280002282706FF03A01C1700A2101717E
:109CE80042718271C2716221017242720DF10701E3
:109CF8000EF038FD03B05DF804FB00BF8092002031
:109D080000B583B00A200EF019FC68B15A2202721D
:109D1800002202706FF03A02427001218170C27015
:109D28000DF107010EF01EFD03B05DF804FB024BB8
:109D380083F87000704700BF80920020014B93F8B1
:109D48007000704780920020014B1870704700BF68
:109D58008092002008B50CF0E7FC024B83F87100F4
:109D680008BD00BF8092002000B583B00A200EF025
:109D7800E5FB68B14E220272002202706FF03A02CF
:109D8800427001218170C2700DF107010EF0EAFCEA
:109D980003B05DF804FB00B583B00A200EF0CEFBDB
:109DA80068B170220272002202706FF03A024270AB
:109DB80001218170C2700DF107010EF0D3FC03B0D0
:109DC8005DF804FB08B5082005F09FFF0DF006F9C3
:109DD80008BD2DE9F04385B00025294640E0D24B67
:109DE800D24CE41AE408240444F00306D04B93F858
:109DF80072300091CF49304628F0A2FB0A200EF0BD
:109E08009DFB0746002846D1C9498B6F91F87C20F5
:109E180003EBC200407A91F87D108842DFD803EB4B
:109E2800C203187AC24B93F872309842D7D8002DE3
:109E380040F0BB80BC4BBD48C01AC0080004BE49F6
:109E480040F0030028F01AF9B94B93F87C2001324E
:109E580083F87C20002283F87D2083F8722001217A
:109E6800B34B93F87C209B6F5B889A42CCD3002934
:109E780000F0A580AE4B002283F87C2083F87D207B
:109E880083F8722093F87330002B40F098804920B3
:109E9800FFF716FB93E0A64B93F87330002B68D0BE
:109EA800A649304628F0EAF8A14A936F92F87C2038
:109EB80003EBC2035B89012B00F08880A049304680
:109EC80028F0DCF89A4B9A6F93F87C3002EBC301C8
:109ED80091F80880B8F1000F40F0CD80944A936F54
:109EE80092F87C2003EBC201497A002900F04781EF
:109EF80003EBC2039A884CF202139A4200F0F380F3
:109F08004CF210139A4200F009814CF210139A4255
:109F180000F030814CF210139A4204D1894B1B781F
:109F2800002B40F0E580824D4FF0000985F87E90C7
:109F3800854944F0040028F0CDF90A200EF0FEFA15
:109F4800012485F874400622027280F8099080F88E
:109F580000906FF03A024270AA6F95F87C1002EBFD
:109F6800C102928842800DF10F010EF0FBFB2546DD
:109F780006E17649304628F081F86D4A012382F8D7
:109F8800743006233B7200237B723B706FF03A03F8
:109F98007B70936F92F87C2003EBC2039B887B80D5
:109FA8000DF10F0138460EF0DDFB5F4B5F48C01A1C
:109FB800C0080004664940F0030028F05FF85C4BD5
:109FC800002283F8732005B0BDE8F083614930466C
:109FD80028F054F8564B9A6F93F87C3002EBC30183
:109FE800097A012907D85C49304628F047F83846ED
:109FF8000EF0CCFA1BE74E4D95F87210013185F83A
:10A00800721095F87D10013185F87D1002EBC302BE
:10A018009288524944F0040028F05CF9012285F83E
:10A0280074200E233B7200237B72A96F95F87C0085
:10A0380001EBC001C88878813B706FF03A007870F6
:10A048008888788085F87E20B5F88020C9880EF049
:10A05800C7FB7888B0F5434F05D00DF10F0138469E
:10A068000EF080FBA1E70023B5F880204CF20541F3
:10A078000EF0B6FBF1E72E4D4FF0010885F87E8013
:10A088008A88374944F0040028F024F985F8748058
:10A098000E233B7200237B72A96F95F87C2001EB9D
:10A0A800C201CA887A813B706FF03A027A70888858
:10A0B8007880B5F88020C9880EF092FB7888B0F5D2
:10A0C800434F08D00DF10F0138460EF04BFB4FF00F
:10A0D8000108454602E70023B5F880204CF2054107
:10A0E8000EF07EFBEEE71F4B1B78002B7FF408AFCA
:10A0F8001D49304628F0EEF80D4A92F87D300133BC
:10A1080082F87D30002D7FF492AE184944F00400A7
:10A1180027F0B4FF38460EF039FA88E6144B1B785E
:10A12800002BE5D0F1E600BFB0840A0060850A0084
:10A1380080920020788A0A00348C0A00D08A0A00AB
:10A14800488B0A00A47D0020C88B0A00B48A0A0044
:10A15800288C0A00E88A0A00388B0A00F88A0A0064
:10A16800588B0A004A5C0020808B0A00B88B0A00D2
:10A17800495C0020084B1B78002BB9D0CAE61DB1FA
:10A18800B8F1000F7FF453AE0449304627F076FF4C
:10A1980038460EF0FBF94AE6EC5C0020F88B0A0022
:10A1A80000B583B00A200EF0C9F968B184220272A2
:10A1B8000022427202706FF03A0141708270C170E1
:10A1C8000DF107010EF0CEFA03B05DF804FB08B5F7
:10A1D800034B012283F87320FFF7E2FF08BD00BF9D
:10A1E800809200202DE9F04387B00D200EF0A6F9EB
:10A1F800B8B1002202706FF03A01417082706FF0BE
:10A208003F01C1700D21017142716FF06E024272FF
:10A218006FF039028272012202720DF117010EF0FD
:10A22800A1FAC54BC54DED1AED082D0445F00406FD
:10A23800C349304627F022FFFFF78CFD01F07BB8B9
:10A24800C04C94F8832004F18401D4F8AC0037F0B2
:10A25800FFFC002384F8823001F073B842200EF02E
:10A268006DF9074600283DD0638803802388438022
:10A2780001230372002305228272C3720322027330
:10A2880043738373C3730A22AF4910306EF003FB24
:10A29800AE4B93F80080B8F1270F31D92722AC498B
:10A2A80007F11A006EF0F7FAAA4B1A7802EB0809C0
:10A2B800B9F1270F26D9A84B1A7802EB0903272BE7
:10A2C80030D9002387F84130A44945F0030027F02E
:10A2D800D5FEA349304627F0D1FE0DF117013846C7
:10A2E8000EF040FA228802F564539BB2B3F5847FDE
:10A2F80001D8944B9A8120460EF048F901F01BB81A
:10A308004246CCE708F1FF333B447C21997607F1BC
:10A31800080308F110089844924908F102006EF009
:10A32800BAFAC8E709F1FF333B447C21997607F173
:10A33800080309F1100999448B4909F102006EF0EC
:10A34800AAFABEE70A200EF0F9F890B1A17A7D4A80
:10A358001172E17A51720221917362880280228817
:10A36800428047220272412242720DF117010EF01B
:10A37800F9F920460EF00AF900F0DDBF837A023BB6
:10A38800DBB2012B1BD90B200EF0D8F8074680B39F
:10A3980063880380238843804923037241234372DF
:10A3A800A37A83720DF117010EF0DCF9A37A022B60
:10A3B8001DD0032B22D0E3B142237B7219E035F084
:10A3C800F3FE0128DFD10A200EF0B8F80028DAD011
:10A3D8005A220272002202706FF03A024270012182
:10A3E8008170C2700DF117010EF0BCF9CBE734F0A3
:10A3F80017FC20460EF0CAF800F09DBF2BF015FBA5
:10A40800F7E70A200EF09AF80746B0B1012035F0B8
:10A41800D3FF34F0CFFF012814D14F237B728B2355
:10A428003B7263883B8023887B800DF11701384697
:10A438000EF098F9002035F0BFFF20460EF0A6F880
:10A4480000F079BF03F00AFB41237B72E7E70A209B
:10A458000EF074F820B920460EF098F800F06BBFA3
:10A4680062880280228842807722027241224272E8
:10A478000DF117010EF076F9142052F0D9FA09F00F
:10A4880019FAA8B1394945F0030027F0F7FD4FF450
:10A49800A07031F00FF8BFF34F8F3549CA6802F446
:10A4A800E062344B1343CB60BFF34F8F00BFFDE72F
:10A4B800314945F0030027F0E1FDE8E70A200EF0F6
:10A4C8003DF8E8B162880280228842808D220272BB
:10A4D800412242720DF117010EF044F9142052F096
:10A4E800A7FA09F0E7F980B1204945F0030027F001
:10A4F800C5FD0DF085F9214945F0030027F0BEFDA3
:10A5080020460EF043F800F016BF1B4945F0030043
:10A5180027F0B4FDEDE72BF026F918B10DF117017E
:10A528000EF020F920460EF031F800F004BF0EF0CE
:10A538002DF800F000BF00BFB0840A0060850A0053
:10A54800508C0A0080920020748C0A006FB90B00AE
:10A558007CB90B006EB90B006CB90B00808C0A003B
:10A568009C8C0A0074B90B0070B90B00BC8C0A00F3
:10A5780000ED00E00400FA05D08C0A00E48C0A0023
:10A5880012200DF0DBFF074680B302A82BF070FA0B
:10A5980088B142237B7263883B8023887B80452374
:10A5A8003B729DF80830062B37D8DFE803F0072AFE
:10A5B800242730332D0041237B72ECE70023BB7343
:10A5C8000DF1060103A830F02FFFBDF90630039AFC
:10A5D8001344C7F80A30BDF80A303B829DF80930A9
:10A5E800FB730DF1170138460EF0BCF820460DF04C
:10A5F800CDFF00F0A0BE0223BB73E1E70323BB73CA
:10A60800DEE70123BB73DBE70623BB73D8E704232C
:10A61800BB73D5E70523BB73D2E70723BB73CFE72B
:10A6280024200DF08BFF074688B1CF49052381F818
:10A638002F301C22143108306EF02DF963883B80CE
:10A6480023887B800DF1170138460EF08BF82046E1
:10A658000DF09CFF00F06FBEFEF7ECFFD4F80A2067
:10A66800C14B5A82A2881A742288C04BA3F858207A
:10A6780020460DF08BFF00F05EBEBC4AB2F84C30AD
:10A688000133A2F84C300D200DF058FFA8B1032279
:10A6980002722288A0F80B206FF06E0242726FF0EF
:10A6A8003902827262880280002282706FF03F0253
:10A6B800C2700DF117010EF055F80C200DF03EFF99
:10A6C80088B10D220272092242726FF06E02827204
:10A6D8006FF03902C27262880280228842800DF1CE
:10A6E80017010EF03FF820460DF050FF00F023BE92
:10A6F8000D200DF023FFA8B1042202722288A0F8D1
:10A708000B206FF06E0242726FF03902827262881B
:10A718000280002282706FF03F02C2700DF11701B3
:10A728000EF020F80C200DF009FF0346D8B10F22D7
:10A7380002728E4AB2F84C20012A19D9013A8B4983
:10A74800A1F84C200B2242726FF06E029A726FF0E1
:10A758003902DA7262881A8022885A800DF117014C
:10A7680018460DF0FFFF20460DF010FF00F0E3BD86
:10A778007E4A0021A2F84C100A224272E4E7152012
:10A788000DF0DCFE074630B302A903A830F04CFEFA
:10A79800BDF90800039B184431F018F903887B8140
:10A7A80083783B73C3787B730379BB734379FB73FB
:10A7B80083793B74BDF90830C7F8113063883B8052
:10A7C80023887B8053233B7200237B720DF1170192
:10A7D80038460DF0C7FF20460DF0D8FE00F0ABBD9F
:10A7E8004389ADF80C30037B8DF80E30437B8DF830
:10A7F8000F30837B8DF81030C37B8DF81130037CCC
:10A808008DF8123003A831F033F9D4F81170C01B59
:10A8180030F09AFD384630F02BFE002005F07BFA28
:10A82800FFF7C0F80A200DF089FE58B1628802804F
:10A838002288428043220272002242720DF11701DF
:10A848000DF090FF20460DF0A1FE00F074BD438985
:10A85800ADF80C30037B8DF80E30437B8DF80F304C
:10A8680003A83AF03FFAB8B90027002005F053FAD8
:10A878000A200DF063FE50B162880280228842806F
:10A888009722027247720DF117010DF06BFF2046F7
:10A898000DF07CFE00F04FBD0127E6E70E200DF01D
:10A8A8004DFE074680B10A303AF040FA88B90023D5
:10A8B80062883A8022887A8099223A727B720DF1F6
:10A8C800170138460DF04EFF20460DF05FFE00F0F0
:10A8D80032BD0123ECE70B200DF030FE68B1628831
:10A8E8000280228842805922027241224272022248
:10A8F80082720DF117010DF035FF20460DF046FE6E
:10A9080000F019BD16200DF019FE0746C0B1638886
:10A91800038023884380912303720023437230F01D
:10A9280067F9C7F80A0029F09DFEC7F80E0031F054
:10A938009DFCC7F812000DF1170138460DF012FF03
:10A9480020460DF023FE00F0F6BC0C200DF0F6FDBD
:10A95800074620B3A37A012B30D04BB1022B40D04D
:10A96800422343720CE000BF145C00208092002058
:10A97800BE4B1B7813B9BE4B1B78ABB142237B721D
:10A9880063883B8023887B8079233B72A37ABB72E0
:10A99800E37AFB720DF1170138460DF0E3FE20460D
:10A9A8000DF0F4FD00F0C7BC0121032034F0FDF8E0
:10A9B800E07A0DF02AFA41237B72E1E7AB4B1B7872
:10A9C80013B9AB4B1B7813B142237B72D8E7012133
:10A9D800032034F0EAF8E07A0DF0FEF941237B72A7
:10A9E800CEE7E37A012B05D0E07A29F07FFB4123FB
:10A9F8007B72C5E70121032034F0D7F8F4E70C2077
:10AA08000DF09CFD0746A0B1A07A431E022B15D974
:10AA180042237B7263883B8023887B807B233B7245
:10AA2800A37ABB72E37AFB720DF1170138460DF079
:10AA380099FE20460DF0AAFD00F07DBCE17A0031B8
:10AA480018BF012134F0B1F841237B72E2E70D20F1
:10AA58000DF074FD0746D8B1A37A013B052B56D8F3
:10AA6800DFE803F0031B222C414C31F0B1FDA7F8BD
:10AA78000B0041237B7263883B8023887B807D2386
:10AA88003B72A37ABB720DF1170138460DF06AFECE
:10AA980020460DF07BFD00F04EBCFDF7B1FCA7F899
:10AAA8000B0041237B72E6E702A82AF01FFC9DF801
:10AAB8000830A7F80B3041237B72DCE70121032023
:10AAC80034F073F82CF028FF2EF00AFD2EF04EFC1F
:10AAD800A7F80B002CF084FE0021032034F065F861
:10AAE80041237B72C7E702A903A82BF02FF99DF831
:10AAF8000830A7F80B3041237B72BCE732F0C0FC6A
:10AB08008DF80800A7F80B0041237B72B3E74223B6
:10AB18004372B0E70AF052FF00F00DBC0A200DF0B6
:10AB28000DFD074678B1638803802388438081231D
:10AB3800037214F01DF950B142237B720DF1170115
:10AB480038460DF00FFE20460DF020FDF3E34123BB
:10AB58007B72F3E70C200DF0F1FC0346F0B1454998
:10AB6800D1F8B02091F8B400218802EBC00291809E
:10AB7800217B1172617B51726189D18001229A70A7
:10AB88006FF03A02DA70002119705A7062895A819E
:10AB980052221A7203A918460DF0E4FD20460DF062
:10ABA800F5FCC8E30A200DF0C9FC034610B331498F
:10ABB800D1F8B00091F8B420277B00EBC2004781A0
:10ABC80000279F706FF03A00D8701F70587084206B
:10ABD800187291F8B51029B9264890F8B6100131C5
:10ABE80080F8B6100132234981F8B42003A9184629
:10ABF8000DF0B8FD20460DF0C9FC9CE30B200DF0CC
:10AC08009DFC074678B1638803802388438093239B
:10AC180003724123437213F05BFDB8720DF1170103
:10AC280038460DF09FFD20460DF0B0FC83E30B2065
:10AC38000DF084FC074690B1A07A13F03DFD6388BF
:10AC48003B8023887B8095233B7260B941237B72CC
:10AC5800A37ABB720DF1170138460DF083FD20462B
:10AC68000DF094FC67E34223F1E700BFE0FE00200B
:10AC7800AC23012080920020B74A128862B1B749FC
:10AC88008A80B64A937192F8B73063B9FFF76CF8C7
:10AC980020460DF07BFC4EE3B14A1288002AF0D022
:10ACA800AE498A80EDE74320FEF70AFCF0E7437AD5
:10ACB800412B11D1D0F80E20AA4B9A4206D8A74BA7
:10ACC800012283F8B820FFF766F807E04E20FEF768
:10ACD800F7FBFEF783FC01E0FFF774F820460DF060
:10ACE80055FC28E3437A012B34D043893D2B28D8DF
:10ACF800FFF730F8994B93F87130FBB1974F00206C
:10AD0800A7F8BA00FFF720F8394631F8BA3F964855
:10AD180018440BF093FC01280AD0904AB2F8BA30D4
:10AD2800143B93660120FEF793FFFEF7F1FD0DE05B
:10AD38004420FEF7C5FBFFF745F807E0FEF7E6FB02
:10AD480004E04D20FEF7BCFBFEF748FC20460DF062
:10AD58001DFCF0E2FFF736F8F8E7804A92F8B720D2
:10AD680072B17D4A12887AB17C498A807B4A937194
:10AD7800012382F8B8300020FEF76AFFFEF7C8FD0D
:10AD880020460DF003FCD6E2754A1288002AEDD061
:10AD980072498A80EAE7437A482B08D06F4B9B7A3E
:10ADA8005BB9FFF7FDF920460DF0F0FBC3E24E203A
:10ADB800FEF786FBFFF706F8F3E7684B00229A7266
:10ADC800FEF7C3FBEDE70A200DF0B8FB074678B99C
:10ADD80020460DF0DBFBAEE2604B93F8B6000DF0B9
:10ADE8007DFB08BB5D4A92F8B630013382F8B63075
:10ADF8005A4B93F8B6305D4A92F83020934235D2D8
:10AE0800002BE9D15A480DF031FB4FF445400DF0C5
:10AE180075FB524B013083F8B600002283F8B4204A
:10AE28002288A3F8BC20D7E778800022BA71FA718B
:10AE38003A706FF03A027A7010223A724CF210129D
:10AE480090420FD14549012381F8B53091F8BE30C1
:10AE58005A1CD2B281F8BE20A3F577532F3B7B81D1
:10AE68000B2A3AD003A938460DF07CFC3B4B93F8EB
:10AE7800B6203E4B93F830309A42A9D3DFF8DC80F5
:10AE8800D8F8C020002313706FF03A015170B8F859
:10AE9800BC1051806FF04B01117153719371D371D4
:10AEA800D8F8B02085211170537098F8B4105180EB
:10AEB80088F8B63088F8B430B4200DF03FFB8146EE
:10AEC800D8F8C0108A886DF0E6FC03A948460DF052
:10AED80049FC38460DF05AFB7AE7002281F8BE207B
:10AEE80081F8B520BEE71D4B93F873301BB91B4B97
:10AEF800002283F8B720194FAC2204F10801B86F7B
:10AF08006DF0C9FC002387F87D3087F8723087F828
:10AF18007C30FEF75EFF20460DF038FB0BE2437AEB
:10AF28004B2B0FD1FEF7C6FA28B10120FEF790FE91
:10AF3800FEF7EEFC0BE0094B0022A3F8BA20FEF75F
:10AF480054FB04E04420FEF7BBFAFEF73BFF204623
:10AF58000DF01CFBEFE100BFBC7E002080920020BA
:10AF6800548A0120FFF7FF1F309A0020145C00204C
:10AF7800445C0020437A412B01D0432B21D1B64FAA
:10AF8800B7F8BA30B4F80D2004F10F01B3481844EB
:10AF98006DF081FCB4F80D30B7F8BA2013449BB2B9
:10AFA800A7F8BA30627A432A03D020460DF0EEFAA9
:10AFB800C1E1143BBB660120FEF74AFEFEF7A8FC80
:10AFC800F3E74520FEF77CFAFEF7FCFEEDE70A20E2
:10AFD8000DF0B4FA034698B1628802802288428054
:10AFE80000228271C271672202729B4A92F8B720CE
:10AFF80052B14B2242720DF1170118460DF0B2FB07
:10B0080020460DF0C3FA96E14C224272F3E70BF0AA
:10B018008BFB18B9904B93F87030D3B101200CF02A
:10B0280091F9C7B20A200DF089FA034668B122885F
:10B038004280628802808722027267B941225A726E
:10B048000DF1170118460DF08DFB20460DF09EFA04
:10B0580071E10127E6E74222F1E700200CF072F9DE
:10B06800C7B20A200DF06AFA034668B12288428006
:10B07800628802808922027257B941225A720DF100
:10B08800170118460DF06EFB20460DF07FFA52E1CD
:10B098004222F3E70288704BA3F88020FFF797F865
:10B0A80020460DF073FA46E11B200DF047FA0746DB
:10B0B80090B3112200210A306DF0F9FD0BF034FB3A
:10B0C800B8720CF057FB387528F0DCFE387330F096
:10B0D80047FF787319F036FBB8730DF01EF9F87353
:10B0E8000AF0AFFB387412F078F9B87632F0D6FA75
:10B0F800787411F0C9F8B8753BF0CAFAF874238867
:10B108007B8063883B809E233B7241237B720DF1D9
:10B11800170138460DF026FB20460DF037FA0AE1F4
:10B12800FEF79AFA18B10DF117010DF01BFB204636
:10B138000DF02CFAFFE0FEF7BFFA18B10DF1170178
:10B148000DF010FB20460DF021FAF4E0FEF7EDFAC1
:10B1580018B10DF117010DF005FB20460DF016FA98
:10B16800E9E0437A482B1CD03B4B93F87D20013211
:10B1780083F87D2093F87430B3B9374B93F8722075
:10B18800013283F8722093F874301BB3324B0122DA
:10B1980083F8732093F87E309BB920460DF0F6F9BA
:10B1A800C9E0FEF71BFADFE72B4B012283F8732077
:10B1B800002283F87420FEF70CFE20460DF0E6F915
:10B1C800B9E0254B002283F87E2083F87420FEF72F
:10B1D80000FEE2E7227A204B1B6C19784B1C9A423E
:10B1E80003D020460DF0D2F9A5E0627A2088FEF758
:10B1F800C4FAA8BB184A92F8C4300133DBB282F80B
:10B20800C430042B37D91346918F526C0A445A64C0
:10B21800002283F8C42093F8603083B10E4B93F872
:10B22800713043B15020FEF74BF9FEF7CBFD2046B5
:10B238000DF0ACF97FE04620FEF742F9F5E7064B42
:10B2480093F871301BB15220FEF73AF9EDE7482028
:10B25800FEF736F9E9E700BF80920020309A002017
:10B26800DE4B002283F8C420DA6E0132DA66998F49
:10B278005A6C0A445A64D94B93F86030002B36D084
:10B28800D64BDA6D9288DB6E9A4230D1D34B0022CE
:10B2980083F86020012283F8B72093F87130ABB9A6
:10B2A8004720FEF70DF90BF03FFD98B90BF048FD6C
:10B2B80080B9CB4B1B78002B93D1FEF7C9FCFEF766
:10B2C80027FBC64B002283F8B7208AE75120FEF7F8
:10B2D800F7F8E8E70BF034FD002882D009F07CFA93
:10B2E80008F0F4FE01F08EFDFCF7FEFF79E7BB4B9A
:10B2F80093F861302BB1B94BDA6D1289DB6E9A4243
:10B3080002D0FEF705FB6CE7B44F4FF0000887F852
:10B3180061800120FEF718FD87F8B78097F8713033
:10B328001BB94920FEF7CCF85BE75320FEF7C8F8B5
:10B3380057E7FEF737FBA94B93F88230002B7EF4D2
:10B348007FAF022141F288300DF0E8F8044600286A
:10B35800EFD0037A9E2B3FF63DAF01A252F823F0BF
:10B3680065A20200DDB10200DDB10200DDB102001C
:10B37800DDB10200DDB10200DDB1020071B10200F1
:10B38800DDB10200DDB10200DDB10200DDB1020075
:10B3980083A60200DDB10200F9A6020083B1020013
:10B3A800DDB102005DAB0200DDB10200DDB10200DB
:10B3B800DDB10200DDB10200DDB10200DDB1020045
:10B3C800DDB10200DDB1020061A60200DDB10200BC
:10B3D800DDB10200DDB10200DDB10200DDB1020025
:10B3E800DDB102001FA50200DDB102001FA50200A9
:10B3F800DDB10200DDB10200DDB10200DDB1020005
:10B40800DDB10200DDB10200DDB10200DDB10200F4
:10B41800DDB10200DDB10200DDB10200DDB10200E4
:10B42800DDB10200DDB10200DDB10200DDB10200D4
:10B43800DDB10200DDB10200DDB10200DDB10200C4
:10B44800DDB10200DDB10200DDB10200DDB10200B4
:10B45800DDB10200DDB10200DDB10200DDB10200A4
:10B46800DDB10200DDB10200E9A70200DDB1020092
:10B4780089A50200DDB102004DA30200DDB1020082
:10B4880085A30200DDB1020029A60200DDB1020099
:10B49800DDB10200DDB10200DDB10200B7AC02008F
:10B4A800DDB10200DDB1020087A70200ADAB0200EA
:10B4B800DDB10200DDB10200DDB10200DDB1020044
:10B4C800DFA80200DDB10200DDB102009FAD02007D
:10B4D800DDB10200DDB10200DDB10200DDB1020024
:10B4E80081AC0200DDB1020063AD0200DDB10200F3
:10B4F800DDB10200DDB10200D7AF0200DDB102000C
:10B50800DDB10200DDB10200DDB10200DDB10200F3
:10B51800DDB1020027AF0200DDB10200DDB102009B
:10B52800DDB10200EDAC0200DDB10200DDB10200C8
:10B53800DDB10200DDB1020057A40200DDB1020056
:10B5480053A902006BB1020007AA02007DAF0200F6
:10B5580057AA0200DDB102001DAB0200DDB10200F6
:10B5680025AB0200DDB10200DDB10200DDB1020051
:10B57800CFAD0200EFAE020017B00200DDB102004D
:10B5880063B00200DDB102000BA40200DDB10200CD
:10B59800C5A40200DDB102009DB00200DDB10200C9
:10B5A8000DA90200DDB1020005AC0200DDB1020008
:10B5B80037AC0200DDB1020057A8020029B1020031
:10B5C800A5A802003FB10200DDB1020055B102009A
:10B5D800DDB10200B1B0020037A502008092002060
:10B5E800D70D012000B583B06846FDF761FF002341
:10B5F80009E0C3F1050202A90A4412F8071C044A2B
:10B608001A4411760133052BF3DD03B05DF804FB12
:10B61800145C0020014BD884704700BF145C0020E4
:10B6280008B52548254BC0F8C8300423C0F8CC30ED
:10B6380000F1E403C0F8D0304FF4A063C0F8D43070
:10B648000021C0F8D8101E4BC0F8DC3000F2E453DB
:10B65800C0F8E030092200F2446017F025FE08B374
:10B668000DF0F8F8144800F1C80100F5C96017F0AA
:10B67800D6FFF0B9104B03F24C62C3F8C02003F2B6
:10B688005462C3F8B02003F5E0629A6700229A81F9
:10B698000521197201215972022199739A72FEF7D4
:10B6A80069FA08BD044BD3F8441602200CF0D2FE08
:10B6B800D8E70DF0CFF8DDE780920020EDA1020079
:10B6C800008D0A0010B504460146084BD3F844061D
:10B6D80017F015FE30B9054AD2F8AC370133C2F875
:10B6E800AC3710BD20460CF051FFFAE780920020DD
:10B6F800024B00229A715A72704700BF38AA002084
:10B7080010B504460E200CF019FF0346A8B111220B
:10B718000272012242720B4A528882B90321417295
:10B72800002199726FF03B01D97206490988197393
:10B738005A7362881A8022885A80184610BD0221DE
:10B748004172EDE738AA002038B50546EC200CF028
:10B75800F5FE0446F8B118F065FF012807D09823D4
:10B7680063729C2323720023A372E3720DE000200E
:10B7780018F0C6FF9723F3E704EB83020021117347
:10B7880051739173D17301339BB2372BF4D96B8802
:10B7980023802B886380204638BD30B5B9B0054674
:10B7A800EC200CF0CBFE044660B3002207E09300C7
:10B7B800E918C96838A8034443F8E01C01326989CC
:10B7C8009142F4DC684618F021FF012807D098233D
:10B7D80063729A2323720023A372E3720CE018F0B9
:10B7E8008FFF9723F4E704EB830200211173517351
:10B7F8009173D17301339BB2372BF4D96B882380B3
:10B808002B886380204639B030BD30B5B9B00546C5
:10B81800EC200CF093FE044698B11449382321F823
:10B82800103F684618F0E6FE01281CD00023A372DA
:10B83800E37298236372982323726B8823802B8882
:10B848006380204639B030BD930038A9194451F8B7
:10B85800E01C2344D9600132044B1B8A9342F3DC79
:10B8680063819723E6E70022F6E700BF38AA0020A5
:10B8780030B5BBB0054600238DF80730EB200CF03F
:10B888005DFE044630B3132303720DF1070102A8CD
:10B8980018F0E6FDC0B19DF8071099B9012363724D
:10B8A80014E09A003AA8104450F8E00C2244C2F878
:10B8B8000B0001339BB28AB29A42F2D8A1720023DC
:10B8C800637203E00023F6E7012363726B88238029
:10B8D8002B88638020463BB030BD38B505460A202A
:10B8E8000CF02CFE044670B115230372002343723A
:10B8F800A87A18F049FF012807D0012363726B88E2
:10B9080023802B886380204638BD00236372F6E7C6
:10B9180038B505461F200CF011FE044670B14523CA
:10B9280003720023437200F10B01A87A18F062FD3C
:10B93800AB7AA3726B8823802B886380204638BD3E
:10B9480030B585B0054610200CF0F8FD044698B1D6
:10B958004F2303720023437201A818F0BDFDBDF800
:10B9680004306381BDF80630A381BDF80830E38157
:10B978006B8823802B886380204605B030BD30B5A6
:10B9880083B005460C200CF0D9FD044670B14D2358
:10B998000372002343720DF1060018F0A1FDBDF8F3
:10B9A800063063816B8823802B886380204603B030
:10B9B80030BD70B5064614200CF0C0FD044698B1A1
:10B9C800432303720123437200F10A050A2200216E
:10B9D80028466DF06CF9284618F0F8FC012805D0C7
:10B9E8007388238033886380204670BD0023637288
:10B9F800F6E770B582B00446807A00EB80000B3021
:10BA08000CF09CFD064660B300230193237A162BA5
:10BA180005D0182B28D00CF0B9FD002621E0002510
:10BA28000123A27AAA4213DD05EB8503234401A969
:10BA3800D87A18F009FD50B105EB8503E218D27ADF
:10BA48003344DA72019ADA6001350023E9E7012309
:10BA5800172232722288728062883280A27AB27289
:10BA68007372304602B070BD00250123A27AAA4243
:10BA780013DD05EB85032344D968D87A18F0D8FC80
:10BA880050B105EB8503E218D17A3344D972D268F4
:10BA9800DA6001350023E9E7012319223272D9E778
:10BAA80070B58CB0054642200CF048FD044660B1E4
:10BAB800012343722B7A5BB1462B21D06B882380FC
:10BAC8002B8863800023A371E37120460CB070BDFE
