:020000022000DC
:106000000000042061630200C1630200C363020058
:10601000C5630200C7630200C963020000000000FC
:1060200000000000000000000000000045FA02002F
:10603000CD6302000000000065FA0200D163020097
:1060400049B80200D3630200B9CB020089CB020039
:1060500095CB0200D36302005DB50200D36302005A
:10606000C1BC0200D1BC0200E1BC0200D36302004B
:10607000D363020015B90200D3630200D3630200A8
:10608000D363020065FB0200D3630200ADCB0200C4
:10609000D3630200D363020019E30200D36302005A
:1060A000D3630200D3630200D3630200D363020010
:1060B000D3630200D3630200000000000000000070
:1060C000D3630200D3630200D3630200A1CB0200BA
:1060D0007DBA0200D3630200D363020071AD0200F7
:1060E000D3630200F5CE0200D3630200000000007B
:1060F00000000000D363020000000000D363020030
:10610000000000000000000000000000000000008F
:10611000000000000000000000000000000000007F
:10612000000000000000000000000000000000006F
:10613000000000000000000000000000000000005F
:10614000000000000000000000000000000000004F
:10615000000000000000000000000000000000003F
:10616000000000000000000000000000000000002F
:10617000000000000000000000000000000000001F
:10618000000000000000000000000000000000000F
:1061900000000000000000000000000000000000FF
:1061A00000000000000000000000000000000000EF
:1061B00000000000000000000000000000000000DF
:1061C00000000000000000000000000000000000CF
:1061D00000000000000000000000000000000000BF
:1061E00000000000000000000000000000000000AF
:1061F000000000000000000000000000000000009F
:10620000364937480A1A02D0072291438D4635494C
:1062100035480A1A06D00722914381F309880222E1
:1062200082F3148831483249324A00F045F8324846
:106230003249334A00F040F832483349334A00F0DB
:106240003BF833483349344A00F036F83348344990
:10625000344A00F031F834483449354A00F02CF81B
:1062600034483549354A00F027F835483549002289
:1062700000F02DF834483549002200F028F8344861
:106280003449091A082903DB002202600430016046
:10629000314A90471F482049884205D0026804309F
:1062A00003B4904703BCF7E700208646EC46002085
:1062B00000212A4A9047FEE7884207D0521A05D0AB
:1062C000037801300B700131013AF9D170478842EF
:1062D00002D002700130FAE770470000000004208D
:1062E00000E00320000004200000042060380300C8
:1062F000982D00201C2E0020D8630200D8630200D5
:10630000C022030060380300982D0020982D002043
:106310005824030058240300582403005824030081
:106320005824030058240300582403005824030071
:1063300060380300E43803001C2E00201C2E0020CF
:106340001C2E0020B8730020B8730020B873002002
:10635000B8730020B89B002089630200E5D10200D9
:106360001048804710484FF00701884385460F4882
:1063700080470F48016841F470010160BFF34F8FFF
:10638000BFF36F8FFFF73CBF0A480B490B4A8842A7
:1063900007D0521A05D0037801300B700131013A51
:1063A000F9D17047D56302000000042091950200E6
:1063B00088ED00E058240300982D0020982D00203F
:1063C000FEE7FEE7FEE7FEE7FEE7FEE7FEE7FEE7A5
:0863D000FEE7FEE7704700BF85
:1063D800F0B595B008460D4616461C4602F0D9FDA4
:1063E8001A9A0D920023082205A928460A938DF8C7
:1063F8002C300C93CDE9086402F0E9FD079B029369
:10640800BDF81830ADF80C30BDF81A30ADF80E30C4
:1064180001238DF811309DF8143003F00302012A8E
:106428001DD1BDF81440059EC3F3C203C4F3831401
:106438008DF81030A20008230EA9284602F0C7FDE7
:10644800C6F3952608AB0093224602AB0EA9304648
:1064580000F0E2FB284602F0A0FD15B0F0BD022ACC
:10646800F8D1BDF81640C3F3C203A4098DF8103063
:106478000827082C264628BF08263B4632460EA980
:10648800284602F0A4FDA41B08AB02AA31460EA8B8
:10649800374400F025FC002CEBD1DBE7014B01224F
:1064A8001A7070475D2E00207047000070B50E4DC1
:1064B80006460FCD88B06C460FC495E80F0084E8F7
:1064C8000F0008A9002E4FF00603084A41F8203DA6
:1064D80008BF0022064803F081FC08B100F056FC12
:1064E800044B1E7008B070BD58240300A564020058
:1064F800982D00201C2E002007B5044B0093044A59
:106508004023FFF765FF03B05DF804FB1D6502003B
:106518001D2E002038B50D4B0D4D002018700D486C
:1065280004782D5DD2B21C4665B1043006F0B8FA85
:1065380008B100F02BFC084B1A7812B12378002B15
:10654800FBD038BD0C3006F089F8F1E75D2E00204D
:10655800FC360020982D00201C2E002008B5084885
:10656800084A0378D35C3BB1043006F043FA0020B4
:10657800BDE80840FFF79ABF0C3006F019F8F6E7B7
:10658800982D0020FC3600200120FFF78FBF000067
:1065980008B5FFF7F9FF0421034800F0ABFA034BF5
:1065A80001225A7108BD00BF48240300AC2D002009
:1065B800037813F0040216D003F00303012B03D071
:1065C800022B09D0012070470A6800880232C0F304
:1065D800831002440A60F5E70B684288023303EB34
:1065E80092130B60EEE71046704700002DE9F04F5C
:1065F80089B00546861C08A8484C019200230F461E
:1066080000F8113D01F0ACFE23683B60D4E901239A
:106618001344226801339B1A04F21C4704F5836A69
:1066280004F21448B3421AD3019A0023002A6DD009
:10663800012262F3010343F0040365F3891321681F
:10664800A2689DF80F000A4003320E4444F8223035
:10665800266001F0A9FE012009B0BDE8F08F0121F4
:10666800384601F085FF504601F0A5FF404601F08D
:10667800A2FF0DF120096068D4F808B049F8100DA0
:1066880000EA0B00033004EB80004946FFF790FF57
:10669800049BB0B90BEA030204EB8202D1680591AE
:1066A8009A1C013303EA0B0B04EB8B0C01F0030378
:1066B800012B0492DCF80CB020D0022B04D08346C6
:1066C8000BE00BEA0300DDE7BDF816309B09033346
:1066D8004FEA1B4B02EB93030493404601F06EFF15
:1066E80008B1049B63605946384601F041FFD4E97C
:1066F80001231344226801339B1A93E7BDF8143031
:10670800C3F383134FEA1B4B1344E5E7022262F3FA
:10671800010343F0040365F39F5390E7302F0020F3
:106728000B4B0C48FF2210B59A600022C3F81824BE
:10673800C3E90022C3F8142483F8202402F0E2FB02
:10674800044610B9044802F093FB204610BD00BF70
:10675800302F0020642303009824030030B50A4C2E
:1067680071B10A4A0A49121BD20800239A4201D180
:10677800002030BD31F82350854202D00133F5E7BF
:10678800034654F83300F4E7782303004824030051
:10679800982D0020094B013903EBC000032909D8C3
:1067A800DFE801F00A020406042070470079704708
:1067B8004079704700207047022070477823030013
:1067C800034BD3E90030C31A58425841704700BF01
:1067D800302F00202DE9F04387B0FFF7F1FF064680
:1067E800002840F0FC807F4DC5F81804BFF34F8F98
:1067F8006868AC6806AF47F8100D2040033005EB19
:1068080080003946FFF7D4FE029B18B1D5F818244A
:10681800002A5FD004EA0302991C013305EB8202C7
:10682800234005EB8303D268DB68049302F003037B
:10683800022B0392029162D1BDF80E306A484FEAEA
:106848009318B8F1500FC14628BF4FF0500969F3AB
:106858008F1309F10801ADF80E3002F06BFB074603
:10686800002800F0A78002F094FB03A90023082267
:10687800384602F0A1FB029924EA01060136B60067
:10688800B14535D95FFA89F97EB3F6B2A9EB0609A5
:10689800214003315FFA89F4B146544E05EB81017A
:1068A80008234A46384602F087FB36B109F1080347
:1068B80022463146384602F07FFB029B08F1030866
:1068C80003EB98030293D5F81834002B4BD1D5F875
:1068D80010445BE02A689A4204D86A60304607B0E0
:1068E800BDE8F08304EA030088E740493446D7E767
:1068F8002140033108234A4605EB8101DAE7012BE1
:1069080058D1BDF80C303848C3F38311062928BF85
:10691800062161F3891302318900ADF80C3002F0C9
:1069280009FB0746002845D002F033FB0023082264
:1069380003A9384602F040FB0026BDF80C20C2F33C
:106948008312B31C96424FEA8303BCD202994A1CB5
:1069580021400331029205EB81010422384602F0FE
:106968002BFB0136E9E7384602F017FBFFF728FF53
:1069780080F00100C6B2B1E7E3685B7923B1236810
:1069880039461B6820469847E3681C68002CF3D1F9
:10699800384602F002FB06A800F8114D01F0E0FCB1
:1069A800D5F818340BB9029B6B609DF8070001F00D
:1069B800FBFCDBE7D5F8104454B90D4B0D480E49E4
:1069C800C01AC008000440F0020000F06FF8CDE7DC
:1069D800236820469B689847E3681C68ECE7002614
:1069E8007CE700BF302F0020642303003C2F0020E9
:1069F80078230300D8230300A42403002DE9F74FCC
:106A0800284C80460F46924601A9012218469B460B
:106A1800D4F80890FFF7EAFD88B3019D0026A91C69
:106A28005E4506EB010234D100211F4801F075FDD7
:106A380080F310006A1C02EA090204EB82020004D7
:106A480005EA0903033340EA1840D06014F823200C
:106A580068F3C50204F8232034F8232066F389126A
:106A680024F8232054F82320012167F39F2244F8B7
:106A7800232061F301026FF3820204F8232094F8C3
:106A880020341BB1FFF7A6FE0028FBD103B0BDE8F8
:106A9800F08F09EA020204EB82025AF82630D3602A
:106AA8000136BDE7302F00204C33002000231A4662
:106AB800FFF7A4BF13B502AC012344F8042D224606
:106AC800FFF79CFF02B010BD07B5CDE900230223F4
:106AD8006A46FFF793FF03B05DF804FB1FB5CDE9E5
:106AE8000123069B039301AA0323FFF787FF05B041
:106AF8005DF804FB30B50F49D1F810240023144683
:106B08003CB9C468237152B9C1F810042260184610
:106B180030BDE46825799D4206D02468F0E7D26844
:106B2800116821601060F2E701330A2BE7D14FF0BA
:106B3800FF33ECE7302F0020094A38B50123D2F89B
:106B4800104482F820341D4604B938BDE3685D71ED
:106B5800236820465B689847E3681C68F4E700BF31
:106B6800302F0020037A052B10B50C460FD0437A3E
:106B780023B1084A0849204602F03FFA074920464F
:106B880002F03BFA2046BDE8104002F02BBA002A7A
:106B9800F8D0F3E7EF2403002D2D0300112503009F
:106BA800C38873B504460D4633B1144A009214499C
:106BB800144A284602F021FA217A05291CD0637A62
:106BC8004BB1A088FFF7E6FD0F4B104953F8202082
:106BD800284602F012FA227A0D4BA08853F8226058
:106BE8000021FFF7BBFD0B4903463246284602B099
:106BF800BDE8704002F001BA02B070BDEF24030096
:106C0800FC240300F4240300BC2403002D2D0300FE
:106C180020250300142503002DE9F04385B01F4605
:106C28000C9D002306460C46904695F80C902B7355
:106C380029463846FFF7B4FFB8F1060F09D8DFE850
:106C480008F00412181F283340003146284602F085
:106C5800D4F9002229463846FFF784FF85F80C90BE
:106C680005B0BDE8F08322683146284602F0C5F930
:106C7800EFE7D4E900233146284602F0BEF9E8E7F9
:106C8800A36800933146D4E90023284602F0B5F9F9
:106C9800DFE7E3680193A36800933146D4E9002352
:106CA800284602F0AAF9D4E723690293E36801931E
:106CB800A36800933146D4E90023284602F09DF9E1
:106CC800C7E76369039323690293E3680193A368A1
:106CD80000933146D4E90023284602F08EF9B8E73C
:106CE80008292DE9F84F80460E4617461C4636D827
:106CF800002593F80C901D7319461046FFF750FFB6
:106D0800DFF87CA0DFF87CB0AE422AD918F805205D
:106D18005946204602F071F90135082DF4D116497B
:106D2800DFF864B0204602F068F90025AE421DD9AC
:106D380018F805A050460AF071FE002814BF524604
:106D48002E225946204602F058F90135082DEDD17A
:106D5800012221463846FFF705FF84F80C90BDE86C
:106D6800F88F5146204602F048F9D5E703492046F6
:106D780002F043F9E9E700BFEA240300E82403002E
:106D8800E6240300E0240300EC2403001FB50021DF
:106D9800039001AA44F20100CDE9011100F004F8C2
:106DA80005B05DF804FB000010B572B6FFF7C4FE2D
:106DB800FFF710FD0028FBD1104B114C1149E41AC4
:106DC800E408240444F00100FFF770FE0E4B1B6832
:106DD800DB0700D500BE0D4944F00200FFF766FE50
:106DE800BFF34F8F0A490B4BCA6802F4E0621343A2
:106DF800CB60BFF34F8F00BFFDE700BF78230300D0
:106E0800D82303007F250300F0ED00E08B25030065
:106E180000ED00E00400FA05C36903B118477047A4
:106E2800036800221A845A62DA62C3E91E22C3E99F
:106E3800202203F134025A677047CA699A4210B592
:106E480043600CD38C690460086F18440867D01A33
:106E58001C44C86100308C6118BF012010BD01F1CD
:106E6800280202608B670020F8E70000F0B5BB4DF0
:106E78000C7A2C700468B4F5517F00F0CA8200F2D5
:106E8800DA8040F22636B44200F03E826DD840F2F5
:106E98001636B44200F0FB8126D840F21336B442CD
:106EA80000F0DA81B4F5457F0BD2002C00F0C281E6
:106EB80040F21236B44200F0C58100230360184640
:106EC800BFE100F0D78140F21536B442F5D1002475
:106ED8000AB106791655013402269C420671C0F0A3
:106EE800D78140F21633AAE140F21936B44200F0D5
:106EF800E78114D840F21736B44200F0D481B4F5D3
:106F0800467FDAD100240AB10679165501340026E5
:106F18009C420671C0F0D58140F219338FE1B4F577
:106F2800487F00F0E48140F22136B442C5D1002404
:106F38000AB1067916558A4E0F7A3678DFF824C2D8
:106F4800B74204F1010440F2548301F1090706EB4A
:106F5800460607EB060E9C42BE5DCCF800E00671C3
:106F6800C0F0D38140F2263369E140F23336B442AF
:106F780000F00982B4F54D7F38D2B4F54B7F00F0AC
:106F8800DE811CD840F22736B44200F0C981B4F53E
:106F98004A7F92D100240AB106791655714E0F7DA9
:106FA80036683678B74204F1010440F0E1810226E0
:106FB8009C420671C0F0C4814FF44B733FE140F22C
:106FC8002D36B44200F0C78140F22E36B4427FF429
:106FD80074AF00240AB10679165501340026A3427D
:106FE800067100F2EA814FF44F7328E1B4F54F7F40
:106FF80000F0E28106D8B4F54D7F00F0D08140F270
:107008003536E3E740F24236B44200F0EA8100F256
:10701800F48140F24136B4427FF44FAF00240AB104
:1070280006791655013424269C420671C0F0DA818F
:1070380040F2423303E140F25636B44200F0538244
:107048006AD8B4F5537F00F01C8232D840F2493632
:10705800B44200F0FD8115D840F24536B44200F044
:10706800E481B4F5527F7FF428AF00240AB1067991
:107078001655013424269C420671C0F0EA8140F27C
:107088004933DCE040F24A36B44200F0ED8140F288
:107098004B36B4427FF411AF00240AB10679165575
:1070A80001348E7D06719C42C0F0EC814FF453731D
:1070B800C5E040F25136B44200F0FC8115D840F2E8
:1070C8004F36B44200F0E981B4F5547F7FF4F5AE51
:1070D80000240AB106791655013402269C4206712D
:1070E800C0F0E98140F25133A9E040F25236B4428F
:1070F80000F0EC8140F25536B4427FF4DEAE002455
:107108000AB106791655013424269C420671C0F04E
:10711800EB8140F2563392E040F27236B44200F00E
:10712800278246D840F25936B44200F0F5811BD880
:1071380040F25736B44200F0E281B4F5567F7FF44E
:10714800BCAE00240AB10679165501348E7D06714D
:107158009C42C0F0E28140F2593370E0EE330020E7
:10716800ED330020F033002040F26D36B44200F0D9
:10717800F28140F26E36B4427FF49FAE00240AB129
:1071880006791655AF4EB04F36683F7896F801C06D
:10719800BC4504F1010440F2318296F802C03E4435
:1071A8009C4216F80C600671C0F0E38140F272331D
:1071B80045E040F28336B44200F0FA81B4F5617FCD
:1071C80014D240F27736B44203D0B4F55F7F7FF42F
:1071D80074AE00240AB10679165501344026A3423C
:1071E800067100F2E68140F2833328E040F28936E6
:1071F800B44200F0F48140F28E36B44200F0EF81E0
:10720800B4F5617F7FF459AE00240AB106791655AA
:107218008C4E0F7D36683678B74204F1010440F091
:10722800D4810E6A9C4236780671C0F0D98140F24A
:10723800893304E00824047123B940F2123303604F
:107248000120F0BD0AB1047914700B24012B0471DC
:107258000ED840F21333F2E700240AB10679165526
:1072680001340E7D06719C4205D34FF44573E6E761
:107278000124F2E700240AB10679165501340226E2
:107288009C420671FFF424AE40F21533D7E7002480
:107298000AB106791655013402269C42067103D3B9
:1072A80040F21733CBE700240AB1067916550134AA
:1072B8004E7E06719C42FFF426AE4FF44673BEE73D
:1072C80000240AB106791655604E0027013437703C
:1072D8005E4E37782E78B74202D340F29933AEE744
:1072E8000926A342067103D84FF44873A7E7002480
:1072F8000AB106791655013404269C420671FFF43A
:1073080017AE40F221339AE700240AB106791655E0
:10731800013400269C42067103D340F227338EE7DE
:1073280000240AB106791655464E36680134767837
:1073380006719C42FFF42FAE4FF44A737FE7002496
:107348000AB106791655013402269C42067103D308
:1073580040F22D3373E700240AB10679165501343B
:107368004E7E06719C42FFF435AE40F22E3366E73E
:107378008F7DB7427FF432AE0A269C42067103D352
:1073880040F233335BE700240AB10679165501341D
:1073980000269C42067103D34FF44D734FE7002437
:1073A8000AB106791655013400269C420671FFF48D
:1073B80011AE40F2353342E700240AB1067916557A
:1073C800204E0F7D36683678B74204F1010440F04C
:1073D800A88005269C420671FFF421AE40F2413395
:1073E8002DE700240AB106791655013400269C427F
:1073F800067103D340F2433321E700240AB106792A
:107408001655013410269C42067103D34FF451736C
:1074180015E700240AB106791655013401269C4265
:10742800067103D340F2453309E700240AB106790F
:107438001655013405269C420671FFF417AE4FF429
:107448005273FCE6F0330020EF330020ED330020C8
:1074580000240AB106791655013401269C420671AA
:1074680003D340F24A33EAE600240AB106791655F6
:10747800013403269C420671FFF40FAE40F24B33F1
:10748800DDE600240AB106791655013404269C422B
:10749800067103D340F24F33D1E600240AB10679CE
:1074A8001655013424269C420671FFF412AE4FF49F
:1074B8005473C4E600240AB106791655013402262D
:1074C8009C42067103D340F25233B8E600240AB155
:1074D80006791655013405269C420671FFF410AE54
:1074E80040F25533ABE600240AB10679165501344B
:1074F80006269C42067103D340F257339FE60024C8
:107508000AB10679165501340E7D06719C42FFF4C6
:1075180019AE4FF4567392E600240AB1067916554F
:107528000134374E36687778364E3770364E002736
:107538003770354E3778334E3678B74204D3334FE9
:107548003E7801363E70C3E60726A342067103D88B
:1075580040F26D3373E600240AB1067916550134FA
:1075680005269C420671FFF40AAE40F26E3366E6C9
:1075780000240AB106791655214E0F7D36683678F3
:10758800B74204F1010407D103269C420671FFF4B7
:1075980021AE40F2773352E68F7DB7427FF41EAEBC
:1075A80002269C420671FFF415AE4FF45F7346E65F
:1075B80000240AB106791655013400269C4206714A
:1075C800FFF423AE4FF4617339E68F7DB7420BD1D8
:1075D80000269C42067103D340F28E332FE6002426
:1075E8000AB1067916550134074F3E7801363E70C8
:1075F8009FE70023CCF800301B78FFDE0023FBE771
:10760800F0330020EC330020EF330020ED3300206E
:1076180010B5044658B90868037B202B09D100F13E
:107628000E01072218300AF022FA204610BD032066
:10763800FCE70620FAE7037A012B08D9427B012AE6
:1076480000F10C0306D9827B134458787047002355
:107658005B78FFDE00231B78FBE700002DE9F04391
:107668000B7889B005460E460E2B17D8DFE803F0D5
:107678000A080A0A160CA2161608160A0A0A0A00A6
:10768800FFF7CEFB002427E04A78D1094FEA5213CE
:1076980030D013F0030303D0012B21D006241BE0C4
:1076A80002F01F02012AF9D1B478062CF6D105A8F8
:1076B800039301F03BFB03ABF27831790093074663
:1076C8000346284600F064FA052805D0039A39468F
:1076D800701C01F0C1F80446204609B0BDE8F083EB
:1076E800B378212BDAD1B6F80720072AD6D101685A
:1076F8001831EDE7012BD1D1B3780768202B36D0AC
:10770800222BCBD1B6F80730002BC7D197F8203001
:10771800B6F803403C8403F0010304F00104A342DB
:10772800B0D0A4B2002C0CBF03210221FFF774FBD8
:10773800002CA7D12B7A012B40F2D7806B7B05F167
:107748000C02002B00F0D380AB7BD05C03F0D0FAA6
:107758002846FFF770FF03F0CBFA07F134037C6289
:10776800FC62C7E91E44C7E920447B67B4E7B6F862
:107778000730072B92D108A800244FF4E462BA819D
:1077880000F8154D0E37CDE90573079400F0E8FDB4
:10779800204605A900F0C0FB044630B9564B03A9A2
:1077A800CDE9033501F046F804469DF80B0000F0DA
:1077B800FBFD91E7037A002B00F09B80837A00F1B0
:1077C8000901002B00F09380C27AB3788A5C9A4250
:1077D8003FF458AF1B06F4780AD524B1032C0CBF2C
:1077E8000024032478E701212846FFF715FB73E7F7
:1077F800012C3FF447AF04D3032C3FF443AF0324D9
:107808006AE70668FFF717FF3C4BB76A059306F16E
:107818000C0380460693B7B9F36FF46AB767C6E9F5
:107828001F736CB106F12C0103C906F1240383E828
:107838000300F76205A9404600F082FB044600E019
:1078480074620021D0E7D6F88490706A4F4528BF4B
:107858004F4606F134043A4621460AF008F9F36F18
:107868003B44C6F88030A9EB0703B367F36A0022EC
:107878003C44F2677467002B35D006F12C0999E86F
:10788800030006F1240787E803001446F262B36F89
:10789800706A1BB9746A002CCCD1D2E7B26A716FD6
:1078A8009A4216D80AF0E3F8B36AB26FC6F8803085
:1078B800D21AB267726F1A44726700212846FFF71E
:1078C800ABFAF36A7BB199E8030087E80300F46236
:1078D800DDE71A460AF0CBF8B26FB36AF2679B1A73
:1078E800B362736A13447362D4E76378FFDE1B786C
:1078F800FCE75B78FAE700BF19760200436E0200E6
:107908000368D3F880007047F7B50468238CDB0759
:107918000F4616463BD5656A002D32D1A16F9142BC
:107928000ED3616F38460AF0A2F8A36FC4F88060DE
:107938009B1BA367636F33446367284603B0F0BD9E
:10794800C4E90972FFF777FE134B009304F10C03A7
:107958000646019369B10A463846616F0AF087F80E
:10796800A36FA26AD21AA262626AC4E91E531A44B9
:1079780062626946304600F0E3FA002808BF9220A8
:10798800DCE7E36A2BB9C4E90B129220D6E708209A
:10799800D4E71120D2E700BF436E020043681B689A
:1079A80018470000024B5B6803B11847704700BFD7
:1079B800F8330020020600F00F034CBF02480348CA
:1079C800DB001844704700BF043400204C3400200A
:1079D80008B5FFF7EFFF016009B9416008BD4B68C2
:1079E8001B684360FAE70000024B01465A681868B2
:1079F800104700BF4C34002038B5831EDBB2062B7D
:107A080098BF194A194C98BFD25C2378A3F1020396
:107A1800DBB288BF0022062B9ABF1349CB5C002338
:107A28009342054603D0A2B1114802F015F8022D81
:107A380001D0082D10D101232278022A01D0082A6A
:107A48000CD101229A4202D053B102F0D5FE257022
:107A580038BD02F03BF8EAE70023EDE70022F1E742
:107A680002F0C0FEF3E700BFB4250300C4350020D0
:107A7800B42D00200378052B73B504460CD12F4A8A
:107A8800D2F88434D2F8802412F0FF0F04D12C4AA3
:107A9800DBB2052B08BF144623782BBB294B1D6886
:107AA800DDB902A800F8045D274D00F059FC2A68EA
:107AB80012B9264B62881A800121234800F058FD2C
:107AC8009DF8040000F070FC214B1B6813B10121E4
:107AD800204698472B6802B070BD2B6860889B6869
:107AE80098472B685D68DBE701A91A4800F07CFD20
:107AF80005460028EFD02368036002A8002600F896
:107B0800056D00F02DFC114B0F481B8802680133EE
:107B18009B1AEB80314600F000FDA8809DF8030019
:107B280000F042FC01A90B4800F088FD084B1B68D7
:107B38000146002BCFD020469847CCE70070024082
:107B4800CC250300B8350020C0350020943400202F
:107B5800F8330020A0350020FFF78CBF012806D09D
:107B680002D3022805D070470348FFF783BF0348B4
:107B7800FBE70348F9E700BFC0250300C42503005D
:107B8800C82503000148FFF775BF00BFD0250300D3
:107B98002DE9F04F87B006AC002644F8106D054675
:107BA8008946924698466B6800225F6829460123F9
:107BB8002046B84740B98DF80600049004460746A9
:107BC800BE4203D805202AE00136ECE76B680DF1C8
:107BD8000602D3F804B02946012304A8D8476B68E5
:107BE8000DF10702D3F804B02946012304A8D847A9
:107BF8009DF807304B459DF8063015D1544511D1F5
:107C0800109A136088F8003088F801906A68023B7F
:107C18005468294608F1020204A8A047002007B0CA
:107C2800BDE8F08F0134E4B26A68023BD2F804B0D0
:107C38002946002204A8D8479DF806301F44BFE70C
:107C48002DE9F743082305464FF484722F4930483D
:107C580000F0B7FC002856D12E4802F0E3FD044698
:107C6800002835D12C4B18702C4B18602C4B014632
:107C7800186048222B4809F023FF482221462A4849
:107C880009F01EFF294B3DBBC3E900551D720020BA
:107C980001F0C8FD18B1852801D0FFF777F8244E08
:107CA80096F80890002506F10908ECB2A14504D918
:107CB80004EB440414EB080423D102A90B2301F8B4
:107CC800043D1B48FFF76AFE044608B102F074FC45
:107CD800204603B0BDE8F08395E8070083E8070075
:107CE800D5E73146E05CFFF773FE6378FAB293425A
:107CF80005D9A3781344DC4207F10107F1D1013516
:107D0800D3E70027F1E70324E2E700BF9634002019
:107D1800A0350020617B0200C4350020B03500206A
:107D2800B4350020043400204C340020F8330020FF
:107D38005826030010B502F013FD08B9082010BD3D
:107D480002F016FD04460028F8D1044801F09CFD15
:107D58000028F4D0FFF71AF82046F0E7BC25030006
:107D680002F03ABC03F0FEB84FF08043D3F8382451
:107D7800920702D50348FFF77DBED3F83824D10710
:107D8800F4D47047D125030007B502A8822300F870
:107D9800043DFFF76FFE03B05DF804FB2DE9F341E6
:107DA800037A00F109040325064615FB0345274617
:107DB800AC4231D01CB394F80180002106E0E05CAD
:107DC800FFF7F8FD03680131002B36D1CBB2984597
:107DD80003D9A3780B44DC42F1D10334E8E73146F8
:107DE800E85CFFF7F5FD6A785FFA88F39A4205D9EF
:107DF800AA781344DD4208F10108F0D10134337A3E
:107E0800E5B2AB4203D905EB45057D1901D10C4B11
:107E180005E04FF00008E6E70024F0E713681A6869
:107E2800002AFBD102A91E600B2301F8043D30464D
:107E3800FFF7B4FD02B0BDE8F0811120FAE700BFFA
:107E4800B0350020024B1878003018BF0120704769
:107E5800BC35002000F00F03072B10B5044604D8EA
:107E680002F00EFE204603F071F92046BDE81040EE
:107E780003F01CB903F0E8B8014B1868704700BF5D
:107E8800B035002070B50A4B1B687BB11E7A002202
:107E9800D5B2B54201D31B68F6E7013202EB4204C2
:107EA8001C44A4798442F3D101B10D70184670BD09
:107EB800B03500201146FFF771BD08B500F00F037B
:107EC800082B07D8FFF776FD006818B1BDE8084011
:107ED800FFF764BD102008BD38B5054B05461C6882
:107EE80004B938BD29462046FFF758FD2368F6E750
:107EF800B035002038B5074B05461C680CB906207C
:107F080038BD29462046FFF749FD0628F8D12368E1
:107F1800F3E700BFB035002038B504460D4602F03F
:107F2800C6FC48B1054B1B78022B05D129462046D3
:107F3800BDE8384002F0BEBC082038BDC43500207A
:107F480038B504460D4602F0B2FC48B1054B1B7823
:107F5800022B05D129462046BDE8384002F022BD53
:107F6800082038BDC4350020F8B543689B6805462D
:107F78000C46164613B92EB1072002E0984706288A
:107F8800F9D0F8BD2B7AA34213D9093504EB440480
:107F98002C446778F3B29F4201D80020F1E7627859
:107FA8009A4208D9A219A378D05CFFF753FF01368B
:107FB800F0E77378FFDE00231B78FBE74368DB6894
:107FC80070B505460C4603B198472B7AA34213D9DE
:107FD800093504EB44042C4400256678EBB29E4234
:107FE80000D870BD62789A4209D96219A378D05C2A
:107FF80003F02AF80135F1E700235B78FFDE002360
:108008001B78FBE743681B6903B11847184670479C
:1080180070B5084B1C6804B970BD267A0025E9B212
:10802800B14201D32368F5E700222046FFF79CFF01
:108038000135F4E7B035002070B5084B1C6804B969
:1080480070BD267A0025E9B2B14201D32368F5E76D
:108058002046FFF7B3FF0135F5E700BFB035002034
:1080680038B50478092C054620D023D8032C00F015
:10807800BC8012D8012C00F0A68040F28D8003202D
:10808800FFF7BAFC0220FFF78DFC2846FFF724FF14
:108098002846BDE83840FFF7A7BC052CF8D0C0F04B
:1080A800B380062C00F0BF80082C13D12046FFF7C0
:1080B80079FC95E0812C0ED005D80F2CF6D0802CB9
:1080C80044D00A2CF1E7832C4CD021D3842C53D0F4
:1080D800852CDDD038BD5E48FFF786FC5C48FFF78D
:1080E800FBFE0D20FFF75EFCFFF7A6FF00F099FBF3
:1080F800584B1B6853B9584B187A00F0010002F02E
:1081080003FB0120BDE83840FFF776BC0120F4E707
:10811800FFF792FF02F00AFF0020FFF76DFC4F48BF
:10812800FFF7DAFE4D48FFF75FFC0E20FFF73AFC39
:108138004B4B1B78023BDBB2062BCBD8494AD35CAE
:10814800002BC7D0BDE8384001F0C0BC444B1B78B9
:10815800062B05D0072B01D0052BBBD10220D1E778
:108168000820CFE73E4B1B78032BB3D102F030FF3A
:108178000028AFD00420C5E7394B1B78032B05D165
:1081880002F026FF10B10420FFF736FC02F0FAFADD
:1081980000289FD00620B5E7314B1B78032B01D070
:1081A800082B02D13048FFF75BFF0020FFF7FAFBEE
:1081B800284B1C68002C8DD020462946FFF7EEFB83
:1081C80023685C68F6E7FFF737FF00F021FB022021
:1081D800FFF712FC2046FFF7E5FB2846FFF704FCF3
:1081E8002846BDE83840FFF777BE1D4B1B78082BA3
:1081F80006D10220FFF700FC02F008FB0320EAE7A3
:108208000520FFF7F9FBF9E70320FFF7CBFB174839
:10821800FFF7EAFB1548FFF75FFE114B1B78062BAB
:108228009CD107206EE78078FFF7C4FB2946436896
:108238000068984700283FF44DAFA87800F00F0376
:10824800013B062B3FF646AFBDE8384002F0F2BBD3
:10825800D2250300B4350020F8330020D3250300CD
:10826800C4350020B4250300D4250300D525030018
:1082780073B5234D002301932B6823B92149224864
:1082880000F0ECF928602C68ECB1A68886B1E38888
:10829800B3F5006F24BF0023E380E388ADF8063010
:1082A8005A1C013EE280A68001A8FFF7D9FE07E02C
:1082B8002046FFF7D5FE1349134800F0FAF92E605F
:1082C800012002B070BD114B18680028F9D002A82F
:1082D80000F8054D00F044F80D4B0C481A88B2F52B
:1082E800006F28BF1C801A88ADF80620511C198021
:1082F800012100F053F99DF8030000F055F8D3E789
:10830800C8350020F4330020A0350020C0350020F7
:108318009434002070B54FF0805286B0D2F8A8305F
:10832800D2F8A42000926FEA83436FEA934302AD28
:108338009BB2094A094E0D21284609F074FB002416
:10834800284609F0F0FB844201D306B070BD2B5DCE
:10835800A3550134F4E700BFDF250300CC35002026
:1083680070B5EFF3108672B60C4A946801239CB975
:1083780093600B4B0B4DD3F8801029401160C3F864
:108388008050D3F8841051604FF0FF32C3F8842036
:10839800047006B962B670BD0370FAE7DC350020D8
:1083A80000E100E0FC06FFBD084B9A6810B55AB121
:1083B80050B9EFF3108172B6054A1C6814605C6806
:1083C8005460986001B962B610BD00BFDC3500206A
:1083D80000E100E010B50E4B53F8204023780BB9AC
:1083E800A01C10BD002000F0A1FC2246E4B2131B23
:1083F80012F8011BDBB231B901335B00DBB243F485
:1084080040730380EDE7131BDBB220F81310EEE78F
:108418003826030008B9FFF7DDBF052807D8054A45
:10842800105C20B1044B53F82030002BF3D100200E
:10843800704700BF502603003826030010B590B1DE
:10844800D0E9012301689B1ADBB20A60013BDBB269
:10845800FF2B026802D10020107110BD11684C1C5E
:1084680014600B70F2E70E20F7E737B5054602A84F
:10847800002400F8014DFFF773FF2A686B68116844
:1084880099420ED9481E106011F8014CEB68298AF0
:1084980001FB0434AB6811791B1ADBB2994238BF6F
:1084A80013719DF80700FFF77FFF204603B030BD2A
:1084B80037B5054602A8002300F8013D0C46FFF732
:1084C8004FFF2A681368591C1160E968641A298AE1
:1084D800B4FBF1F41C709DF80700FFF765FF03B0CB
:1084E80030BD01F01F024B090121914000EB8300D0
:1084F80000F01DB801F01F0301229A404B0900EB60
:108508008300D14300F029B84B0901F01F0150F84E
:108518002300C84000F00100704750E8002F0B46C8
:1085280040E8003C9CF0000FF7D11046704750E837
:10853800003F43EA010240E8002C9CF0000FF6D10E
:108548001046704750E8002F02EA010340E8003C5B
:108558009CF0000FF6D11046704750E8003F03EA40
:10856800010240E8002C9CF0000FF6D1104670473D
:1085780050E8003F03EB010240E8002C9CF0000F9C
:10858800F6D11046704750E8003FA3EB010240E8DF
:10859800002C9CF0000FF6D11046704750E8003FC1
:1085A8008B422CBF5A1A1A4640E8002C9CF0000F48
:1085B800F4D1104670470121FFF7B9BF0021FFF73A
:1085C800C1BF10B561B1B2FBF3F403FB1424A4B22C
:1085D80044B9C0E9001484608281C381204610BD7B
:1085E8000E20FCE70920FAE737B550E8013F9DB2B5
:1085F800C48925448489A54228BF2D1B0489A54226
:1086080002BFBFF32F8F002207E0C5EA030540E849
:108618000154002CE9D14FF001028DF80320019399
:10862800019B9DF803200B6002F0FF0322B10B8829
:108638000068184403B030BD1846FBE70A884B8829
:108648009A4209D150E8012FC2EA024240E80123C8
:10865800002BF7D1012070470020704737B550E84C
:10866800023F1FFAA3F5C488A54202BFBFF32F8FAC
:1086780000220DE0C48925448489A54228BF2D1B0A
:10868800C3EA054540E80254002CE8D14FF0010246
:108698008DF803200193019B9DF803200B6002F0E5
:1086A800FF0322B14B880068184403B030BD184658
:1086B800FBE70A884B889A4209D150E8022FC2EAA0
:1086C800224240E80223002BF7D101207047002006
:1086D8007047002070472DE9F04F4B6887B08146FE
:1086E8000C4602925BB90B681B681B683BB98D6826
:1086F8002DB9C0E90055284607B0BDE8F08F02F053
:1087080095F9E768029B9F4228BF1F464FF0000873
:1087180004F1100383460197464601250393019B04
:10872800002B2DD0A368019A616893429A4628BF0E
:10873800924641B352460BEB060009F098F9002324
:108748006360A268E3680199A2EB0A02A3EB0A033B
:10875800A1EB0A01A260E360019156440ABBB8F19B
:10876800000F38D02268126812682260002B30D0BF
:108778002368D3B963601EB1029BB34288BF00254A
:10878800C9E900B6B7E7002BDBD0216803984B682E
:108798000BEB0602D3F804805346C0474FF001089C
:1087A800CFE7002B08BF0025B9E70DF1180A002311
:1087B8004AF8083D21684B685B6800221F4650460E
:1087C8000123B84708B92061A9E7A3680133A3606A
:1087D800F0E71D46A3E7002BCAD145469FE70000F6
:1087E800084B1A7882420CD0052818BF064A187020
:1087F80018BF137805481CBF23F002031370FFF756
:108808002FBC7047F435002010360020682603007E
:1088180008B50020FFF71EFB8020BDE80840FFF7E1
:1088280019BB08B50020FFF725FB8020BDE80840EC
:10883800FFF720BB38B505460C4602F09DF9A84263
:1088480005BFD4E90001034B1020C3E9000108BFAC
:10885800002038BD143600207FB5C38893421D46DA
:1088680028BF154693420E46144624D9802002F0AC
:1088780019F8B4FBF0F303FB1040B0FA80F040099C
:10888800039004A8002300F80D3DCDE90165FFF72A
:1088980067FD01A98020FFF73FFB044620B907497F
:1088A8008020FFF7C7FF04469DF80300FFF77CFD13
:1088B800204604B070BD0020E2E700BF9C260300FC
:1088C8002DE9F04F0C78062C87B00E4600F0008298
:1088D80020D8022C3DD003D8012C32D00624F1E157
:1088E800032C32D0052CF9D10DF10D00B24D8DF8C5
:1088F8000C4002F0D5F800232B609DF80D3003F0F2
:108908001F02032A00F28881DFE812F02D002201FD
:108918007D0165000D2C00F0C98107D80B2C18D0FB
:108928000C2CDBD10020FFF75BFF12E00E2C00F0CF
:10893800CD81852CD2D1A14B1B78032BCED104201D
:1089480000E00320FFF74CFFC8E79D48FFF736FE1D
:1089580008B90024B6E19B4B01221A60BFF36F8F60
:10896800BFF34F8FF5E7C3F34116A6BBDB099DF8AC
:108978000E1000F0A680062916D0082900F0948071
:1089880049BB914C0222204609F09AF8237843F01B
:10899800010222708D4A1278910744BF43F0030305
:1089A8002370022288490EE09DF81030022B16D061
:1089B800032B69D0012B0ED1BDF81330002B00F02A
:1089C8007281834912220DF10D00FFF745FF04461D
:1089D800062C40F0298103A8FFF78CFA11E1BDF8B5
:1089E8001370002F00F05F81092F28BF0927FFF7B8
:1089F80043FA4FF009080446B14674BB724C7549F6
:108A08003A46204609F033F82671A4F80280FFF7A9
:108A180019FA18B1E37943F02003E371FFF72CFA50
:108A28006D4BC3E900049F60BDF81320DA6001A80C
:108A380000238DF80430FFF793FC68498020FFF786
:108A48007FFA044620B966498020FFF7F3FE044602
:108A58009DF80400FFF7A8FCBAE7CDF804904FF0A2
:108A6800000A63680022D3F804B02146012301A854
:108A7800D84730B9237A1E442368D044F6B21C681C
:108A8800BBE70AF1010AECE7BDF81330002B00F050
:108A98000A81BDF811109DF80F00FFF7BBFC0146D5
:108AA800002898D002788EE7444A1278052A03D124
:108AB800454A1370012275E7042A8CD1424B1E7077
:108AC800F8E7032910D009292CD0012983D1BDF852
:108AD8000F30012B7FF47FAFFFF7B4F960B13B4A49
:108AE800137823F002030FE0BDF80F30012B7FF459
:108AF80072AFFFF7A7F918B90F2402F03AF8E1E0CE
:108B0800324A137843F0020313702B68002B00F0ED
:108B1800CA8002F031F8044600287FF41AAF01F049
:108B2800E5FFCFE0254B1B78043B012B01D9082436
:108B3800E3E79DF80F302BB9FFF77EFA0420FFF723
:108B48004FFEE2E7012B55D1FFF762FA0520F6E761
:108B580001A99DF81100FFF795F9074608B91024F7
:108B6800CBE703AA9DF80410FFF7A4F906280446EA
:108B78005AD19DF80D2012F0600FBED10F4B9DF811
:108B8800041018789DF80E30D6092BD073B10A2B33
:108B9800B3D10528CBD13846FFF734FA0A49324613
:108BA80008700DF10D00FFF757FE2AE00528BED129
:108BB80005490B800222F4E714360020F435002022
:108BC8001C3600205C700240203600201036002041
:108BD8008826030069260300F8350020B426030020
:108BE8009C2603000B2B88D10528A0D1BDF80F3097
:108BF800FF2B01D9072480E79DF80F203846FFF79F
:108C0800B3F9044610E09DF81100020706D19DF85B
:108C18000D3013F0600F0BD006246EE703A9FFF7A1
:108C28004CF906280446F2D0002C3FF46EAF64E7F6
:108C38009DF80E20384B9DF811401B78012A1ED054
:108C480012D3032AE8D104F00F02072AE4D8BDF8AA
:108C58000F100029E0D1052B02D0002A7FF467AF5E
:108C6800204601F0E7FE50E7052B02D023077FF4EA
:108C78005EAF204601F0EAFE284908809AE704F032
:108C88000F02072AC8D8BDF80F100029C4D1052B38
:108C980002D0002A7FF44BAF204601F0F1FE2046B7
:108CA80002F054FA31E701F061FF52E64FF08043D9
:108CB800D3F8384414F0010401D0022033E601202F
:108CC800FFF78EFD204607B0BDE8F08F01202AE6A9
:108CD800C8780328F6D0124D2B68D3B100222A6039
:108CE80069689847044600287FF407AF2B6823B1CA
:108CF800B378002B7FF42DAE11E70A4B1B68082BC5
:108D080004D1094B1B68002B3FF423AE01F02EFF62
:108D1800D8E70E24F1E600BFF43500202036002005
:108D280014360020300100103401001008B140232F
:108D380003600148704700BF203600200D4930B558
:108D4800A1F594720225914201D800200EE08B1AF9
:108D5800DB1093FBF5F302EBC30452F83330834284
:108D680005D802D204F10802EDE7606830BD21465B
:108D7800E9E700BFF827030008B5FFF7DFFF024B5C
:108D8800002808BF184608BDBC2603000B684A68BF
:108D98004360934208BF0023016008BF43607047E7
:108DA800436843B10268916852680B449342436038
:108DB80004BF00234360704733DF704770B5264C0B
:108DC800054601212046FFF7A8FBBFF35F8F264623
:108DD80038B9042D0AD0214B1A781AB1BFF35F8F26
:108DE800206070BD1E4A157001221A701D4C1C4D62
:108DF8006368BBB9FDF7A0FEFDF7ECFC0028FBD1CA
:108E0800174B1B78023B012B14D8BFF34F8F164921
:108E1800164BCA6802F4E0621343CB60BFF34F8F6E
:108E280000BFFDE71B682878984788B12046FFF700
:108E3800B7FFDDE705F036FA08B1FFF7BDFF4FF0E1
:108E480080430122C3F80025BFF34F8F20BFFDE701
:108E5800BFF35F8F3060C4E76C36002069360020AE
:108E6800683600206036002000ED00E00400FA05B6
:108E7800836800225A609A60C3E90422DA601A60A3
:108E880070472DE9F047B0F806904479D2F800A071
:108E98009DF8208009FB04F4043C06460AEB030015
:108EA800A0420F4688BFA4EB030A191DC2F800A010
:108EB800B1FBF9F509FB15114DB9A9EB01045445AE
:108EC80028BF5446BAF1000F04D1BDE8F0873668D0
:108ED800013DF1E704317B1970182246B8F1000F03
:108EE8000ED001461846AAEB040A08F0C0FDD14589
:108EF800254436684C464FF0000128BF5446E1E748
:108F08001946F0E7FFF79ABAF8B546790146721E96
:108F18000546002393422D6803D30024A64202D8B5
:108F2800F8BD0133F6E70F682846FFF7C1FA0134A8
:108F38003946F3E72DE9F843068ACD1C0746FFF7C3
:108F480094FA043E35440446B5FBF6F5F0B14FF407
:108F58008073EDB28380C680013D076081464FF083
:108F68000008A84512D23846FFF77FFA064648B1EE
:108F780063790133637108F10108C9F800000760DB
:108F88008146EEE72046FFF7BFFF34462046BDE89E
:108F9800F88301210430FFF7EBBA10B5012104462C
:108FA8000430FFF7F0FA10F0FF0F04D12046BDE8B7
:108FB8001040FFF7A9BF10BD1FB504AC44F8042D3D
:108FC800002200922246FFF75CFF04B010BD1FB5D7
:108FD80004AC44F8042D012200922246FFF751FF09
:108FE80004B010BD826810B504462AB1436901680F
:108FF800006998470023A36010BD0EB403B5039918
:1090080029B102AA04AB42F8043D00F06BF802B0A3
:109018005DF804EB03B07047826830B40468551CEF
:109028008560A154D0E901329A4202D330BCFFF7DF
:10903800D9BF30BC704700002DE9F84F9946DDE9EB
:109048000A431746824688460A460126BA420FD284
:109058004E4538BF4E4613F0010B01D164B90024C8
:109068000125B9F1010F1AD909F1FF397D43F8E754
:10907800B2FBF7F20136E9E79B070ED5B9F1000F0D
:109088000CBF30252025A642EAD2013C294650468D
:10909800FFF7C2FF002CF6D1E1E72025F3E7B8FB84
:1090A800F5F39F42E2D9DFF83890B8FBF5F3504664
:1090B80019F8031005FB1388FFF7AEFFB5FBF7F5AA
:1090C800002DF2D1BBF1000F02D00CB1A64201D3A2
:1090D800BDE8F88F20215046013CFFF79DFFF4E7DB
:1090E800BB2B03002DE9F74F054690460E46002995
:1090F80000F03A8116F8011B002958D0252940F0C4
:10910800D180002702E047F001071646324612F8E0
:10911800013B2D2BF7D0302B04D02B2B05D147F05A
:109128000407F2E747F00207EFE700242A2B06F1CD
:1091380001021BD1D8F80030191D1B68C8F80010AF
:109148001C44164633782E2B1CD101364FF0000AEA
:10915800314611F8012BA2F13000092814D80A234E
:1091680003FB0A23A3F1300A0E46F1E712F8013C8B
:10917800A3F130010929E5D80A2101FB0434303C68
:109188001646D3E74FF0000A324612F8011B01F0E9
:10919800FB0068281646F8D0692916D054D85829F3
:1091A80070D00ED825297DD03378002BA2D12B7B07
:1091B800002B00F0D980284603B0BDE8F04FFFF738
:1091C80011BF632968D06429EED1D8F80020D2F8FD
:1091D8000090111D89EAE972C8F80010A2EBE97243
:1091E8004FF0010B092A61DCD34538BFD3462CB1B7
:1091F800B9F1000F01DB790700D5013CBA0702D5A8
:10920800BAF1000F04D0FB0702D4002C54D100247B
:10921800B9F1000F58DAC9F100092D212846FFF7E6
:10922800FBFE07F00302022A05D1BAF1000F02D1B2
:10923800002C4DD10024CDE9004753460A22494667
:109248002846FFF7F9FEAFE7732954D016D87029DE
:10925800AAD1D8F800301A1DC8F8002030212846B5
:109268001C68FFF7D9FE78212846FFF7D5FE0022B3
:109278000823CDE9003221461022E1E775292FD0D5
:10928800782991D1D8F800100A1DC8F80020CDE936
:109298000047534610222CE0D8F800301A1D1978E0
:1092A800C8F800202846FFF7B7FE7DE70A230BF130
:1092B800010B92FBF3F295E7A345A9D2202128469A
:1092C800013CFFF7A9FEA0E77807AAD52B21A5E75F
:1092D800A345B0D230212846013CFFF79DFEA7E701
:1092E800D8F80010CDE900470A1DC8F800205346F9
:1092F8000A220968A4E7D8F800301A1DC8F8002027
:10930800F907D3F8009012D54F46A7EB090B17F8C9
:10931800011B41B9A345BFF447AF20212846013CB2
:10932800FFF77AFEF6E72846FFF776FEEDE7B9F194
:10933800000F17D0484608F0F6FB0746BC4200D994
:1093480054B909F1FF3919F8011F00293FF42CAF6E
:109358002846FFF761FEF6E720212846013CFFF783
:109368005BFEEBE74F46E9E703B0BDE8F08F00008E
:109378002DE9F043446885B0054689461646002C19
:1093880050D0037BA3B92E60EFF30586BEB94FF02A
:109398000208CDF8008033464A460421204606F0EC
:1093A800EBF90128074630D0042005B0BDE8F0836A
:1093B800204606F0FBFA0028E5D00020F5E704AEC9
:1093C800002746F8047D4A4600973346092120467F
:1093D80006F0D2F90128E7D105F01CFD00970246F6
:1093E80033460621204606F0C7F90128DCD1039B45
:1093F80043B10D4B4FF080525A6040BFBFF34F8FBF
:10940800BFF36F8F01232B73D7E705F0FDFCCDF871
:109418000080024633463946204606F0ADF9012859
:10942800F0D0C1E70820C0E700ED00E01FB5044612
:10943800406830B3EFF30583D3B104AB002243F89F
:10944800042D0821009206F097F9012801D0042084
:109458000CE0039B43B10C4B4FF080525A6040BF65
:10946800BFF34F8FBFF36F8F0020207304B010BD80
:109478000222009203211A4606F07EF90128F3D051
:10948800E5E70820F2E700BF00ED00E00268136896
:109498005268934291BFD01A80680130801888BF03
:1094A800C01A7047036881681A685B688B4234BFCA
:1094B80001330023D31A584258417047F7B5044680
:1094C80002A8002300F8013D0D46FEF749FF20469B
:1094D800FFF7E8FF10B1237C002B3CD12268A66877
:1094E80053685168B14234BF01310021516030B135
:1094F8001168A068814234BF013100211160E2681F
:109508006068511E072920D8DFE801F004101F14F5
:109518001F1F1F182A78C2542046FFF7B7FF236879
:109528009A68824200D29860002415E02A8820F8C0
:109538001320F1E72A6840F82320EDE7D5E9006712
:1095480000EBC300C0E90067E6E7294602FB030019
:1095580008F08DFAE0E704249DF80700FEF724FFE1
:10956800204603B0F0BD0000054B1B68082B01BF67
:10957800044B1868B0FA80F0400918BF0020704703
:10958800300100103401001008B54FF0804300226C
:10959800C3F80C21C3F81021C3F838254FF08052C6
:1095A80003F54043D2F80414C3F82015D2F8081480
:1095B800C3F82415D2F80C14C3F82815D2F81014DF
:1095C800C3F82C15D2F81414C3F83015D2F81814AF
:1095D800C3F83415D2F81C14C3F84015D2F8201477
:1095E800C3F84415D2F82414C3F84815D2F828143F
:1095F800C3F84C15D2F82C14C3F85015D2F830140F
:10960800C3F85415D2F83414C3F86015D2F83814D6
:10961800C3F86415D2F83C14C3F86815D2F840149E
:10962800C3F86C15D2F84424C3F87025FFF79CFFE3
:1096380010B1384B384A1A60FFF796FF18B1374B0C
:10964800FB22C3F81825FFF78FFF48B13449354B83
:109658000A681B6822F00F0203F00F0313430B6024
:10966800FFF782FF18B1304B4FF400721A604FF0C9
:109678008043D3F80024D20744BF6FF00102C3F837
:1096880000242A4AD2F8883043F47003C2F888309C
:10969800BFF34F8FBFF36F8F4FF01023D3F8002223
:1096A800002A03DBD3F80432002B2FDA204B0122E7
:1096B800C3F80425D3F80024002AFBD04FF0102269
:1096C8001221C2F80012D3F80024002AFBD04FF070
:1096D80010231222C3F80422154B1A46D3F800149B
:1096E8000029FBD00021C3F80415D2F80034002B60
:1096F800FBD0BFF34F8F0D490E4BCA6802F4E062EE
:109708001343CB60BFF34F8F00BFFDE70A4B0B4AF3
:109718001A6008BD8C5600404881030000F00040E4
:10972800E40E0040580200104096024000ED00E0B0
:1097380000E001400400FA05BC2D00200090D00391
:1097480036DF70474DDF70474EDF70474FDF704799
:1097580050DF704708B50346FFF7F6FF40B91846D3
:10976800FFF7F0FF20B91846BDE80840FFF7EEBF45
:1097780008BD012810B5044602D101F0C3FF804797
:1097880001F0C6FF034668B10A2C07D00B2C07D09E
:10979800092C07D10220BDE8104018470020FAE73D
:1097A8000120F8E710BD0000012813B5044603D0D6
:1097B800032819D002B010BD02A8002300F8013D0B
:1097C800FEF7CEFD01F09EFF10B12046FFF7B8FF6F
:1097D8009DF80700FEF7E8FD01F09AFF0028E9D0A0
:1097E8000120FFF7B7FFE5E70D4BC02283F8002300
:1097F8000122C3F880211A6001F084FF20B14FF0E4
:1098080080430422C3F8042301F082FF0028D1D04A
:109818004FF080434FF46072C3F80423CAE700BFD7
:1098280000E100E038B50A4C2378054663B904F036
:1098380039FD58B90748002D18BF284601F06EFFBA
:1098480008B90123237038BD8520FCE70820FAE712
:1098580070360020CB2B030013B502A8002400F8B3
:10986800014DFEF77DFD04F01DFD50B12046FFF7C8
:1098780071FF9DF80700FEF797FD01F08BFF02B01E
:1098880010BD01F080FFF4E713B50446FFF7E4FFCD
:10989800204601F067FF04F005FD0446A0B1012051
:1098A800FFF758FF044660B901A8FFF751FF0446C7
:1098B80038B9019BDB0704D501F02AFF034620468F
:1098C8009847204602B010BD01F056FFF9E742DF85
:1098D800704743DF7047000038B5084C04F10803AF
:1098E8000546002818BF1C4623682BB11A68226059
:1098F8005B6828469847F7E738BD00BF7C360020EC
:1099080020B9054B01225A70FFF7E6BF012802D1A2
:10991800014A9070F8E770477436002020B9034B6D
:1099280001225A70FFF7D8BF704700BF7436002075
:1099380038B50B4C237883B90A486360A360236168
:10994800E36001F029FC054604F0ACFC08B901F01D
:1099580031FC01232370284638BD8525FBE700BF6D
:10996800743600200999020037B5184CA3780546CB
:1099780003F0FF029BB110B1436801209847002310
:109988000DF107008DF80730FEF7EAFCE3689DF853
:1099980007000133E360FEF707FD03B030BD0DF1AA
:1099A80007008DF80720FEF7DBFC25B12269134676
:1099B8003BB92A602561E368002BE7D101F012FC6E
:1099C800E4E79D42F7D01B68F2E700BF7436002039
:1099D80037B502A80023094C00F8013DFEF7C0FC8A
:1099E800E368013BE360E56815B901F009FCA5707F
:1099F8009DF80700FEF7D8FC03B030BD7436002090
:109A0800012813B509D003D303281BD002B010BD19
:109A18000F4B0122C3F88020F8E702A800230D4C61
:109A280000F8013DFEF79CFC23780BB9FFF780FF97
:109A3800E3689DF807000133E3600123A370FEF794
:109A4800B3FCE3E701F0B6FBFFF7C2FFDEE700BFB8
:109A580000E100E07436002037B51B4C63780546FA
:109A680003F0FF029BB110B1436800209847002320
:109A78000DF107008DF80730FEF772FC63689DF85A
:109A8800070001336360FEF78FFC03B030BD0DF1B2
:109A980007008DF80720FEF763FC25B1A26813467E
:109AA80053B92A60A5606368002BE7D104F0FAFB7C
:109AB80030B1FFF70CFFE1E79D42F4D01B68EFE7F8
:109AC80001F0AAFBDAE700BF7436002073B502A8DC
:109AD80000230D4C00F8013DFEF742FC6368013B92
:109AE8006360666836B904F0DDFB054640B1FFF7F0
:109AF800F0FE66709DF80700FEF756FC02B070BDD8
:109B080001F096FB6570F5E7743600201FB58DF8F7
:109B1800070004A8002300F8013DFEF721FC04F02B
:109B2800C1FB50B90DF107010748FFF7C7FC06480C
:109B3800FFF7B8FC08B101F0CDFE9DF80F00FEF765
:109B480033FC05B05DF804FB5023030007B520B1D2
:109B580003280BD003B05DF804FB0F4B1B78012BD7
:109B6800F8D101F0B7FE01F0BDFEF3E702A800232B
:109B780000F8013DFEF7F4FB07480378012B05D1F7
:109B88000649013001F064FE01F092FE9DF80700DD
:109B9800FEF70AFCDEE700BFD8360020159B02005E
:109BA80013B5124C2378F3B9114A002808BF1046A0
:109BB8000288A4F8012002A800F8013DFEF7D0FBB6
:109BC80004F070FB30B90B49601C01F041FE40B94C
:109BD80001F06EFE01239DF807002370FEF7E4FBF9
:109BE800002002B010BD8520FBE700BFD83600205A
:109BF800D22B0300159B02001FB503788DF80030A7
:109C080003798DF8043043798DF8053083688DF831
:109C18000630C3688DF807300369029343690393DC
:109C2800054A064B684653F8213052F821109847E8
:109C380005B05DF804FB00BFDC360020E4360020E8
:109C4800024B4FF4807043F001031847E02B0300E8
:109C58001F2886BF00F01F00044A4FF0A0420123CE
:109C680003FA00F0C2F80805704700BF000300506F
:109C78002DE9F047904606783A4A42F826803A4A53
:109C880042F826304B7B07460C46A3B30868DFF83A
:109C9800E0904FF0A04100F5E07340F20C6241F80B
:109CA8002320636803F5E073002541F82320FFF7BC
:109CB800CFFF6068FFF7CCFF236803F5E07340F23D
:109CC8000D6241F82320636803F5E0734FF0010A41
:109CD80041F82320FFF7B4FF63681F2B8ABF4A4669
:109CE8004FF0A04203F01F03D2F8102522FA03F325
:109CF800DB070DD515BBB8F1000F33461B4A2146CB
:109D080007F1040008BF0022BDE8F04702F096B84A
:109D180023681F2B86BF03F01F034A464FF0A0425B
:109D28000AFA03F3C2F80C35FFF78AFF01352068F9
:109D3800FFF78EFFFFF784FF092DCDD163681F2B36
:109D480086BF03F01F030A494FF0A041012202FA1F
:109D580003F3C1F80C35FFF773FF6068FFF778FF6E
:109D6800C9E700BFE4360020DC360020019C020071
:109D7800000300501FB503788DF800304368019345
:109D8800037A8DF80830C3680393054A054B684683
:109D980053F8213052F82110984705B05DF804FBBC
:109DA800EC360020F43600201FB503788DF800301B
:109DB8004368019383688DF80830C3680393054AA4
:109DC800054B684653F8213052F82110984705B0E2
:109DD8005DF804FBEC360020F4360020F0B5194B92
:109DE8000678DFF870E043F82620174B94460A6996
:109DF80043F826204B7F0EF806300C4607460FCC5A
:109E080089B06D460FC594E80F0085E80F001EF86D
:109E18000630049653B1BCF1000F0C4A694608BFDE
:109E28000022381D02F004FD09B0F0BDBCF1000F9E
:109E3800074A694608BF002207F10C0002F0DEFA63
:109E4800F2E700BFF4360020EC3600207D9D0200CA
:109E5800B19D0200FC36002000F1804000F51C3066
:109E680001230360BFF36F8FBFF34F8F704700006C
:109E7800064A10F0800F00F00F0314BFD2F8100547
:109E8800D2F81405D84000F0010070470070024075
:109E9800054B1B68082B01BF044B1868B0FA80F00B
:109EA800400918BF0020704730010010340100102D
:109EB800084B1B68082B08D1074B1868431E012B59
:109EC80005D9C31E584258417047002070470120E9
:109ED800704700BF300100103401001030B54C68E5
:109EE8000D689C4229BFC0E900530021E41AED180F
:109EF80032BFC0E900514C600D60934203D1201C71
:109F080018BF012030BD0020FCE74B6810B59A420D
:109F18000C6828BF1A46C0E90042981A0B684860C6
:109F2800134400300B6018BF012010BD30B54C68D9
:109F38000B68A24228BF2246002A14BF1D460025EE
:109F4800A4EB02041344C0E900524C600B6014BF38
:109F58000120002030BD0000054B10F0800FA3F158
:109F6800900208BF134600F00F0003EB0010704783
:109F78007438002010F0800F14BF0023102300F065
:109F88000F00184470470000024A00231360024A79
:109F9800137070471C7C0240FF36002007B5084A42
:109FA80000231370074A019302A81370012300F8D5
:109FB800043D054B1B68984703B05DF804FB00BFE0
:109FC800FE360020083900200439002070470000C0
:109FD800F8B54D680B4F954228BF15460C46064606
:109FE8002A460968384607F042FD60682368401B26
:109FF800C6E9007560601D440030256018BF012067
:10A00800F8BD00BF10390020F8B54C68944228BF4D
:10A01800144606460D468CB1094F09682246384653
:10A0280007F025FD37606B6874601B1B6B602B683D
:10A03800201C23442B6018BF0120F8BD0460F2E700
:10A048001039002007B500238DF804300B4BD3F8E6
:10A058002025ADF80620D3F8C034094A002B136830
:10A068000CBF4FF480714FF001210B431360054B77
:10A0780001A81B68984703B05DF804FB0070024014
:10A08800E03700200439002013B5124C0122236860
:10A0980002FA01F10B4323600F4B1B6819400306BA
:10A0A8000DD551B906238DF804308DF806008DF8CA
:10A0B80007100A4B01A81B68984702B010BD002979
:10A0C800FBD106238DF804308DF806008DF80720A3
:10A0D800EFE700BFE0370020703700200439002088
:10A0E80008B5054B1A781046FFF744FFBDE808404D
:10A0F80001461046FFF7C8BF0839002008B50146D9
:10A10800FFF742FFFFF728FF837B032B0AD108469E
:10A11800FFF730FF01218140C9430448BDE80840EA
:10A12800FEF71BBA0368002BF1D008BD703700207A
:10A138008720FFF7E3BF8620FFF7E0BF8520FFF702
:10A14800DDBF8420FFF7DABF8320FFF7D7BF822067
:10A15800FFF7D4BF8120FFF7D1BF000008B5FFF794
:10A1680013FF084B93F89E20032A06D16FF00101D4
:10A178000548BDE80840FEF7F0B9D3F89030002B49
:10A18800F4D008BDE43700207037002013B5FFF77E
:10A19800FBFE114B93F81E21032A06D16FF4807140
:10A1A8000E48FEF7DAF902B010BDD3F81041002CC2
:10A1B800F9D16FF480710948FEF7CFF906238DF8BD
:10A1C800043088238DF80630054B8DF807401B684E
:10A1D80001A89847E7E700BFE43700207037002060
:10A1E8000439002013B5FFF7CFFE0D4B93F88E20EE
:10A1F800032A13D0D3F8804084B96FF080710948DE
:10A20800FEF7ABF906238DF8043008238DF80630E5
:10A21800054B8DF807401B6801A8984702B010BD90
:10A22800E43700207037002004390020204B13B594
:10A23800D3F80044C3F80044BFF36F8FBFF34F8FC8
:10A24800BFF36F8FBFF34F8FE1050BD5194B012279
:10A258001A7002A800230193022300F8043D164B4C
:10A268001B689847A2050AD5124A002302A8019341
:10A278001370032300F8043D0F4B1B6898476305D0
:10A2880013D50C4B1A7882B100221A70084B0121A1
:10A29800C3F808155820FFF7DFFD02A80423019230
:10A2A80000F8043D044B1B68984702B010BD00BF7E
:10A2B80000700240FE360020043900202DE9F04FDE
:10A2C800744B87B01A780193002A40F08680DFF833
:10A2D800CCB1714B1968714B1C6821407DD011F0CD
:10A2E80001247DD094FAA4F4B4FA84F40F2C86BF28
:10A2F800A4F110085FFA88F844F080084046FFF798
:10A308002BFE4FFA88FABAF1000F064608F00F053F
:10A3180082896ADAD0E9003104A8984700B9306028
:10A328005F4B82221A60019B059A049801211970DB
:10A33800A140B368DBF80040134424EA0101BAF1F4
:10A34800000FB360CBF80010564B7CDA072D9BBF8B
:10A35800142101FB0533C3F8A006C3F800068CBF1F
:10A36800C3F8A426C3F80426FFF792FDAB002DB26C
:10A378006C004D4A4D49002876D0BAF1000FB4BFA1
:10A3880092468A46A2444A4C4A4E4B4FB4BF0425D3
:10A3980028251D4444F001044FF00008C6F8008049
:10A3A800BFF36F8FBFF34F8F2846FFF755FD80200F
:10A3B800A0473368002BF1D04FF4F060A0473B680A
:10A3C8009B064FD54020A047BAF8003003F18043E0
:10A3D80003F51C331B68002BDED007B0BDE8F08FF7
:10A3E80091FAA1F1B1FA81F480E7072D2D4B25D917
:10A3F800D3F8C09419F4803F18BF4FF000094B46BA
:10A408007168376804A8B847049B002B86D0059B61
:10A418004B4583D201210225A140B573C9431E488B
:10A42800FEF79BF806238DF80C30244B8DF80E8030
:10A438008DF80F501B6803A898474AE705F59471F3
:10A4480053F82190DBE7072D9BBF142101FB05334F
:10A45800C3F8A007C3F800078CBFC3F8A427C3F844
:10A46800042781E78020A9E7BAF1000FACBF2820B4
:10A4780004201844FFF7F0FC12EA2A0A38BF8A467B
:10A488003AF8153003F1804303F51C331A68002AA3
:10A49800FCD0A2E7FF36002070370020E03700200C
:10A4A8001C7C024000700240002C03001C2C03009E
:10A4B800F02B030004710240747402400439002038
:10A4C80038B5174BD3F86C44C3F86C44BFF36F8F9F
:10A4D800BFF34F8FFFF7DCFC38B1124A136823F043
:10A4E800011103F001130C43136001251CB9BDE8E9
:10A4F8003840FFF7E3BE94FAA4F3B3FA83F30F2BC3
:10A50800D9B2C8BFA1F1100005FA03F3CCBFC0B29D
:10A5180041F0800024EA0304FFF7B6FDE6E700BF38
:10A52800007002400C39002037B50446FFF72CFDB7
:10A53800FFF712FD837B032B0CD12046FFF71AFD92
:10A5480001218140C9430F48FEF707F8FFF7B6FE1F
:10A5580003B030BD0568002DF8D12046FFF70AFD8D
:10A5680001218140C9430748FDF7F7FF06238DF80D
:10A578000430054B8DF806408DF807501B6801A87C
:10A588009847E3E770370020043900200720FFF7D9
:10A59800CBBF0620FFF7C8BF0520FFF7C5BF0420C3
:10A5A800FFF7C2BF0320FFF7BFBF0220FFF7BCBF02
:10A5B8000120FFF7B9BF0000054B1A78012A01BF37
:10A5C800044A00201060187018BF0820704700BFA8
:10A5D8000037002004390020424B4FF4006273B565
:10A5E800C3F80024BFF36F8FBFF34F8FFFF760FCF2
:10A5F8003D4CA0B100230DF107008DF80730FDF7A1
:10A60800AFFE2168394B0322002965D149F2753123
:10A6180021601A6021609DF80700FDF7C5FE002340
:10A628000DF107008DF80730FDF79AFE2268304DCE
:10A63800C023002A52D149F2753222602B60226071
:10A648009DF80700FDF7B0FE264B0122C3F8002550
:10A65800BFF36F8FBFF34F8FD3F800241205FBD5DC
:10A668004FF40062C3F80024BFF36F8FBFF34F8F1E
:10A6780000260DF107008DF80760FDF771FE2268CE
:10A6880072BB49F2753323602A6023609DF8070086
:10A69800FDF78AFE174B40F2E3721A60043340223A
:10A6A8001A60BFF36F8FBFF34F8FA3F60403002127
:10A6B8008022C3F81C25C3F830150F4B40F2FF1257
:10A6C8001A600E4B1960FFF75FFC0D4B19700D4BAC
:10A6D80002221A7002B070BD1A609CE72B60AFE7C7
:10A6E8002E60D3E70070024000EC064014ED0640EF
:10A6F80014EC064000780240E03700207037002054
:10A70800083900200037002008B5104B00221A70C5
:10A71800D0B9FFF7BDFB0E4B0E4A002814BF1846F0
:10A7280010460D4B0D4AC021C2F8040383F82713C5
:10A738008021C3F8841159600123C2F80435BFF39E
:10A748006F8FBFF34F8F08BD0148EAE7FE36002040
:10A758000714E0010714C00100E100E000700240A6
:10A76800024B1878003018BF0120704700370020CE
:10A77800034B1878012894BF00200120704700BFC0
:10A788000037002037B502A8002500F8015DFDF765
:10A79800E7FD114B1B7803F0FF0493B10F4AD2F881
:10A7A8002C35BBB10E4BC2F82C55186802F58F2218
:10A7B80002F21442C02158B949F27530186011608C
:10A7C80018609DF80700FDF7EFFD204603B030BD87
:10A7D8001160F6E71C46F4E7FE36002000700240E0
:10A7E80000EC0640024B034AC3F80823704700BF39
:10A7F8000070024004148001024B034AC3F804238A
:10A80800704700BF0070024004148001014B002211
:10A818001A707047FE36002008B5FFF79DFB81814E
:10A8280008BD000070B5002833D01C4B1C7894BBC1
:10A838001B4A106001221A70264664F07F05082C16
:10A84800EDB20CBF4FF4007140212846FFF7E4FF3A
:10A858002846FFF781FB0134092C86730660866061
:10A86800EBD10024402125462046FFF7D5FF20469E
:10A87800FFF772FB0134E4B2092C8573056085602B
:10A8880001D1002070BD082C0CBF4FF4007140218D
:10A89800EAE70720F6E70820F4E700BF00370020C2
:10A8A8000439002008B5FFF757FB808908BDFFF77A
:10A8B800DFBA00002DE9F3410C460746FFF75AFBC3
:10A8C800064602A8002300F8013DFDF749FD17F0F0
:10A8D8000F0103D1284B1B78BB4249D1274A284B8B
:10A8E80012681D68D243012092B200FA06F62A4384
:10A8F800324298463ED13846FFF72EFB0C233A06E3
:10A90800844603FB01F32FD51E4A2168134401F046
:10A918006041A268B1F1005F02F001021FD1E2B903
:10A92800194ACCF8002094E8070083E80700CCF81F
:10A938000430164B002435438022CCF808408CF8AC
:10A948000E40C8F80050C3F804219DF80700FDF731
:10A958002BFD204602B0BDE8F0810D4AE1E70AB9B7
:10A968000C4ADEE70C4ADCE70C4A13440C4AD8E7E9
:10A978001024EAE71124E8E708390020E03700202E
:10A988007037002074370020139F020000E100E0B8
:10A99800359F0200D99F020011A002000437002051
:10A9A800E59E02002DE9F34207468946FFF7E2FAE1
:10A9B800044602A8002300F8013DFDF7D1FC3B073F
:10A9C80003D1164B1B78BB4224D1154B15491B6884
:10A9D8000E68DB4301259BB2A540334313EA050407
:10A9E8001AD13846FFF7B8FAD9F800300360D9F819
:10A9F800043043600C4B84603543802284730D60BF
:10AA0800C3F804219DF80700FDF7CEFC204602B0EC
:10AA1800BDE8F0821024F5E71124F3E70839002097
:10AA2800E03700207037002000E100E00048704760
:10AA380010390020044B40F48070C3F81805BFF3A8
:10AA48006F8FBFF34F8F70470070024000F00F0305
:10AA5800072B11D810F0800F084A0BBF03F5887335
:10AA680003F5847302EB830352F8230008BF586888
:10AA7800431E5842584170470020704700700240FA
:10AA8800064BC3F80C05BFF34F8F40F48070C3F832
:10AA98000C05BFF36F8FBFF34F8F704700700240F4
:10AAA80010B508220021044607F00AF80E4BD3F827
:10AAB80080242270D3F884246270D3F88824D3F8D1
:10AAC8008C1442EA01226280D3F89024D3F89414BB
:10AAD80042EA0122A280D3F89824D3F89C3442EAAF
:10AAE8000323E38010BD00BF0070024008B5FFF7E4
:10AAF800CFF958B1EFF3108272B64C20FFF7ACF9DA
:10AB08004C20FFF7A9F982F3108808BD4C20BDE856
:10AB18000840FFF7A1B9000013B5FFF735FA104B4D
:10AB28009A7B032A06D16FF480310E48FDF715FD94
:10AB380002B010BD1C6884B96FF480310948FDF774
:10AB48000CFD06238DF80430074B8DF806408DF870
:10AB580007401B6801A89847EAE7FFF7C7FFE7E740
:10AB6800E437002070370020043900205020FFF718
:10AB780073B95420FFF770B9014B1878704700BFBC
:10AB880008390020F7B50446FFF782F90746204642
:10AB9800FFF7F0F901258540ED4304F00F04184E46
:10ABA800C7B100270DF107008DF80770FDF7D8FB36
:10ABB8003068144B6400284004F2C57430600433D4
:10ABC80043F8044C1F601B689DF80700FDF7ECFB79
:10ABD80003B0F0BD0DF107008DF80770FDF7C0FB5D
:10ABE8003068072C00EA05003060EDD804F594744D
:10ABF800054B43F82470BFF36F8FBFF34F8FE3E724
:10AC0800E03700200078024000700240F7B50446A3
:10AC180002A8002300F8053DFDF7A2FB2046FFF738
:10AC28009BF905462046FFF7A5F9012314F0800F8C
:10AC380003FA00F0294917D10B6830EA03020AD059
:10AC48002046FFF79FFF0323AB739DF80300FDF732
:10AC5800ABFB03B0F0BD2A60C043214A03400B6040
:10AC6800136803401360EEE704F00F02072A0FD8B9
:10AC7800802C1C4E1C4B27D002F2DA325200326074
:10AC88001A681E68D2B242F0020232431A601B6888
:10AC9800134E0A68336862EA03070742D5D022EAEE
:10ACA8000002184300230A602B600323AB738DF85E
:10ACB80007300E4B306006228DF804208DF80640D0
:10ACC8001B6801A89847C0E740F2B47232601A685E
:10ACD8001E68D2B242F00402D7E700BF70370020E6
:10ACE800E037002000780240047802400439002050
:10ACF800FFF78CBFF7B5174B174CD3F88054236870
:10AD0800164EDA43164B37781B6892B238461A4308
:10AD1800FFF730F9012303FA00F0104202D0384659
:10AD2800FFF774FF6FF0011105F080050C483570CE
:10AD3800FDF713FC236843F00103236002A80023F6
:10AD48000193052300F8043D064B1B68984703B0A0
:10AD5800F0BD00BF00700240E03700200839002035
:10AD68007037002004390020554B2DE9F041D3F805
:10AD78000453002229461646012400297CD1FFF7F6
:10AD880087F8002869D04F4B1B78002B65D19602B5
:10AD980063D54D494C4E40F2A9730B604B4B1C6870
:10ADA80014F0FF041CBF1868044040F2AA70086041
:10ADB800186810F0FF001CBF1968084040F2AB711A
:10ADC8003160196811F0FF01B4461CBF1E6831409C
:10ADD80040F2AC76CCF800601E6834403C4E08D097
:10ADE80037682743376040F2A977CCF800701C60B9
:10ADF8001C68354F40F2AD743C601C68204008D098
:10AE0800346844EA0044346040F2AA743C60186034
:10AE180018682D4840F2AE740460186801400DD0DF
:10AE2800CC0748BF42F40002C806274840F2AB747A
:10AE3800046019601B6848BF42F00102336833F0B0
:10AE480001111CBF05F08070024313F0011F04D0EC
:10AE58006B0544BF316042F480621E4F02F4000665
:10AE680022F400044FF00108E4B9FFF727FA2EB3E3
:10AE7800BDE8F041FFF73EBF91FAA1F31648B3FAD7
:10AE880083F39F00384407683FB10660BFF36F8FB4
:10AE9800BFF34F8F04FA03F0024304FA03F321EAE5
:10AEA80003016AE794FAA4F5B5FA85F557F8253051
:10AEB80008FA05F5984724EA0504D5E7BDE8F081C6
:10AEC80000700240FF3600200078024004780240FB
:10AED8000C390020302C030000710240F8B5114EE7
:10AEE800114A34681268240C2404144301271CB93D
:10AEF80040F2FF133360F8BD94FAA4F5B5FA85F56E
:10AF0800E8B20F2DC6BF1038C0B240F0800000F084
:10AF18000F03072B01D8FFF779FE07FA05F524EA96
:10AF28000504E4E7E03700207037002010B50B4C2B
:10AF380063681B0610D5FFF7D1FF094B0022C3F841
:10AF48000425BFF36F8FBFF34F8F8022C4F884208E
:10AF58004FF0FF32C3F8082310BD00BF00E100E046
:10AF68000070024013B5FFF7E1FF154B0024D3F83A
:10AF78000423C3F80823C3F80045BFF36F8FBFF35A
:10AF88004F8FFFF701F80F4B01221A70FEF790FF61
:10AF980088B102A800F8014DFDF7E2F90A4B0B4A07
:10AFA800186850B949F275311960106019609DF838
:10AFB8000700FDF7F9F902B010BD1460F7E700BF0C
:10AFC800007002400037002000EC064014ED0640F7
:10AFD80013B502A8002300F8013DFDF7C1F9164B8F
:10AFE8001B7803F0FF043BB900249DF80700FDF728
:10AFF800DBF9204602B010BDFFF770FF0F49D1F80A
:10B00800003413F40073EFD10122C1F82C25D1F8D4
:10B01800002412F4007202D0C1F82C35E4E7084B82
:10B028000849186828B949F275321A6008601A6028
:10B03800DBE70A60D9E700BFFE3600200070024057
:10B0480000EC064014EC064010B50446FFF7DEFDA0
:10B05800134A04F00F0064B2002C4FF00103B4BF90
:10B06800D2F81015D2F8141503FA00F36FEA0303A7
:10B07800B5BF0B400B40C2F81035C2F81435BFF30A
:10B088006F8FBFF34F8F074B074A33EA240428BF5B
:10B0980014460123225C9340014AC2F8083310BDCC
:10B0A80000700240122C0300F62B0300F7B5234B67
:10B0B800234A244D47B233EA270328BF134600F03A
:10B0C8000F0401211B5D01FA03F3C5F8043306469A
:10B0D800FEF7CEFE78BB002FB4BFD5F81035D5F8F3
:10B0E800143501FA04F1B5BF19431943C5F8101511
:10B0F800C5F81415BFF36F8FBFF34F8F013C062CB3
:10B1080019D8002F17DB02A8002300F8013DFDF72E
:10B1180027F93046FFF736FD3046FEF72BFF0A4A7F
:10B12800012303FA00F0136823EA00039DF80700DF
:10B138001360FDF739F903B0F0BD00BF122C03000E
:10B14800F62B03000070024070370020030610B58C
:10B1580004460AD400F00F03072B06D89B00074AC1
:10B16800D358012B01D1FFF70DFD054BC3F8184546
:10B17800BFF36F8FBFF34F8F10BD00BF4474024001
:10B188000070024000F18040002382B00360036831
:10B198000193019B02B07047054A13792BB901212D
:10B1A800106011715371184670478520704700BFB1
:10B1B80050390020094B1A68D20706D4C02283F8F8
:10B1C80000230122C3F880211A604FF08042012336
:10B1D800C2F81835024A1370704700BF00E100E05A
:10B1E8005839002008B54FF48270FFF7CBFF4FF0B5
:10B1F80080430222C3F8042301229A6008BD00009C
:10B20800044B01221A604FF08042D2F81834DB0355
:10B21800FBD470470C00004008B54FF48070FFF76E
:10B22800B1FF4FF080430122C3F804231A6008BD20
:10B23800074B01221A604FF08042D2F80C3403F019
:10B248000113B3F1011FF8D0024B00225A71704765
:10B258000400004050390020124B1B6810B573B130
:10B268004FF48070FFF78EFF4FF080430122C3F840
:10B2780008230D4B587910B95A711B6898470B4B26
:10B288001B6873B14FF48270FFF77CFF4FF0804367
:10B298000222C3F80823044B01201B68BDE81040B4
:10B2A800184710BD0001004050390020040100403B
:10B2B80000F1804000F5C040002382B003600368BD
:10B2C8000193019B02B0704703681F2B83BF03F0F3
:10B2D8001F03036001484FF0A0407047000300506F
:10B2E80007B502AB43F8040D1846FFF7EDFF019BC5
:10B2F80000EB8300D0F8003723F44033C0F8003760
:10B30800D0F8003743EA0141C0F8001703B05DF8F0
:10B3180004FB0000054B4FF0FF32072843F82020BC
:10B3280084BF1B1883F84C20704700BF5C3900208D
:10B3380010B5174C94F85B3043BBFF21E21801337A
:10B34800302B82F82410F9D10021C8B2FFF7E2FFB0
:10B3580001310929F9D1062200210E4806F0B0FB77
:10B368000D4BC02283F806234022C3F880214FF4F6
:10B37800BE701A60FFF79CFF084B4FF00042C3F8FD
:10B388000423012384F85B30002010BD0820FCE76B
:10B398005C390020B139002000E100E00060004085
:10B3A800034B93F85B00003018BF0120704700BFC3
:10B3B8005C390020F7B5404F3B18044693F9243018
:10B3C800002B944675DA8B78C3F34003002B15BF26
:10B3D8000025082508200920854202D1042003B051
:10B3E800F0BD57F8252001324FEA850649D13819B2
:10B3F80047F825C080F8245013B97B1983F84C40CE
:10B408008B785A071BD4D8073DD502A840F8084DB9
:10B41800FFF75AFF009B00EB8300D0F8003723F0BA
:10B428000203C0F800372548E20804F0070C01239E
:10B4380003FA0CF310F802C043EA0C03835488782B
:10B4480091F800C010F002002AD006F1804303F5FD
:10B45800C0432402D3F8102522F44F3222F440725C
:10B46800C3F810254FEA0C4CD3F8102504F47C548B
:10B478000CF4403C44EA0C041443C3F81045002083
:10B48800ADE70135A8E702A84A7840F8044DFFF770
:10B498001BFF019B03F5E073920040F82320C2E7ED
:10B4A800083D3D4495F8544044EA8C1C85F854C046
:10B4B80095E7082093E700BF5C390020B1390020E8
:10B4C80073B5224C2518064695F92420072A1ADD5B
:10B4D800224492F84C309B09032B10D102A840F863
:10B4E800046DFFF7F1FE019AD0F81035D340DB0761
:10B4F80007D402213046FFF7F3FE02B070BD012BDE
:10B50800F7D00321F6E7D3B2072BF6D8930003F15F
:10B51800804303F5C043D3F8100540F00100C3F899
:10B52800100502F14000800080B2FFF7C1FE00293B
:10B53800E3D095F9243054F82330002BDDD00123D3
:10B5480003FA02F2024BC3F80423D6E75C39002061
:10B55800006000402DE9F047002488B0CDE902449E
:10B568005D4A5E4E5E4D01211368A2F5C040012B75
:10B5780080B206D1D6F804330B4202D0FFF798FE0A
:10B588000C430432AA424FEA4101EDD1554B1B68E6
:10B59800012B0ED14FF4BE70FFF78AFE4FF0A04387
:10B5A80044F00044D3F8103502934F4BD3F81035CC
:10B5B800039314F0FF0F1AD04C4F00250126344294
:10B5C80010D0AB0003F1804303F5C043D3F8100556
:10B5D800D3F8101557F82530C0F30520C1F3014101
:10B5E80003B198470135082D4FEA4606E7D1002CEC
:10B5F80031DA04AE0023049373604FF0FF33CDE9D2
:10B6080006333A4FDFF8E0904FF0010897F95430CD
:10B61800DAB2013322F0C0041DD008A8E30800EB19
:10B62800030A02F007011AF8080C08FA01F10842A7
:10B6380011D03819920990F9240057F820509DB973
:10B64800032A08D112E04FF0010A11462046A84704
:10B65800BAF1000F27D108B0BDE8F087022BFAD164
:10B66800032A33D1114619E0032A02D1F05C0843BA
:10B67800F05408A840F81C4DFFF726FE019B03F57F
:10B68800E07350F823301AF8180C0842C3F301434A
:10B69800E4D1032BDFD1032A18D102212046FFF77A
:10B6A8001FFE002DCFD14FF0A0430299D3F81025EB
:10B6B800D9F81035914202D103999942CBD0029220
:10B6C8000393049A059B069207939FE7002DC2D027
:10B6D8004FF0000AB9E700BF006100400060004079
:10B6E800206100407C610040000300505C3900206C
:10B6F80000F180431A68002A1BBF002201200020A5
:10B708001A607047014B1868704700BFB8390020AD
:10B71800014B1868704700BFC03900200F4B1A78DA
:10B72800D2B902784FF08041C2F34002C1F88025B7
:10B73800027802F00102C1F87825094A1168C907A0
:10B7480006D4C02182F800130121C2F880111160CB
:10B7580001221A700020704785207047C4390020E4
:10B7680000E100E0034B00221A60026802B11A608F
:10B77800704700BFC03900204FF080434FF460721B
:10B78800C3F8042370474FF080434FF46072C3F846
:10B7980008237047014B00221A607047C039002007
:10B7A8004FF0804310B5D3F80443620707D54FF430
:10B7B8008470FFF79DFF10B11E4B1B689847A306C6
:10B7C80008D54FF48A70FFF793FF18B11A4B002081
:10B7D8001B689847600608D54FF48C70FFF788FF00
:10B7E80018B1154B01201B689847210608D54FF45E
:10B7F8008E70FFF77DFF18B1104B00201B6898472B
:10B80800E20508D54FF49070FFF772FF18B10B4BA3
:10B8180001201B689847A3050AD54FF49270FFF7DB
:10B8280067FF28B1054B02201B68BDE81040184788
:10B8380010BD00BFB8390020BC390020C039002035
:10B8480008B5FFF7ADFFBDE80840FFF705BD0000EC
:10B8580010B5134C22780ABB124B1960037813F009
:10B86800010F114B1EBFD3F8042542F00102C3F8A3
:10B878000425D3F8002222F00102C3F800224378FD
:10B888000A4A5B01DBB282F80D334FF40053C2F869
:10B898008031136001232370002010BD8520FCE750
:10B8A800CC390020C839002000D0004000E100E079
:10B8B800064B00221A6082B01B680193019B044B5F
:10B8C8000122C3F804231A6002B0704700D1004077
:10B8D80000D00040024A0123C2F808335360704781
:10B8E80000D00040064A0123C2F808335360054BD4
:10B8F8004FF40052C3F88020034B00221A7070479F
:10B9080000D0004000E100E0CC390020074B0022C5
:10B918001A6082B01B680193019B054BD3F8080598
:10B92800044B1B68C0B202B0184700BF00D10040EA
:10B9380000D00040C83900200023435082B043584B
:10B948000193019B02B07047F0B546791F4B204F19
:10B9580043F826207500AB19FB5CA3BB90F90430B3
:10B968008C78002BDAB2A8BF03F1604C4FEA53136E
:10B97800B8BF02F00F0E4FEA4414B4BFDFF854C04A
:10B988000CF5614C4FEA8303E4B203F16043B4BFA2
:10B998000CF80E408CF8004303F56143012402F0D3
:10B9A8001F0204FA02F2C3F880211A6003680A88A9
:10B9B800C3F8082535447B190A795A707C55CA782A
:10B9C8009A700020F0BD0820FCE700BFD0390020A5
:10B9D800CD39002014ED00E0036801221A60437994
:10B9E800024A03EB43030221D1547047CD390020AA
:10B9F8002DE9F04106464FF4803400681C4D8C4018
:10BA0800C0F84843C0F8084396F805E04FEA4E0CE2
:10BA18000CEB0E072F4422F07F4297F8018001F5C6
:10BA2800A87740F82720B8F1000F11D0D0F8048586
:10BA3800F4446544A8EB0207904538BF07F1FF17A7
:10BA4800AA7838BF07F57F47BA4201DD0D200CE020
:10BA58003BB15031890089B2FFF76EFF3368C3F8F4
:10BA6800044333680020C3F84443BDE8F08100BFB5
:10BA7800CD3900202DE9F041234EDFF89480234F83
:10BA880000254FF48034D6F8043305F150018900BD
:10BA9800234289B20ED005EB08039B001B684BB10B
:10BAA800C6F848433046C6F80843FFF745FF3B68E9
:10BAB800E8B298470135042D4FEA4404E3D1124C0B
:10BAC800D4F80433DA070BD5D4F8003143B1204653
