:02000002F0000C
:100000000000042079030F0061030F0063030F0059
:1000100065030F0067030F0069030F000000000075
:10002000000000000000000000000000B1770F0099
:100030006D030F00000000006F030F0071030F003D
:1000400035600F0073030F00796C0F0073030F000E
:1000500073030F0073030F00D56A0F0073030F00C3
:1000600073030F0065620F0075620F0073030F00CA
:1000700073030F0073030F0073030F0073030F006C
:10008000897F0F00B56D0F0073030F0073030F001E
:1000900073030F0073030F009D440F0073030F00E1
:1000A00073030F0073030F0073030F0073030F003C
:1000B00021710F0073030F0000000000000000001A
:1000C00073030F0031710F0073030F00C5620F003F
:1000D0001D7C0F0073030F0073030F009D590F0069
:1000E00073030F0073030F00F9AF0F00000000004F
:1000F0000000000073030F000000000073030F00F6
:1001000000000000000000000000000000000000EF
:1001100000000000000000000000000000000000DF
:1001200000000000000000000000000000000000CF
:1001300000000000000000000000000000000000BF
:1001400000000000000000000000000000000000AF
:10015000000000000000000000000000000000009F
:10016000000000000000000000000000000000008F
:10017000000000000000000000000000000000007F
:10018000000000000000000000000000000000006F
:10019000000000000000000000000000000000005F
:1001A000000000000000000000000000000000004F
:1001B000000000000000000000000000000000003F
:1001C000000000000000000000000000000000002F
:1001D000000000000000000000000000000000001F
:1001E000000000000000000000000000000000000F
:1001F00000000000000000000000000000000000FF
:10020000364937480A1A02D0072291438D463549AC
:1002100035480A1A06D00722914381F30988022241
:1002200082F3148831483249324A00F045F83248A6
:100230003249334A00F040F832483349334A00F03B
:100240003BF833483349344A00F036F833483449F0
:10025000344A00F031F834483449354A00F02CF87B
:1002600034483549354A00F027F8354835490022E9
:1002700000F02DF834483549002200F028F83448C1
:100280003449091A082903DB0022026004300160A6
:10029000314A90471F482049884205D002680430FF
:1002A00003B4904703BCF7E700208646EC460020E5
:1002B00000212A4A9047FEE7884207D0521A05D00B
:1002C000037801300B700131013AF9D1704788424F
:1002D00002D002700130FAE77047000000000420ED
:1002E00000F00320000004200000042094CB0F0045
:1002F000E057002032580020D8030F00D8030F0029
:10030000B8C10F0094CB0F00E0570020E057002049
:100310007CC20F007CC20F007CC20F007CC20F00A9
:100320007CC20F007CC20F007CC20F007CC20F0099
:1003300094CB0F00E8CB0F00345800203458002035
:100340003458002080BE002080BE002080BE0020E7
:1003500080BE002080BE0020A1030F0001740F00AA
:10036000FEE7FEE7FEE7FEE7FEE7FEE7FEE7FEE765
:10037000FEE7FEE7704700BF1048804710484FF087
:100380000701884385460F4880470F48016841F4BC
:1003900070010160BFF34F8FBFF36F8FFFF730BF66
:1003A0000A480B490B4A884207D0521A05D00378F5
:1003B00001300B700131013AF9D1704775030F001C
:1003C0000000042045800F0088ED00E054C20F00BB
:0803D000B8570020E05700209F
:1003D80012F0030310B511D1094C22604C1CE40043
:1003E800A4B22244074C2260074A1370074A1370CC
:1003F800074A1080074A1846118010BD0720FCE7FD
:100408003C58002038580020345800204458002018
:1004180040580020425800202DE9F3472B4D2B88E7
:100428008B4206460C4617464BD302A84FF00008ED
:1004380000F8018D00F088F8254B264A18781178C5
:10044800CBB2254909888B4238BF0133C0B238BFC7
:100458005FFA83F840452ED092F800801378DBB21B
:10046800994286BF0133DBB2002313709DF8070061
:1004780000F08EF84FF6FF73984524D0DFF860A09F
:10048800DAF800304FEAC80903EB090243F838707C
:10049800A6B19CB1114B28881B68224608FB003086
:1004A80031460BF061FADAF800304B4400209C80AA
:1004B80002B0BDE8F0874FF6FF78D7E700209080BC
:1004C800F6E70920F4E70420F2E700BF40580020CF
:1004D8004458002034580020425800203858002042
:1004E8003C580020F8B5124C124D264622782B783D
:1004F8009A4200D1F8BD23780F48104A078812683D
:100508000F48DBB219B202EBC10C006852F8312077
:10051800BCF8041003FB070090470A4A23781288A6
:10052800DBB29A4286BF0133DBB200233370DDE7CA
:100538004458002034580020405800203C580020DF
:10054800385800204258002070B5EFF3108672B674
:100558000C4A946801239CB993600B4B0B4DD3F85C
:10056800801029401160C3F88050D3F8841051607E
:100578004FF0FF32C3F88420047006B962B670BD2C
:100588000370FAE74858002000E100E0FC06FFBDD0
:10059800084B9A6810B55AB150B9EFF3108172B68A
:1005A800054A1C6814605C685460986001B962B6BA
:1005B80010BD00BF4858002000E100E030B53AB156
:1005C8001368DB430B4C0144884204D1D84330BD47
:1005D8004FF0FF33F6E710F8012B5340082213F0D1
:1005E800010F14BF25460025013A85EA5303F6D1C9
:1005F800EAE700BF2083B8ED10B561B1B2FBF3F4B0
:1006080003FB1424A4B244B9C0E9001484608281B5
:10061800C381204610BD0E20FCE70920FAE782B00E
:1006280050E8022FC188B2EB324F4FF0000317BFDA
:1006380092B241EA014142EA014104E04268B2EB68
:10064800324F08BF012340E80212002AE8D18DF892
:1006580007309DF80730002B0CBF1120002002B096
:10066800704737B550E8013F9DB2C4892544848955
:10067800A54228BF2D1B0489A54202BFBFF32F8FB7
:10068800002207E0C5EA030540E80154002CE9D13F
:100698004FF001028DF803200193019B9DF8032080
:1006A8000B6002F0FF0322B10B880068184403B006
:1006B80030BD1846FBE70A884B889A4209D150E8B2
:1006C800012FC2EA024240E80123002BF7D10120A2
:1006D80070470020704737B550E8023F1FFAA3F56E
:1006E800C488A54202BFBFF32F8F00220DE0C48942
:1006F80025448489A54228BF2D1BC3EA054540E847
:100708000254002CE8D14FF001028DF80320019328
:10071800019B9DF803200B6002F0FF0322B14B8878
:100728000068184403B030BD1846FBE70A884B88B8
:100738009A4209D150E8022FC2EA224240E8022335
:10074800002BF7D1012070470020704750E8002F98
:100758000B4640E8003C9CF0000FF7D1104670476C
:1007680050E8002F42EA010340E8003C9CF0000FEB
:10077800F6D11046704750E8002F02EA010340E81E
:10078800003C9CF0000FF6D11046704750E8003F3F
:1007980003EA010240E8002C9CF0000FF6D1104655
:1007A800704750E8002F02EB010340E8003C9CF042
:1007B800000FF6D11046704750E8003F03EB0102E6
:1007C80040E8002C9CF0000FF6D11046704750E826
:1007D800003FA3EB010240E8002C9CF0000FF6D18B
:1007E800104670470121FFF7BBBF0021FFF7C3BFC9
:1007F8000021FFF7CBBF10B590B1D0E90123016804
:100808009B1ADBB20A60013BDBB2FF2B026802D104
:100818000020107110BD11684C1C14600B70F2E7B9
:100828000E20F7E737B5054602A8002400F8014D69
:10083800FFF78AFE2A686B68116899420ED9481E2C
:10084800106011F8014CEB68298A01FB0434AB688D
:1008580011791B1ADBB2994238BF13719DF8070052
:10086800FFF796FE204603B030BD37B5054602A80F
:10087800002300F8013D0C46FFF766FE2A6813685E
:10088800591C1160E968641A298AB4FBF1F41C70D8
:100898009DF80700FFF77CFE03B030BD01600B68D0
:1008A8001146184710B40468E468A4465DF8044B80
:1008B800604710B404682469A4465DF8044B604797
:1008C8002DE9F04108B10368C3B90E4E0E4B14224E
:1008D8009B1B0024B3FBF2F3374602FB03F5A5424A
:1008E80001D1002008E03B5930190BB91434F6E760
:1008F800DB6998470028F9D0BDE8F081DB69BDE8DD
:10090800F0411847B8570020E0570020014B4360DA
:10091800002070477CC20F000846704700207047CF
:10092800024B1868003018BF012070475458002047
:1009380008B50248FFF75CFF002008BD54580020A6
:1009480008B510461A460BF00FF8002008BD000045
:100958002DE9F041804686B013480E4615461F46DD
:10096800FFF740FF044630B1112018E006EB0430D1
:1009780003F06CFE0134A542F8D10B48FFF738FFAD
:10098800D8F8083000246BB1022268468DF80020A0
:10099800CDE90146CDE9034505979847204606B0BD
:1009A800BDE8F0811846FAE7545800202DE9F041D7
:1009B800804686B012480F4616461D46FFF712FFBE
:1009C8000446D8B9AA083146384603F057FE0C4801
:1009D800FFF70EFFD8F8083073B101228DF8002018
:1009E8000C9A05926846CDE90147CDE90365984719
:1009F800204606B0BDE8F0811846FAE71120F8E76E
:100A08005458002029DF704728DF704770B5036805
:100A18009D6886B004460E466DB1142200216846D2
:100A28000AF0CBFFA3680593237901962BB1012B1C
:100A38000DD06846A84706B070BD01238DF8003078
:100A480023690293E368039363690493F1E702233C
:100A58008DF80030E3681B030293F5E708467047FA
:100A680000207047024B187A003018BF01207047E9
:100A7800445A0020034B187A0122B0FA80F05A74C5
:100A880040097047445A002008B510461A460AF033
:100A98006BFF002008BD000008B51422002104489F
:100AA8000AF08BFF0348FFF7BAFD002008BD00BF1E
:100AB800445A0020345A002010B5094C094B4360B1
:100AC8002046FFF78FFE48B903F0CAFC1C232074A8
:100AD8004FF4EE7204490548FFF78EFD002010BD63
:100AE800445A0020A8C20F0058580020345A002049
:100AF80070B5244D244E2B7A2C463BB92349244803
:100B0800FFF7E9FD306008B9686070BD0223237201
:100B180033681A7972B1012A24D018460321FFF7E5
:100B280075FF00232372636018491948BDE87040B7
:100B3800FFF7FCBDD3E90520121AB2F5805F28BF84
:100B48004FF48052D3E903159208012A014438BFB3
:100B580001222844FFF756FF50B11128DDD10123A7
:100B68002372D2E7D3E903021044FFF74DFFF3E7FE
:100B7800237C002BC9D10146BDE87040022000F05B
:100B880009B800BF445A00205C5A0020585A002077
:100B9800345A002038B5831E012B45D8234C237ABC
:100BA800002B41D0022B09D1032830D0204B1B68E1
:100BB8000022E2601A793AB1012A22D0637C7BBB19
:100BC800BDE83840FFF794BFD3E905128D1AB5F593
:100BD800805F94BF521902F580529A619142EDD11B
:100BE80002284FF0000308BF19462372104B18BFA4
:100BF8000D211868FFF70AFF0E490F48FFF796FD09
:100C0800DCE71A6901321A615B699A42E7E7E3682F
:100C18000133082B01D8E360D0E70023E360DFE766
:100C2800BDE8384003F00CBC38BD00BF445A002072
:100C38005C5A0020585A0020345A002000F0FD0366
:100C4800012B08D1044B00225A74421E50425041D5
:100C58001874FFF74DBF7047445A002010B5064C72
:100C6800201DFFF7BFFD28B9637C1BB9BDE8104004
:100C7800FFF73EBF10BD00BF445A00202DE9F341E5
:100C880080460D460F4801A916461F46FFF7E9FCA6
:100C98000446A8B11C2200210AF08FFE2D0B012367
:100CA800237101A9C4F80080A760E5606661054862
:100CB800FFF701FDFFF7D2FF002002B0BDE8F08189
:100CC8000420FAE7345A00202DE9F7438146884684
:100CD800104801A917461E46FFF7C3FC0446B0B1E9
:100CE8001C2200210AF069FE00250A9BA36001A9C5
:100CF8002571C4F80090C4E9037866610548FFF7D8
:100D0800DAFCFFF7ABFF284603B0BDE8F083042008
:100D1800FAE700BF345A00200B684A6843609342E0
:100D280008BF0023016008BF43607047436843B1B0
:100D38000268916852680B449342436004BF0023E1
:100D480043607047F0B578B371B36BB300241C608F
:100D58000A44DB274FF0DC0C4FF0DD0E1C688A429A
:100D680004F1010500EB040604D11D60C0233370B3
:100D78000020F0BD0E78C02E05D0DB2E0CD01D60F3
:100D88000D78055506E01D6007551C68651C1D603B
:100D980000F804C00131E1E71D6006551C68651CB8
:100DA8001D6000F804E0F5E70E20E2E710B588B30F
:100DB800D0E9023293422FD00278012A10D003D30F
:100DC800022A21D0112012E0C02927D0DB2902D124
:100DD80001230370F6E742685C1C8460D154F1E794
:100DE800DC2905D0DD290AD0022303700B2010BDB1
:100DF800591C42688160C021D1540023E9E7591C7D
:100E080081604268DB21F7E7C029DBD1002303704A
:100E18008360D7E70E20EAE70420E8E70020E6E74A
:100E280043681B6818470000024B5B6803B118470A
:100E3800704700BF605A0020020600F00F034CBF45
:100E480002480348DB001844704700BF6C5A002072
:100E5800B45A002008B5FFF7EFFF016009B94160F7
:100E680008BD4B681B684360FAE70000024B014667
:100E78005A681868104700BFB45A00200378052B39
:100E88000CD1084AD2F88434D2F8802412F0FF0F2B
:100E980004D1054ADBB2052B08BF1046034B1B687B
:100EA800184700BF00700240ECC20F00605A0020D3
:100EB800012806D002D3022805D070470348FFF75F
:100EC800DDBF0348FBE70348F9E700BFE0C20F00B6
:100ED800E4C20F00E8C20F00FFF7D0BF0148FFF7D8
:100EE800CDBF00BFF0C20F0038B5831EDBB2062BA2
:100EF80098BF194A194C98BFD25C2378A3F1020312
:100F0800DBB288BF0022062B9ABF1349CB5C0023B3
:100F18009342054603D0A2B1114803F093FC022D79
:100F280001D0082D10D101232278022A01D0082AE5
:100F38000CD101229A4202D053B104F073FA257001
:100F480038BD03F0B9FCEAE70023EDE70022F1E73A
:100F580004F05EFAF3E700BFD4C20F00055B00207F
:100F6800E05700202DE9F04F87B006AC002644F882
:100F7800106D05468946924698466B6800225F6860
:100F8800294601232046B84740B98DF80600049049
:100F980004460746BE4203D805202AE00136ECE79E
:100FA8006B680DF10602D3F804B02946012304A8A2
:100FB800D8476B680DF10702D3F804B0294601231E
:100FC80004A8D8479DF807304B459DF8063015D141
:100FD800544511D1109A136088F8003088F80190B0
:100FE8006A68023B5468294608F1020204A8A0472F
:100FF800002007B0BDE8F08F0134E4B26A68023B14
:10100800D2F804B02946002204A8D8479DF8063033
:101018001F44BFE72DE9F74305462E4804F018FAA8
:10102800044600283AD12C4B18702C4B18602C4BD6
:101038000146186048222B480AF0BFFC4822214686
:1010480029480AF0BAFC294B65BB294A1D72C3E935
:1010580000251A680AB9264A1A60002003F0BEFC67
:1010680018B1852801D006F0C4F9224E96F80890E8
:10107800002506F10908ECB2A14504D904EB4404A3
:1010880014EB080423D102A90B2301F8043D1948E5
:10109800FFF7C6FE044608B104F0A4F8204603B0E2
:1010A800BDE8F08395E8070083E80700D1E73146FB
:1010B800E05CFFF7CFFE6378FAB2934205D9A378D4
:1010C8001344DC4207F10107F1D10135D3E70027CA
:1010D800F1E700BFE10E0F00055B0020FC5A00207D
:1010E800005B00206C5A0020B45A0020605A00208F
:1010F8002D140F00F8C20F0010B504F047F908B915
:10110800082010BD04F04AF904460028F8D1044824
:1011180003F096FC0028F4D006F06BF92046F0E7BF
:10112800DCC20F0004F06EB804F032BD4FF080430B
:10113800D3F83824920702D50348FFF79FBED3F8A7
:101148003824D107F4D47047F1C20F0007B502A8BC
:10115800822300F8043DFFF791FE03B05DF804FB1D
:101168002DE9F341037A00F109040325064615FB2E
:1011780003452746AC4231D01CB394F801800021C6
:1011880006E0E05CFFF758FE03680131002B36D11A
:10119800CBB2984503D9A3780B44DC42F1D1033490
:1011A800E8E73146E85CFFF755FE6A785FFA88F3AE
:1011B8009A4205D9AA781344DD4208F10108F0D112
:1011C8000134337AE5B2AB4203D905EB45057D1905
:1011D80001D10C4B05E04FF00008E6E70024F0E7EA
:1011E80013681A68002AFBD102A91E600B2301F8B4
:1011F800043D3046FFF714FE02B0BDE8F08111202F
:10120800FAE700BFFC5A0020024B1878003018BFDC
:1012180001207047045B002000F00F03072B10B576
:10122800044604D804F042FA204604F0A5FD2046FE
:10123800BDE8104004F050BD04F01CBD014B186817
:10124800704700BFFC5A002070B50A4B1B687BB181
:101258001E7A0022D5B2B54201D31B68F6E70132E7
:1012680002EB42041C44A4798442F3D101B10D700D
:10127800184670BDFC5A00201146FFF7D1BD08B5CD
:1012880000F00F03082B07D8FFF7D6FD006818B148
:10129800BDE80840FFF7C4BD102008BD38B5054BB0
:1012A80005461C6804B938BD29462046FFF7B8FD35
:1012B8002368F6E7FC5A002038B5074B05461C683A
:1012C8000CB9062038BD29462046FFF7A9FD062897
:1012D800F8D12368F3E700BFFC5A002038B504466C
:1012E8000D4604F0FAF848B1054B1B78022B05D1DE
:1012F80029462046BDE8384004F0F2B8082038BD39
:10130800055B002038B504460D4604F0E6F848B100
:10131800054B1B78022B05D129462046BDE83840ED
:1013280004F056B9082038BD055B0020F8B54368BD
:101338009B6805460C46164613B92EB1072002E0F5
:1013480098470628F9D0F8BD2B7AA34213D9093556
:1013580004EB44042C446778F3B29F4201D8002080
:10136800F1E762789A4208D9A219A378D05CFFF70E
:1013780053FF0136F0E77378FFDE00231B78FBE7A5
:101388004368DB6870B505460C4603B198472B7A6D
:10139800A34213D9093504EB44042C44002566788C
:1013A800EBB29E4200D870BD62789A4209D96219A0
:1013B800A378D05C04F05EFC0135F1E700235B788C
:1013C800FFDE00231B78FBE743681B6903B118475E
:1013D8001846704770B5084B1C6804B970BD267A6A
:1013E8000025E9B2B14201D32368F5E7002220467F
:1013F800FFF79CFF0135F4E7FC5A002070B5084B55
:101408001C6804B970BD267A0025E9B2B14201D33F
:101418002368F5E72046FFF7B3FF0135F5E700BF7E
:10142800FC5A002038B50478092C054620D023D86A
:10143800032C00F0BC8012D8012C00F0A68040F2EA
:101448008D800320FFF750FD0220FFF7EDFC2846B2
:10145800FFF724FF2846BDE83840FFF707BD052CF5
:10146800F8D0C0F0B380062C00F0BF80082C13D150
:101478002046FFF7D9FC95E0812C0ED005D80F2C1B
:10148800F6D0802C44D00A2CF1E7832C4CD021D301
:10149800842C53D0852CDDD038BD5E48FFF7E6FCA0
:1014A8005C48FFF7FBFE0D20FFF7BEFCFFF7A6FF29
:1014B80000F067F9584B1B6853B9584B187A00F07D
:1014C800010003F037FF0120BDE83840FFF70CBDED
:1014D8000120F4E7FFF792FF04F03EFB0020FFF73E
:1014E80003FD4F48FFF7DAFE4D48FFF7BFFC0E201B
:1014F800FFF79AFC4B4B1B78023BDBB2062BCBD891
:10150800494AD35C002BC7D0BDE8384003F0D4B9B2
:10151800444B1B78062B05D0072B01D0052BBBD1DC
:101528000220D1E70820CFE73E4B1B78032BB3D12D
:1015380004F064FB0028AFD00420C5E7394B1B78C2
:10154800032B05D104F05AFB10B10420FFF7CCFCA3
:1015580003F02EFF00289FD00620B5E7314B1B78FB
:10156800032B01D0082B02D13048FFF75BFF002086
:10157800FFF75AFC284B1C68002C8DD020462946C2
:10158800FFF74EFC23685C68F6E7FFF737FF00F0CB
:10159800EFF80220FFF7A8FC2046FFF745FC284695
:1015A800FFF764FC2846BDE83840FFF777BE1D4BBF
:1015B8001B78082B06D10220FFF796FC03F03CFFAE
:1015C8000320EAE70520FFF78FFCF9E70320FFF780
:1015D8002BFC1748FFF74AFC1548FFF75FFE114B35
:1015E8001B78062B9CD107206EE78078FFF724FC38
:1015F800294643680068984700283FF44DAFA8780B
:1016080000F00F03013B062B3FF646AFBDE838401C
:1016180004F026B8F2C20F00005B0020605A0020D8
:10162800F3C20F00055B0020D4C20F00F4C20F0004
:10163800F5C20F00002070472DE9F04F4B6887B0C6
:1016480081460C4602925BB90B681B681B683BB964
:101658008D682DB9C0E90055284607B0BDE8F08F60
:1016680003F0FAFFE768029B9F4228BF1F464FF02E
:10167800000804F1100383460197464601250393A9
:10168800019B002B2DD0A368019A616893429A466A
:1016980028BF924641B352460BEB06000AF064F9A4
:1016A80000236360A268E3680199A2EB0A02A3EB36
:1016B8000A03A1EB0A01A260E360019156440ABB48
:1016C800B8F1000F38D02268126812682260002B27
:1016D80030D02368D3B963601EB1029BB34288BF80
:1016E8000025C9E900B6B7E7002BDBD021680398CD
:1016F8004B680BEB0602D3F804805346C0474FF003
:101708000108CFE7002B08BF0025B9E70DF1180A3B
:1017180000234AF8083D21684B685B6800221F4691
:1017280050460123B84708B92061A9E7A3680133E7
:10173800A360F0E71D46A3E7002BCAD145469FE703
:10174800084B1A7882420CD0052818BF064A187030
:1017580018BF137805481CBF23F002031370FFF766
:1017680061BE7047145B0020305B002008C30F0087
:1017780008B50020FFF750FD8020BDE80840FFF7BE
:101788004BBD08B50020FFF757FD8020BDE8084095
:10179800FFF752BD38B505460C4604F003F8A842D9
:1017A80005BFD4E90001034B1020C3E9000108BFBD
:1017B800002038BD345B00207FB5C38893421D46A6
:1017C80028BF154693420E46144624D9802003F0BC
:1017D8007FFEB4FBF0F303FB1040B0FA80F0400941
:1017E800039004A8002300F80D3DCDE90165FEF73C
:1017F800ABFE01A98020FFF771FD044620B9074917
:101808008020FFF7C7FF04469DF80300FEF7C0FEDF
:10181800204604B070BD0020E2E700BF3CC30F00C3
:101828002DE9F04F0C78062C87B00E4600F00082A8
:1018380020D8022C3DD003D8012C32D00624F1E167
:10184800032C32D0052CF9D10DF10D00B24D8DF8D5
:101858000C4003F03BFF00232B609DF80D3003F094
:101868001F02032A00F28881DFE812F02D0022010E
:101878007D0165000D2C00F0C98107D80B2C18D00C
:101888000C2CDBD10020FFF75BFF12E00E2C00F0E0
:10189800CD81852CD2D1A14B1B78032BCED104202E
:1018A80000E00320FFF74CFFC8E79D48FEF79DFFC7
:1018B80008B90024B6E19B4B01221A60BFF36F8F71
:1018C800BFF34F8FF5E7C3F34116A6BBDB099DF8BD
:1018D8000E1000F0A680062916D0082900F0948082
:1018E80049BB914C022220460AF067F8237843F05E
:1018F800010222708D4A1278910744BF43F0030316
:101908002370022288490EE09DF81030022B16D071
:10191800032B69D0012B0ED1BDF81330002B00F03A
:101928007281834912220DF10D00FFF745FF04462D
:10193800062C40F0298103A8FFF7BEFC11E1BDF891
:101948001370002F00F05F81092F28BF0927FFF7C8
:1019580075FC4FF009080446B14674BB724C7549D2
:101968003A4620460AF000F82671A4F80280FFF7EC
:101978004BFC18B1E37943F02003E371FFF75EFCF9
:101988006D4BC3E900049F60BDF81320DA6001A81D
:1019980000238DF80430FEF7D7FD68498020FFF753
:1019A800B1FC044620B966498020FFF7F3FE0446DF
:1019B8009DF80400FEF7ECFDBAE7CDF804904FF06F
:1019C800000A63680022D3F804B02146012301A865
:1019D800D84730B9237A1E442368D044F6B21C682D
:1019E800BBE70AF1010AECE7BDF81330002B00F061
:1019F8000A81BDF811109DF80F0000F095F9014615
:101A0800002898D002788EE7444A1278052A03D134
:101A1800454A1370012275E7042A8CD1424B1E7087
:101A2800F8E7032910D009292CD0012983D1BDF862
:101A38000F30012B7FF47FAFFFF7E6FB60B13B4A25
:101A4800137823F002030FE0BDF80F30012B7FF469
:101A580072AFFFF7D9FB18B90F2403F0A0FEE1E03D
:101A6800324A137843F0020313702B68002B00F0FE
:101A7800CA8003F097FE044600287FF41AAF03F0EB
:101A88004BFECFE0254B1B78043B012B01D90824E2
:101A9800E3E79DF80F302BB9FFF7B0FC0420FFF700
:101AA8004FFEE2E7012B55D1FFF794FC0520F6E73E
:101AB80001A99DF81100FFF7C7FB074608B91024D4
:101AC800CBE703AA9DF80410FFF7D6FB06280446C7
:101AD8005AD19DF80D2012F0600FBED10F4B9DF822
:101AE800041018789DF80E30D6092BD073B10A2B44
:101AF800B3D10528CBD13846FFF766FC0A493246F0
:101B080008700DF10D00FFF757FE2AE00528BED139
:101B180005490B800222F4E7345B0020145B0020A7
:101B28003C5B00205C700240405B0020305B002082
:101B380028C30F0009C30F00185B002044C30F001F
:101B48003CC30F000B2B88D10528A0D1BDF80F305E
:101B5800FF2B01D9072480E79DF80F203846FFF7AF
:101B6800E5FB044610E09DF81100020706D19DF838
:101B78000D3013F0600F0BD006246EE703A9FFF7B2
:101B88007EFB06280446F2D0002C3FF46EAF64E7D3
:101B98009DF80E20384B9DF811401B78012A1ED065
:101BA80012D3032AE8D104F00F02072AE4D8BDF8BB
:101BB8000F100029E0D1052B02D0002A7FF467AF6F
:101BC800204603F04DFD50E7052B02D023077FF494
:101BD8005EAF204603F050FD284908809AE704F0DC
:101BE8000F02072AC8D8BDF80F100029C4D1052B49
:101BF80002D0002A7FF44BAF204603F057FD204661
:101C080004F0BAF831E703F0C7FD52E64FF080431D
:101C1800D3F8384414F0010401D0022033E601203F
:101C2800FFF78EFD204607B0BDE8F08F01202AE6B9
:101C3800C8780328F6D0124D2B68D3B100222A6049
:101C480069689847044600287FF407AF2B6823B1DA
:101C5800B378002B7FF42DAE11E70A4B1B68082BD5
:101C680004D1094B1B68002B3FF423AE03F094FD0D
:101C7800D8E70E24F1E600BF145B0020405B00208B
:101C8800345B0020300100103401001008B14023FB
:101C980003600148704700BF405B002070B54FF0FB
:101CA800805286B0D2F8A830D2F8A42000926FEA09
:101CB80083436FEA934302AD9BB2094A094E0D2153
:101CC800284609F02DFE0024284609F0A9FE844282
:101CD80001D306B070BD2B5DA3550134F4E700BFF6
:101CE8004CC30F00805B002010B50E4B53F820400A
:101CF80023780BB9A01C10BD0020FFF7C7FF2246B0
:101D0800E4B2131B12F8011BDBB231B901335B00DB
:101D1800DBB243F440730380EDE7131BDBB220F81A
:101D28001310EEE7A4C30F0008B9FFF7DDBF0528BD
:101D380007D8054A105C20B1044B53F82030002B1B
:101D4800F3D10020704700BFBCC30F00A4C30F002D
:101D5800C36903B118477047036800221A845A629E
:101D6800DA62C3E91E22C3E9202203F134025A676A
:101D78007047CA699A4210B543600CD38C690460F5
:101D8800086F18440867D01A1C44C86100308C6179
:101D980018BF012010BD01F1280202608B670020E6
:101DA800F8E70000F0B5BB4D0C7A2C700468B4F568
:101DB800517F00F0CA8200F2DA8040F22636B4423F
:101DC80000F03E826DD840F21636B44200F0FB8136
:101DD80026D840F21336B44200F0DA81B4F5457FD4
:101DE8000BD2002C00F0C28140F21236B44200F04F
:101DF800C581002303601846BFE100F0D78140F297
:101E08001536B442F5D100240AB1067916550134C5
:101E180002269C420671C0F0D78140F21633AAE12F
:101E280040F21936B44200F0E78114D840F2173670
:101E3800B44200F0D481B4F5467FDAD100240AB167
:101E480006791655013400269C420671C0F0D581EA
:101E580040F219338FE1B4F5487F00F0E48140F295
:101E68002136B442C5D100240AB1067916558A4EE6
:101E78000F7A3678DFF824C2B74204F1010440F241
:101E8800548301F1090706EB460607EB060E9C4250
:101E9800BE5DCCF800E00671C0F0D38140F2263375
:101EA80069E140F23336B44200F00982B4F54D7F5F
:101EB80038D2B4F54B7F00F0DE811CD840F22736CB
:101EC800B44200F0C981B4F54A7F92D100240AB126
:101ED80006791655714E0F7D36683678B74204F18B
:101EE800010440F0E18102269C420671C0F0C481E1
:101EF8004FF44B733FE140F22D36B44200F0C781F6
:101F080040F22E36B4427FF474AF00240AB1067949
:101F1800165501340026A342067100F2EA814FF4F7
:101F28004F7328E1B4F54F7F00F0E28106D8B4F58D
:101F38004D7F00F0D08140F23536E3E740F242367B
:101F4800B44200F0EA8100F2F48140F24136B44232
:101F58007FF44FAF00240AB10679165501342426C0
:101F68009C420671C0F0DA8140F2423303E140F24C
:101F78005636B44200F053826AD8B4F5537F00F065
:101F88001C8232D840F24936B44200F0FD8115D89F
:101F980040F24536B44200F0E481B4F5527F7FF454
:101FA80028AF00240AB106791655013424269C422C
:101FB8000671C0F0EA8140F24933DCE040F24A366B
:101FC800B44200F0ED8140F24B36B4427FF411AFD9
:101FD80000240AB10679165501348E7D06719C429B
:101FE800C0F0EC814FF45373C5E040F25136B4426F
:101FF80000F0FC8115D840F24F36B44200F0E98178
:10200800B4F5547F7FF4F5AE00240AB1067916556D
:10201800013402269C420671C0F0E98140F2513336
:10202800A9E040F25236B44200F0EC8140F2553655
:10203800B4427FF4DEAE00240AB1067916550134A5
:1020480024269C420671C0F0EB8140F2563392E0A0
:1020580040F27236B44200F0278246D840F2593630
:10206800B44200F0F5811BD840F25736B44200F074
:10207800E281B4F5567F7FF4BCAE00240AB106793C
:10208800165501348E7D06719C42C0F0E28140F203
:10209800593370E08F5B00208E5B0020945B00203A
:1020A80040F26D36B44200F0F28140F26E36B4422E
:1020B8007FF49FAE00240AB106791655AF4EB04F93
:1020C80036683F7896F801C0BC4504F1010440F237
:1020D800318296F802C03E449C4216F80C600671A4
:1020E800C0F0E38140F2723345E040F28336B442F7
:1020F80000F0FA81B4F5617F14D240F27736B44229
:1021080003D0B4F55F7F7FF474AE00240AB106797A
:10211800165501344026A342067100F2E68140F2CA
:10212800833328E040F28936B44200F0F48140F26B
:102138008E36B44200F0EF81B4F5617F7FF459AE7A
:1021480000240AB1067916558C4E0F7D366836780C
:10215800B74204F1010440F0D4810E6A9C423678FB
:102168000671C0F0D98140F2893304E00824047173
:1021780023B940F2123303600120F0BD0AB104799B
:1021880014700B24012B04710ED840F21333F2E7BC
:1021980000240AB10679165501340E7D06719C4259
:1021A80005D34FF44573E6E70124F2E700240AB1AA
:1021B80006791655013402269C420671FFF424AEB6
:1021C80040F21533D7E700240AB1067916550134D1
:1021D80002269C42067103D340F21733CBE7002452
:1021E8000AB10679165501344E7E06719C42FFF4F9
:1021F80026AE4FF44673BEE700240AB10679165599
:10220800604E0027013437705E4E37782E78B7421B
:1022180002D340F29933AEE70926A342067103D8E8
:102228004FF44873A7E700240AB10679165501341C
:1022380004269C420671FFF417AE40F221339AE758
:1022480000240AB106791655013400269C4206710D
:1022580003D340F227338EE700240AB106791655D6
:10226800464E36680134767806719C42FFF42FAEEC
:102278004FF44A737FE700240AB1067916550134F2
:1022880002269C42067103D340F22D3373E70024E3
:102298000AB10679165501344E7E06719C42FFF448
:1022A80035AE40F22E3366E78F7DB7427FF432AE0B
:1022B8000A269C42067103D340F233335BE70024BD
:1022C8000AB106791655013400269C42067103D3DB
:1022D8004FF44D734FE700240AB1067916550134BF
:1022E80000269C420671FFF411AE40F2353342E7F6
:1022F80000240AB106791655204E0F7D36683678C7
:10230800B74204F1010440F0A88005269C420671FA
:10231800FFF421AE40F241332DE700240AB10679DB
:102328001655013400269C42067103D340F243330C
:1023380021E700240AB106791655013410269C427B
:10234800067103D34FF4517315E700240AB10679D7
:102358001655013401269C42067103D340F24533D9
:1023680009E700240AB106791655013405269C426E
:102378000671FFF417AE4FF45273FCE6945B00202D
:10238800905B00208E5B002000240AB10679165568
:10239800013401269C42067103D340F24A33EAE62F
:1023A80000240AB106791655013403269C420671A9
:1023B800FFF40FAE40F24B33DDE600240AB1067994
:1023C8001655013404269C42067103D340F24F335C
:1023D800D1E600240AB106791655013424269C4218
:1023E8000671FFF412AE4FF45473C4E600240AB128
:1023F80006791655013402269C42067103D340F231
:102408005233B8E600240AB1067916550134052678
:102418009C420671FFF410AE40F25533ABE600243F
:102428000AB106791655013406269C42067103D373
:1024380040F257339FE600240AB106791655013455
:102448000E7D06719C42FFF419AE4FF4567392E666
:1024580000240AB1067916550134374E3668777864
:10246800364E3770364E00273770354E3778334E34
:102478003678B74204D3334F3E7801363E70C3E610
:102488000726A342067103D840F26D3373E6002491
:102498000AB106791655013405269C420671FFF4E7
:1024A8000AAE40F26E3366E600240AB10679165584
:1024B800214E0F7D36683678B74204F1010407D102
:1024C80003269C420671FFF421AE40F2773352E6B0
:1024D8008F7DB7427FF41EAE02269C420671FFF440
:1024E80015AE4FF45F7346E600240AB10679165517
:1024F800013400269C420671FFF423AE4FF4617349
:1025080039E68F7DB7420BD100269C42067103D372
:1025180040F28E332FE600240AB1067916550134AD
:10252800074F3E7801363E709FE70023CCF8003015
:102538001B78FFDE0023FBE7945B00208D5B002007
:10254800905B00208E5B002010B5044658B90868DF
:10255800037B202B09D100F10E010722183009F066
:1025680003FA204610BD0320FCE70620FAE7037AA9
:10257800012B08D9427B012A00F10C0306D9827B82
:1025880013445878704700235B78FFDE00231B78DC
:10259800FBE700002DE9F0430B7889B005460E46AD
:1025A8000E2B17D8DFE803F00A080A0A160CA21641
:1025B8001608160A0A0A0A00FFF7CEFB002427E0CD
:1025C8004A78D1094FEA521330D013F0030303D0ED
:1025D800012B21D006241BE002F01F02012AF9D1A9
:1025E800B478062CF6D105A80393FFF74FFB03AB8D
:1025F800F27831790093074603462846FEF7B2FC85
:10260800052805D0039A3946701CFFF7D5F804460B
:10261800204609B0BDE8F083B378212BDAD1B6F8AB
:102628000720072AD6D101681831EDE7012BD1D14F
:10263800B3780768202B36D0222BCBD1B6F80730D9
:10264800002BC7D197F82030B6F803403C8403F03C
:10265800010304F00104A342B0D0A4B2002C0CBFC3
:1026680003210221FFF774FB002CA7D12B7A012B41
:1026780040F2D7806B7B05F10C02002B00F0D38071
:10268800AB7BD05C03F04AF92846FFF770FF03F0F4
:1026980045F907F134037C62FC62C7E91E44C7E9C7
:1026A80020447B67B4E7B6F80730072B92D108A817
:1026B80000244FF4E462BA8100F8154D0E37CDE9D5
:1026C80005730794FDF740FF204605A9FEF706FEAF
:1026D800044630B9564B03A9CDE90335FFF75AF83C
:1026E80004469DF80B00FDF753FF91E7037A002B92
:1026F80000F09B80837A00F10901002B00F09380A1
:10270800C27AB3788A5C9A423FF458AF1B06F478D1
:102718000AD524B1032C0CBF0024032478E7012137
:102728002846FFF715FB73E7012C3FF447AF04D3A6
:10273800032C3FF443AF03246AE70668FFF717FF4B
:102748003C4BB76A059306F10C0380460693B7B96C
:10275800F36FF46AB767C6E91F736CB106F12C0111
:1027680003C906F1240383E80300F76205A940467C
:10277800FEF7C8FD044600E074620021D0E7D6F8F1
:102788008490706A4F4528BF4F4606F134043A4694
:10279800214609F0E9F8F36F3B44C6F88030A9EB0D
:1027A8000703B367F36A00223C44F2677467002B9F
:1027B80035D006F12C0999E8030006F1240787E8CB
:1027C80003001446F262B36F706A1BB9746A002C76
:1027D800CCD1D2E7B26A716F9A4216D809F0C4F820
:1027E800B36AB26FC6F88030D21AB267726F1A44F1
:1027F800726700212846FFF7ABFAF36A7BB199E8C4
:10280800030087E80300F462DDE71A4609F0ACF834
:10281800B26FB36AF2679B1AB362736A1344736246
:10282800D4E76378FFDE1B78FCE75B78FAE700BF44
:1028380051250F007B1D0F001FB503681B8CDC079B
:1028480014D5037A012B13D9437B00F10C0493B1FF
:10285800837BE05C9306CDE901120CBF01230023C2
:1028680001A90393FEF73AFD04B010BD0820FBE769
:1028780000235B78FFDE1B78FCE700002DE9FF41B1
:102888000468238CDB0780460F4616464BD504A800
:10289800002300F8093DFDF757FE656A002D3AD17F
:1028A800A16FB14214D33246616F384609F05CF823
:1028B800A36FC4F880609B1BA367636F334463678F
:1028C8009DF80700FDF764FE284604B0BDE8F081D6
:1028D800C4E909764046FFF74AFE144B029304F117
:1028E8000C030646039369B10A463846616F09F03E
:1028F8003BF8A36FA26AD21AA262626AC4E91E53A5
:102908001A44626202A93046FEF7FCFC002814BF94
:1029180005469225D4E7E36A1BB9C4E90B769225EC
:10292800CEE71125CCE70825CEE700BF7B1D0F00B9
:1029380070B5064E0546002456F824300BB12846DB
:1029480098470134042CF7D170BD00BFA45B002068
:102958000330F0B540F2FD3386B29E421DD8104DCB
:102968000024142707FB04F31FFA84FC585D78B988
:102978002B441A89B3F80AE07244324492B2B2F591
:10298800806F05D2A1F800C05A8932445A81F0BD3F
:102998000134042CE6D10720F9E70920F7E700BF46
:1029A800D85B00200B4A0C4B5188142000FB0131E6
:1029B800CB6833B904204968107001220748FDF735
:1029C80078BF05230649137002238B800122002358
:1029D8000968F3E7BC5B0020D85B0020B8570020EB
:1029E800385D002007B5002305490093054A0968AA
:1029F80005480823FDF756FF03B05DF804FB00BF48
:102A0800385D0020E4C30F00B857002007B5002345
:102A1800009301460823034A0348FDF743FF03B028
:102A28005DF804FBDCC30F00B857002013B5002382
:102A38000C46009301460423074A0848FDF732FF75
:102A480038B9074B142202FB04340123237402B063
:102A580010BD0E20FBE700BFD8C30F00B8570020F9
:102A6800D85B002037B50A480A4B42689C88196829
:102A780053880325033305709BB2002000909B0008
:102A880001EB84010448FDF70DFF03B030BD00BF22
:102A9800BC5B0020385D0020B857002010B5014607
:102AA8000448FDF7DEFD1C220446002108F085FFDE
:102AB800204610BD245D00204388033300EB8303C8
:102AC800994209D382884FF6FF739A4206D000884C
:102AD800B0FA80F040097047022070470120704723
:102AE8002DE9F8430223DFF860800B800D46174676
:102AF80000F5805600F108044FF00109B4420FD2E6
:102B0800236801330CD031462046FFF7D5FF48B182
:102B18000FB187F8009002280BD14FF480632B8007
:102B2800BDE8F883A368D8F80020934201D9C8F813
:102B380000302B886288033313442B806388033367
:102B480004EB8304DAE700BFD05B0020144A1423A7
:102B580003FB002070B50B6844680D4604F58056E9
:102B68009BB15C88033403EB8404B4420BD2236822
:102B7800013308D031462046FFF79EFF012809D0CF
:102B880005D30228F1D1002003E00834EDE72C60DA
:102B9800012070BD6388033304EB8304E5E700BFBD
:102BA800D85B0020436873B505460C4653B3234AE7
:102BB800D1688B4226D31269934223D813F00302BB
:102BC80020D11F490089098988421BD12868996842
:102BD800884217D11B48142505FB020196B24968A3
:102BE8008B420AD901F580518B4206D226800020FB
:102BF800B0FA80F0400902B070BD0132042AEBD16E
:102C08000A20F5E7002323801E462388032B01D9D9
:102C18000020F0E7019601A92088FFF797FF18B96F
:102C2800238801332380F0E7019B2A689968914241
:102C3800F1D16B60024B1B892B81DCE7B857002070
:102C4800BC5B0020D85B00202DE9F8431C461E4BD6
:102C58001B7806460F461546002B30D0002A30D088
:102C68007CB3DFF86C804FF01409A388032B01D9DB
:102C78000A201AE009FB03F318F80330BBB1A38854
:102C88000133A380F1E723681EB199883288914205
:102C98000DD11FB119883A88914208D19A68C5E9BF
:102CA80000230A4B1B892B810020BDE8F8832146AD
:102CB800A088FFF74BFF0028E5D12060DFE702205E
:102CC800F3E70520F1E700BFB45B0020BC5B002000
:102CD800D85B002008B5074B191D5888FFF736FF49
:102CE80018B1BDE80840FFF7BDBEBDE80840FFF7D2
:102CF80059BE00BFBC5B00202DE9F04F9F4FDFF8A5
:102D0800A09289B00646B8463B6823B949469C4814
:102D1800FDF7E1FC3860D8F8005029784B1E052BE8
:102D280000F20D81DFE813F0060072007200020164
:102D38000201590126B1934B00225A60012411E087
:102D48002B79032B0AD8DFE803F002263E4901233A
:102D58002B71FFF747FE002800F0E280894B002224
:102D68005A600E241422002103A808F026FE41F61A
:102D78001D539C4208BF0024D8F8003004941A78E8
:102D8800023A042A00F2E281DFE812F0C301CF011F
:102D9800F201FA0101027C4A0023142000FB03F12E
:102DA8008C5C022C06D15318002050545868FFF749
:102DB8002DFED0E70133042BF0D1724B01221A709B
:102DC80000225A6000E171497148002302222B71E8
:102DD8008A8001220968FDF76CFDBCE76B4C002670
:102DE8002E712068684DFFF711FE6A4BD4F800C0B9
:102DF8005A8814235343EA18EE5451682160A18875
:102E0800C2F804C011810222A280A4E7B5F814A078
:102E1800AA7DDFF874B1AEB1022AEB8806D9142175
:102E280001FB0AB1DA1C088902440A81142202FB58
:102E38000ABAC3F57F43BAF80A20FD331344AAF847
:102E48000A307BE7142303FB0AB318895C6804EB98
:102E58008004062A05D8DFE802F0264C34421C58C4
:102E680066000F24AA7DEB88022A06D9142101FBEB
:102E78000AB1DA1C088902440A81142202FB0ABA40
:102E8800C3F57F43BAF80A20FD331344AAF80A3081
:102E980068E74148414900234360AB690360FFF795
:102EA80081FE002859D00223AB7500230093042328
:102EB800EA1821463648FDF7F5FC002830D00E24E4
:102EC800D0E72B69002B0CBF01230323AB7500232C
:102ED800009305F10C02042304F10801EAE7012339
:102EE800AB750022EB8800929B002A6904F10C0163
:102EF800E0E7032914BF06230523AB7500230093DD
:102F0800042305F10802E118D4E70623AB75234B27
:102F18001988214B5868FFF789FD04460028A1D17C
:102F280009B0BDE8F08F41F61D549BE7002E7FF4F1
:102F380005AF2B79012B35D003D3022B44D00F24B6
:102F480010E702232B710DF10A01EB68039303A824
:102F5800CDE90466FFF726FE08B90A2402E70498BB
:102F6800BDF80A108388EB8003882B81FFF75EFD8C
:102F78000446002C7FF4F6AED2E700BFD45B0020F5
:102F8800245D0020B45B0020D85B0020385D002061
:102F9800B8570020BC5B0020985B0020445D0020EF
:102FA800CC5B0020DFF808A203AA53463146A81DCF
:102FB800FFF74AFE044650B9BAF804100498FFF720
:102FC80035FD04460A2CD4D141F61D54CAE6082220
:102FD8003146504608F0F1FCF4E7002E7FF4AEAE1F
:102FE8006D4B9A7B1C46AAB19E731A78013A062A41
:102FF800A5D801A151F822F0AB300F00D7300F004F
:10300800EB300F00F1300F00472F0F00F7300F00A3
:103018000D310F001A78072AE7D801A151F822F0DC
:1030280049300F00F32F0F00F32F0F0073300F00FC
:1030380087300F00A7300F00A7300F006F300F0048
:103048001A89564D01321A8100225A809A73142621
:1030580006FB02F1A018495D0132B1FA81F1490974
:10306800042A8172F4D1012207E04D4958688A8800
:103078004088033202448A8002221A70B5E7474C1E
:103088005A884749142505FB02420868546850606D
:103098008888108102228A800C600622EDE70722C8
:1030A800EBE700223F493D4D1446142611F8010F65
:1030B8001FFA82FC70B106FB02500C70D0F80CE0CD
:1030C800BEF1000F06D1007C20B1A3F802C0FFF7C3
:1030D80001FE4DE70132042AE8D100221A705A8015
:1030E8006FE6FFF7BFFC43E7FFF75CFC40E706220B
:1030F8001A702A4A5B88142101FB03235868FFF7DA
:1031080085FC35E707221A7000225A60FFF76AFC2F
:103118002EE701228DF80C201A89ADF818209A881C
:10312800DB68ADF81A20059310E002228DF80C2018
:103138001A89ADF818209A88ADF81A20DA689B7DAC
:1031480005929A1F534253418DF81C3003A8FFF78C
:10315800EFFB002649461448C8F80060FDF7E6FA78
:1031680001211248FDF733FB00287FF4CDADD7E6E7
:1031780003228DF80C20DA88ADF818201A89CFE7D9
:103188000422DB888DF80C20ADF81830DEE7052323
:103198008DF80C30DAE700BFBC5B0020D85B00205C
:1031A800385D0020C55B0020245D0020345D0020D0
:1031B800485D00204068FFF79FBD000008B5012169
:1031C8000448FDF7EEFA18B9BDE80840FFF794BDCA
:1031D80008BD00BF345D00202DE9F3419846354B0A
:1031E8001B7806460D46002B5BD000295BD009886A
:1031F8004FF6FF73994258D06B88002B55D06B68F7
:103208009B0754D14AB92F890DF102013846FFF7BF
:103218009FFB30B102B0BDE8F08113885788ADF844
:10322800023001A8FFF73AFC044658B9BDF802304D
:10323800214A142101FB032358890338C01B5881F4
:103248000820E7E700238375BDF8023083826B68A6
:10325800036180F8008001211848FDF7ADFA2B883A
:103268002381B8F1030F6B88A38004BF0423A375DF
:103278004FF0000508BF3368E06008BFA361E7802E
:10328800658101A90E48FDF716FA36B1E368336087
:103298000C4B75601B89B5723381FFF78FFF0020D7
:1032A800B8E70220B6E70520B4E70420B2E7032018
:1032B800B0E700BFB45B0020D85B0020D05B0020E3
:1032C800245D0020BC5B002008B5084B1A68042A5E
:1032D80009D01968064A42F8210001211846FDF76D
:1032E8006BFA002008BD0C20FCE700BF405D002001
:1032F800A45B00202DE9F04F89B01422002103A817
:1033080008F05BFB754A137803F0FF0100919046C3
:103318003BB103A8FFF70CFB0026304609B0BDE817
:10332800F08F101DFDF75EFA05460028F4D1DFF88E
:10333800D4A16B494FF46B234FF47022CAE90332CE
:1033480002465046FDF7AAFA06460028E5D11C2396
:10335800FC2264496448FDF74FF93746B1464FF0FF
:10336800050B3446CDF804A0019BD96809EB010090
:10337800024659F80110002835D05C4B994232D1E9
:1033880041685B4B994215D0013399422BD1009B80
:10339800DFF868A1002B59D100225649CAF800006D
:1033A800FFF79EFBBAF80420022A14BF0822042261
:1033B80017433AE050494FF0140C0CFB04FC01EBA6
:1033C8000C024FF0000E01F80CE050600CF11002F6
:1033D8000CF1080C0A446144FFF782FB47F002072E
:1033E8000134A4B221E000F5805C1168013167D195
:1033F80004329445F9D1414A116829B902210123BF
:103408001060918000930EE0142262433A4B4FF013
:10341800020E991803F802E0394A486054800134D2
:10342800A1F808E0A4B247F0010709F58059B9F5F9
:10343800A04F99D1BBF1010F88BF3D46EDB2022DD7
:1034480002D0062D12D0DDB90B2666E72A4B1422CE
:10345800624399184FF0020C03F802C00134DAF8FD
:1034680000204A60A1F808C0A4B295E7012388F8B3
:10347800003003A80023C8F80430FFF759FA4CE7D6
:1034880002A8FFF70BFBC8B10123013D03700A2D09
:1034980009D8DFE805F006080608070807080F112D
:1034A8000F000023037102A90F48FDF704F9FFF785
:1034B80085FE32E70323F5E70223F3E708262CE726
:1034C8000D491422624301EB020C0BF1FF33CCF8D7
:1034D800040003201FFA83FB885481E7B45B0020B3
:1034E800B4C20F00285C0020245D0020DEC0ADDEE1
:1034F800FE011EF13C5D0020D85B0020385D0020F5
:10350800BC5B0020B857002073B50D460446C8B10F
:10351800C1B10DF10601FFF745FBA8B10B4BBDF892
:1035280006006668142202FB003001210C30FDF70A
:1035380043F963682E600C336B600123A37200208B
:1035480002B070BD0520FBE70A20F9E7D85B002030
:1035580013B50446A8B10DF10601FFF723FB90B19E
:103568000B4ABDF80630142101FB0323DA6862B167
:10357800A27A52B1DA680020013ADA60A07202B089
:1035880010BD0520FBE70A20F9E70620F7E700BF92
:10359800D85B002002230022FFF71EBE18B10323C8
:1035A8000022FFF719BE0520704700000E4B1B785C
:1035B80007B5A3B101A8FFF771FA90B1062303700C
:1035C80001A90A48FDF777F8094B1A780AB10122D0
:1035D8009A73FFF7F3FD002003B05DF804FB0220A7
:1035E800FAE70820F8E700BFB45B0020245D00205C
:1035F800BC5B002007B5ADF8060002A820F8041D42
:1036080001460DF10600FFF71FFB03B05DF804FB50
:103618003D4B1B782DE9F74F0446002B70D005254C
:1036280000286FD012220021384E08F0C6F9384B16
:1036380025800027B1464FF014084FF0010A75891C
:10364800328971682A4492B251B10868984207D108
:10365800486800F16E6000F5FF300230012802D999
:1036680020880138208008FB0790B4F802C0C068A1
:103678006044608020890544608925811044608108
:10368800C2F58062A08992B2904238BFA28101F14E
:10369800080501F5805BAB4518D92968013115D0BB
:1036A800594628460193FFF707FA0128019B16D0CF
:1036B80022D30228EFD1E18884F810A00131E180FB
:1036C800ABEB0501E58905EBA105E5810137042F81
:1036D80006F11406B3D1002003B0BDE8F08FE188ED
:1036E8000131E180E189688803310144E181698819
:1036F800033105EB8105CEE7A1880131A180F6E70A
:103708000220E9E72846E7E7B45B0020D85B002001
:10371800DEC0ADDE0023C0E90232C0E900118B78BB
:103728001A44026191F903301A4442610878003062
:1037380018BF0120704738B5426811780346002940
:1037480038D002F10C014160147B2CB9C2680168C1
:10375800FFF7E0FF204638BD5078117900F03005BA
:10376800302D14D1547B04F03004302C0FD19078D4
:103778001969091A19610021907B084419690144E3
:10378800196192F90F20114459610120E3E700F013
:10379800F004202C08D1507910FB01F1002DEBD159
:1037A800986801309860E7E700F0C000802808BFFB
:1037B8000421F3E70846CEE770B5456804460E468F
:1037C80063681A78B24204D15B7803F00F03082BC0
:1037D80007D12046FFF7AFFF6368AB42F0D1002066
:1037E80070BD0120FCE743681A44426011B10139F9
:1037F8009A4201D10120704713F8010B01F8010F1B
:10380800F6E7836810B504460BB9002010BD0368BD
:10381800012298470028F8D0A368013BA360F5E788
:103828002DE9F3410F460DF107018046FFF7E9FF47
:10383800064620B90026304602B0BDE8F0819DF862
:103848000740220613D504F07F0407250DF1070170
:103858004046FFF7D6FF0028ECD09DF8072002F07D
:103868007F03AB401C43130605F1070501D43C60F8
:10387800E1E7232DEAD1DDE770B545686A7802F003
:103888000F06082E86B003461FD103691C68002660
:103898000CB906B070BD236862689D682673294616
:1038A8006846FFF737FF6368049304F10C03059338
:1038B8006B7803F0C003802B08BF231D684608BF40
:1038C8000493FFF7D9FFA468E2E712F0C0011CD106
:1038D80002F0300010280AD15A691170072EAC681E
:1038E800186909D10146204600F017F8D1E790067B
:1038F800F4D55B691970CCE72A79214614B108F030
:1039080033F8C6E708F059F8C3E78029C1D1006940
:10391800002192060160BCD5EBE77FB50A46014657
:103928006846FFF7F7FE30B16846FFF7A5FF68461F
:10393800FFF701FFF7E707B05DF804FB30B5044671
:1039480085B01546A9B90268114B9A4211D0102DBD
:1039580006D82A4669462046FFF7F0FF05B030BD75
:10396800102269462046FFF7E9FF0028F6D0103DEF
:10397800EDE7A368AB4201D20020EFE723682A46AF
:10398800204698470028F7D0A3685D1BA560E5E7A7
:10399800EF370F00F7B50E4601A907461546FFF7A2
:1039A8003FFFA8B1019A0123D3184FF0000404D2B5
:1039B800717801F0C001802901D1204608E03179F1
:1039C8009942FAD329463846FFF7B8FF019BEC54D1
:1039D80003B0F0BD73B50D4601A906461446FFF7BE
:1039E8001FFF88B1019AFF2A10D86B7803F0C00333
:1039F800802B0BD02979531C994207D32146304696
:103A080001F8012BFFF79AFF02B070BD0020FBE719
:103A180010B5034C82600022C0E90041C26010BDAD
:103A2800EF370F002DE9F04F824685B00D464FF075
:103A380000084FF0000900240DF10F015046FFF770
:103A4800E0FEF8B19DF80F1001F07F025FFA82FBEB
:103A58004FF0000CCDE900BC009AA4F1200CC4F191
:103A6800200322FA03F302FA0CF71F431346A3407C
:103A780048EA03080B0649EA070904F1070404D4D5
:103A8800C5E9008905B0BDE8F08F462CD4D10020E7
:103A9800F8E773B50D4669461446FFF7C3FF68B1EA
:103AA8002B79082B0CD1DDE90056C4E90056DDE975
:103AB8000023B34206BFAA420120002002B070BD15
:103AC800042B05D1DDE90001206005460026EEE75C
:103AD800022B03D10098208085B2F7E7012B05D18E
:103AE800DDE90001207000F0FF05EFE70020E5E7C1
:103AF80037B50D4669461446FFF794FF30B12A7969
:103B0800082ADDE9003103D1C4E9003103B030BD32
:103B1800042A18464FEAE37108D123601A460B4677
:103B28008B4206BF824201200020EFE7022A04D11F
:103B38001BB223801AB2D317F2E7012A03D15BB272
:103B480023705AB2F7E70020E0E7F7B50C460021EA
:103B580019702170116001A9074615461E46FFF726
:103B68005FFE30B9BB6813B901233370002003B07E
:103B7800F0BD01990029F7D0CB0801F007012B60AF
:103B88002170F4E713B5044605291FD8DFE801F0D2
:103B9800030F151E1E1C012201A92046FFF7CEFEA9
:103BA80018B19DF90430002BF5DB02B010BD0822D6
:103BB80000212046FFF7C2FEF7E701A9FFF730FE14
:103BC8000028F2D0019AF3E70422F1E70020ECE79D
:103BD80073B50D4601A90446FFF722FE064618B93B
:103BE8000026304602B070BD94E80F0085E80F004B
:103BF80001998A42F4D3A960A3685B1AA360F0E72D
:103C08002DE9F04155686B7813F0C00E88B0064670
:103C18008C46144604D0BEF1400F68D0002544E01D
:103C280003F00F025C4903F03003102B51F82270A7
:103C38001DD006D8002BF1D122692946B847054680
:103C480033E0202B17D0302BE8D16369297819701D
:103C5800072A0AD1636820691A79714607F0ADFE10
:103C6800636821699868FFF758FE22693CE0636938
:103C780001221A70E0E7BCF1020FD4F8148027D1B2
:103C8800042A25D804A9FFF7A3FF05460028C5D0B4
:103C9800069B2BB1616898F800304A799A4208D897
:103CA800059B7360069B002BB8D1284608B0BDE879
:103CB800F0810879226900FB032204A8B84728B1DB
:103CC80098F80030013388F80030E1E70546E7E767
:103CD80098F8003021692A7902FB03126979994220
:103CE8009CD9013388F8003061683046A6E7176927
:103CF8003B6807F1040813B9FFF744FF9FE702295F
:103D080013D104A9FFF764FF002887D03B686168D6
:103D1800424604A89847054600283FF47FAF069B13
:103D2800002BF3D1059B7360BFE701292BD009D382
:103D380005297FF473AF04220DEB0201FFF7FEFDA6
:103D4800042525E0002501AB591901350B2D3FF459
:103D580065AF01223046FFF7F1FD00283FF45EAF62
:103D680001AB2B4413F9013C002BECDB0B4B049308
:103D780001ABCDE905350023079342463B686168EE
:103D880004A898475BE7082201A9FFF7D7FD082593
:103D98000028EBD142E700BFECC30F00EF370F005C
:103DA8002DE9F04F91B00446002604A8CDE902663B
:103DB800FFF7B0FCA3683BBBDDE9053404A85D78D8
:103DC800FFF7B9FC0028F7D115F0300F03D1059B98
:103DD8001B7803B10134002C00F0A980630900228C
:103DE80002A9934240F09C8010AA02EB830304F0DE
:103DF8001F04C4F120044FF0FF3053F8383CE04072
:103E0800C31A584258410DE00DF1030301AA0DF100
:103E180002012046FFF799FE38B99DF80330002BC0
:103E2800CAD1002011B0BDE8F08F019904A8FFF7AE
:103E3800C3FC002850D1019BB3427FD3059D059A4E
:103E4800537803F00F03082B73D004A8FFF773FC13
:103E5800059B9D42F3D14FF0FF36019FB7426DD3CA
:103E6800089B9DF80290D4F808801D684FF0010A5D
:103E7800A368002D5FD098459CD12B68D3F800B07B
:103E8800BBF1000F08D04B463A4629462046D84792
:103E98000028C6D0AD68EBE7D3F808B09BF800302F
:103EA8009F42F7D16A6859460AA8FFF733FC6B6846
:103EB8000E9305F10C030F939BF8013003F0C00338
:103EC800802B04BF2B1D0E930AAA85F80CA0494627
:103ED8002046FFF795FEDBE7059B5B7813F0300F74
:103EE8000FD1069A3F2A0CD8510910AB03EB810178
:103EF80002F01F020123934051F8382C134341F874
:103F0800383CE5689DF802201DB104AB01992046B4
:103F1800A84704AA9DF802102046FFF771FE12E098
:103F280051F8225001357FF47DAF013259E7012065
:103F380078E7167891E798457FF43CAF9DF8021032
:103F48002046FFF71FFE00287FF434AF69E770B5FD
:103F58000C460646154611462046FFF7DEFC2A4663
:103F680021463046BDE87040FFF71ABFF0B585B06E
:103F78000C468D68694607461646FFF729FE68B164
:103F8800A06858B1637803F03003202B32462946E5
:103F9800684605D1FFF7DBFF019B7B6005B0F0BDEC
:103FA800FFF7FEFEF8E72DE977480E466946FFF76A
:103FB80039FD88B1DDE90023002502F001045FEA3C
:103FC800530C4FEA320B54EA050308D06FEA0B0290
:103FD8006FEA0C03C6E9002303B0BDE87088C6E9A0
:103FE80000BCF9E737B50D4669461446FFF7DBFF15
:103FF80068B12B79082B0CD1DDE90001C4E9000177
:10400800DDE900238B4206BF82420120002003B075
:1040180030BD042B03D100982060C117F0E7022BB4
:1040280004D1BDF90000208000B2F6E7012B04D1CD
:104038009DF90000207040B2EFE70020E7E713B5D4
:1040480004220C460DEB0201FFF778FC08B1019B36
:10405800236002B010BD1146FFF7F1BF13B5082267
:104068000C466946FFF76AFC18B1DDE90023C4E98C
:10407800002302B010BD1146FFF7F0BF38B520226B
:10408800044608300D4607F06FFC2022A91804F1F9
:10409800280007F069FC002038BD00002DE9F7432F
:1040A800184D9946184B036004460F4628460121CF
:1040B8009046FCF74BFB0646BFF35F8FE0B900F074
:1040C800D9F843460A9ACDF8009007F1080120462E
:1040D80005F034FE044600F0DBF8BFF35F8F2E6076
:1040E8006CB10A4A48F2425348F21650944208BF4B
:1040F800184603B0BDE8F08348F20450F9E72046BB
:10410800F7E700BF506D0020DD55AABB8408F0001A
:104118000C4B98420DD006D820B1013B98420BD0E9
:1041280048F216507047084B984208D00D33984211
:10413800F6D148F20350704748F20150704748F2F0
:10414800025070470102F0000202F00008B5083082
:1041580005F05EFEBDE80840FFF7DABF13681F2BC5
:104168002DE9F0410746884614461DD9114D012115
:104178002846FCF7EBFA0646BFF35F8FB8B900F0A4
:1041880079F8414607F1080005F0B4FE074600F04B
:104198007FF8BFF35F8F38462E60FFF7B9FF08B985
:1041A80020232360BDE8F08148F21450FAE748F272
:1041B8000450F7E7506D00202DE9F04107460E4600
:1041C800194801211446FCF7C1FABFF35F8F30BBD1
:1041D80000F050F8DFF854800837B4F5805F2546C2
:1041E80028BF4FF480552A463146404607F0BCFBAD
:1041F8002A464146384605F025FE641B2E440546EE
:1042080008B9002CE9D100F043F8BFF35F8F064BE3
:1042180000222846BDE8F0411A60FFF779BF48F24E
:104228000450BDE8F08100BF506D0020505D0020B3
:10423800024B0020C3F80005704700BF00A00250E1
:1042480038B50A4B00251D60BFF35F8F084C01236A
:10425800C4F8003505F07EFEC4F8005520B10528E5
:1042680048F2035018BF032038BD00BF506D00202E
:1042780000A00250044B0122C3F80025034B4FF461
:1042880080625A60704700BF00A0025000E100E061
:10429800044B0022C3F80025034B4FF48062C3F897
:1042A8008420704700A0025000E100E010DF704752
:1042B80011DF704713B5044609496846FCF72CFD21
:1042C800019808B902B010BDD0E9003120469847DE
:1042D80018B16846FCF72AFDF2E71120F2E700BFA3
:1042E80038C40F0013B5044607496846FCF714FDA7
:1042F800019B0BB902B010BD2046D3E900219047BD
:104308006846FCF713FDF3E750C40F00064B9A68A4
:1043180022B11A6822F480021A607047034B4FF4E6
:104328008002C3F8802070474858002000E100E070
:104338000B4991F816335A09EC231341DB0706D5CC
:10434800084B9A683AB94FF480030B60704742F201
:10435800020003F04EB81A6842F480021A607047EF
:1043680000E100E048580020F7B5184F3C785CBBE6
:10437800174E012520463570FFF79CFF112820D0E5
:104388002046FFF7AFFF134B1868019002A800F80A
:10439800054DFCF7D9F8104901A8FFF787FF044637
:1043A800B0FA80F0400938709DF80300FCF7F0F887
:1043B8003CB90A4B34701C70FFF7BAFF2846FFF768
:1043C80091FF204603B0F0BD0824FAE7556D0020A0
:1043D800546D002034C40F00F5730F00566D002093
:1043E800F7B5154F3B7813B3144E01203070FFF723
:1043F80061FF11284FF000051BD00220FFF772FF64
:1044080002A800F8015DFCF79FF8FFF751FF04468A
:104418009DF807003D70FCF7BBF82CB93470FFF726
:1044280075FF0320FFF75EFF204603B0F0BD0824A8
:10443800FAE72C46F8E700BF556D0020546D0020C0
:10444800054B1B7833B1054B1B780BB1FFF7C8BF81
:10445800FFF78ABF08207047546D0020556D002073
:10446800014B1878704700BF556D002007B5084903
:104478006846FCF751FC019B13B903B05DF804FBD7
:10448800D3E9002090476846FCF750FCF3E700BFEB
:1044980044C40F00FFF7EABF60DF704769DF704769
:1044A80061DF704730B5114DADF5017D4FF4FA74F9
:1044B8000DF1020103A8ADF80240FFF7F1FF70B952
:1044C800294601A8FCF728FC029B002BF0D003A882
:1044D800D3E90021904701A8FCF728FCF4E7052858
:1044E80001D002F086FF0DF5017D30BD5CC40F00E0
:1044F800024B1B780BB1FFF7D5BF7047576D0020F3
:1045080018B1034B0360002070470E20704700BFAE
:10451800B8570020F0B5074685B00D4600295FD092
:10452800304B0B600C22002101A807F046FA012647
:1045380006232A68ADF8083001A920208DF80470F8
:104548008DF80660FFF7AAFF0C22002101A807F0EA
:1045580034FA00242A688DF8056001A940208DF8F6
:1045680006408DF80740FFF799FF0C22214601A865
:1045780007F023FAF7232A68ADF8063001A92320AB
:104588008DF80470FFF78AFF0C22214601A807F076
:1045980014FA2A688DF8046001A93046FFF77EFFF7
:1045A8000C22214601A807F008FA4FF4B0632A68E4
:1045B800019301A9A120FFF771FF0C22214601A850
:1045C80007F0FBF99DF804302A6864F3000301A999
:1045D800A0208DF80430FFF761FF204605B0F0BD3C
:1045E8000E20FBE7B857002008B5FFF755FF10B9B4
:1045F800014B01221A7008BD576D00204BDF704730
:104608001FB50D4C01A8FFF7F9FF70B9214602A8A4
:10461800FCF782FB039B002BF4D00198D3E900211F
:10462800904702A8FCF782FBF4E7052801D002F0C6
:10463800E0FE04B010BD00BF68C40F00024AD2F803
:104648000034002BFBD0704700E001400A4908B550
:104658000223C1F80435BFF36F8FBFF34F8FC1F842
:104668000805FFF7EBFF0023C1F80435BFF36F8F90
:10467800BFF34F8F08BD00BF00E001400E4B10B5DF
:104688000124C3F80445BFF36F8FBFF34F8F01EBCD
:104698008204401AA14208D1074B0022C3F804251E
:1046A800BFF36F8FBFF34F8F10BD431851F8042B22
:1046B8001A60FFF7C3FFEDE700E0014042DF7047F3
:1046C80043DF704738B5084C04F108030546002855
:1046D80018BF1C4623682BB11A6822605B682846FD
:1046E8009847F7E738BD00BF606D002020B9054B3B
:1046F80001225A70FFF7E6BF012802D1014A9070E3
:10470800F8E77047586D002020B9034B01225A7012
:10471800FFF7D8BF704700BF586D002038B50B4C65
:10472800237883B90A486360A3602361E36001F0DA
:1047380049FB0546FFF794FE08B901F051FB012338
:104748002370284638BD8525FBE700BF586D00203B
:10475800F5460F0037B5184CA378054603F0FF025D
:104768009BB110B143680120984700230DF1070061
:104778008DF80730FBF7E8FEE3689DF80700013382
:10478800E360FBF705FF03B030BD0DF107008DF8BE
:104798000720FBF7D9FE25B1226913463BB92A60E9
:1047A8002561E368002BE7D101F032FBE4E79D4285
:1047B800F7D01B68F2E700BF586D002037B502A894
:1047C8000023094C00F8013DFBF7BEFEE368013BFE
:1047D800E360E56815B901F029FBA5709DF80700AD
:1047E800FBF7D6FE03B030BD586D0020012813B585
:1047F80009D003D303281BD002B010BD0F4B0122F0
:10480800C3F88020F8E702A800230D4C00F8013D0A
:10481800FBF79AFE23780BB9FFF780FFE3689DF852
:1048280007000133E3600123A370FBF7B1FEE3E760
:1048380001F0D6FAFFF7C2FFDEE700BF00E100E0B3
:10484800586D002037B51B4C6378054603F0FF020E
:104858009BB110B143680020984700230DF1070071
:104868008DF80730FBF770FE63689DF80700013389
:104878006360FBF78DFE03B030BD0DF107008DF8C6
:104888000720FBF761FE25B1A268134653B92A60D9
:10489800A5606368002BE7D1FFF7E2FD30B1FFF7B1
:1048A8000DFFE1E79D42F4D01B68EFE701F0CAFA7B
:1048B800DAE700BF586D002073B502A800230D4C3D
:1048C80000F8013DFBF740FE6368013B63606668E2
:1048D80036B9FFF7C5FD054640B1FFF7F1FE667032
:1048E8009DF80700FBF754FE02B070BD01F0B6FA60
:1048F8006570F5E7586D002036DF70474DDF70476B
:104908004EDF70474FDF704750DF704708B50346EA
:10491800FFF7F6FF40B91846FFF7F0FF20B9184631
:10492800BDE80840FFF7EEBF08BD012810B50446F2
:1049380002D101F0DDFA804701F0E0FA034668B1E0
:104948000A2C07D00B2C07D0092C07D10220BDE870
:10495800104018470020FAE70120F8E710BD0000D2
:10496800012813B5044603D0032819D002B010BD9E
:1049780002A8002300F8013DFBF7E6FD01F0B8FAB4
:1049880010B12046FFF7B8FF9DF80700FBF700FEBF
:1049980001F0B4FA0028E9D00120FFF7B7FFE5E7F6
:1049A8000D4BC02283F800230122C3F880211A602E
:1049B80001F09EFA20B14FF080430422C3F804238B
:1049C80001F09CFA0028D1D04FF080434FF4607278
:1049D800C3F80423CAE700BF00E100E038B50A4C79
:1049E8002378054663B9FFF73BFD58B90748002D02
:1049F80018BF284601F088FA08B90123237038BD8A
:104A08008520FCE70820FAE76C6D002074C40F00CD
:104A180013B502A8002400F8014DFBF795FDFFF738
:104A28001FFD50B12046FFF771FF9DF80700FBF707
:104A3800AFFD01F0A5FA02B010BD01F09AFAF4E753
:104A480013B50446FFF7E4FF204601F081FAFFF7AB
:104A580007FD0446A0B10120FFF758FF044660B9DE
:104A680001A8FFF751FF044638B9019BDB0704D5BD
:104A780001F044FA034620469847204602B010BD8C
:104A880001F070FAF9E700F1804000F51C300123CD
:104A98000360BFF36F8FBFF34F8F7047064A10F064
:104AA800800F00F00F0314BFD2F81005D2F81405D8
:104AB800D84000F00100704700700240054B1B68A9
:104AC800082B01BF044B1868B0FA80F0400918BFE2
:104AD800002070473001001034010010084B1B689B
:104AE800082B08D1074B1868431E012B05D9C31E94
:104AF800584258417047002070470120704700BF56
:104B0800300100103401001030B54C680D689C422B
:104B180029BFC0E900530021E41AED1832BFC0E9EB
:104B280000514C600D60934203D1201C18BF012036
:104B380030BD0020FCE74B6810B59A420C6828BFCE
:104B48001A46C0E90042981A0B68486013440030BE
:104B58000B6018BF012010BD30B54C680B68A2422D
:104B680028BF2246002A14BF1D460025A4EB0204D4
:104B78001344C0E900524C600B6014BF01200020B0
:104B880030BD0000054B10F0800FA3F1900208BF64
:104B9800134600F00F0003EB00107047E06E002092
:104BA80010F0800F14BF0023102300F00F001844EA
:104BB80070470000024A00231360024A13707047CE
:104BC8001C7C02406E6D002007B5084A0023137054
:104BD800074A019302A81370012300F8043D054B0E
:104BE8001B68984703B05DF804FB00BF6D6D00209B
:104BF800746F0020706F002070470000F8B54D6892
:104C08000B4F954228BF15460C4606462A460968AA
:104C1800384606F0A9FE60682368401BC6E900759F
:104C280060601D440030256018BF0120F8BD00BF3A
:104C38007C6F0020F8B54C68944228BF144606469D
:104C48000D468CB1094F09682246384606F08CFE9D
:104C580037606B6874601B1B6B602B68201C2344D7
:104C68002B6018BF0120F8BD0460F2E77C6F0020BC
:104C780007B500238DF804300B4BD3F82025ADF889
:104C88000620D3F8C034094A002B13680CBF4FF430
:104C980080714FF001210B431360054B01A81B687D
:104CA800984703B05DF804FB007002404C6E00208A
:104CB800706F002013B5124C0122236802FA01F12B
:104CC8000B4323600F4B1B68194003060DD551B9E0
:104CD80006238DF804308DF806008DF807100A4B6E
:104CE80001A81B68984702B010BD0029FBD1062314
:104CF8008DF804308DF806008DF80720EFE700BF27
:104D08004C6E0020DC6D0020706F002008B5054B4C
:104D18001A781046FFF744FFBDE8084001461046E0
:104D2800FFF7C8BF746F002008B50146FFF742FFC0
:104D3800FFF728FF837B032B0AD10846FFF730FFD4
:104D480001218140C9430448BDE80840FBF71EBD66
:104D58000368002BF1D008BDDC6D00208720FFF729
:104D6800E3BF8620FFF7E0BF8520FFF7DDBF842083
:104D7800FFF7DABF8320FFF7D7BF8220FFF7D4BF42
:104D88008120FFF7D1BF000008B5FFF713FF084BDC
:104D980093F89E20032A06D16FF001010548BDE86B
:104DA8000840FBF7F3BCD3F89030002BF4D008BDD3
:104DB800506E0020DC6D002013B5FFF7FBFE114B91
:104DC80093F81E21032A06D16FF480710E48FBF771
:104DD800DDFC02B010BDD3F81041002CF9D16FF4FE
:104DE80080710948FBF7D2FC06238DF8043088232C
:104DF8008DF80630054B8DF807401B6801A89847C9
:104E0800E7E700BF506E0020DC6D0020706F0020C7
:104E180013B5FFF7CFFE0D4B93F88E20032A13D05E
:104E2800D3F8804084B96FF080710948FBF7AEFC75
:104E380006238DF8043008238DF80630054B8DF8CD
:104E480007401B6801A8984702B010BD506E0020AB
:104E5800DC6D0020706F0020204B13B5D3F80044A0
:104E6800C3F80044BFF36F8FBFF34F8FBFF36F8F4B
:104E7800BFF34F8FE1050BD5194B01221A7002A819
:104E880000230193022300F8043D164B1B68984742
:104E9800A2050AD5124A002302A80193137003231E
:104EA80000F8043D0F4B1B689847630513D50C4B5E
:104EB8001A7882B100221A70084B0121C3F808152C
:104EC8005820FFF7E0FD02A80423019200F8043DF2
:104ED800044B1B68984702B010BD00BF0070024029
:104EE8006D6D0020706F00202DE9F04F744B87B076
:104EF8001A780193002A40F08680DFF8CCB1714B14
:104F08001968714B1C6821407DD011F001247DD0B7
:104F180094FAA4F4B4FA84F40F2C86BFA4F1100810
:104F28005FFA88F844F080084046FFF72BFE4FFAF6
:104F380088FABAF1000F064608F00F0582896ADA86
:104F4800D0E9003104A8984700B930605F4B82224D
:104F58001A60019B059A049801211970A140B36851
:104F6800DBF80040134424EA0101BAF1000FB360F2
:104F7800CBF80010564B7CDA072D9BBF142101FBA0
:104F88000533C3F8A006C3F800068CBFC3F8A426EF
:104F9800C3F80426FFF792FDAB002DB26C004D4A12
:104FA8004D49002876D0BAF1000FB4BF92468A4620
:104FB800A2444A4C4A4E4B4FB4BF042528251D44F1
:104FC80044F001044FF00008C6F80080BFF36F8F6B
:104FD800BFF34F8F2846FFF756FD8020A047336860
:104FE800002BF1D04FF4F060A0473B689B064FD5EB
:104FF8004020A047BAF8003003F1804303F51C3382
:105008001B68002BDED007B0BDE8F08F91FAA1F144
:10501800B1FA81F480E7072D2D4B25D9D3F8C09438
:1050280019F4803F18BF4FF000094B467168376884
:1050380004A8B847049B002B86D0059B4B4583D218
:1050480001210225A140B573C9431E48FBF79EFB09
:1050580006238DF80C30244B8DF80E808DF80F50F8
:105068001B6803A898474AE705F5947153F82190FF
:10507800DBE7072D9BBF142101FB0533C3F8A0070D
:10508800C3F800078CBFC3F8A427C3F8042781E737
:105098008020A9E7BAF1000FACBF282004201844EB
:1050A800FFF7F1FC12EA2A0A38BF8A463AF81530A7
:1050B80003F1804303F51C331A68002AFCD0A2E7E9
:1050C8006E6D0020DC6D00204C6E00201C7C0240C0
:1050D8000070024090C40F00ACC40F0080C40F00E1
:1050E8000471024074740240706F002038B5174B89
:1050F800D3F86C44C3F86C44BFF36F8FBFF34F8F82
:10510800FFF7DCFC38B1124A136823F0011103F0F1
:1051180001130C43136001251CB9BDE83840FFF7A3
:10512800E3BE94FAA4F3B3FA83F30F2BD9B2C8BF42
:10513800A1F1100005FA03F3CCBFC0B241F0800022
:1051480024EA0304FFF7B6FDE6E700BF007002405B
:10515800786F002037B50446FFF72CFDFFF712FDE6
:10516800837B032B0CD12046FFF71AFD01218140D8
:10517800C9430F48FBF70AFBFFF7B6FE03B030BD83
:105188000568002DF8D12046FFF70AFD012181406E
:10519800C9430748FBF7FAFA06238DF80430054B94
:1051A8008DF806408DF807501B6801A89847E3E77B
:1051B800DC6D0020706F00200720FFF7CBBF0620B2
:1051C800FFF7C8BF0520FFF7C5BF0420FFF7C2BF20
:1051D8000320FFF7BFBF0220FFF7BCBF0120FFF786
:1051E800B9BF0000054B1A78012A01BF044A002004
:1051F8001060187018BF0820704700BF6F6D00203E
:10520800706F0020424B4FF4006273B5C3F800245E
:10521800BFF36F8FBFF34F8FFFF760FC3D4CA0B11A
:1052280000230DF107008DF80730FBF78DF9216891
:10523800394B0322002965D149F2753121601A6082
:1052480021609DF80700FBF7A3F900230DF1070083
:105258008DF80730FBF778F92268304DC023002A13
:1052680052D149F2753222602B6022609DF8070006
:10527800FBF78EF9264B0122C3F80025BFF36F8F89
:10528800BFF34F8FD3F800241205FBD54FF400620B
:10529800C3F80024BFF36F8FBFF34F8F00260DF1C3
:1052A80007008DF80760FBF74FF9226872BB49F2D7
:1052B800753323602A6023609DF80700FBF768F9BF
:1052C800174B40F2E3721A60043340221A60BFF3AE
:1052D8006F8FBFF34F8FA3F6040300218022C3F81A
:1052E8001C25C3F830150F4B40F2FF121A600E4B05
:1052F8001960FFF75FFC0D4B19700D4B02221A70F5
:1053080002B070BD1A609CE72B60AFE72E60D3E750
:105318000070024000EC064014ED064014EC064014
:10532800007802404C6E0020DC6D0020746F002075
:105338006F6D002008B5104B00221A70D0B9FFF726
:10534800BDFB0E4B0E4A002814BF184610460D4BE5
:105358000D4AC021C2F8040383F827138021C3F83B
:10536800841159600123C2F80435BFF36F8FBFF36E
:105378004F8F08BD0148EAE76D6D00200714E00172
:105388000714C00100E100E000700240024B1878E9
:10539800003018BF012070476F6D0020034B18784C
:1053A800012894BF00200120704700BF6F6D0020C6
:1053B80037B502A8002500F8015DFBF7C5F8114BC9
:1053C8001B7803F0FF0493B10F4AD2F82C35BBB118
:1053D8000E4BC2F82C55186802F58F2202F21442BF
:1053E800C02158B949F275301860116018609DF8ED
:1053F8000700FBF7CDF8204603B030BD1160F6E793
:105408001C46F4E76D6D00200070024000EC064079
:10541800024B034AC3F80823704700BF00700240DC
:1054280004148001024B034AC3F80423704700BFE9
:105438000070024004148001014B00221A7070476A
:105448006D6D002008B5FFF79DFB818108BD000048
:1054580070B5002833D01C4B1C7894BB1B4A1060D5
:1054680001221A70264664F07F05082CEDB20CBFA5
:105478004FF4007140212846FFF7E4FF2846FFF764
:1054880081FB0134092C867306608660EBD1002409
:10549800402125462046FFF7D5FF2046FFF772FB3F
:1054A8000134E4B2092C85730560856001D10020C0
:1054B80070BD082C0CBF4FF400714021EAE70720AB
:1054C800F6E70820F4E700BF6F6D0020706F00203A
:1054D80008B5FFF757FB808908BDFFF7DFBA000062
:1054E8002DE9F3410C460746FFF75AFB064602A88A
:1054F800002300F8013DFBF727F817F00F0103D14F
:10550800284B1B78BB4249D1274A284B12681D6893
:10551800D243012092B200FA06F62A433242984654
:105528003ED13846FFF72EFB0C233A06844603FB90
:1055380001F32FD51E4A2168134401F06041A26887
:10554800B1F1005F02F001021FD1E2B9194ACCF8AB
:10555800002094E8070083E80700CCF80430164BD5
:10556800002435438022CCF808408CF80E40C8F857
:105578000050C3F804219DF80700FBF709F82046FE
:1055880002B0BDE8F0810D4AE1E70AB90C4ADEE74E
:105598000C4ADCE70C4A13440C4AD8E71024EAE723
:1055A8001124E8E7746F00204C6E0020DC6D0020A9
:1055B800E06D00203F4B0F0000E100E0614B0F0061
:1055C800054C0F003D4C0F00706D0020114B0F0073
:1055D8002DE9F34207468946FFF7E2FA044602A896
:1055E800002300F8013DFAF7AFFF3B0703D1164B44
:1055F8001B78BB4224D1154B15491B680E68DB4349
:1056080001259BB2A540334313EA05041AD1384655
:10561800FFF7B8FAD9F800300360D9F804304360CE
:105628000C4B84603543802284730D60C3F80421D9
:105638009DF80700FAF7ACFF204602B0BDE8F082FB
:105648001024F5E71124F3E7746F00204C6E002056
:10565800DC6D002000E100E0004870477C6F00200E
:10566800044B40F48070C3F81805BFF36F8FBFF385
:105678004F8F70470070024000F00F03072B11D8BE
:1056880010F0800F084A0BBF03F5887303F5847385
:1056980002EB830352F8230008BF5868431E5842A0
:1056A800584170470020704700700240064BC3F80D
:1056B8000C05BFF34F8F40F48070C3F80C05BFF39F
:1056C8006F8FBFF34F8F70470070024010B50822EC
:1056D8000021044606F071F90E4BD3F8802422709D
:1056E800D3F884246270D3F88824D3F88C1442EA5F
:1056F80001226280D3F89024D3F8941442EA01225C
:10570800A280D3F89824D3F89C3442EA0323E38098
:1057180010BD00BF0070024008B5FFF7CFF958B1BF
:10572800EFF3108272B64C20FFF7ADF94C20FFF76B
:10573800AAF982F3108808BD4C20BDE80840FFF79D
:10574800A2B9000013B5FFF735FA104B9A7B032A6C
:1057580006D16FF480310E48FBF718F802B010BD7F
:105768001C6884B96FF480310948FBF70FF80623E9
:105778008DF80430074B8DF806408DF807401B68FC
:1057880001A89847EAE7FFF7C7FFE7E7506E002050
:10579800DC6D0020706F00205020FFF774B9542092
:1057A800FFF771B9014B1878704700BF746F00207C
:1057B800F7B50446FFF782F907462046FFF7F0F9E8
:1057C80001258540ED4304F00F04184EC7B10027AA
:1057D8000DF107008DF80770FAF7B6FE3068144B24
:1057E8006400284004F2C5743060043343F8044C64
:1057F8001F601B689DF80700FAF7CAFE03B0F0BDEA
:105808000DF107008DF80770FAF79EFE3068072C37
:1058180000EA05003060EDD804F59474054B43F8B0
:105828002470BFF36F8FBFF34F8FE3E74C6E0020F8
:105838000078024000700240F7B5044602A8002331
:1058480000F8053DFAF780FE2046FFF79BF905466C
:105858002046FFF7A5F9012314F0800F03FA00F0A2
:10586800294917D10B6830EA03020AD02046FFF70E
:105878009FFF0323AB739DF80300FAF789FE03B07B
:10588800F0BD2A60C043214A03400B6013680340FF
:105898001360EEE704F00F02072A0FD8802C1C4E85
:1058A8001C4B27D002F2DA32520032601A681E68A6
:1058B800D2B242F0020232431A601B68134E0A68E1
:1058C800336862EA03070742D5D022EA0002184388
:1058D80000230A602B600323AB738DF807300E4B4F
:1058E800306006228DF804208DF806401B6801A858
:1058F8009847C0E740F2B47232601A681E68D2B2A4
:1059080042F00402D7E700BFDC6D00204C6E002097
:105918000078024004780240706F0020FFF78CBFC7
:10592800F7B5174B174CD3F880542368164EDA4353
:10593800164B37781B6892B238461A43FFF730F98E
:10594800012303FA00F0104202D03846FFF774FF33
:105958006FF0011105F080050C483570FAF716FF55
:10596800236843F00103236002A800230193052361
:1059780000F8043D064B1B68984703B0F0BD00BF14
:10598800007002404C6E0020746F0020DC6D002017
:10599800706F0020554B2DE9F041D3F804530022D5
:1059A80029461646012400297CD1FFF787F80028EC
:1059B80069D04F4B1B78002B65D1960263D54D49B2
:1059C8004C4E40F2A9730B604B4B1C6814F0FF045B
:1059D8001CBF1868044040F2AA700860186810F0EC
:1059E800FF001CBF1968084040F2AB7131601968AC
:1059F80011F0FF01B4461CBF1E68314040F2AC767E
:105A0800CCF800601E6834403C4E08D03768274305
:105A1800376040F2A977CCF800701C601C68354FDD
:105A280040F2AD743C601C68204008D0346844EAF9
:105A38000044346040F2AA743C60186018682D482D
:105A480040F2AE740460186801400DD0CC0748BF1E
:105A580042F40002C806274840F2AB74046019609B
:105A68001B6848BF42F00102336833F001111CBFC4
:105A780005F08070024313F0011F04D06B0544BF8A
:105A8800316042F480621E4F02F4000622F40004E2
:105A98004FF00108E4B9FFF727FA2EB3BDE8F0414B
:105AA800FFF73EBF91FAA1F31648B3FA83F39F00BC
:105AB800384407683FB10660BFF36F8FBFF34F8F5D
:105AC80004FA03F0024304FA03F321EA03016AE744
